:10000000C8EF17F00000000000EF00F00000000053
:0A0010000000000000000000F3D71C
:0C001C00100E0D6E0D2EFED7000012001D
:0C002800000000000000000000001200BA
:0A003400F3DF8188F1DF81981200EC
:08003E000AAE029E000E120042
:100046000B840BAE2EEF00F0010E036E026A016AFE
:0A005600006A0A360232FF0E1200A3
:10006000F250026EF29E0500FF6A0150FE6E0050D3
:08007000FD6E02BEF28E1200CB
:100078000B820BAE46EF00F0036802680168006867
:080088000A360232FF0E1200DD
:100090007F0E02014815016E01C048F201AC03D089
:0C00A0008182819002D081928180120048
:1000AC0081948196B80E02014811836EBDDF120057
:1000BC007F0E02014815006E00C048F281948196B3
:1000CC00BF0E001600C048F2008C00C048F200C001
:0600DC0083FFAADF120001
:1000E200120E006E000E016E830E0024E16E0F0EE2
:1000F2000120E26EFF0EE66E96DF95DF8184819825
:10010200818681888ADF83CF48F2819881968BDF4E
:100112008ADF120E006E000E016E830E0024E16E65
:0E0122000F0E0120E26EE66A48C200F01200E5
:0E013000026A016A006A086A036A000E120081
:0E013E0081988184819648C283FF75DF12008C
:10014C00A70E0201466F010E476F000E006E3F5165
:10015C00005C02E13E51000843E29AC1E1FF9BC101
:10016C00E2FF3AC2E6FF3BC2E6FF3CC2E6FF3DC2FD
:10017C00E6FF3EC2E6FF3FC2E6FF420EE66E020E0F
:10018C00E66E98C100F099C101F064DF00C044F242
:10019C0001C045F20201406B416B4351415D02E1EC
:1001AC004251405D11E244C2E9FF45C2EAFF46C23A
:1001BC00E1FF47C2E2FFEECFE6FF464B472B444B35
:1001CC00452B404B412BE9D742513E5F43513F5B9E
:1001DC0042513A2743513B23000E3C233D23B5D7D4
:0201EC001200FF
:1001EE00000E02013A5D0AE33A517F0807E3000E62
:1001FE003B5D04E33B513F0801E301D04AD03AC2D4
:10020E0048F23FDF3BC248F24833489F4833489F8D
:10021E004833489F44DF3AC248F249DF5BDF00C0F3
:10022E003FF258DF00C03FF23BC248F24833489FCE
:10023E004833489F4833489F32DF3AC248F237DF8F
:10024E00070E3B15006E00C03DF200C001F0010E1E
:10025E00006E015004E000360090FF0FFBD700C087
:10026E003DF2001C3E6F09D03E513F170FD03D515D
:10027E003F130CD03D513F1B09D03C51000AF4E016
:10028E003C51010AF4E03C51020AF4E03FC248F24C
:04029E004FDF12001C
:1002A2000B6A0A6A096A00500402F4CF09F0F3CF1C
:1002B20008F001500502F4CF0BF0F3CF0AF0005022
:1002C2000502F3500926F4500A22E86A0B22015073
:1002D2000402F3500926F4500A22E86A0B2208C0ED
:1002E20000F009C001F00AC002F00BC003F01200D6
:1002F2000B800BAE85EF01F0026A0AAEFF0E026EB2
:0C030200016E006E0A360232FF0E12007F
:10030E000C6A0E6A0250D8A4A0EF01F001C002F0F0
:10031E0000C001F0006A0E860250D8A4A0EF01F0D2
:10032E0001C002F0016A0E960E880250D8B4B2EFE8
:10033E0001F00E50035ED8A4D8A0B7EF01F0D8900C
:10034E0002BEBCEF01F0003601360236032EA7EFD7
:10035E0001F0B7EF01F0010E0C6EE3DEBFEF01F01E
:10036E00020E0C6E69DEBFEF01F0040E0C6E60DE45
:02037E0012006B
:0C038000240E0D6E0D2EFED700001200A2
:10038C000CB008EF02F00CA2AEEF02F00E6A000EF9
:10039C0002641FEF02F0F00E0214D8A4EAEF01F091
:1003AC00023A01380F0B02260138F00B016E0038AF
:1003BC000F0B01260038F00B006E08380F0B0026CF
:1003CC000838F00B086E0E84D89002BE03EF02F0D2
:1003DC0008360036013602360E2A02BE03EF02F052
:1003EC0008360036013602360E2A02BE03EF02F042
:1003FC0008360036013602360E2A0E500364A4EF7E
:10040C0002F0035E0BBC08AEA9EF02F0D880800EA0
:10041C0008640030000E002201220222D8A0A9EFAD
:10042C0002F0023201320032034AAEEF02F0A9EFC1
:10043C0002F001C002F000C001F008C000F0086A30
:10044C00000E0E86026456EF02F0F00E0214D8A4D1
:10045C003EEF02F0023A01380F0B02260138F00B86
:10046C00016E00380F0B01260038F00B006E0E8465
:10047C00D89002BE03EF02F00036013602360E2A87
:10048C0002BE03EF02F00036013602360E2A02BE1F
:10049C0003EF02F00036013602360E2A03EF02F0AB
:1004AC0001C002F000C001F0006A000E0E960E882A
:1004BC00026483EF02F0F00E0214D8A46EEF02F087
:1004CC00023A01380F0B02260138F00B016E0E8434
:1004DC00D89002BE03EF02F0013602360E2A02BE9D
:1004EC0003EF02F0013602360E2A02BE03EF02F0D1
:1004FC00013602360E2A03EF02F001C002F0016A47
:10050C00000E0E860264B3EF02F0F00E0214D8A4B3
:10051C0092EF02F0023A0E84D89002BE03EF02F082
:10052C0002360E2A02BE03EF02F002360E2A02BE7B
:10053C0003EF02F002360E2A03EF02F0010E0C6EEE
:10054C007CDDB6EF02F0020E0C6E73DDB6EF02F03E
:10055C00040E0C6E8BDDB6EF02F0080E0C6EE2DDB5
:02056C0012007B
:10056E003AC2C0F13BC2C1F13CC2C2F1020E02015D
:10057E003A25F66E000E3B21F76E000E3C21F86E0A
:10058E000900F5CF04F0030E3A25F66E000E3B215E
:10059E00F76E000E3C21F86E0900F5CF03F003C094
:1005AE0001F0006A045000240101C36F000E012007
:1005BE00C46F040E02013A25F66E000E3B21F76E53
:1005CE00000E3C21F86E0900F5CF04F0050E3A2519
:1005DE00F66E000E3B21F76E000E3C21F86E090000
:1005EE00F5CF03F003C001F0006A045000240101AE
:1005FE00A16F000E0120A26F060E02013A25F66EC3
:10060E00000E3B21F76E000E3C21F86E0900F5CF6F
:10061E009FF1000E0101A06F3DC29DF1000E9E6F75
:10062E003EC29CF1010E0001BB6F0101D36BD46B76
:02063E001200A8
:080640000B6A0B86FF0E12008D
:100648000A6A0350D8A40A800750D8A40A820A501C
:10065800D8B487EF03F0030AD8B440EF03F00AB028
:100668003BEF03F006AE85EF03F083EF03F002AE35
:1006780083EF03F085EF03F00250800B0A6E029EB1
:100688000650800B069E0A18D8B451EF03F00A50A2
:10069800D8B483EF03F085EF03F00750035CD8B4B8
:1006A8005BEF03F0D8A077EF03F07DEF03F006507F
:1006B800025CD8B465EF03F0D8A077EF03F07DEFC4
:1006C80003F00550015CD8B46FEF03F0D8A077EFC2
:1006D80003F07DEF03F00450005CD8B487EF03F01B
:1006E800D8B07DEF03F00A52D8B485EF03F083EF5A
:1006F80003F00A52D8B483EF03F085EF03F0D880F3
:0E0708001200D8901200D880D884120012007F
:1007160020C204F021C205F004C002F005C003F0B7
:10072600044A052A22C200F023C201F00201224B2C
:10073600232B00C0E9FF01C0EAFF02C0E1FF03C0AE
:10074600E2FFEECFE6FF02C0E9FF03C0EAFFEE528A
:0E07560001E0E2D720C200F021C201F0120043
:100764000450000A12E10550000A0FE10650000A85
:100774000CE10750000A09E1FF0E006EFF0E016E46
:100784007F0E026EFF0E036EA6D0086A096A075038
:10079400D8B45DEF04F00350D8B461EF04F0025014
:1007A40006180A6E028E068E0E6A02C008F001C098
:1007B4000CF000C00DF004500D5E0550D8A0053CAF
:1007C4000C5E0650D8A0063C085E086A0C6A0D6AE6
:1007D400D8A0F4EF03F0D89002320132003208328C
:1007E400010E0E6E0750035ED8A001EF04F07E0EDA
:1007F4000E240326D8B065EF04F007EF04F07E0E54
:100804000E240326D8A06AEF04F0180E0B6E0D36E2
:100814000C3608360036013602360E360450005EB9
:100824000550D8A0053C015E0650D8A0063C025EE7
:1008340006340E120EA022EF04F00D802DEF04F00A
:10084400045000260550D8B0053C01260650D8B007
:10085400062802260D900B2E09EF04F053EF04F046
:10086400D8900036013602360E360450005E05502C
:10087400D8A0053C015E0650D8A0063C025E0634B2
:100884000E10010B0D26D8B00C2AD8B4082AD8A40F
:1008940053EF04F008320C320D32032AD8B465EF5A
:1008A40004F00AAE089E0850026E0C50016E0D5002
:1008B400006E6DEF04F0010EC1DE6DEF04F0020E68
:1008C40035DC6DEF04F0040E3CEC00F06DEF04F049
:0808D400080E23EC00F01200F5
:1008DC00086A096A100E0C6E013408360936045089
:1008EC00085E0550D8A0053C095ED8B007D004506E
:1008FC0008260550D8B0053C0926D890003601369C
:06090C000C2EEAD71200D8
:10091200000E0201225D04E322513F0801E301D0EF
:1009220027D0000E205DD8A0206B20517F0802E264
:100932007F0E206F000E215DD8A0216B21517F0810
:1009420002E27F0E216F2051215D06E220C224F2D5
:1009520021C220F224C221F22051215D09E320C2EA
:100962003AF222C23BF223C23CF240DC202BF4D703
:02097200120071
:10097400086A096A000E076203643FEF05F002503B
:1009840006180A6E075003267E0ED8A0D0EF04F096
:10099400035ED8B044EF05F0D4EF04F0035ED8A0B2
:1009A40049EF05F0028E068E02C00EF001C00BF076
:1009B40000C00DF000500402F4CF0CF00150050209
:1009C400F4CF00F0F3CF08F00402F3500C26F450F7
:1009D4000822000E00220D500502F3500C26F4509C
:1009E4000822000E002202500402F3500826F4509C
:1009F400002202500502016A000E0122F350002673
:100A0400F45001220D500602F3500826F45000223F
:100A1400026A000E012202220B500602F350002645
:100A2400F4500122000E02220E500602F350012659
:100A3400F450022202BE27EF05F0083600360136D4
:100A440002360306D8B449EF05F03AEF05F0D88032
:100A5400800E08640030000E002201220222D8A079
:100A64003AEF05F0023201320032034A44EF05F056
:100A74000AAE029E000E4CEF05F0010E98EC00F059
:100A84004CEF05F0020E3CEC00F04CEF05F0040EC8
:060A940023EC00F012004B
:100A9A00025006180E6E086A096A0B6A0350076448
:100AAA0040EF06F006500A6E068E028E03500B6E59
:100ABA000750036E000E0B6490EF05F00B50075EB3
:100ACA00D8B431EF06F0070E0764FFEF05F0075EB2
:100ADA0000C008F001C000F002C001F0026A074E2F
:100AEA0031EF06F00764D4EF05F0075E00C008F0A6
:100AFA0001C000F0016A074E31EF06F00764B2EF59
:100B0A0005F0075E00C008F0006A074E31EF06F0F4
:100B1A00076499EF05F00AC002F005C001F004C0AD
:100B2A0000F0086A5DEF07F0030E0764A4EF05F012
:100B3A00075E08380F0B086E074E31EF06F0D890A3
:100B4A000832074E31EF06F0D8900832074E31EFDF
:100B5A0006F0D890083231EF06F0030E0764C3EFAF
:100B6A0005F0075E08380F0B086E0038F00B0826F0
:100B7A0000380F0B006E074E31EF06F0D8900032A6
:100B8A000832074E31EF06F0D89000320832074E8D
:100B9A0031EF06F0D8900032083231EF06F0030E3A
:100BAA000764EBEF05F0075E08380F0B086E003894
:100BBA00F00B082600380F0B006E0138F00B0026E8
:100BCA0001380F0B016E074E31EF06F0D890013253
:100BDA0000320832074E31EF06F0D8900132003267
:100BEA000832074E31EF06F0D8900132003208324F
:100BFA0031EF06F0030E07641CEF06F0075E0838B3
:100C0A000F0B086E0038F00B082600380F0B006E29
:100C1A000138F00B002601380F0B016E0238F00B79
:100C2A00012602380F0B026E074E31EF06F0D890FC
:100C3A000232013200320832074E31EF06F0D89004
:100C4A000232013200320832074E31EF06F0D890F4
:100C5A000232013200320832096A000E0EAE25EF66
:100C6A0007F0081E001E011E021E082A0022012289
:100C7A00022225EF07F00750D8A446EF06F05DEFF1
:100C8A0007F0096A02C00AF0028E068E0750035C5A
:100C9A00076ED8B418EF07F0070E0764E6EF06F000
:100CAA00075E0450096E0550046E0650056E066A0A
:100CBA00074E18EF07F0070E0764BBEF06F0075E52
:100CCA000450096E0550046E056A074E18EF07F0C6
:100CDA00070E076499EF06F0075E0450096E046A6E
:100CEA00074E18EF07F0070E076480EF06F00AC0F8
:100CFA0002F05DEF07F0030E07648BEF06F0075E64
:100D0A0009380F0B096E074E18EF07F0D890093211
:100D1A00074E18EF07F0D8900932074E18EF07F080
:100D2A00D890093218EF07F0030E0764AAEF06F00D
:100D3A00075E09380F0B096E0438F00B09260438D0
:100D4A000F0B046E074E18EF07F0D89004320932E1
:100D5A00074E18EF07F0D89004320932074E18EF01
:100D6A0007F0D8900432093218EF07F0030E07642F
:100D7A00D2EF06F0075E09380F0B096E0438F00B44
:100D8A00092604380F0B046E0538F00B04260538C3
:100D9A000F0B056E074E18EF07F0D8900532043294
:100DAA000932074E18EF07F0D8900532043209329B
:100DBA00074E18EF07F0D89005320432093218EFBF
:100DCA0007F0030E076403EF07F0075E09380F0BFD
:100DDA00096E0438F00B092604380F0B046E053827
:100DEA00F00B042605380F0B056E0638F00B0526A6
:100DFA0006380F0B066E074E18EF07F0D89006322A
:100E0A00053204320932074E18EF07F0D89006323D
:100E1A00053204320932074E18EF07F0D89006322D
:100E2A00053204320932086A000E0EAE25EF07F0C9
:100E3A00091E041E051E061E092A04220522062270
:100E4A0009500826045000220550012206500222A9
:100E5A000EBE3CEF07F0D8A04BEF07F0023201328A
:100E6A0000320832033E4BEF07F057EF07F0D8B0D5
:100E7A0051EF07F0000E081E001E011E021E082A6E
:100E8A000022012202220A7E51EF07F0010E0C6EA7
:100E9A00C6EC01F05FEF07F0020E0C6EC6EC01F033
:100EAA005FEF07F0040E0C6E3CEC00F05FEF07F00A
:060EBA00000E0C6E120098
:100EC000C26A0001F81D006E0050C116070EC01264
:100ED000C08E20C200F00036009000360090005016
:100EE000C212C280C0EC01F0C282C2A201D0FDD702
:100EF000C4CF01F0006AC3500012000E0112C2906C
:020F00001200DD
:100F02000050086E0150006E016A026A036A0B6AA1
:100F12000C6A960E036E0A6A00C001F008C000F067
:0A0F2200086A026A87EC01F0120071
:100F2C000201286B296B2A6B0001BB51000A0FE1EF
:100F3C006C0E02013A6F310E3B6F000E3C6F010ECE
:100F4C003D6F3E6BB7EC02F0010E0001BB6F000E63
:100F5C00006E0101C451005C03E1C3510201205D2C
:100F6C0001E2FFD0000E0101A25D04E1020120515B
:100F7C000101A15D01E2F5D0C3510201205D016EBA
:100F8C00C4C102F0000E025601C003F002C004F00E
:100F9C00033603900436033603900436080E010121
:100FAC00C025006E000EC121016E000EC221026E22
:100FBC00000E056E0050032601500422025005223B
:100FCC0003C0F6FF04C0F7FF05C0F8FF0900F5CF1A
:100FDC0028F2010E0324F66E000E0420F76E000EAC
:100FEC000520F86E0900F5CF00F000C006F0000EE9
:100FFC00076E086E096E020E0324F66E000E0420B6
:10100C00F76E000E0520F86E0900F5CF03F003C053
:10101C0001F0006A000E026E036E065000260750A7
:10102C0001220850022209500322C051002402015F
:10103C00256F0101C15101200201266F0101C2512E
:10104C0002200201276F01019C51000A46E1D1C127
:10105C0023F20201226B000E006E0101A051005C14
:10106C0003E19F510201225D2FE20201CFC129F25F
:10107C00246B216B2851215D24E22451000A10E1DC
:10108C0025C2F6FF26C2F7FF27C2F8FF0900F5CFED
:10109C002AF2010E2527000E26232723010E246F8A
:1010AC0024512A15006E08E029C23AF223C23BF201
:1010BC009DC13CF2F7EC00F0292B24372491212B15
:1010CC00D9D7232B222BC7D702012951010F01019C
:1010DC00CF6FD06B000ED02344D0CFC123F20201CE
:1010EC00226B000E006E0101A051005C03E19F51C8
:1010FC000201225D2FE20201D1C129F2246B216B86
:10110C002851215D24E22451000A10E125C2F6FF8A
:10111C0026C2F7FF27C2F8FF0900F5CF2AF2010E0D
:10112C002527000E26232723010E246F24512A1570
:10113C00006E08E023C23AF229C23BF29DC13CF298
:10114C00F7EC00F0290724372491212BD9D7232B36
:10115C00222BC7D7020129050101D16FD26B000EDA
:04116C00D25B120040
:101170000201356B366B376B386B0101C4510201CC
:10118000215D04E10101C3510201205D01E2E7D1CB
:1011900021510101A25D04E1020120510101A15D83
:1011A00001E2DDD1C3510201205D036E0101C45192
:1011B00002012159046E03C000F004C001F00036A2
:1011C00000900136003600900136080E0101A3257B
:1011D00002013A6F000E0101A42102013B6F000ED3
:1011E0000101A52102013C6F000E0101A6210201AF
:1011F0003D6F00503A2701503B23000E3C233D2316
:10120000040E3E6F000E3F6FA6EC00F0A70E336F8A
:10121000010E346F33C2E9FF34C2EAFFEECF39F278
:1012200039C235F2010E3325E96E000E3421EA6E23
:10123000EECF04F0000E056E066E076E020E33252B
:10124000E96E000E3421EA6EEECF03F003C001F028
:10125000006A000E026E036E045000260550012243
:10126000065002220750032200500101A32502016B
:10127000276F01500101A4210201286F02500101D2
:10128000A5210201296F03500101A62102012A6F45
:1012900039C200F00032009E0032009E0032009EF3
:1012A000000E016E9FC104F0A0C105F051EC01F0E9
:1012B00000C02DF201C02EF2070E3915006E08E0B5
:1012C00001019F5102012D270101A05102012E238E
:1012D0002DC231F22EC232F29AC1E1FF9BC1E2FF70
:1012E00027C2E6FF28C2E6FF29C2E6FF2AC2E6FFC0
:1012F0002DC2E6FF2EC2E6FF2B0EE66E020EE66E54
:1013000098C100F099C101F030EC00F000C033F258
:1013100001C034F202012B5127272C512823000E43
:1013200029232A232B512D5F2C512E5B2F6B306BE1
:1013300001019C51000AD8A488D0D1C124F2D2C1A5
:1013400025F20201236B000E006E0101A051005C2A
:1013500003E19F510201235D6DE20201CFC136F22C
:10136000D0C137F2266B226B3551225D5FE22651E8
:10137000000A4AE12F4B302B32512C5D02E13151F2
:101380002B5D38E230512C5D02E12F512B5D32E2B2
:10139000010E2F6F000E306F9AC1E1FF9BC1E2FF7B
:1013A00027C2E6FF28C2E6FF29C2E6FF2AC2E6FFFF
:1013B0002DC2E6FF2EC2E6FF2B0EE66E020EE66E93
:1013C00098C100F099C101F030EC00F000C033F298
:1013D00001C034F22DC231F22EC232F202012B5181
:1013E00027272C512823000E29232A232B512D5F38
:1013F0002C512E5B33C2E9FF34C2EAFFEECF38F244
:10140000334B342B010E266F26513815006E08E041
:1014100036C23AF224C23BF29DC13CF2F7EC00F036
:10142000364B372B26372691222B9ED7244B252B44
:10143000232B89D70201010E36250101CF6F000E43
:10144000020137210101D06F8AD0CFC124F2D0C16F
:1014500025F20201236B000E006E0101A051005C19
:1014600003E19F510201235DD8B06FD00201D1C1C9
:1014700036F2D2C137F2266B226B3551225D61E222
:101480002651000A4AE12F4B302B32512C5D02E1EC
:1014900031512B5D38E230512C5D02E12F512B5D33
:1014A00032E2010E2F6F000E306F9AC1E1FF9BC137
:1014B000E2FF27C2E6FF28C2E6FF29C2E6FF2AC2F2
:1014C000E6FF2DC2E6FF2EC2E6FF2B0EE66E020EF1
:1014D000E66E98C100F099C101F030EC00F000C058
:1014E00033F201C034F22DC231F22EC232F20201C7
:1014F0002B5127272C512823000E29232A232B5137
:101500002D5F2C512E5B33C2E9FF34C2EAFFEECFD0
:1015100038F2334B342B010E266F26513815006EEE
:1015200008E024C23AF236C23BF29DC13CF2F7EC2D
:1015300000F0010E365F000E375B26372691222B16
:101540009CD7244B252B232B86D70201010E365D19
:101550000101D16F000E020137590101D26F120053
:1015600020C2CFF121C2D0F122C2D1F123C2D2F1E7
:02157000120067
:101572000B6A0C6A086A0350D8B43DEF0BF002C044
:101582000AF0028E9E0E035E03AE2DEF0BF0036C8B
:10159200080E035CD8A0FAEF0AF0036E083600C00A
:1015A20008F001C000F002C001F0026A080E035CFC
:1015B200D8A0FAEF0AF0036E083600C008F001C0A6
:1015C20000F0016A080E035CD8A0FAEF0AF0036E7D
:1015D200083600C008F0006A080E035CD8A0FAEFD3
:1015E2000AF0036E0836086A0350D8A4D89006EFB2
:1015F2000BF00350D8B406EF0BF0D8900232013250
:1016020000320832032EFEEF0AF00BBC08A017EFDF
:101612000BF0D8A017EF0BF0082AD8B4002AD8B4E0
:10162200012AD8B4022A02BE41EF0BF00AAE3DEF06
:101632000BF0021E011E001E081E082AD8B4002A42
:10164200D8B4012AD8B4022A3DEF0BF0026A016A2B
:10165200006A086A3DEF0BF00B800BAE48EF0BF00F
:10166200026A0AAE48EF0BF0026E016E006E086E5F
:101672000A36023248EF0BF00C6A000E49EF0BF00B
:10168200010E0C6E000E79EC01F049EF0BF0FF0E2B
:101692000250036E0150026E0050016E0850006E3F
:0216A200120034
:1016A4000D6A086A0050D8B4000C04180A6E0ABE09
:1016B4000D1E0B6A04AE02D0041E042A00AE02D032
:1016C400001E002A005004100A6E0ABE1FD00450E7
:1016D400085E003600340836045008260036060E2C
:1016E4000C6E00340836045000B0085E00A00826D2
:1016F40000360C2EF6D700A008260BB015D00DAE80
:10170400000C001E002A081E082A000C04AE09D092
:1017140000BE04D00050086E006AF1D7006A002AA7
:10172400000C001E0B2AD3D7082A0450085CD8A446
:0E173400E6D7086A002A00AEE2D7FF0C1200CA
:10174200000E0201105D04E310517F0801E301D095
:1017520028D0000E0E5DD8A00E6B0E513F0802E29B
:101762003F0E0E6F000E0F5DD8A00F6B0F513F089A
:1017720002E23F0E0F6F0E510F5D06E20EC212F231
:101782000FC20EF212C20FF20E510F5D0AE310C227
:101792003AF20EC23BF211C23CF2F7EC00F00E2B11
:0417A200F3D7120067
:1017A6000050086E0150006E0250016E0350026E2A
:1017B600036A0B6A0C6A9E0E036E0A6A02AEF0EFAB
:1017C6000BF0081E001E011E021E082AD8B4002AAD
:1017D600D8B4012AD8B4022A0A8E020E0C6EC6ECC0
:0417E60001F01200FC
:1017EA00220E0C6E086A096A0A6A0B6A0C06D8B4D9
:1017FA001FD0D8900B320A32093208320332023231
:10180A0001320032D8A0F2D70C06D8B409D004505D
:10181A0008260550092206500A2207500B22EAD749
:10182A00045008260550092206500A2207500B22A6
:02183A0012009A
:10183C0002010F6B106B116B126B0E6B640E0E5D55
:10184C001AE2206B60EC07F081EC07F00FC204F099
:10185C0010C205F011C206F012C207F04DEC05F0F3
:10186C0000C00FF201C010F202C011F203C012F25C
:10187C0002010E2BE3D7000E046E000E056E480E0F
:10188C00066E850E076E0FC200F010C201F011C279
:0E189C0002F012C203F0B2EC03F065DE12009F
:1018AA00000E0201115D02E1800E105D01E33FD0DE
:1018BA00000E135D02E1400E125D01E338D0146B95
:1018CA00156B10C220F211C221F212C222F213C207
:1018DA0023F241DE14510E25E96E15510F21EA6EED
:1018EA00EE5225E00101D351D41112E00201145144
:1018FA000E25E96E15510F21EA6EEECF20F2000E89
:10190A00216F000E216F2FDC0201144B152B0ED014
:10191A00020114510E25E96E15510F21EA6EEECF20
:10192A0020F296EC07F00201144B152BD3D71200C4
:10193A000FC213F202011351115D0CE30EC220F221
:10194A0010C221F213C222F212C223F289EC04F06D
:06195A00132BF0D7120070
:101960000201126B050E125D0AE212511025E16EA2
:10197000000E1121E26E200EE66E122BF3D71251EB
:101980001025E16E000E1121E26EE66A1207125177
:101990001025136F000E1121146F0A0E046E000E35
:1019A000056E0EC200F00FC201F06EEC04F008C02C
:1019B00000F009C001F0300E002613C2E1FF14C28E
:1019C000E2FF00C0E6FF0A0E046E000E056E0EC2B6
:1019D00000F00FC201F06EEC04F000C00EF201C086
:1019E0000FF2000E011802E1000E001801E102D012
:0619F0001207CDD7120022
:1019F60002010F6B106B116B126B0E6B640E0E5D9A
:101A06001BE2020E206F60EC07F081EC07F00FC2BC
:101A160004F010C205F011C206F012C207F04DEC38
:101A260005F000C00FF201C010F202C011F203C0AF
:101A360012F202010E2BE2D7000E046E000E056EA6
:101A4600480E066E850E076E0FC200F010C201F03A
:101A560011C202F012C203F0B2EC03F087DD1200ED
:101A660002011B6B1C6B1D6B1E6B1F6B0EC217F2EC
:101A76000FC218F210C219F211C21AF21A51FF0A55
:101A860008E11951FF0A05E11851FF0A02E1175151
:101A9600FF0A0DE112C220F213C221F2F90E226FE3
:101AA600000E236F8BEC03F0030E006E5ED2010E68
:101AB600156F19AF0FD0800E1919006E00C019F2FC
:101AC600152B1C2B12C2E1FF13C2E2FF2D0EE66E90
:101AD600124B132B000E006E1A1908E1005019194B
:101AE60005E10050181902E11751000A0CE112C273
:101AF60020F213C221F2FD0E226F000E236F8BEC33
:101B060003F0006A32D21A51FF0A08E11951000A9D
:101B160005E11851000A02E11751000A0DE112C24F
:101B260020F213C221F2F40E226F000E236F8BEC0B
:101B360003F015C200F019D2000E046E000E056EF9
:101B4600000E066E7F0E076E17C200F018C201F077
:101B560019C202F01AC203F024EC03F0010ED8B049
:101B6600000E006E00521CE017C200F018C201F011
:101B760019C202F01AC203F0000E046E000E056EC2
:101B8600200E066E820E076EBAEC04F000C017F245
:101B960001C018F202C019F203C01AF21F07CCD70F
:101BA600000E046E000E056E200E066E820E076E87
:101BB60017C200F018C201F019C202F01AC203F0EF
:101BC60024EC03F0000ED8B0010E006E00521CE0AB
:101BD60017C200F018C201F019C202F01AC203F0CF
:101BE600CD0E046ECC0E056E4C0E066E7B0E076E89
:101BF600BAEC04F000C017F201C018F202C019F2E4
:101C060003C01AF21F2BCCD7FF0E1715086EFF0E56
:101C16001815096E7F0E19150A6E000E1A150B6E31
:101C260008C004F009C005F00AC006F00BC007F0B2
:101C360004360490053606360736000E1715006E74
:101C4600000E1815016E000E1915026EFF0E1A15FC
:101C5600036E00C017F201C018F202C019F203C0E9
:101C66001AF204501711006E05501811016E065035
:101C76001911026E07501A11036E00C017F201C047
:101C860018F202C019F203C01AF27F0E1A5D006E36
:101C960000C016F2010E1A6F00C004F017C200F061
:101CA60018C201F019C202F01AC203F0045007E08C
:101CB60000360090013602360336FF0FF8D700C013
:101CC60017F201C018F202C019F203C01AF212C2CA
:101CD600E1FF13C2E2FF1A51300FE66E124B132BCF
:101CE6001C2B800E1F19006E800E010A005C08E393
:101CF600800E060A006E800E1F19005C01E30BD0F1
:101D060012C2E1FF13C2E2FF2E0EE66E124B132B38
:101D1600010E1B6F1C2B060E166F1651000A58E09B
:101D26001A6B17C200F018C201F019C202F01AC2EB
:101D360003F0003600900136023603360036009076
:101D46000136023603361751002618510122195161
:101D560002221A51032200C017F201C018F202C073
:101D660019F203C01AF217C200F018C201F019C224
:101D760002F01AC203F0003600900136023603362E
:101D860000C017F201C018F202C019F203C01AF21D
:101D960012C2E1FF13C2E2FF1A51300FE66E124B78
:101DA600132B1C2B1B51000A11E11F071F51000AA0
:101DB6000DE1010E1E6F12C2E1FF13C2E2FF2E0EED
:101DC600E66E124B132B010E1B6F1C2B1607A5D7A5
:101DD6001E51010AD8B41C07FF0E1225E96EFF0E2C
:101DE6001321EA6EEE502E0A05E1010E125F000E77
:101DF600135B1C07800E000A006E800E1F19005C24
:101E060002E2010E1D6F800E1F19006E800E000A81
:101E1600005C02E2020E1D6F1FC216F2800E090A56
:101E2600006E800E1F19005C02E31D2B02D0020E0D
:101E36001D271D511C25016E026A000E0222800E0E
:101E46000218006E800E005C02E11451015C0AE289
:101E560012C2E1FF13C2E2FF300EE66E124B132BE5
:101E66001C2BE7D71F51000A43E012C2E1FF13C241
:101E7600E2FF650EE66E124B132B800E1F19006EE5
:101E8600800E000A005C0BE212C2E1FF13C2E2FF01
:101E96002D0EE66E124B132B1F5100081F6F1FC22B
:101EA60016F2800E090A006E800E1F19005C0FE202
:101EB6000A0E046E16C200F052EC0BF012C2E1FFDD
:101EC60013C2E2FF0050300FE66E124B132B0A0EC0
:101ED600046E16C200F052EC0BF008C000F012C2FD
:101EE600E1FF13C2E2FF0050300FE66E124B132BD8
:101EF6001D511C25006E00C01CF21451005C016EC1
:101F060001C016F2800E000A006E800E0118005CF9
:101F16000EE2800E000A006E800E1619005C06E2C4
:101F26001607010E125F000E135BF3D718D0800E52
:101F36001619006E800E000A005C11E2800E16195A
:101F4600006E800E000A005C0AE2162B12C2E1FF48
:101F560013C2E2FF300EE66E124B132BEFD712C2FE
:0C1F6600E1FF13C2E2FFE66A006A12000D
:101F72000201106B116B0EC203F00FC204F00EC20D
:101F820005F00FC206F003C0E9FF04C0EAFFEE50FD
:101F9200200A04E11051111101E110D0010E106F5D
:101FA200000E116F03C0E9FF04C0EAFF05C0E1FFA4
:101FB20006C0E2FFEECFE6FF054A062A03C001F0A3
:101FC20004C002F0034A042A01C0E9FF02C0EAFF8A
:101FD200EE50000AD8E10EC200F00FC201F012006A
:081FE200067E4DEC05F0120033
:101FEA0000C008F00150006E016A026A036A0B6AB7
:101FFA000C6A016A026A036A960E036E0A6A00AEE6
:10200A000DEF10F0081E001E082AD8B4002A0A8E06
:10201A0000C001F008C000F0086A026A87EC01F00B
:02202A001200A2
:10202C0084B216D084A014D08490010E0101856F67
:10203C00000E866F010E876F000E886F820E0C6E7D
:10204C00DD0E0D6E0D2EFED70C2EFCD70000000001
:02205C00120070
:10205E00819281800201066B0651070810E306C2C9
:10206E0048F256EC00F0056B05513F0806E304C23A
:10207E0048F29FEC00F0052BF7D7062BEDD7819099
:10208E008182066B0651070810E306C248F256EC31
:10209E0000F0056B05513F0806E304C248F29FECC1
:0C20AE0000F0052BF7D7062BEDD7120031
:1020BA00010E0201086F000E096F1EEC0CF0050EEE
:1020CA00046E000E056E066E076EF5EC0BF0D3EC8F
:1020DA000BF000C0E6F101C0E7F102C0E8F103C06D
:1020EA00E9F1000E046EC00E056E7F0E066E880EB4
:1020FA00076EB2EC03F0000E046E000E056E480E79
:10210A00066E850E076EBAEC04F000C0E2F101C05B
:10211A00E3F102C0E4F103C0E5F100C00EF201C030
:10212A000FF202C010F203C011F2F30E0201126F95
:10213A00010E136F040E146F91DCF30E0E6F010E75
:10214A000F6F12DF08C200F009C201F049DF04C2B2
:10215A0004F005C205F006C206F007C207F04DEC0E
:10216A0005F000C004F001C005F002C006F003C08B
:10217A0007F0E6C100F0E7C101F0E8C102F0E9C1E9
:10218A0003F024EC03F0000ED8B0010E006E0052EA
:10219A0027E108C200F009C201F022DF00C004F002
:1021AA0001C005F002C006F003C007F004C200F047
:1021BA0005C201F006C202F007C203F00DDFE6C154
:1021CA0004F0E7C105F0E8C106F0E9C107F024EC24
:1021DA0003F0000ED8B0010E006E005201E147D0A4
:1021EA00460E0E6F0F0E0F6F590E106F1E0E116FE7
:1021FA00126B9DEC0CF0EC0E206F010E216FF30EAA
:10220A00226F010E236F8BEC03F0120E0E6F010E7C
:10221A000F6F0A0E106F000E116F0F0E126F000E65
:10222A00136F55EC0CF0F30E0E6F010E0F6F480E84
:10223A00106F000E116F0F0E126F000E136F55EC18
:10224A000CF0080E0E6F010E0F6F5D0E106F000E70
:10225A00116F0F0E126F000E136F55EC0CF0E6C1E2
:10226A0004F2E7C105F2E8C106F2E9C107F2120079
:0E227A00ACB202D00000FCD704C2ADFF1200CF
:1022880004C220F206C221F205C222F208C223F2D9
:1022980089EC04F004C220F206C221F207C222F23D
:1022A80008C223F289EC04F005C20EF207C20FF24D
:1022B80004C210F208C211F2A1EC0BF005C20EF232
:1022C80007C20FF206C210F208C211F2A1EC0BF01D
:0222D8001200F2
:1022DA000201086B096B0A6B0851070845E3486B52
:1022EA0048EC00F008C248F256EC00F0486B5EEC8D
:1022FA0000F0076B07513F0812E309510425F66EF7
:10230A000A510521F76E000E0621F86E0900F5CF75
:10231A0048F29FEC00F0094B0A2B072BEBD7400E33
:10232A00486F48EC00F008C248F256EC00F0400E44
:10233A00486F5EEC00F0400E076F07517F0812E30A
:10234A0009510425F66E0A510521F76E000E062181
:10235A00F86E0900F5CF48F29FEC00F0094B0A2B02
:0A236A00072BEBD7082BB8D71200A1
:1023740002010A6B0B6B04C20CF205C20DF2800E53
:102384000519006E800E005C02E1000E045D0BE294
:10239400010E0A6F000E0B6F045100080C6F05C28A
:1023A4000DF2000E0D570CC20EF20DC20FF206C252
:1023B40010F207C211F2B0EC0CF0060E086F000E1A
:1023C400096F000E006E0951005C02E1085100081B
:1023D40019E208510625E16E09510721E26E010E4A
:1023E400085D006E000E0959016E00500625E96E65
:1023F40001500721EA6EEECFE6FF010E085F000EE2
:10240400095BDFD706C2E1FF07C2E2FF200EE66EDA
:102414000A510B111AE0086B096B08510625E96E85
:1024240009510721EA6EEE50200A03E1084B092BFB
:10243400F4D7010E085F000E095B08510625E16E12
:0C24440009510721E26E2D0EE66E120019
:102450000F0E0201086F000E096FFBEC0CF0D3ECBD
:102460000BF000C089F101C08AF102C08BF103C0FA
:102470008CF1000E046E000E056E700E066E830E5B
:10248000076EBAEC04F0000E046EC00E056E7F0EEF
:10249000066E880E076EB2EC03F000C08DF101C02D
:1024A0008EF102C08FF103C090F100C00EF201C0A6
:1024B0000FF202C010F203C011F2910E0201126F6E
:1024C000010E136F040E146F33EC0DF0910E0E6FAE
:1024D000010E0F6F4EDD08C200F009C201F085DD6C
:1024E00004C204F005C205F006C206F007C207F0F8
:1024F0004DEC05F000C004F001C005F002C006F08C
:1025000003C007F089C100F08AC101F08BC102F05D
:102510008CC103F024EC03F0000ED8B0010E006E65
:10252000005227E108C200F009C201F05EDD00C0E0
:1025300004F001C005F002C006F003C007F004C2B9
:1025400000F005C201F006C202F007C203F049DD47
:1025500089C104F08AC105F08BC106F08CC107F077
:1025600024EC03F0000ED8B0010E006E005201E121
:102570003DD0460E0E6F0F0E0F6F590E106F1E0ED0
:10258000116F126B9DEC0CF0770E0E6F000E0F6F3B
:102590000A0E106F000E116F0F0E126F000E136FE8
:1025A00055EC0CF0910E0E6F010E0F6F460E106F72
:1025B000000E116F0F0E126F000E136F55EC0CF022
:1025C0003B0E0E6F000E0F6F5A0E106F000E116F44
:1025D0000F0E126F000E136F55EC0CF089C104F250
:0E25E0008AC105F28BC106F28CC107F212000F
:1025EE0084B216D084A014D08482010E0101856FAE
:1025FE00000E866F020E876F000E886F820E0C6EB5
:10260E00DD0E0D6E0D2EFED70C2EFCD70000000039
:02261E001200A8
:1026200084928480010E0101856F000E866F876B96
:10263000886B820E0C6EDD0E0D6E0D2EFED70C2EED
:08264000FCD7000000001200AD
:10264800000E0101EB1902E1010EEA190FE1010E7A
:1026580002010E6F0D0E0F6F7E0E106F3E0E116F82
:10266800126B9DEC0CF00101EA6BEB6BEDDE1200D6
:102678000101BF6BD36BD46B939A93989394939601
:1026880093929390819A120E006E000E016E830E43
:102698000024E16E0F0E0120E26EE66A81948196B5
:1026A80081928180818A3F0E836E1AEC00F0C00E01
:1026B800836E1AEC00F0818281903F0E836E1AECD3
:0C26C80000F0C00E836E1AEC00F012004F
:1026D4000900F5CFE6FF0006FBE10106F9E112006F
:1026E4007A0E0101BB6F220EBC6F040EBD6F020E89
:1026F400BE6FFF0EAF6FFF0EB06F000EB16F000E16
:10270400B26FFF0EB36FFF0EB46F000EB56F000E05
:10271400B66FFF0EB76FFF0EB86F000EB96F000EE5
:10272400BA6FAC8A900EAB6E948E949C9EAA03D022
:08273400AECF00F0FBD712004C
:10273C000201036B01C2E9FF02C2EAFFEECF00F215
:10274C000051000A0EE000C204F291DD0201032BDD
:10275C0003510125E96E000E0221EA6EEECF00F264
:04276C00EFD7120091
:10277000000E0101EB1902E1010EEA190FE1010E51
:1027800002010E6F0D0E0F6F7E0E106F3E0E116F59
:10279000126B9DEC0CF00101EA6BEB6B8EDC12000E
:1027A0000201046B5CDC82A408D01F0E046F370E9C
:1027B000056F000E066F91DDF6D7046B50DC010E3D
:0A27C0000101FA6F000EFB6F12001A
:1027CA00000E0101EB1902E1010EEA1913E1010EF3
:1027DA0002010E6F0D0E0F6F7E0E106F3E0E116FFF
:1027EA00126B9DEC0CF0010E0101856F000E866FD5
:1027FA00EA6BEB6B000E861902E1010E8519D8A46B
:10280A0020D10201046B330E056F7F0E066F3F0E57
:10281A00076F010E086F33DD010E0E6F340E0F6F56
:10282A007E0E106F3E0E116F126B9DEC0CF0F4D001
:10283A000201920E0E6F000E0F6F060E106F000E41
:10284A00116F340E126F000E136F55EC0CF02B0E35
:10285A000E6F330E0F6F550E106F3E0E116F010E75
:10286A00126F9DEC0CF06C0E3A6F310E3B6F000E3E
:10287A003C6F3D6B3E6BB7EC02F08E0E02010E6FA1
:10288A00000E0F6F370E106F000E116F340E126F9D
:10289A00000E136F55EC0CF06C0E3A6F310E3B6F55
:1028AA00000E3C6F010E3D6F3E6BB7EC02F0810EDD
:1028BA0002010E6F000E0F6F600E106F000E116F87
:1028CA00340E126F000E136F55EC0CF00101856B7C
:1028DA00866BB7D0010E02010E6F330E0F6F2A0EF0
:1028EA00106F3E0E116F010E126F9DEC0CF06C0E04
:1028FA003A6F310E3B6F000E3C6F3D6B3E6BB7EC8F
:10290A0002F0850E02010E6F000E0F6F060E106F99
:10291A00000E116F340E126F000E136F55EC0CF08F
:10292A006C0E3A6F310E3B6F000E3C6F010E3D6F1D
:10293A003E6BB7EC02F08A0E02010E6F000E0F6FAB
:10294A00370E106F000E116F340E126F000E136FD8
:10295A0055EC0CF09B0E0E6F000E0F6F600E106F91
:10296A00000E116F340E126F000E136F55EC0CF03F
:10297A000101856B866B65D09F0E02010E6F000EFA
:10298A000F6F060E106F000E116F340E126F000ECD
:10299A00136F55EC0CF0A40E0E6F000E0F6F370E6E
:1029AA00106F000E116F340E126F000E136F55EC7C
:1029BA000CF0550E0E6F330E0F6F7E0E106F3E0E1B
:1029CA00116F010E126F9DEC0CF06C0E3A6F310E06
:1029DA003B6F000E3C6F3D6B3E6BB7EC02F0970EFF
:1029EA0002010E6F000E0F6F600E106F000E116F56
:1029FA00340E126F000E136F55EC0CF06C0E3A6F1A
:102A0A00310E3B6F000E3C6F010E3D6F3E6BB7EC13
:102A1A0002F0856B866B15D00101000E881902E160
:102A2A00000E8719D8B404D7000E881902E1010EE6
:102A3A008719D8B44FD7000E881902E1020E8719F8
:042A4A009BE01200FB
:102A4E00000E0101FB1902E1010EFA193EE102012D
:102A5E00046B056B7F0E066F3F0E076F010E086F3E
:102A6E000CDC0E6B0F6B7F0E106F0C0E116F010EC8
:102A7E00126F9DEC0CF06C0E3A6F310E3B6F000E28
:102A8E003C6F3D6B3E6BB7EC02F001C20EF202C220
:102A9E000FF21E0E0201106F000E116F010E126F5B
:102AAE00000E136F55EC0CF06C0E3A6F310E3B6F3F
:102ABE00000E3C6F010E3D6F3E6BB7EC02F0FA6BF1
:0C2ACE00FB6B010EEA6F000EEB6F1200B4
:102ADA00010E0201206F60EC07F000C0D7F101C0BF
:102AEA00D8F1800E026E800E0118025C02E10050DD
:102AFA000A080CE2050E02010E6F1E0E0F6F500E31
:102B0A00106F280E116F126B9DEC0CF0000E010174
:102B1A00D61902E1010ED51950E1D851E11902E1A5
:102B2A00E051D71910E0050E02010E6F320E0F6F39
:102B3A00640E106F3C0E116F126B9DEC0CF0D7C136
:102B4A00E0F1D8C1E1F10201D7C104F2D8C105F21E
:102B5A00D90E066F010E076F08DCD90E0E6F010E33
:102B6A000F6FB9EC0FF0D90E0E6F010E0F6F280E12
:102B7A00106F000E116F320E126F000E136F55ECAC
:102B8A000CF00B0E0E6F010E0F6F050E106F000E7C
:102B9A00116F320E126F000E136F55EC0CF0020E0D
:102BAA000B6E450E0C6EA90E0D6E0D2EFED70C2E59
:102BBA00FCD70B2EFAD700000000800E0101D819AD
:102BCA00006E800E005C02E1500ED75D19E3800EA4
:102BDA00006E800ED819005C02E1D751640810E338
:102BEA0001DD200E02010E6F010E0F6F050E106F30
:102BFA00000E116F1E0E126F000E136F55EC0CF0C3
:102C0A00800E0101D819006E800E005C02E1780E78
:102C1A00D75D19E3800E006E800ED819005C02E1C0
:102C2A00D7518C0810E3F7DC560E02010E6F010E25
:102C3A000F6F050E106F000E116F1E0E126F000E31
:102C4A00136F55EC0CF0800E0101D819006E800E3E
:102C5A00005C02E1AA0ED75D1AE3800E006E800EB8
:102C6A00D819005C02E1D751BE0811E316EC10F046
:102C7A00510E02010E6F010E0F6F050E106F000E3E
:102C8A00116F1E0E126F000E136F55EC0CF0800EB2
:102C9A000101D819006E800E005C02E1C80ED75DF2
:102CAA0018E3800E006E800ED819005C02E1D7513D
:102CBA00DC080FE36F0E02010E6F010E0F6F050E97
:102CCA00106F000E116F1E0E126F000E136F55EC6F
:102CDA000CF0800E0101D819006E800E005C02E132
:102CEA00E60ED75D18E3800E006E800ED819005CE0
:102CFA0002E1D751F0080FE3640E02010E6F010ED4
:102D0A000F6F050E106F000E116F1E0E126F000E60
:102D1A00136F55EC0CF0800E0101D819006E800E6D
:102D2A00010A005C02E1360ED75D19E3800E010A42
:102D3A00006E800ED819005C02E1D7514A080FE3F1
:102D4A00360E02010E6F010E0F6F050E106F000E88
:102D5A00116F1E0E126F000E136F55EC0CF0800EE1
:102D6A000101D819006E800E020A005C02E14E0EC3
:102D7A00D75D19E3800E020A006E800ED819005C36
:102D8A0002E1D75162080FE3410E02010E6F010EF4
:102D9A000F6F050E106F000E116F1E0E126F000ED0
:102DAA00136F55EC0CF0800E0101D819006E800EDD
:102DBA00020A005C02E1A80ED75D19E3800E020A3E
:102DCA00006E800ED819005C02E1D751BC080FE3EF
:102DDA00280E02010E6F010E0F6F050E106F000E06
:102DEA00116F1E0E126F000E136F55EC0CF0800E51
:102DFA000101D819006E800E030A005C02E13E0E42
:102E0A00D75D33E3800E030A006E800ED819005C8A
:102E1A0002E1D751520829E32E0E02010E6F010E6C
:102E2A000F6F050E106F000E116F1E0E126F000E3F
:102E3A00136F55EC0CF0000E0101D61902E1000ED9
:102E4A00D51913E1800EFD19006E800EFF19005C82
:102E5A0002E1FE51FC5D03E2FC4BFD2B02D0FC6B50
:102E6A00FD6B010EFA6F000EFB6F800ED819006E13
:102E7A00800E030A005C02E1700ED75D42E3800E09
:102E8A00030A006E800ED819005C02E1D75184084B
:102E9A0038E3480E02010E6F010E0F6F050E106F18
:102EAA00000E116F1E0E126F000E136F55EC0CF010
:102EBA00060E0B6E130E0C6EAD0E0D6E0D2EFED79A
:102ECA000C2EFCD70B2EFAD7000000000101D551B9
:102EDA00D611010ED8A4000ED56F000ED66F000EC3
:102EEA00D61902E1000ED5190CE1050E02010E6F8A
:102EFA00320E0F6F640E106F3C0E116F126B9DEC49
:102F0A000CF0800E0101D819006E800E030A005CD5
:102F1A0002E1D40ED75D36E3800E030A006E800EFE
:102F2A00D819005C02E1D751E8082CE3FF0E020130
:102F3A000E6F000E0F6F050E106F000E116F1E0E32
:102F4A00126F000E136F55EC0CF0000E0101D6192A
:102F5A0002E1000ED51916E1800E006E800EFD19F1
:102F6A00005C02E1FC51000805E2010EFC5F000E64
:102F7A00FD5B04D0FEC1FCF1FFC1FDF1010EFA6F49
:062F8A00000EFB6F1200B7
:102F900042EC1EF0150E01017B6F000E7C6F280EB7
:102FA000796F000E7A6F640E816F000E826F510E82
:102FB000836F000E846F3E0E7D6F000E7E6FA80E35
:102FC0007F6F000E806F060EFE6F000EFF6FB886DB
:102FD000020EB06E080EAF6EAC8472EC13F0030EEE
:102FE0000B6E8A0E0C6E550E0D6E0D2EFED70C2E2E
:102FF000FCD70B2EFAD700000000D70E0201016F9C
:10300000000E026F9EEC13F00A0E046F3DEC11F0FF
:103010000D0E0201046F3DEC11F0DD0E0201016F97
:10302000000E026F9EEC13F00A0E046F3DEC11F0DF
:103030000D0E0201046F3DEC11F00101CB6BCC6B66
:10304000CD6BCE6BC76BC86BC96BCA6B0B0EC11255
:10305000070EB4127F0E926E800E946EF00E956E77
:10306000966A816A826A836A846A3CEC13F0020180
:10307000046B2FEC10F0040E0101FC6F000EFD6FCD
:10308000010EFA6F000EFB6FD56BD66BC56BC66B6E
:10309000010E876F000E886F2AD07BC101F27CC1C0
:1030A00002F2D5DCE5EC13F047D079C101F27AC128
:1030B00002F2CDDC41D081C101F282C102F2C7DC53
:1030C0003BD083C101F284C102F2C1DC35D07DC1A5
:1030D00001F27EC102F2BBDCB8EC13F02DD07FC14F
:1030E00001F280C102F2B3DC24EC13F025D0000E13
:1030F0000101FD1902E1000EFC19CFE0000EFD19DF
:1031000002E1010EFC19D1E0000EFD1902E1020EF0
:10311000FC19D1E0000EFD1902E1030EFC19D1E00B
:10312000000EFD1902E1040EFC19D1E0000EFD199C
:1031300002E1050EFC19D3E0D0DC82A40FD00C0E06
:103140000201046F3DEC11F0BC0E0201016F000E94
:10315000026F9EEC13F0D0EC13F0EFD7C551C611FF
:0C31600003E0D0EC13F0FAD797D7FFD7AC
:103C840010EE15F0640E006E020E016E1F0EF66E3D
:0E3C94003B0EF76E000EF86E6AEC13F0120095
:10316C00000020007F000B0001880100019301008A
:10317C00039E010007A9010005B4010009BF01006D
:10318C0006D5010001E0010003EB010002F601008D
:10319C0005010200060C02000217020002220200C6
:1031AC00022D02000338020004430200044E020008
:1031BC000459020004640200056F0200047A020044
:1031CC000485020004900200049B020004A6020085
:1031DC0002B1020002BC020006C7020006D20200C5
:1031EC0006DD020004E8020007F3020006FE0200FE
:1031FC000509030006140300061F0300052A03003B
:10320C000535030006400300064B0300035603007C
:10321C0003610300056C03000477030007820300BD
:10322C00068D03000798030005A3030007AE0300F7
:10323C0005B9030005C4030005CF030006DA03003B
:10324C0006E5030007F0030004FB03000506040079
:10325C0004110400021C04000327040002320400C1
:10326C00053D04000548040003530400045E0400FB
:10327C000469040003740400047F0400048A04003D
:10328C000395040004A0040004AB040001B6040080
:10329C0002C1040004CC040001D7040007E20400BE
:1032AC0004ED040004F8040004030500040E0500FA
:1032BC000319050003240500022F0500043A05003C
:1032CC000545050007500500035B05000566050074
:1032DC0003710500037C05000287050003920500BD
:1032EC00069D050002A8050000000000000000007B
:1032FC0000000000000101010101000100000005B7
:10330C00050500000000000000000024247E143F8E
:10331C00121200000000041E05060C140F04040019
:10332C00000000460029002900D60028012801C40D
:10333C00000000000000000609091609192600000B
:10334C000001010100000000000000000402010166
:10335C000101010102040000010202020202020149
:10336C000004150E15040000000000000000000809
:10337C00083E0808000000000000000000000202E7
:10338C00010000000000000003000000000000002D
:10339C00000000000202000000040402020202020B
:1033AC0001010000000609090909090600000000D6
:1033BC000406040404040E000000000708080402BC
:1033CC00010F0000000007080806080807000000AD
:1033DC0000080C0A091F0808000000000F01010773
:1033EC000808070000000006010107090906000093
:1033FC0000000F0804040202010000000006090985
:10340C0006090906000000000609090E0808060056
:10341C000000000000020200020200000000000098
:10342C000202000202010000000000201C021C200D
:10343C00000000000000003F003F00000000000002
:10344C0000021C201C0200000000070808040200F7
:10345C0002000000001C2259555539021C000000C6
:10346C000C0C12123F2121000000000709090F115A
:10347C00110F000000001C22010101221C000000A1
:10348C00000F11212121110F000000001F01010F5D
:10349C0001011F000000001F01010F0101010000CC
:1034AC0000001C22013921223C00000000212121B6
:1034BC003F21212100000000070202020202070046
:1034CC0000000006040404040403000000001109B9
:1034DC000503050911000000000101010101010FA4
:1034EC00000000006363555549494100000000216C
:1034FC00232529312121000000001C2241414122B9
:10350C001C000000000F1111110F01010000000040
:10351C001C22414141221C106000000F11110F05AB
:10352C000911000000001E01010E10100F00000018
:10353C00001F0404040404040000000021212121C4
:10354C0021211E0000000021212112120C0C000070
:10355C000000494955555522220000000009090672
:10356C000606090900000000110A0A0404040400FC
:10357C000000000F08040202010F0000000301010B
:10358C000101010101010300010102020202020416
:10359C000400000302020202020202020300000401
:1035AC000A110000000000000000000000000000F4
:1035BC0000001F00020400000000000000000000DA
:1035CC00000006080E090E000000010101070909A0
:1035DC0009070000000000000601010106000000C0
:1035EC000808080E0909090E000000000000060971
:1035FC000F010E000000060101070101010100008E
:10360C00000000000E0909090E080600010101075F
:10361C000909090900000000010001010101010074
:10362C00000000020003020202020201000101017B
:10363C000905030509000000010101010101010157
:10364C000000000000003749494949000000000013
:10365C000007090909090000000000000609090912
:10366C00060000000000000709090907010100001D
:10367C0000000E0909090E080800000000050301EE
:10368C000101000000000000070102040700000017
:10369C000000010301010102000000000000090903
:1036AC0009090E000000000000110A0A0A040000BB
:1036BC0000000000494955362200000000000005BA
:1036CC0002020205000000000000110A0A0A0404AC
:1036DC0002000000000704020107000000040202BF
:1036EC0002020102020204000202020202020202AF
:1036FC0002020001020202020402020201000000A6
:10370C00000026190000000000000003030303035F
:03371C00000000AA
:10371F00000000000000000000000000000000009A
:10372F00000000000000000000000000000000008A
:10373F00000000000000000000000000000000007A
:10374F00000000000000000000000000000000006A
:10375F00000000000000000000000000000000005A
:10376F00000000000000000000000000000000004A
:10377F00000000000000000000000000000000003A
:10378F00000000000000000000000000000000002A
:10379F00000000000000000000000000000000001A
:1037AF00000000000000000000000000000000000A
:1037BF0000000000000000000000000000000000FA
:1037CF0000000000000000000000000000000000EA
:1037DF0000000000000000000000000000000000DA
:1037EF0000000000000000000000000000000000CA
:1037FF0000000000000000000000000000000000BA
:10380F0000000000000000000000000000000000A9
:10381F000000000000808080808080808000000099
:10382F008080800000000080808000000080808009
:10383F0080808080800000000080808080808000F9
:10384F000000000000000080808080808000000069
:10385F000080A0B89898B0A0800000008080800001
:10386F000000000080800000000000008080808049
:10387F000000000000808080808080808000000039
:10388F000000008080808000000000000000000029
:10389F000000000000FFFFFF313131313100000027
:1038AF00FFFF073FF0F01F07FFFF000000FFFFFFC4
:1038BF00313131313100000000FFFF6161E1F3BFB1
:1038CF001F000000FCFE070301313131F1F300004E
:1038DF0000FFFFFF3131313131000000FFFF0F1FBB
:1038EF007CF0C080FFFF0000F8FEFF030301010121
:1038FF000100000000010101FFFF010101000000B4
:10390F0000E0FC9F8387BFFCE00000000000000088
:10391F0000000000000F0F0F0C0C0C0C0C0000002F
:10392F000F0F0000000000000F0F0000000F0F0F1F
:10393F000C0C0C0C0C000000000F0F000000030F0C
:10394F000E0800000107070E0C0C0C0C0F070000EF
:10395F00000F0F0F0C0C0C0C0C0000000F0F0000D1
:10396F000001070F0F0F00000103070E0C0C0C0CCA
:10397F0006000000000C0C0C0F0F0C0C0C000008C4
:10398F000F0F0101010101030F0F000000000000E4
:10399F000000000000000000000000000000000018
:1039AF000000000000000000000000000000000008
:1039BF0000000000000000000000000000000000F8
:1039CF0000000000000000000000000000000000E8
:1039DF0000000000000000000000000000000000D8
:1039EF0000000000000000000000000000000000C8
:1039FF0000000000000000000000000000000000B8
:103A0F0000000000000000000000000000000000A7
:103A1F000000000000000000000000000000000097
:103A2F000000000000000000000000000000000087
:103A3F000000000000000000000000000000000077
:103A4F000000000000000000000000000000000067
:103A5F000000000000000000000000000000000057
:103A6F000000000000000000000000000000000047
:103A7F000000000000000000000000000000000037
:103A8F000000000000000000000000000000000027
:103A9F000000000000000000000000000000000017
:103AAF000000000000000000000000000000000007
:103ABF0000000000000000000000000000000000F7
:103ACF0000000000000000000000000000000000E7
:103ADF0000000000000000000000000000000000D7
:103AEF0000000000000000000000000000000000C7
:103AFF0000000000000000000000000000000000B7
:103B0F0000000000000000000000000000000000A6
:103B1F0020202030202D205072696E636970616CF7
:033B2F0020200053
:103B32002031202D2054656E73616F2052656465BB
:033B420020200040
:033B450056200007
:103B48002034202D2054656D706572617475726122
:033B58002020002A
:103B5B00202033202D204672657175656E63696177
:033B6B0020200017
:103B6E002032202D20436F7272656E74652052656F
:033B7E006465007B
:0A3B8100426174657269613A200028
:043B8B00474D47005B
:053B8F00524544450011
:043B94004F46460052
:043B98004F4646004E
:053B9C00524544450004
:043BA100474D470045
:043BA500474D470041
:053BA9005245444500F7
:043BAE004F46460038
:103BB20035202D2054656E73616F204261746572E9
:033BC20069610036
:013BC50000FF
:103BC6004D4F444F20444520454D455247454E43B1
:0B3BD6004941204154495641444F0032
:063BE100537461727400D0
:103BE7005072657373696F6E6520482070617261EA
:073BF70020616A75646100A2
:043BFE00494E4600E6
:013C02003091
:043C03004E614E00C0
:023C070030008B
:093C090045737175657264610078
:033C12004320004C
:073C1500426F74616F3A0079
:0E3C1C0054656D70657261747572613A2000B6
:083C2A0047657261646F7200CE
:063C320052657365740089
:083C38004469726569746100C2
:0B3C40004175746F6D617469636F0063
:073C4B004D616E75616C0014
:093C520043616C69627261720049
:053C5B005265646500E4
:0E3C60004465736C696761204361726761009F
:0B3C6E0050617274697220474D4700DE
:0A3C7900506172617220474D470050
:020000040030CA
:0E000000044C191EFF0380FF0FC00FE00F40DD
:00000001FF
