:1000000041EF19F00000000000EF00F000000000D8
:0A0010000000000000000000F3D71C
:0C001C00100E0D6E0D2EFED7000012001D
:0A002800F9DF8188F7DF81981200EC
:0C003200000000000000000000001200B0
:10003E007F0E02010F15016E01C00FF201AC03D04D
:0C004E008182819002D08192818012009A
:10005A0081948196B80E02010F11836EE0DF1200BF
:0E006A008198818481960FC283FFD9DF120036
:10007800F250026EF29E0500FF6A0150FE6E0050BB
:08008800FD6E02BEF28E1200B3
:100090007F0E02010F15006E00C00FF28194819651
:1000A000BF0E001600C00FF2008C00C00FF200C09F
:0600B00083FFBADF12001D
:1000B600120E006E000E016E830E0024E16E0F0E0E
:1000C6000120E26EFF0EE66EB1DFB0DF818481981B
:1000D60081868188A0DF83CF0FF281988196A6DF83
:1000E600A5DF120E006E000E016E830E0024E16E77
:0E00F6000F0E0120E26EE66A0FC200F012004B
:080104000AAE029E000E12007B
:10010C000B840BAE91EF00F0010E036E026A016AD4
:0A011C00006A0A360232FF0E1200DC
:0E012600026A016A006A086A036A000E12008B
:100134000B820BAEA4EF00F003680268016800684C
:080144000A360232FF0E120020
:10014C006C0E02010D6F010E0E6F000E006E06514B
:10015C00005C02E10551000843E276C1E1FF77C182
:10016C00E2FF01C2E6FF02C2E6FF03C2E6FF04C2E1
:10017C00E6FF05C2E6FF06C2E6FF090EE66E020EBA
:10018C00E66E74C100F075C101F070DF00C00BF2B7
:10019C0001C00CF20201076B086B0A51085D02E109
:1001AC000951075D11E20BC2E9FF0CC2EAFF0DC257
:1001BC00E1FF0EC2E2FFEECFE6FF0D4B0E2B0B4B19
:1001CC000C2B074B082BE9D70951055F0A51065B2D
:1001DC00095101270A510223000E03230423B5D72A
:0201EC001200FF
:1001EE000C6A0E6A0250D8A410EF01F001C002F0A2
:1001FE0000C001F0006A0E860250D8A410EF01F084
:10020E0001C002F0016A0E960E880250D8B422EF99
:10021E0001F00E50035ED8A4D8A027EF01F0D890BD
:10022E0002BE2CEF01F0003601360236032E17EF18
:10023E0001F027EF01F0010E0C6E6EDF2FEF01F0D3
:10024E00020E0C6E5CDF2FEF01F0040E0C6E53DF0E
:02025E0012008C
:100260000B6A0A6A096A00500402F4CF09F0F3CF5E
:1002700008F001500502F4CF0BF0F3CF0AF0005064
:100280000502F3500926F4500A22E86A0B220150B5
:100290000402F3500926F4500A22E86A0B2208C02F
:1002A00000F009C001F00AC002F00BC003F0120018
:0C02B000240E0D6E0D2EFED70000120073
:0802BC000B6A0B86FF0E120015
:1002C4000CB0A4EF01F00CA24AEF02F00E6A000E8B
:1002D4000264BBEF01F0F00E0214D8A486EF01F023
:1002E400023A01380F0B02260138F00B016E003878
:1002F4000F0B01260038F00B006E08380F0B002698
:100304000838F00B086E0E84D89002BE9FEF01F0FF
:1003140008360036013602360E2A02BE9FEF01F07F
:1003240008360036013602360E2A02BE9FEF01F06F
:1003340008360036013602360E2A0E50036440EFAA
:1003440002F0035E0BBC08AE45EF02F0D880800ECD
:1003540008640030000E002201220222D8A045EFDA
:1003640002F0023201320032034A4AEF02F045EF52
:1003740002F001C002F000C001F008C000F0086AF9
:10038400000E0E860264F2EF01F0F00E0214D8A4FF
:10039400DAEF01F0023A01380F0B02260138F00BB4
:1003A400016E00380F0B01260038F00B006E0E842E
:1003B400D89002BE9FEF01F00036013602360E2AB5
:1003C40002BE9FEF01F00036013602360E2A02BE4D
:1003D4009FEF01F00036013602360E2A9FEF01F03E
:1003E40001C002F000C001F0006A000E0E960E88F3
:1003F40002641FEF02F0F00E0214D8A40AEF02F018
:10040400023A01380F0B02260138F00B016E0E84FC
:10041400D89002BE9FEF01F0013602360E2A02BECA
:100424009FEF01F0013602360E2A02BE9FEF01F063
:10043400013602360E2A9FEF01F001C002F0016A74
:10044400000E0E8602644FEF02F0F00E0214D8A4E0
:100454002EEF02F0023A0E84D89002BE9FEF01F014
:1004640002360E2A02BE9FEF01F002360E2A02BEA9
:100474009FEF01F002360E2A9FEF01F0010E0C6E81
:1004840043DE52EF02F0020E0C6E3ADE52EF02F03F
:10049400040E0C6E4DDE52EF02F0080E0C6E41DEBF
:0204A400120044
:1004A600000E0201015D0AE301517F0807E3000E19
:1004B600025D04E302513F0801E301D04ED001C2C0
:1004C6000FF2BADD02C20FF20F330F9F0F330F9FE9
:1004D6000F330F9FBFDD01C20FF2D7DDE9DD00C08C
:1004E60004F2E6DD00C004F202C20FF20F330F9FE2
:1004F6000F330F9F0F330F9FADDD01C20FF2C5DD26
:10050600070E0215006E00C0FFF100C001F0010EDB
:10051600006E015004E000360090FF0FFBD700C0CC
:10052600FFF1001C006F0DD00051041713D001011C
:10053600FF51020104130ED00101FF510201041BF9
:1005460009D00351000AF0E00351010AF0E003511B
:0C055600020AF2E004C20FF285DD120080
:100562000B800BAEBDEF02F0026A0AAEFF0E026E06
:0C057200016E006E0A360232FF0E12000D
:10057E0001C25DF102C25EF103C25FF1020E020121
:10058E000125F66E000E0221F76E000E0321F86EA5
:10059E000900F5CF04F0030E0125F66E000E0221C0
:1005AE00F76E000E0321F86E0900F5CF03F003C0BD
:1005BE0001F0006A045000240101606F000E01205A
:1005CE00616F040E02010125F66E000E0221F76E18
:1005DE00000E0321F86E0900F5CF04F0050E01257B
:1005EE00F66E000E0221F76E000E0321F86E090062
:1005FE00F5CF03F003C001F0006A0450002401019E
:10060E00626F000E0120636F060E02010125F66E69
:10061E00000E0221F76E000E0321F86E0900F5CFD1
:10062E006AF1000E01016B6F04C27DF1000E7E6F48
:10063E0005C27FF1010E0001DB6F0101666B676B76
:02064E00120098
:10065000086A096A000E07620364ADEF03F00250F6
:1006600006180A6E075003267E0ED8A03EEF03F050
:10067000035ED8B0B1EF03F042EF03F0035ED8A001
:10068000B5EF03F0028E068E02C00EF001C00BF033
:1006900000C00DF000500402F4CF0CF00150050230
:1006A000F4CF00F0F3CF08F00402F3500C26F4501E
:1006B0000822000E00220D500502F3500C26F450C3
:1006C0000822000E002202500402F3500826F450C3
:1006D000002202500502016A000E0122F35000269A
:1006E000F45001220D500602F3500826F450002267
:1006F000026A000E012202220B500602F35000266D
:10070000F4500122000E02220E500602F350012680
:10071000F450022202BE95EF03F00836003601368F
:1007200002360306D8B4B5EF03F0A8EF03F0D88083
:10073000800E08640030000E002201220222D8A0A0
:10074000A8EF03F0023201320032034AB1EF03F0A6
:100750000AAE029E000EB7EF03F0010EE4DCB7EF25
:1007600003F0020EE7DCB7EF03F0040ECFDC12005B
:100770000B6A0C6A086A0350D8B43CEF04F002C05C
:100780000AF0028E9E0E035E03AE2CEF04F0036CA3
:10079000080E035CD8A0F9EF03F0036E083600C022
:1007A00008F001C000F002C001F0026A080E035C0C
:1007B000D8A0F9EF03F0036E083600C008F001C0BE
:1007C00000F0016A080E035CD8A0F9EF03F0036E95
:1007D000083600C008F0006A080E035CD8A0F9EFE4
:1007E00003F0036E0836086A0350D8A4D89005EFCA
:1007F00004F00350D8B405EF04F0D890023201326F
:1008000000320832032EFDEF03F00BBC08A016EFF8
:1008100004F0D8A016EF04F0082AD8B4002AD8B4FF
:10082000012AD8B4022A02BE40EF04F00AAE3CEF1F
:1008300004F0021E011E001E081E082AD8B4002A59
:10084000D8B4012AD8B4022A3CEF04F0026A016A43
:10085000006A086A3CEF04F00B800BAE46EF04F030
:10086000026A0AAE46EF04F0026E016E006E086E78
:100870000A36023246EF04F00C6A000E47EF04F02D
:10088000010E0C6E000E6DDE47EF04F0FF0E0250FD
:10089000036E0150026E0050016E0850006E12008F
:1008A000086A096A100E0C6E0134083609360450C5
:1008B000085E0550D8A0053C095ED8B007D00450AA
:1008C00008260550D8B0053C0926D89000360136D8
:0608D0000C2EEAD7120015
:1008D6000450000A12E10550000A0FE10650000A12
:1008E6000CE10750000A09E1FF0E006EFF0E016ED3
:1008F6007F0E026EFF0E036EA7D0086A096A0750C4
:10090600D8B416EF05F00350D8B41AEF05F002502C
:1009160006180A6E028E068E0E6A02C008F001C024
:100926000CF000C00DF004500D5E0550D8A0053C3B
:100936000C5E0650D8A0063C085E086A0C6A0D6A72
:10094600D8A0ADEF04F0D89002320132003208325E
:10095600010E0E6E0750035ED8A0BAEF04F07E0EAD
:100966000E240326D8B01FEF05F0C0EF04F07E0E6C
:100976000E240326D8A024EF05F0180E0B6E0D36B4
:100986000C3608360036013602360E360450005E46
:100996000550D8A0053C015E0650D8A0063C025E74
:1009A60006340E120EA0DBEF04F00D80E6EF04F025
:1009B600045000260550D8B0053C01260650D8B094
:1009C600062802260D900B2EC2EF04F00CEF05F060
:1009D600D8900036013602360E360450005E0550B9
:1009E600D8A0053C015E0650D8A0063C025E06343F
:1009F6000E10010B0D26D8B00C2AD8B4082AD8A49C
:100A06000CEF05F008320C320D32032AD8B41FEF72
:100A160005F00AAE089E0850026E0C50016E0D508D
:100A2600006E27EF05F0010E46DC27EF05F0020EFB
:100A360093EC00F027EF05F0040E9AEC00F027EF98
:0A0A460005F0080E86EC00F0120027
:100A50000A6A0350D8A40A800750D8A40A820A5010
:100A6000D8B48BEF05F0030AD8B444EF05F00AB010
:100A70003FEF05F006AE89EF05F087EF05F002AE17
:100A800087EF05F089EF05F00250800B0A6E029E99
:100A90000650800B069E0A18D8B455EF05F00A5090
:100AA000D8B487EF05F089EF05F00750035CD8B4A0
:100AB0005FEF05F0D8A07BEF05F081EF05F0065061
:100AC000025CD8B469EF05F0D8A07BEF05F081EFA8
:100AD00005F00550015CD8B473EF05F0D8A07BEFAA
:100AE00005F081EF05F00450005CD8B48BEF05F001
:100AF000D8B081EF05F00A52D8B489EF05F087EF3E
:100B000005F00A52D8B487EF05F089EF05F0D880D8
:0E0B10001200D8901200D880D8841200120073
:100B1E000D6A086A0050D8B4000C04180A6E0ABE9A
:100B2E000D1E0B6A04AE02D0041E042A00AE02D0C3
:100B3E00001E002A005004100A6E0ABE1FD0045078
:100B4E00085E003600340836045008260036060EBD
:100B5E000C6E00340836045000B0085E00A0082663
:100B6E0000360C2EF6D700A008260BB015D00DAE11
:100B7E00000C001E002A081E082A000C04AE09D024
:100B8E0000BE04D00050086E006AF1D7006A002A39
:100B9E00000C001E0B2AD3D7082A0450085CD8A4D8
:0E0BAE00E6D7086A002A00AEE2D7FF0C12005C
:100BBC00000E0101E75D04E3E7513F0801E301D0BA
:100BCC0028D0000EE55DD8A0E56BE5517F0802E268
:100BDC007F0EE56F000EE65DD8A0E66BE6517F0850
:100BEC0002E27F0EE66FE551E65D06E2E5C1E9F152
:100BFC00E6C1E5F1E9C1E6F1E551E65D0AE3E5C1DF
:100C0C0001F2E7C102F2E8C103F247DC0101E52B76
:040C1C00F3D71200F8
:100C2000E5C104F0E6C105F004C002F005C003F020
:100C3000044A052AE7C100F0E8C101F00101E74BD1
:100C4000E82B00C0E9FF01C0EAFF02C0E1FF03C0DA
:100C5000E2FFEECFE6FF02C0E9FF03C0EAFFEE527B
:0E0C600001E0E2D7E5C100F0E6C101F01200AC
:100C6E00C26A0001F61D006E0050C116070EC012BA
:100C7E00C08EE5C100F000360090003600900050A6
:100C8E00C212C28058EC01F0C282C2A201D0FDD7BE
:100C9E00C4CF01F0006AC3500012000E0112C290C0
:020CAE00120032
:100CB000E5C168F1E6C169F1E7C164F1E8C165F138
:020CC000120020
:100CC2000101FA6BFB6BFC6BFD6B6151E65D02E1AE
:100CD2006051E55D01E2C6D1E651635D02E1E55195
:100CE200625D01E2BFD16051E55D036E6151E6597B
:100CF200046E03C000F004C001F00036009001361B
:100D0200003600900136080E79250201016F000EAF
:100D120001017A210201026F000E01017B21020111
:100D2200036F000E01017C210201046F00500127B4
:100D320001500223000E03230423040E056F000E4C
:100D4200066FA6EC00F06C0E0101F86F010EF96F50
:100D5200F8C1E9FFF9C1EAFFEECFFEF1FEC1FAF1F7
:100D6200010EF825E96E000EF921EA6EEECF04F0CD
:100D7200000E056E066E076E020EF825E96E000E75
:100D8200F921EA6EEECF03F003C001F0006A000E13
:100D9200026E036E04500026055001220650022204
:100DA2000750032200507925EC6F01507A21ED6F34
:100DB20002507B21EE6F03507C21EF6FFEC100F0E9
:100DC2000032009E0032009E0032009E000E016E34
:100DD2006AC104F06BC105F030EC01F000C0F2F121
:100DE20001C0F3F1070EFE15006E04E06A51F2270E
:100DF2006B51F323F2C1F6F1F3C1F7F176C1E1FFD2
:100E020077C1E2FFECC1E6FFEDC1E6FFEEC1E6FF0E
:100E1200EFC1E6FFF2C1E6FFF3C1E6FFF00EE66EB8
:100E2200010EE66E74C100F075C101F03CEC00F0F9
:100E320000C0F8F101C0F9F10101F051EC27F151C4
:100E4200ED23000EEE23EF23F051F25FF151F35B3D
:100E5200F46BF56B7F51000AD8A481D064C1E9F12B
:100E620065C1EAF1E86B000E006E6B51005C02E1B5
:100E72006A51E85D6DE268C1FBF169C1FCF1EB6B9F
:100E8200E76BFA51E75D60E2EB51000A4AE1F44B8D
:100E9200F52BF751F15D02E1F651F05D38E2F551C3
:100EA200F15D02E1F451F05D32E2010EF46F000EE9
:100EB200F56F76C1E1FF77C1E2FFECC1E6FFEDC15C
:100EC200E6FFEEC1E6FFEFC1E6FFF2C1E6FFF3C1C6
:100ED200E6FFF00EE66E010EE66E74C100F075C11B
:100EE20001F03CEC00F000C0F8F101C0F9F1F2C1F0
:100EF200F6F1F3C1F7F10101F051EC27F151ED23C5
:100F0200000EEE23EF23F051F25FF151F35BF8C1D3
:100F1200E9FFF9C1EAFFEECFFDF1F84BF92B010E23
:100F2200EB6FEB51FD15006E08E0FBC101F2E9C168
:100F320002F27DC103F253EC02F00101FB4BFC2BE8
:100F4200EB37EB91E72B9DD7E94BEA2BE82B8BD7BD
:100F5200010EFB25686F000EFC21696F83D068C10A
:100F6200E9F169C1EAF1E86B000E006E6B51005CB9
:100F720002E16A51E85DD8B06FD064C1FBF165C18E
:100F8200FCF1EB6BE76BFA51E75D62E2EB51000AB1
:100F92004AE1F44BF52BF751F15D02E1F651F05DB8
:100FA20038E2F551F15D02E1F451F05D32E2010EF9
:100FB200F46F000EF56F76C1E1FF77C1E2FFECC17D
:100FC200E6FFEDC1E6FFEEC1E6FFEFC1E6FFF2C1CB
:100FD200E6FFF3C1E6FFF00EE66E010EE66E74C1A7
:100FE20000F075C101F03CEC00F000C0F8F101C066
:100FF200F9F1F2C1F6F1F3C1F7F10101F051EC2779
:10100200F151ED23000EEE23EF23F051F25FF15187
:10101200F35BF8C1E9FFF9C1EAFFEECFFDF1F84B4E
:10102200F92B010EEB6FEB51FD15006E08E0E9C1E3
:1010320001F2FBC102F27DC103F253EC02F0010E98
:101042000101FB5F000EFC5BEB37EB91E72B9BD7BB
:10105200E94BEA2BE82B88D7010EFB5D646F000E8B
:06106200FC59656F12004D
:101068000050086E0150006E016A026A036A0B6A3A
:101078000C6A960E036E0A6A00C001F008C000F000
:0A108800086A026AF7EC00F012009B
:101092000101ED6BEE6BEF6B0001DB51000A0FE11A
:1010A200E80E0201016F330E026F000E036F010E94
:1010B200046F056BBFEC02F0010E0001DB6F000E46
:1010C200006E01016151005C02E16051E55D01E2E7
:1010D200EAD0000E635D02E1E551625D01E2E3D018
:1010E2006051E55D016E61C102F0000E025601C061
:1010F20003F002C004F00336039004360336039073
:101102000436080E5D25006E000E5E21016E000E93
:101112005F21026E000E056E00500326015004226C
:101122000250052203C0F6FF04C0F7FF05C0F8FF16
:101132000900F5CFEDF1010E0324F66E000E042036
:10114200F76E000E0520F86E0900F5CF00F000C022
:1011520006F0000E076E086E096E020E0324F66E8C
:10116200000E0420F76E000E0520F86E0900F5CF80
:1011720003F003C001F0006A000E026E036E065017
:1011820000260750012208500222095003225D5115
:101192000024EA6F5E510120EB6F5F510220EC6F79
:1011A2007F51000A41E164C1E8F1E76B000E006E75
:1011B2006B51005C02E16A51E75D2FE268C1EEF11A
:1011C200E96BE66BED51E65D25E2E951000A10E1BB
:1011D200EAC1F6FFEBC1F7FFECC1F8FF0900F5CF5A
:1011E200EFF1010EEA27000EEB23EC23010EE96F6B
:1011F200E951EF15006E08E0EEC101F2E8C102F21A
:101202007DC103F253EC02F00101EE2BE937E991C3
:10121200E62BD8D7E82BE72BC9D7EE51010F686F21
:10122200696B000E69233FD068C1E8F1E76B000EDD
:10123200006E6B51005C02E16A51E75D2FE264C10E
:10124200EEF1E96BE66BED51E65D25E2E951000A4C
:1012520010E1EAC1F6FFEBC1F7FFECC1F8FF0900AC
:10126200F5CFEFF1010EEA27000EEB23EC23010E7E
:10127200E96FE951EF15006E08E0E8C101F2EEC135
:1012820002F27DC103F253EC02F00101EE07E937ED
:10129200E991E62BD8D7E82BE72BC9D7EE05646F87
:0812A200656B000E655B120094
:1012AA00025006180E6E086A096A0B6A0350076430
:1012BA0048EF0AF006500A6E068E028E03500B6E35
:1012CA000750036E000E0B6498EF09F00B50075E8F
:1012DA00D8B439EF0AF0070E076407EF0AF0075E81
:1012EA0000C008F001C000F002C001F0026A074E17
:1012FA0039EF0AF00764DCEF09F0075E00C008F076
:10130A0001C000F0016A074E39EF0AF00764BAEF2C
:10131A0009F0075E00C008F0006A074E39EF0AF0CC
:10132A000764A1EF09F00AC002F005C001F004C089
:10133A0000F0086A65EF0BF0030E0764ACEF09F0E2
:10134A00075E08380F0B086E074E39EF0AF0D8907F
:10135A000832074E39EF0AF0D8900832074E39EFB3
:10136A000AF0D890083239EF0AF0030E0764CBEF7F
:10137A0009F0075E08380F0B086E0038F00B0826D4
:10138A0000380F0B006E074E39EF0AF0D890003282
:10139A000832074E39EF0AF0D89000320832074E69
:1013AA0039EF0AF0D8900032083239EF0AF0030E0A
:1013BA000764F3EF09F0075E08380F0B086E003870
:1013CA00F00B082600380F0B006E0138F00B0026D0
:1013DA0001380F0B016E074E39EF0AF0D89001322F
:1013EA0000320832074E39EF0AF0D8900132003243
:1013FA000832074E39EF0AF0D8900132003208322B
:10140A0039EF0AF0030E076424EF0AF0075E083882
:10141A000F0B086E0038F00B082600380F0B006E11
:10142A000138F00B002601380F0B016E0238F00B61
:10143A00012602380F0B026E074E39EF0AF0D890D8
:10144A000232013200320832074E39EF0AF0D890E0
:10145A000232013200320832074E39EF0AF0D890D0
:10146A000232013200320832096A000E0EAE2DEF46
:10147A000BF0081E001E011E021E082A002201226D
:10148A0002222DEF0BF00750D8A44EEF0AF065EFB9
:10149A000BF0096A02C00AF0028E068E0750035C3E
:1014AA00076ED8B420EF0BF0070E0764EEEF0AF0D0
:1014BA00075E0450096E0550046E0650056E066AF2
:1014CA00074E20EF0BF0070E0764C3EF0AF0075E22
:1014DA000450096E0550046E056A074E20EF0BF0A2
:1014EA00070E0764A1EF0AF0075E0450096E046A4A
:1014FA00074E20EF0BF0070E076488EF0AF00AC0C8
:10150A0002F065EF0BF0030E076493EF0AF0075E33
:10151A0009380F0B096E074E20EF0BF0D8900932ED
:10152A00074E20EF0BF0D8900932074E20EF0BF050
:10153A00D890093220EF0BF0030E0764B2EF0AF0DD
:10154A00075E09380F0B096E0438F00B09260438B8
:10155A000F0B046E074E20EF0BF0D89004320932BD
:10156A00074E20EF0BF0D89004320932074E20EFD5
:10157A000BF0D8900432093220EF0BF0030E076407
:10158A00DAEF0AF0075E09380F0B096E0438F00B20
:10159A00092604380F0B046E0538F00B04260538AB
:1015AA000F0B056E074E20EF0BF0D8900532043270
:1015BA000932074E20EF0BF0D89005320432093277
:1015CA00074E20EF0BF0D89005320432093220EF93
:1015DA000BF0030E07640BEF0BF0075E09380F0BD5
:1015EA00096E0438F00B092604380F0B046E05380F
:1015FA00F00B042605380F0B056E0638F00B05268E
:10160A0006380F0B066E074E20EF0BF0D890063205
:10161A00053204320932074E20EF0BF0D890063219
:10162A00053204320932074E20EF0BF0D890063209
:10163A00053204320932086A000E0EAE2DEF0BF0A5
:10164A00091E041E051E061E092A04220522062258
:10165A000950082604500022055001220650022291
:10166A000EBE44EF0BF0D8A053EF0BF0023201325A
:10167A0000320832033E53EF0BF05FEF0BF0D8B0A5
:10168A0059EF0BF0000E081E001E011E021E082A4A
:10169A000022012202220A7E59EF0BF0010E0C6E83
:1016AA0062EC01F067EF0BF0020E0C6E62EC01F0D7
:1016BA0067EF0BF0040E0C6E9AEC00F067EF0BF07C
:0616CA00000E0C6E120080
:1016D0000101D76B050ED75D0AE2D751D525E16E22
:1016E000000ED621E26E200EE66ED72BF3D7D7512F
:1016F000D525E16E000ED621E26EE66AD707D751F6
:10170000D525D86F000ED621D96F0A0E046E000EB3
:10171000056ED3C100F0D4C101F050EC04F008C054
:1017200000F009C001F0300E0026D8C1E1FFD9C198
:10173000E2FF00C0E6FF0A0E046E000E056ED3C184
:1017400000F0D4C101F050EC04F000C0D3F101C0AE
:10175000D4F1000E011802E1000E001801E102D0E0
:06176000D707CDD71200EF
:041766008088120065
:10176A000101E06BE16BE26BE36BE46BD3C1DCF18B
:10177A00D4C1DDF1D5C1DEF1D6C1DFF1DF51FF0AF7
:10178A0008E1DE51FF0A05E1DD51FF0A02E1DC5101
:10179A00FF0A0DE1D7C1E5F1D8C1E6F1F70EE76F0F
:1017AA00000EE86F10EC06F0030E006E5ED2010E1A
:1017BA00DA6FDEAF0FD0800EDE19006E00C0DEF1E8
:1017CA00DA2BE12BD7C1E1FFD8C1E2FF2D0EE66E7D
:1017DA00D74BD82B000E006EDF1908E10050DE1936
:1017EA0005E10050DD1902E1DC51000A0CE1D7C124
:1017FA00E5F1D8C1E6F1FB0EE76F000EE86F10ECD9
:10180A0006F0006A32D2DF51FF0A08E1DE51000A0F
:10181A0005E1DD51000A02E1DC51000A0DE1D7C100
:10182A00E5F1D8C1E6F1D70EE76F000EE86F10ECCC
:10183A0006F0DAC100F019D2000E046E000E056E31
:10184A00000E066E7F0E076EDCC100F0DDC101F0EE
:10185A00DEC102F0DFC103F028EC05F0010ED8B0BA
:10186A00000E006E00521CE0DCC100F0DDC101F088
:10187A00DEC102F0DFC103F0000E046E000E056E39
:10188A00200E066E820E076E28EC03F000C0DCF113
:10189A0001C0DDF102C0DEF103C0DFF1E407CCD7FD
:1018AA00000E046E000E056E200E066E820E076E86
:1018BA00DCC100F0DDC101F0DEC102F0DFC103F0DE
:1018CA0028EC05F0000ED8B0010E006E00521CE0A4
:1018DA00DCC100F0DDC101F0DEC102F0DFC103F0BE
:1018EA00CD0E046ECC0E056E4C0E066E7B0E076E88
:1018FA0028EC03F000C0DCF101C0DDF102C0DEF12A
:10190A0003C0DFF1E42BCCD7FF0EDC15086EFF0E07
:10191A00DD15096E7F0EDE150A6E000EDF150B6EE1
:10192A0008C004F009C005F00AC006F00BC007F0B1
:10193A0004360490053606360736000EDC15006EAE
:10194A00000EDD15016E000EDE15026EFF0EDF15AC
:10195A00036E00C0DCF101C0DDF102C0DEF103C09C
:10196A00DFF10450DC11006E0550DD11016E0650E6
:10197A00DE11026E0750DF11036E00C0DCF101C0F8
:10198A00DDF102C0DEF103C0DFF17F0EDF5D006E24
:10199A0000C0DBF1010EDF6F00C004F0DCC100F013
:1019AA00DDC101F0DEC102F0DFC103F0045007E03F
:1019BA0000360090013602360336FF0FF8D700C012
:1019CA00DCF101C0DDF102C0DEF103C0DFF1D7C1F5
:1019DA00E1FFD8C1E2FFDF51300FE66ED74BD82BBB
:1019EA00E12B800EE419006E800E010A005C08E308
:1019FA00800E060A006E800EE419005C01E30BD02B
:101A0A00D7C1E1FFD8C1E2FF2E0EE66ED74BD82B25
:101A1A00010EE06FE12B060EDB6FDB51000A58E086
:101A2A00DF6BDCC100F0DDC101F0DEC102F0DFC115
:101A3A0003F0003600900136023603360036009075
:101A4A00013602360336DC510026DD510122DE5111
:101A5A000222DF51032200C0DCF101C0DDF102C025
:101A6A00DEF103C0DFF1DCC100F0DDC101F0DEC14F
:101A7A0002F0DFC103F00036009001360236033669
:101A8A0000C0DCF101C0DDF102C0DEF103C0DFF10C
:101A9A00D7C1E1FFD8C1E2FFDF51300FE66ED74B65
:101AAA00D82BE12BE051000A11E1E407E451000AC6
:101ABA000DE1010EE36FD7C1E1FFD8C1E2FF2E0E9F
:101ACA00E66ED74BD82B010EE06FE12BDB07A5D7CB
:101ADA00E351010AD8B4E107FF0ED725E96EFF0EDC
:101AEA00D821EA6EEE502E0A05E1010ED75F000EEC
:101AFA00D85BE107800E000A006E800EE419005CD4
:101B0A0002E2010EE26F800EE419006E800E000AF6
:101B1A00005C02E2020EE26FE4C1DBF1800E090A08
:101B2A00006E800EE419005C02E3E22B02D0020E82
:101B3A00E227E251E125016E026A000E0222800EBE
:101B4A000218006E800E005C02E1D951015C0AE2C3
:101B5A00D7C1E1FFD8C1E2FF300EE66ED74BD82BD2
:101B6A00E12BE7D7E451000A43E0D7C1E1FFD8C12E
:101B7A00E2FF650EE66ED74BD82B800EE419006E95
:101B8A00800E000A005C0BE2D7C1E1FFD8C1E2FF78
:101B9A002D0EE66ED74BD82BE4510008E46FE4C152
:101BAA00DBF1800E090A006E800EE419005C0FE278
:101BBA000A0E046EDBC100F08FEC05F0D7C1E1FF1D
:101BCA00D8C1E2FF0050300FE66ED74BD82B0A0E71
:101BDA00046EDBC100F08FEC05F008C000F0D7C13D
:101BEA00E1FFD8C1E2FF0050300FE66ED74BD82B89
:101BFA00E251E125006E00C0E1F1D951005C016EAD
:101C0A0001C0DBF1800E000A006E800E0118005C34
:101C1A000EE2800E000A006E800EDB19005C06E2FE
:101C2A00DB07010ED75F000ED85BF3D718D0800E02
:101C3A00DB19006E800E000A005C11E2800EDB19CF
:101C4A00006E800E000A005C0AE2DB2BD7C1E1FFBE
:101C5A00D8C1E2FF300EE66ED74BD82BEFD7D7C1EB
:0C1C6A00E1FFD8C1E2FFE66A006A120048
:101C7600000E0101D55D04E3D5517F0801E301D0D3
:101C860029D0000ED35DD8A0D36BD3513F0802E212
:101C96003F0ED36F000ED45DD8A0D46BD4513F084D
:101CA60002E23F0ED46FD351D45D06E2D3C1D7F121
:101CB600D4C1D3F1D7C1D4F1D351D45D0BE3D5C18F
:101CC60001F2D3C102F2D6C103F253EC02F00101D4
:061CD600D32BF2D712002F
:101CDC00808A330E0B6EBB0E0C6EDF0E0D6E0D2E4E
:101CEC00FED70C2EFCD70B2EFAD700000000809AE2
:021CFC001200D4
:101CFE000050086E0150006E0250016E0350026ECD
:101D0E00036A0B6A0C6A9E0E036E0A6A02AE9CEFA1
:101D1E000EF0081E001E011E021E082AD8B4002A4C
:101D2E00D8B4012AD8B4022A0A8E020E0C6E62ECC6
:041D3E0001F012009E
:041D42008098120073
:101D46000101D46BD56BD66BD76BD36B640ED35DA9
:101D56001AE2E56B37EC06F034EC08F0D4C104F077
:101D6600D5C105F0D6C106F0D7C107F055EC09F08C
:101D760000C0D4F101C0D5F102C0D6F103C0D7F13D
:101D86000101D32BE3D7000E046E000E056E480E3C
:101D9600066E850E076ED4C100F0D5C101F0D6C11E
:101DA60002F0D7C103F06BEC04F0000E046E000ED7
:101DB600056E200E066E810E076E28EC03F0B8EC59
:041DC60003F0120014
:101DCA00D4C1D8F10101D851D65D0CE3D3C1E5F1F4
:101DDA00D5C1E6F1D8C1E7F1D7C1E8F1DEEC05F0EB
:061DEA00D82BF0D7120017
:101DF000000E0101D65D02E1800ED55D01E33CD00D
:101E0000000ED85D02E1400ED75D01E335D0D96BFD
:101E1000DA6BD5C1E5F1D6C1E6F1D7C1E7F1D8C19A
:101E2000E8F158EC06F0D951D325E96EDA51D42106
:101E3000EA6EEE5221E06651671111E0D951D325C7
:101E4000E96EDA51D421EA6EEECFE5F1000EE66FCD
:101E5000000EE66F61EC06F0D94BDA2B0CD0D951AD
:101E6000D325E96EDA51D421EA6EEECFE5F149ECE3
:0A1E700008F0D94BDA2BD7D7120087
:101E7A000101D46BD56BD66BD76BD36B640ED35D74
:101E8A001BE2020EE56F37EC06F034EC08F0D4C121
:101E9A0004F0D5C105F0D6C106F0D7C107F055EC5C
:101EAA0009F000C0D4F101C0D5F102C0D6F103C0D7
:101EBA00D7F10101D32BE2D7000E046E000E056E96
:101ECA00480E066E850E076ED4C100F0D5C101F02A
:101EDA00D6C102F0D7C103F06BEC04F0B8EC03F002
:021EEA001200E4
:101EEC000101D56BD66BD3C103F0D4C104F0D3C1BF
:101EFC0005F0D4C106F003C0E9FF04C0EAFFEE50C0
:101F0C00200A04E1D551D61101E110D0010ED56F94
:101F1C00000ED66F03C0E9FF04C0EAFF05C0E1FF65
:101F2C0006C0E2FFEECFE6FF054A062A03C001F029
:101F3C0004C002F0034A042A01C0E9FF02C0EAFF10
:101F4C00EE50000AD8E1D3C100F0D4C101F0120068
:101F5C0000C008F00150006E016A026A036A0B6A45
:101F6C000C6A016A026A036A960E036E0A6A00AE74
:101F7C00C6EF0FF0081E001E082AD8B4002A0A8EDD
:101F8C0000C001F008C000F0086A026AF7EC00F02B
:021F9C00120031
:081F9E00067E55EC09F012006B
:101FA600819281800101C66BC651070811E3C6C143
:101FB6000FF22DEC00F00101C56BC5513F0806E399
:101FC600C4C10FF235EC00F0C52BF7D7C62BECD702
:101FD60081908182C66BC651070811E3C6C10FF214
:101FE6002DEC00F00101C56BC5513F0806E3C4C1E5
:101FF6000FF235EC00F0C52BF7D7C62BECD7120045
:102006000101C86BC96BCA6BC851070849E30201D5
:102016000F6B1FEC00F0C8C10FF22DEC00F00F6B38
:1020260048EC00F00101C76BC7513F0812E3C951E4
:10203600C425F66ECA51C521F76E000EC621F86E8C
:102046000900F5CF0FF235EC00F0C94BCA2BC72BB0
:10205600EBD7400E02010F6F1FEC00F0C8C10FF264
:102066002DEC00F0400E0F6F48EC00F0400E010121
:10207600C76FC7517F0812E3C951C425F66ECA510E
:10208600C521F76E000EC621F86E0900F5CF0FF2D6
:1020960035EC00F0C94BCA2BC72BEBD7C82BB4D7EE
:0220A600120026
:1020A800000E0101C91902E1000EC81909E1C4C1F5
:1020B80001F2C6C102F2CAC103F253EC02F003D125
:1020C8000101CF6BD06BC451C65DD16FC551C759E3
:1020D800D26FC8C1CDF1C9C1CEF1C8C100F0C9C124
:1020E80001F000360090013600C0CBF101C0CCF100
:1020F80000500308CB6F01C0CCF1000ECC57010E85
:10210800CD25016E000ECE21026E800ED019006E14
:10211800800E0218005C02E10150CF5DD8B0D3D028
:10212800CF51C4250201016F0101CD51C62502011D
:10213800026FCAC103F253EC02F00101CF51C4256A
:102148000201016F0101CD51C65D0201026FCAC1D2
:1021580003F253EC02F0800E006E800E0101D019DC
:10216800005C02E1CF5100081BE2CF51C45D0201BF
:10217800016F0101CD51C6250201026FCAC103F2E8
:1021880053EC02F00101CF51C45D0201016F01015E
:10219800CD51C65D0201026FCAC103F253EC02F0D1
:1021A8000101D051CE1902E1CD51CF1950E0CD51E6
:1021B800C6250201016F0101D1510201015F010130
:1021C800CF51C6250201026FCAC103F253EC02F0D7
:1021D8000101CD51C65D0201016F0101D15102011A
:1021E800015F0101CF51C6250201026FCAC103F286
:1021F80053EC02F0800E006E800E0101D019005CD5
:1022080002E1CF51000823E2CD51C6250201016F3A
:102218000101D1510201015F0101CF51C65D0201E7
:10222800026FCAC103F253EC02F00101CD51C65D41
:102238000201016F0101D1510201015F0101CF517A
:10224800C65D0201026FCAC103F253EC02F0800EB0
:102258000101CC19006E800E005C02E1000ECB5D1E
:1022680013E2CFC100F0D0C101F000360090013672
:10227800003600900136060E0026000E012200509E
:10228800CB270150CC231CD0CD51CF5D036ECE514E
:10229800D059046E03C000F004C001F0003600906D
:1022A80001360036009001360A0E0026000E012283
:1022B8000050CB270150CC23010ECD5F000ECE5B22
:0822C800CF4BD02B1CD71200F4
:1022D000C4C1E5F1C6C1E6F1C5C1E7F1C8C1E8F185
:1022E000DEEC05F0C4C1E5F1C6C1E6F1C7C1E7F116
:1022F000C8C1E8F1DEEC05F0C5C1D3F1C7C1D4F126
:10230000C4C1D5F1C8C1D6F1B6DCC5C1D3F1C7C1CE
:0E231000D4F1C6C1D5F1C8C1D6F1ADDC1200C2
:10231E000F0E0101C86F000EC96FA8DDE9DC00C009
:10232E0096F101C097F102C098F103C099F1000E29
:10233E00046E000E056E700E066E830E076E28EC90
:10234E0003F0000E046EC00E056E7F0E066E880E34
:10235E00076E6BEC04F000C0A1F101C0A2F102C047
:10236E00A3F103C0A4F100C0D3F101C0D4F102C0A7
:10237E00D5F103C0D6F19A0E0101D76F010ED86FB9
:10238E00040ED96FB5EC0BF09A0ED36F010ED46F0D
:10239E00A6DDC8C100F0C9C101F0D9DDC4C104F089
:1023AE00C5C105F0C6C106F0C7C107F055EC09F06E
:1023BE0000C004F001C005F002C006F003C007F033
:1023CE0096C100F097C101F098C102F099C103F0D7
:1023DE0028EC05F0000ED8B0010E006E005227E179
:1023EE00C8C100F0C9C101F0B2DD00C004F001C0E7
:1023FE0005F002C006F003C007F0C4C100F0C5C16D
:10240E0001F0C6C102F0C7C103F0C2DD96C104F0EF
:10241E0097C105F098C106F099C107F028EC05F0B8
:10242E00000ED8B0010E006E005201E139D0460EFA
:10243E00D36F0F0ED46F590ED56F1E0ED66FD76B8E
:10244E00BDDC0E0ED36F010ED46F0A0ED56F000ECB
:10245E00D66F0F0ED76F000ED86FC3DC9A0ED36FE8
:10246E00010ED46F460ED56F000ED66F0F0ED76FBE
:10247E00000ED86FB6DC480ED36F010ED46F5A0E15
:10248E00D56F000ED66F0F0ED76F000ED86FA9DC6A
:10249E0096C1C4F197C1C5F198C1C6F199C1C7F1F2
:0224AE0012001A
:1024B000010E0101C86F000EC96F45DC20DC00C0B1
:1024C00080F101C081F102C082F103C083F1000EEE
:1024D000046EC00E056E7F0E066E880E076E6BECE6
:1024E00004F0000E046E000E056E480E066E850E9A
:1024F000076E28EC03F000C084F101C085F102C032
:1025000086F103C087F100C0D3F101C0D4F102C04D
:10251000D5F103C0D6F1880E0101D76F010ED86F37
:10252000040ED96FB5EC0BF0880ED36F010ED46F8B
:10253000DDDCC8C100F0C9C101F010DDC4C104F088
:10254000C5C105F0C6C106F0C7C107F055EC09F0DA
:1025500000C004F001C005F002C006F003C007F09F
:1025600080C100F081C101F082C102F083C103F09B
:1025700028EC05F0000ED8B0010E006E005227E1E5
:10258000C8C100F0C9C101F0E9DC00C004F001C01D
:1025900005F002C006F003C007F0C4C100F0C5C1D9
:1025A00001F0C6C102F0C7C103F0F9DC80C104F03C
:1025B00081C105F082C106F083C107F028EC05F067
:1025C000000ED8B0010E006E005201E147D0460E59
:1025D000D36F0F0ED46F5C0ED56F1E0ED66FD76BF8
:1025E000E5EC0EF08F0EE56F010EE66F880EE76FDB
:1025F000010EE86F10EC06F0000ED36F010ED46FE1
:102600000A0ED56F000ED66F0F0ED76F000ED86F63
:10261000F8EC0EF0880ED36F010ED46F480ED56F14
:10262000000ED66F0F0ED76F000ED86FF8EC0EF0BD
:10263000FD0ED36F000ED46F5D0ED56F000ED66FFA
:102640000F0ED76F000ED86FF8EC0EF080C1C4F1FA
:0E26500081C1C5F182C1C6F183C1C7F112007C
:10265E00B3EC0BF06EEC0EF0010E0101186F000ED4
:06266E00196F80961200B6
:1026740084B216D084A014D08482010E0101A76F05
:10268400000EA86F020EA56F000EA66F820E0C6ED0
:10269400DD0E0D6E0D2EFED70C2EFCD700000000B3
:0226A400120022
:1026A60084B216D084A014D08490010E0101A76FC5
:1026B600000EA86F010EA56F000EA66F820E0C6E9F
:1026C600DD0E0D6E0D2EFED70C2EFCD70000000081
:0226D6001200F0
:1026D80084928480010E0101A76F000EA86FA56B7C
:1026E800A66B820E0C6EDD0E0D6E0D2EFED70C2E17
:0826F800FCD7000000001200F5
:102700000101CA6BCB6BC4C1CCF1C5C1CDF1800E48
:10271000C519006E800E005C02E1000EC45D0BE284
:10272000010ECA6F000ECB6FC4510008CC6FC5C13B
:10273000CDF1000ECD57CCC1D3F1CDC1D4F1C6C17E
:10274000D5F1C7C1D6F168EC0BF0060EC86F000ECC
:10275000C96F000E006EC951005C02E1C85100084B
:1027600019E2C851C625E16EC951C721E26E010EBA
:10277000C85D006E000EC959016E0050C625E96E95
:102780000150C721EA6EEECFE6FF010EC85F000ED2
:10279000C95BDFD7C6C1E1FFC7C1E2FF200EE66E0D
:1027A000CA51CB111AE0C86BC96BC851C625E96E76
:1027B000C951C721EA6EEE50200A03E1C84BC92B6C
:1027C000F4D7010EC85F000EC95BC851C625E16E83
:0C27D000C951C721E26E2D0EE66E12000A
:0C27DC00A1EC0EF00101186B196B12004B
:1027E800000E0101B11902E1010EB0190DE1010E4F
:1027F800D36F0D0ED46F7E0ED56F3E0ED66FD76B8E
:0C280800E5EC0EF0B06BB16B86DD120049
:102814000900F5CFE6FF0006FBE10106F9E112002D
:10282400000E0101561902E1010E5519D8A479D000
:10283400C46BC56B7F0EC66F3F0EC76F010EC86FAA
:1028440045DDD36BD46B7F0ED56F0C0ED66F010EA6
:10285400D76FE5EC0EF0E80E0201016F330E026F44
:10286400000E036F046B056BBFEC02F0B8C1D3F12B
:10287400B9C1D4F11E0ED56F000ED66F010ED76FFD
:10288400000ED86FF8EC0EF0760EC46F000EC56F14
:10289400060EC66F000EC76F060EC86F000EC96F16
:1028A400020ECA6F54EC10F0000E0001B11902E1DF
:1028B400010EB0190FE1830E0101D36F000ED46F26
:1028C400730ED56F000ED66F010ED76F000ED86F42
:1028D400F8EC0EF00101000E381902E1010E37196F
:1028E4000EE16E0ED36F000ED46F730ED56F000E13
:1028F400D66F010ED76F000ED86FF8EC0EF0E80E0D
:102904000201016F330E026F000E036F010E046F9C
:10291400056BBFEC02F0556B566B010EB06F000EE9
:04292400B16F12007D
:102928000101786B666B676B939A9398939493966F
:1029380093929390819A120E006E000E016E830E90
:102948000024E16E0F0E0120E26EE66A8194819602
:1029580081928180818A3F0E836E14EC00F0C00E54
:10296800836E14EC00F0818281903F0E836E14EC2C
:0C29780000F0C00E836E14EC00F01200A2
:10298400000E0101BC6F000EBD6F700EBE6F840E91
:10299400BF6F000EC06F000EC16F340EC26F840E85
:1029A400C36FA3EC0EF07FEC0EF0000E046EC00EAD
:1029B400056E7F0E066E880E076E6BEC04F0000E3B
:1029C400046E000E056E480E066E850E076E28EC2A
:1029D40003F000C0B8F101C0B9F102C0BAF103C0FC
:1029E400BBF100C004F001C005F002C006F003C052
:1029F40007F0C0C100F0C1C101F0C2C102F0C3C1FF
:102A040003F028EC05F0000ED8B0010E006E005261
:102A1400D8A48086BCC104F0BDC105F0BEC106F0D7
:102A2400BFC107F0B8C100F0B9C101F0BAC102F0EA
:102A3400BBC103F028EC05F0000ED8B0010E006E07
:082A44000052D8A48096120094
:102A4C000101C46BD3EC0FF082A409D09B0EC46FB0
:102A5C00390EC56F000EC66F03EC10F0F5D7C46BC2
:0E2A6C00D3EC0FF0010E556F000E566F1200E6
:102A7A0084B41DD0EFDD1A0E0B6E5E0E0C6E6E0E58
:102A8A000D6E0D2EFED70C2EFCD70B2EFAD700009A
:102A9A001EDE1A0E0B6E5E0E0C6E6E0E0D6E0D2E77
:102AAA00FED70C2EFCD70B2EFAD70000DEDD120063
:102ABA00000E0101B11902E1010EB01911E1010E76
:102ACA00D36F0D0ED46F7E0ED56F3E0ED66FD76BB9
:102ADA00E5EC0EF0010EA76F000EA86FB06BB16B9C
:102AEA00000EA81902E1010EA719D8A41BD1C46BC4
:102AFA00330EC56F7F0EC66F3F0EC76F010EC86FCC
:102B0A0068EC11F0010ED36F340ED46F7E0ED56FC0
:102B1A003E0ED66FD76BE5EC0EF0F0D0610ED36F98
:102B2A00000ED46F060ED56F000ED66F340ED76F17
:102B3A00000ED86FF8EC0EF02B0ED36F330ED46F55
:102B4A00550ED56F3E0ED66F010ED76FE5EC0EF01F
:102B5A00E80E0201016F330E026F000E036F046B61
:102B6A00056BBFEC02F0660ED36F000ED46F370E02
:102B7A00D56F000ED66F340ED76F000ED86FF8ECF3
:102B8A000EF0E80E0201016F330E026F000E036FA2
:102B9A00010E046F056BBFEC02F06A0ED36F000ED4
:102BAA00D46F600ED56F000ED66F340ED76F000E3D
:102BBA00D86FF8EC0EF0A76BA86BB4D0010ED36FE8
:102BCA00330ED46F2A0ED56F3E0ED66F010ED76F15
:102BDA00E5EC0EF0E80E0201016F330E026F000EF3
:102BEA00036F046B056BBFEC02F0E90ED36F000EA6
:102BFA00D46F060ED56F000ED66F340ED76F000E47
:102C0A00D86FF8EC0EF0E80E0201016F330E026F76
:102C1A00000E036F010E046F056BBFEC02F0EE0E9F
:102C2A00D36F000ED46F370ED56F000ED66F340EE9
:102C3A00D76F000ED86FF8EC0EF0F20ED36F000EBD
:102C4A00D46F600ED56F000ED66F340ED76F000E9C
:102C5A00D86FF8EC0EF0A76BA86B64D0E40ED36FB4
:102C6A00000ED46F060ED56F000ED66F340ED76FD6
:102C7A00000ED86FF8EC0EF0DC0ED36F000ED46F96
:102C8A00370ED56F000ED66F340ED76F000ED86F81
:102C9A00F8EC0EF0550ED36F330ED46F7E0ED56F4F
:102CAA003E0ED66F010ED76FE5EC0EF0E80E02016C
:102CBA00016F330E026F000E036F046B056BBFECDE
:102CCA0002F0E00ED36F000ED46F600ED56F000EC7
:102CDA00D66F340ED76F000ED86FF8EC0EF0E80EF0
:102CEA000201016F330E026F000E036F010E046FB3
:102CFA00056BBFEC02F0A76BA86B14D0000EA619E7
:102D0A0002E1000EA519D8B409D7000EA61902E1EE
:102D1A00010EA519D8B452D7000EA61902E1020E67
:062D2A00A5199CE0120057
:102D3000000E0101B11902E1010EB0190DE1010E01
:102D4000D36F0D0ED46F7E0ED56F3E0ED66FD76B40
:0E2D5000E5EC0EF0B06BB16B58EC12F0120017
:102D5E00010E0101E56F37EC06F000C0B2F101C0C3
:102D6E00B3F1800E026E800E0118025C02E100507B
:102D7E000A080CE2050E0101D36F1E0ED46F500E21
:102D8E00D56F280ED66FD76BE5EC0EF00101000E55
:102D9E00B71902E1010EB6194EE1B351B51902E1B0
:102DAE00B451B2190FE0050ED36F320ED46F640E0C
:102DBE00D56F3C0ED66FD76BE5EC0EF0B2C1B4F109
:102DCE00B3C1B5F1B2C1C4F1B3C1C5F1A90EC66F9D
:102DDE00010EC76F8EDCA90ED36F010ED46F76EC89
:102DEE000FF0A90ED36F010ED46F280ED56F000E03
:102DFE00D66F320ED76F000ED86FF8EC0EF0300E85
:102E0E00D36F010ED46F050ED56F000ED66F320E36
:102E1E00D76F000ED86FF8EC0EF0020E0B6E450E4B
:102E2E000C6EA90E0D6E0D2EFED70C2EFCD70B2E92
:102E3E00FAD700000000800EB319006E800E005C01
:102E4E0002E1500EB25D19E3800E006E800EB319D2
:102E5E00005C02E1B251640810E305DC280E0101AA
:102E6E00D36F010ED46F050ED56F000ED66F1E0EEA
:102E7E00D76F000ED86FF8EC0EF0800EB319006EFF
:102E8E00800E005C02E1780EB25D18E3800E006EDB
:102E9E00800EB319005C02E1B2518C080FE315DC11
:102EAE001A0ED36F010ED46F050ED56F000ED66FAE
:102EBE001E0ED76F000ED86FF8EC0EF0800EB31901
:102ECE00006E800E005C02E1AA0EB25D1AE3800E67
:102EDE00006E800EB319005C02E1B251BE0811E320
:102EEE0053EC13F0430E0101D36F010ED46F050E98
:102EFE00D56F000ED66F1E0ED76F000ED86FF8EC82
:102F0E000EF0800EB319006E800E005C02E1C80E4A
:102F1E00B25D2DE3800E006E800EB319005C02E1EF
:102F2E00B251DC0824E3390ED36F010ED46F050EB7
:102F3E00D56F000ED66F1E0ED76F000ED86FF8EC41
:102F4E000EF0000E381902E1010E371910E1000ED5
:102F5E00191902E1010E181907E0000E191902E104
:102F6E00020E181901E003D032DC186B196B800EBB
:102F7E00B319006E800E005C02E1E60EB25D29E32D
:102F8E00800E006E800EB319005C02E1B251F008A3
:102F9E0020E39A0ED36F000ED46F050ED56F000E80
:102FAE00D66F1E0ED76F000ED86FF8EC0EF0000E17
:102FBE00381902E1010E37190CE1000E191902E160
:102FCE00000E181906E12FEC13F0010E186F000E0B
:102FDE00196F800EB319006E800E010A005C02E1BB
:102FEE00360EB25D2AE3800E010A006E800EB31912
:102FFE00005C02E1B2514A0820E3000E381902E1EA
:10300E00010E37191AE1A50ED36F000ED46F050EFF
:10301E00D56F000ED66F1E0ED76F000ED86FF8EC60
:10302E000EF0376B386B010E0001B06F000EB16FF2
:10303E00010E0101556F000E566F800EB319006E12
:10304E00800E020A005C02E14E0EB25D2CE3800E91
:10305E00020A006E800EB319005C02E1B2516208E2
:10306E0022E3000E0001B11902E1010EB0191BE1BD
:10307E00850E0101D36F000ED46F050ED56F000EB5
:10308E00D66F1E0ED76F000ED86FF8EC0EF0010E35
:10309E00376F000E386F0001B06BB16B010E01017E
:1030AE00556F000E566F0101800EB319006E800E23
:1030BE00020A005C02E1A80EB25D19E3800E020A5C
:1030CE00006E800EB319005C02E1B251BC080FE332
:1030DE008C0ED36F000ED46F050ED56F000ED66F0B
:1030EE001E0ED76F000ED86FF8EC0EF08078800EA3
:1030FE00B319006E800E030A005C02E13E0EB25D53
:10310E0031E3800E030A006E800EB319005C02E1FB
:10311E00B251520827E3920ED36F000ED46F050EF4
:10312E00D56F000ED66F1E0ED76F000ED86FF8EC4F
:10313E000EF0000EB71902E1000EB61913E1800E63
:10314E005819006E800E5C19005C02E15B51575DF0
:10315E0003E2574B582B02D0576B586B010E556F2D
:10316E00000E566F800EB319006E800E030A005CBF
:10317E0002E1700EB25D3FE3800E030A006E800E18
:10318E00B319005C02E1B251840835E3C50ED36F6A
:10319E00000ED46F050ED56F000ED66F1E0ED76FB4
:1031AE00000ED86FF8EC0EF0060E0B6E130E0C6EB2
:1031BE00AD0E0D6E0D2EFED70C2EFCD70B2EFAD7A4
:1031CE0000000000B651B711010ED8A4000EB66F64
:1031DE00000EB76F000EB71902E1000EB6190BE123
:1031EE00050ED36F320ED46F640ED56F3C0ED66FB4
:1031FE00D76BE5EC0EF0800EB319006E800E030A4D
:10320E00005C02E1D40EB25D34E3800E030A006E60
:10321E00800EB319005C02E1B251E8082AE3CE0E2B
:10322E00D36F000ED46F050ED56F000ED66F1E0E27
:10323E00D76F000ED86FF8EC0EF0000EB71902E142
:10324E00000EB61916E1800E006E800E5819005C45
:10325E0002E15751000805E2010E575F000E585B60
:10326E0004D05BC157F15CC158F1010E556F000ED1
:04327E00566F120075
:1032820069EC1FF0B20E0101596F000E5A6F3B0E2E
:103292004F6F000E506F280E516F000E526F150EB9
:1032A2004B6F000E4C6F4E0E4D6F000E4E6F700E38
:1032B200536F000E546F060E5B6F000E5C6F0C0EA8
:1032C200C112070EB412070E926E800E946EF00EAB
:1032D200956E040E966E816A826A836A846A94ECA1
:1032E20014F0C46BD3EC0FF0040E576F000E586F3E
:1032F200010E556F000E566FB66BB76B010EA56FC0
:10330200000EA66F80968098809A2FD059C1B8F18E
:103312005AC1B9F112EC14F05DEC15F04BD04FC16B
:10332200B8F150C1B9F112EC14F044D051C1B8F166
:1033320052C1B9F112EC14F03DD04BC1B8F14CC1FD
:10334200B9F112EC14F036D04DC1B8F14EC1B9F159
:1033520012EC14F0ECDC2ED053C1B8F154C1B9F127
:1033620012EC14F0F4EC13F025D00101000E581900
:1033720002E1000E5719CAE0000E581902E1010ECF
:103382005719CDE0000E581902E1020E5719CEE08E
:10339200000E581902E1030E5719CFE0000E58191A
:1033A20002E1040E5719D0E0000E581902E1050E91
:1033B2005719D2E0D3DC000E191902E1000E1819D8
:1033C20002E1C2EC14F0000E0001B11902E1010E9B
:1033D200B01902E13DEC15F082A403D026EC15F001
:0633E200FBD793D7FFD7D3
:103ED20010EE15F0360E006E020E016E9B0EF66E9F
:0E3EE2003D0EF76E000EF86E0AEC14F01200A2
:1033E800000020007F000B0001880100019301000C
:1033F800039E010007A9010005B4010009BF0100EF
:1034080006D5010001E0010003EB010002F601000E
:1034180005010200060C0200021702000222020047
:10342800022D02000338020004430200044E020089
:103438000459020004640200056F0200047A0200C5
:103448000485020004900200049B020004A6020006
:1034580002B1020002BC020006C7020006D2020046
:1034680006DD020004E8020007F3020006FE02007F
:103478000509030006140300061F0300052A0300BC
:103488000535030006400300064B030003560300FE
:1034980003610300056C030004770300078203003F
:1034A800068D03000798030005A3030007AE030079
:1034B80005B9030005C4030005CF030006DA0300BD
:1034C80006E5030007F0030004FB030005060400FB
:1034D80004110400021C0400032704000232040043
:1034E800053D04000548040003530400045E04007D
:1034F8000469040003740400047F0400048A0400BF
:103508000395040004A0040004AB040001B6040001
:1035180002C1040004CC040001D7040007E204003F
:1035280004ED040004F8040004030500040E05007B
:103538000319050003240500022F0500043A0500BD
:103548000545050007500500035B050005660500F5
:1035580003710500037C050002870500039205003E
:10356800069D050002A805000000000000000000FC
:103578000000000000010101010100010000000538
:10358800050500000000000000000024247E143F10
:10359800121200000000041E05060C140F0404009B
:1035A800000000460029002900D60028012801C48F
:1035B800000000000000000609091609192600008D
:1035C80000010101000000000000000004020101E8
:1035D80001010101020400000102020202020201CB
:1035E8000004150E1504000000000000000000088B
:1035F800083E080800000000000000000000020269
:1036080001000000000000000300000000000000AE
:10361800000000000202000000040402020202028C
:103628000101000000060909090909060000000057
:103638000406040404040E0000000007080804023D
:10364800010F00000000070808060808070000002E
:1036580000080C0A091F0808000000000F010107F4
:103668000808070000000006010107090906000014
:1036780000000F0804040202010000000006090906
:1036880006090906000000000609090E08080600D8
:10369800000000000002020002020000000000001A
:1036A8000202000202010000000000201C021C208F
:1036B800000000000000003F003F00000000000084
:1036C80000021C201C020000000007080804020079
:1036D80002000000001C2259555539021C00000048
:1036E8000C0C12123F2121000000000709090F11DC
:1036F800110F000000001C22010101221C00000023
:10370800000F11212121110F000000001F01010FDE
:1037180001011F000000001F01010F01010100004D
:1037280000001C22013921223C0000000021212137
:103738003F212121000000000702020202020700C7
:10374800000000060404040404030000000011093A
:103758000503050911000000000101010101010F25
:1037680000000000636355554949410000000021ED
:10377800232529312121000000001C22414141223A
:103788001C000000000F1111110F010100000000C2
:103798001C22414141221C106000000F11110F052D
:1037A8000911000000001E01010E10100F0000009A
:1037B800001F040404040404000000002121212146
:1037C80021211E0000000021212112120C0C0000F2
:1037D80000004949555555222200000000090906F4
:1037E8000606090900000000110A0A04040404007E
:1037F8000000000F08040202010F0000000301018D
:103808000101010101010300010102020202020497
:103818000400000302020202020202020300000482
:103828000A11000000000000000000000000000075
:1038380000001F000204000000000000000000005B
:10384800000006080E090E00000001010107090921
:103858000907000000000000060101010600000041
:103868000808080E0909090E0000000000000609F2
:103878000F010E000000060101070101010100000F
:10388800000000000E0909090E08060001010107E1
:1038980009090909000000000100010101010100F6
:1038A80000000002000302020202020100010101FD
:1038B80009050305090000000101010101010101D9
:1038C8000000000000003749494949000000000095
:1038D8000007090909090000000000000609090994
:1038E800060000000000000709090907010100009F
:1038F80000000E0909090E08080000000005030170
:103908000101000000000000070102040700000098
:103918000000010301010102000000000000090984
:1039280009090E000000000000110A0A0A0400003C
:10393800000000004949553622000000000000053B
:1039480002020205000000000000110A0A0A04042D
:103958000200000000070402010700000004020240
:103968000202010202020400020202020202020230
:103978000202000102020202040202020100000027
:1039880000002619000000000000000303030303E1
:033998000000002C
:10399B00000000000000000000000000000000001C
:1039AB00000000000000000000000000000000000C
:1039BB0000000000000000000000000000000000FC
:1039CB0000000000000000000000000000000000EC
:1039DB0000000000000000000000000000000000DC
:1039EB0000000000000000000000000000000000CC
:1039FB0000000000000000000000000000000000BC
:103A0B0000000000000000000000000000000000AB
:103A1B00000000000000000000000000000000009B
:103A2B00000000000000000000000000000000008B
:103A3B00000000000000000000000000000000007B
:103A4B00000000000000000000000000000000006B
:103A5B00000000000000000000000000000000005B
:103A6B00000000000000000000000000000000004B
:103A7B00000000000000000000000000000000003B
:103A8B00000000000000000000000000000000002B
:103A9B00000000000080808080808080800000001B
:103AAB00808080000000008080800000008080808B
:103ABB00808080808000000000808080808080007B
:103ACB0000000000000000808080808080000000EB
:103ADB000080A0B89898B0A0800000008080800083
:103AEB0000000000808000000000000080808080CB
:103AFB0000000000008080808080808080000000BB
:103B0B0000000080808080000000000000000000AA
:103B1B000000000000FFFFFF3131313131000000A8
:103B2B00FFFF073FF0F01F07FFFF000000FFFFFF45
:103B3B00313131313100000000FFFF6161E1F3BF32
:103B4B001F000000FCFE070301313131F1F30000CF
:103B5B0000FFFFFF3131313131000000FFFF0F1F3C
:103B6B007CF0C080FFFF0000F8FEFF0303010101A2
:103B7B000100000000010101FFFF01010100000035
:103B8B0000E0FC9F8387BFFCE0000000000000000A
:103B9B0000000000000F0F0F0C0C0C0C0C000000B1
:103BAB000F0F0000000000000F0F0000000F0F0FA1
:103BBB000C0C0C0C0C000000000F0F000000030F8E
:103BCB000E0800000107070E0C0C0C0C0F07000071
:103BDB00000F0F0F0C0C0C0C0C0000000F0F000053
:103BEB000001070F0F0F00000103070E0C0C0C0C4C
:103BFB0006000000000C0C0C0F0F0C0C0C00000846
:103C0B000F0F0101010101030F0F00000000000065
:103C1B000000000000000000000000000000000099
:103C2B000000000000000000000000000000000089
:103C3B000000000000000000000000000000000079
:103C4B000000000000000000000000000000000069
:103C5B000000000000000000000000000000000059
:103C6B000000000000000000000000000000000049
:103C7B000000000000000000000000000000000039
:103C8B000000000000000000000000000000000029
:103C9B000000000000000000000000000000000019
:103CAB000000000000000000000000000000000009
:103CBB0000000000000000000000000000000000F9
:103CCB0000000000000000000000000000000000E9
:103CDB0000000000000000000000000000000000D9
:103CEB0000000000000000000000000000000000C9
:103CFB0000000000000000000000000000000000B9
:103D0B0000000000000000000000000000000000A8
:103D1B000000000000000000000000000000000098
:103D2B000000000000000000000000000000000088
:103D3B000000000000000000000000000000000078
:103D4B000000000000000000000000000000000068
:103D5B000000000000000000000000000000000058
:103D6B000000000000000000000000000000000048
:103D7B000000000000000000000000000000000038
:103D8B000000000000000000000000000000000028
:103D9B00202033202D204672657175656E63696135
:033DAB00202000D5
:103DAE002032202D20436F7272656E74652052652D
:033DBE0064650039
:103DC1002031202D2054656E73616F20526564652A
:033DD100202000AF
:103DD4002034202D2054656D706572617475726194
:033DE4002020009C
:053DE7005245444500B7
:043DEC004F464600F8
:043DF000474D4700F4
:023DF4004D0080
:103DF60035202D2054656E73616F204261746572A3
:033E0600696100EF
:023E0900410076
:073E0B004D616E75616C0052
:063E1200526573657400A7
:083E18004469726569746100E0
:0B3E200050617274697220474D47002A
:0B3E2B004175746F6D617469636F0076
:023E360000008A
:103E380020202030202D205072696E636970616CDB
:033E480020200037
:093E4B0043616C6962726172004E
:093E54004573717565726461002B
:043E5D00494E460084
:013E61000060
:043E62004F46460081
:043E6600474D47007D
:053E6A00524544450033
:053E6F0052454445002E
:043E74004F4646006F
:043E7800474D47006B
:013E7C003015
:043E7D004E614E0044
:023E810030000F
:033E8300432000D9
:0E3E860054656D70657261747572613A20004A
:0A3E9400426174657269613A200012
:023E9E00000022
:0E3EA0004465736C696761204361726761005D
:083EAE0047657261646F720048
:073EB600426F74616F3A00D6
:023EBD00010002
:0A3EBF00506172617220474D470008
:053EC900526564650074
:033ECE005620007B
:020000040030CA
:0E000000044C191EFF0380FF0FC00FE00F40DD
:00000001FF
