:10000000C5EF18F00000000000EF00F00000000055
:0A0010000000000000000000F3D71C
:0C001C00100E0D6E0D2EFED7000012001D
:0C002800000000000000000000001200BA
:0A003400F3DF8188F1DF81981200EC
:10003E0081948196B80E02010D11836EF4DF1200C9
:08004E000AAE029E000E120032
:100056007F0E02010D15016E01C00DF201AC03D039
:0C0066008182819002D081928180120082
:10007200F250026EF29E0500FF6A0150FE6E0050C1
:08008200FD6E02BEF28E1200B9
:10008A000B820BAE4FEF00F003680268016800684C
:08009A000A360232FF0E1200CB
:1000A2000B840BAE5CEF00F0010E036E026A016A74
:0A00B200006A0A360232FF0E120047
:1000BC00120E006E000E016E830E0024E16E0F0E08
:1000CC000120E26EFF0EE66EA9DFA8DF8184819825
:1000DC00818681889DDF83CF0DF2819881969EDF8A
:1000EC009DDF120E006E000E016E830E0024E16E79
:0E00FC000F0E0120E26EE66A0DC200F0120047
:10010A007F0E02010D15006E00C00DF281948196DA
:10011A00BF0E001600C00DF2008C00C00DF200C028
:06012A0083FF83DF1200D9
:0E0130008198818481960DC283FF7CDF1200CE
:0E013E00026A016A006A086A036A000E120073
:10014C000B6A0A6A096A00500402F4CF09F0F3CF73
:10015C0008F001500502F4CF0BF0F3CF0AF0005079
:10016C000502F3500926F4500A22E86A0B220150CA
:10017C000402F3500926F4500A22E86A0B2208C044
:10018C0000F009C001F00AC002F00BC003F012002D
:08019C000B6A0B86FF0E120036
:1001A4005B0E02010B6F010E0C6F000E006E065108
:1001B400005C02E1055100084AE275C1E1FF76C125
:1001C400E2FF01C2E6FF02C2E6FF03C2E6FF04C289
:1001D400E6FF05C2E6FF06C2E6FF070EE66E020E64
:1001E400E66E73C100F074C101F041DF00C009F292
:1001F40001C00AF20101FD6BFE6B0201085101010D
:10020400FE5D04E1020107510101FD5D13E209C233
:10021400E9FF0AC2EAFF0BC2E1FF0CC2E2FFEECF24
:10022400E6FF02010B4B0C2B094B0A2B0101FD4B82
:10023400FE2BE3D702010751055F0851065B075106
:10024400012708510223000E03230423AED7120012
:100254000C6A0E6A0250D8A443EF01F001C002F008
:1002640000C001F0006A0E860250D8A443EF01F0EA
:1002740001C002F0016A0E960E880250D8B455EF00
:1002840001F00E50035ED8A4D8A05AEF01F0D89024
:1002940002BE5FEF01F0003601360236032E4AEF4C
:1002A40001F05AEF01F0010E0C6E47DF62EF01F02E
:1002B400020E0C6EF4DE62EF01F0040E0C6EC5DE6D
:0202C400120026
:1002C6000B800BAE6FEF01F0026A0AAEFF0E026EF4
:0C02D600016E006E0A360232FF0E1200AC
:0C02E200240E0D6E0D2EFED70000120041
:1002EE000CB0B9EF01F00CA25FEF02F00E6A000E37
:1002FE000264D0EF01F0F00E0214D8A49BEF01F0CF
:10030E00023A01380F0B02260138F00B016E00384D
:10031E000F0B01260038F00B006E08380F0B00266D
:10032E000838F00B086E0E84D89002BEB4EF01F0C0
:10033E0008360036013602360E2A02BEB4EF01F040
:10034E0008360036013602360E2A02BEB4EF01F030
:10035E0008360036013602360E2A0E50036455EF6B
:10036E0002F0035E0BBC08AE5AEF02F0D880800E8E
:10037E0008640030000E002201220222D8A05AEF9B
:10038E0002F0023201320032034A5FEF02F05AEFFE
:10039E0002F001C002F000C001F008C000F0086ACF
:1003AE00000E0E86026407EF02F0F00E0214D8A4BF
:1003BE00EFEF01F0023A01380F0B02260138F00B75
:1003CE00016E00380F0B01260038F00B006E0E8404
:1003DE00D89002BEB4EF01F00036013602360E2A76
:1003EE0002BEB4EF01F00036013602360E2A02BE0E
:1003FE00B4EF01F00036013602360E2AB4EF01F0EA
:10040E0001C002F000C001F0006A000E0E960E88C8
:10041E00026434EF02F0F00E0214D8A41FEF02F0C3
:10042E00023A01380F0B02260138F00B016E0E84D2
:10043E00D89002BEB4EF01F0013602360E2A02BE8B
:10044E00B4EF01F0013602360E2A02BEB4EF01F00F
:10045E00013602360E2AB4EF01F001C002F0016A35
:10046E00000E0E86026464EF02F0F00E0214D8A4A1
:10047E0043EF02F0023A0E84D89002BEB4EF01F0C0
:10048E0002360E2A02BEB4EF01F002360E2A02BE6A
:10049E00B4EF01F002360E2AB4EF01F0010E0C6E2D
:1004AE00F9DD67EF02F0020E0C6ECADD67EF02F0A7
:1004BE00040E0C6EE3DD67EF02F0080E0C6E38DEF4
:0204CE0012001A
:1004D00001C26BF102C26CF103C26DF1020E0201A6
:1004E0000125F66E000E0221F76E000E0321F86E54
:1004F0000900F5CF04F0030E0125F66E000E02216F
:10050000F76E000E0321F86E0900F5CF03F003C06B
:1005100001F0006A045000240101636F000E012005
:10052000646F040E02010125F66E000E0221F76EC3
:10053000000E0321F86E0900F5CF04F0050E012529
:10054000F66E000E0221F76E000E0321F86E090010
:10055000F5CF03F003C001F0006A0450002401014C
:10056000556F000E0120566F060E02010125F66E32
:10057000000E0221F76E000E0321F86E0900F5CF80
:1005800071F1000E0101726F04C26FF1000E706F05
:1005900005C277F1010E0001C26F0101656B666B48
:0205A000120047
:1005A200000E0101FD5D0AE3FD517F0807E3000E25
:1005B200FE5D04E3FE513F0801E301D050D0FDC1CE
:1005C2000DF248DDFEC10DF20D330D9F0D330D9F6F
:1005D2000D330D9F33DDFDC10DF296DD6EDD00C0E2
:1005E20002F26BDD00C002F2FEC10DF20D330D9F6F
:1005F2000D330D9F0D330D9F21DDFDC10DF284DD05
:10060200070E0101FE15006E00C000F200C001F0ED
:10061200010E006E015004E000360090FF0FFBD780
:1006220000C000F2001C0201016F0CD00201015156
:10063200021712D00201005102130ED00201005122
:10064200021B0AD00101FF51000AF0E0FF51010A2A
:10065200F1E0FF51020AF2E002C20DF268DD12007F
:10066200E3C104F0E4C105F004C002F005C003F0E8
:10067200044A052AE5C100F0E6C101F00101E54B9B
:10068200E62B00C0E9FF01C0EAFF02C0E1FF03C0A0
:10069200E2FFEECFE6FF02C0E9FF03C0EAFFEE523F
:0E06A20001E0E2D7E3C100F0E4C101F0120074
:1006B000E3C167F1E4C168F1E5C169F1E6C16AF13E
:0206C000120026
:1006C2000A6A0350D8A40A800750D8A40A820A50A2
:1006D200D8B4C4EF03F0030AD8B47DEF03F00AB034
:1006E20078EF03F006AEC2EF03F0C0EF03F002AE04
:1006F200C0EF03F0C2EF03F00250800B0A6E029EBD
:100702000650800B069E0A18D8B48EEF03F00A50EA
:10071200D8B4C0EF03F0C2EF03F00750035CD8B4C3
:1007220098EF03F0D8A0B4EF03F0BAEF03F006504D
:10073200025CD8B4A2EF03F0D8A0B4EF03F0BAEF92
:1007420003F00550015CD8B4ACEF03F0D8A0B4EFCD
:1007520003F0BAEF03F00450005CD8B4C4EF03F026
:10076200D8B0BAEF03F00A52D8B4C2EF03F0C0EF28
:1007720003F00A52D8B4C0EF03F0C2EF03F0D880FE
:0E0782001200D8901200D880D8841200120005
:10079000000E0101E55D04E3E5513F0801E301D0EE
:1007A00028D0000EE35DD8A0E36BE3517F0802E29E
:1007B0007F0EE36F000EE45DD8A0E46BE4517F0888
:1007C00002E27F0EE46FE351E45D06E2E3C1E7F18C
:1007D000E4C1E3F1E7C1E4F1E351E45D0AE3E3C11D
:1007E000FDF1E5C1FEF1E6C1FFF1DBDE0101E32B26
:0407F000F3D7120029
:1007F4000D6A086A0050D8B4000C04180A6E0ABEC8
:100804000D1E0B6A04AE02D0041E042A00AE02D0F0
:10081400001E002A005004100A6E0ABE1FD00450A5
:10082400085E003600340836045008260036060EEA
:100834000C6E00340836045000B0085E00A0082690
:1008440000360C2EF6D700A008260BB015D00DAE3E
:10085400000C001E002A081E082A000C04AE09D051
:1008640000BE04D00050086E006AF1D7006A002A66
:10087400000C001E0B2AD3D7082A0450085CD8A405
:0E088400E6D7086A002A00AEE2D7FF0C120089
:100892000450000A12E10550000A0FE10650000A56
:1008A2000CE10750000A09E1FF0E006EFF0E016E17
:1008B2007F0E026EFF0E036EA8D0086A096A075007
:1008C200D8B4F4EF04F00350D8B4F9EF04F00250B6
:1008D20006180A6E028E068E0E6A02C008F001C069
:1008E2000CF000C00DF004500D5E0550D8A0053C80
:1008F2000C5E0650D8A0063C085E086A0C6A0D6AB7
:10090200D8A08BEF04F0D8900232013200320832C4
:10091200010E0E6E0750035ED8A098EF04F07E0E13
:100922000E240326D8B0FEEF04F09EEF04F07E0EF4
:100932000E240326D8A003EF05F0180E0B6E0D3619
:100942000C3608360036013602360E360450005E8A
:100952000550D8A0053C015E0650D8A0063C025EB8
:1009620006340E120EA0B9EF04F00D80C4EF04F0AD
:10097200045000260550D8B0053C01260650D8B0D8
:10098200062802260D900B2EA0EF04F0EAEF04F0E9
:10099200D8900036013602360E360450005E0550FD
:1009A200D8A0053C015E0650D8A0063C025E063483
:1009B2000E10010B0D26D8B00C2AD8B4082AD8A4E0
:1009C200EAEF04F008320C320D32032AD8B4FEEFFB
:1009D20004F00AAE089E0850026E0C50016E0D50D3
:1009E200006E06EF05F0010ECEEC00F006EF05F00A
:1009F200020E9FEC00F006EF05F0040E45EC00F04D
:0C0A020006EF05F0080E51EC00F01200A9
:100A0E00C26A0001ED1D006E0050C116070EC01225
:100A1E00C08EE3C100F0003600900036009000500A
:100A2E00C212C28057DCC282C2A201D0FDD7C4CF8F
:100A3E0001F0006AC3500012000E0112C2901200A3
:100A4E000050086E0150006E016A026A036A0B6A5A
:100A5E000C6A960E036E0A6A00C001F008C000F020
:0A0A6E00086A026A2AEC01F0120087
:100A7800025006180E6E086A096A0B6A035007646A
:100A88002FEF06F006500A6E068E028E03500B6E8C
:100A98000750036E000E0B647FEF05F00B50075EE6
:100AA800D8B420EF06F0070E0764EEEF05F0075EF6
:100AB80000C008F001C000F002C001F0026A074E51
:100AC80020EF06F00764C3EF05F0075E00C008F0EA
:100AD80001C000F0016A074E20EF06F00764A1EF9D
:100AE80005F0075E00C008F0006A074E20EF06F028
:100AF800076488EF05F00AC002F005C001F004C0E1
:100B080000F0086A4CEF07F0030E076493EF05F056
:100B1800075E08380F0B086E074E20EF06F0D890D6
:100B28000832074E20EF06F0D8900832074E20EF23
:100B380006F0D890083220EF06F0030E0764B2EFF3
:100B480005F0075E08380F0B086E0038F00B082612
:100B580000380F0B006E074E20EF06F0D8900032D9
:100B68000832074E20EF06F0D89000320832074EC0
:100B780020EF06F0D8900032083220EF06F0030E7E
:100B88000764DAEF05F0075E08380F0B086E0038C7
:100B9800F00B082600380F0B006E0138F00B00260A
:100BA80001380F0B016E074E20EF06F0D890013286
:100BB80000320832074E20EF06F0D890013200329A
:100BC8000832074E20EF06F0D89001320032083282
:100BD80020EF06F0030E07640BEF06F0075E0838F7
:100BE8000F0B086E0038F00B082600380F0B006E4C
:100BF8000138F00B002601380F0B016E0238F00B9C
:100C0800012602380F0B026E074E20EF06F0D8902F
:100C18000232013200320832074E20EF06F0D89037
:100C28000232013200320832074E20EF06F0D89027
:100C38000232013200320832096A000E0EAE14EF99
:100C480007F0081E001E011E021E082A00220122AB
:100C5800022214EF07F00750D8A435EF06F04CEF46
:100C680007F0096A02C00AF0028E068E0750035C7C
:100C7800076ED8B407EF07F0070E0764D5EF06F044
:100C8800075E0450096E0550046E0650056E066A2C
:100C9800074E07EF07F0070E0764AAEF06F0075E96
:100CA8000450096E0550046E056A074E07EF07F0F9
:100CB800070E076488EF06F0075E0450096E046AA1
:100CC800074E07EF07F0070E07646FEF06F00AC03C
:100CD80002F04CEF07F0030E07647AEF06F0075EA8
:100CE80009380F0B096E074E07EF07F0D890093245
:100CF800074E07EF07F0D8900932074E07EF07F0C5
:100D0800D890093207EF07F0030E076499EF06F051
:100D1800075E09380F0B096E0438F00B09260438F2
:100D28000F0B046E074E07EF07F0D8900432093214
:100D3800074E07EF07F0D89004320932074E07EF45
:100D480007F0D8900432093207EF07F0030E076462
:100D5800C1EF06F0075E09380F0B096E0438F00B77
:100D6800092604380F0B046E0538F00B04260538E5
:100D78000F0B056E074E07EF07F0D89005320432C7
:100D88000932074E07EF07F0D890053204320932CE
:100D9800074E07EF07F0D89005320432093207EF03
:100DA80007F0030E0764F2EF06F0075E09380F0B31
:100DB800096E0438F00B092604380F0B046E053849
:100DC800F00B042605380F0B056E0638F00B0526C8
:100DD80006380F0B066E074E07EF07F0D89006325D
:100DE800053204320932074E07EF07F0D890063271
:100DF800053204320932074E07EF07F0D890063261
:100E0800053204320932086A000E0EAE14EF07F0FC
:100E1800091E041E051E061E092A04220522062292
:100E280009500826045000220550012206500222CB
:100E38000EBE2BEF07F0D8A03AEF07F002320132CE
:100E480000320832033E3AEF07F046EF07F0D8B019
:100E580040EF07F0000E081E001E011E021E082AA1
:100E68000022012202220A7E40EF07F0010E0C6EDA
:100E780077EC01F04EEF07F0020E0C6E77EC01F004
:100E88004EEF07F0040E0C6E45EC00F04EEF07F045
:060E9800000E0C6E1200BA
:100E9E000101EB6BEC6BED6B0001C251000A0FE12F
:100EAE00D20E0201016F320E026F000E036F010EA1
:100EBE00046F056B68EC02F0010E0001C26F000EAC
:100ECE00006E01016451005C02E16351E35D01E2D9
:100EDE00EAD0000E565D02E1E351555D01E2E3D02A
:100EEE006351E35D016E64C102F0000E025601C053
:100EFE0003F002C004F00336039004360336039069
:100F0E000436080E6B25006E000E6C21016E000E6D
:100F1E006D21026E000E056E005003260150042254
:100F2E000250052203C0F6FF04C0F7FF05C0F8FF0C
:100F3E000900F5CFEBF1010E0324F66E000E04202E
:100F4E00F76E000E0520F86E0900F5CF00F000C018
:100F5E0006F0000E076E086E096E020E0324F66E82
:100F6E00000E0420F76E000E0520F86E0900F5CF76
:100F7E0003F003C001F0006A000E026E036E06500D
:100F8E0000260750012208500222095003226B51FD
:100F9E000024E86F6C510120E96F6D510220EA6F59
:100FAE007751000A41E169C1E6F1E56B000E006E72
:100FBE007251005C02E17151E55D2FE267C1ECF107
:100FCE00E76BE46BEB51E45D25E2E751000A10E1BB
:100FDE00E8C1F6FFE9C1F7FFEAC1F8FF0900F5CF56
:100FEE00EDF1010EE827000EE923EA23010EE76F6B
:100FFE00E751ED15006E08E0ECC1FDF1E6C1FEF122
:10100E006FC1FFF1D1EC02F00101EC2BE737E79154
:10101E00E42BD8D7E62BE52BC9D7EC51010F676F20
:10102E00686B000E68233FD067C1E6F1E56B000EDA
:10103E00006E7251005C02E17151E55D2FE269C1F3
:10104E00ECF1E76BE46BEB51E45D25E2E751000A4E
:10105E0010E1E8C1F6FFE9C1F7FFEAC1F8FF0900A8
:10106E00F5CFEDF1010EE827000EE923EA23010E7C
:10107E00E76FE751ED15006E08E0E6C1FDF1ECC13A
:10108E00FEF16FC1FFF1D1EC02F00101EC07E73781
:10109E00E791E42BD8D7E62BE52BC9D7EC05696F82
:0810AE006A6B000E6A5B120080
:1010B6000101F86BF96BFA6BFB6B6451E45D02E1BD
:1010C6006351E35D01E2C6D1E451565D02E1E351AD
:1010D600555D01E2BFD16351E35D036E6451E4598E
:1010E600046E03C000F004C001F000360090013623
:1010F600003600900136080E57250201016F000EDA
:10110600010158210201026F000E0101592102015D
:10111600036F000E01015A210201046F00500127DE
:1011260001500223000E03230423040E056F000E54
:10113600066FD2EC00F05B0E0101F66F010EF76F41
:10114600F6C1E9FFF7C1EAFFEECFFCF1FCC1F8F109
:10115600010EF625E96E000EF721EA6EEECF04F0D9
:10116600000E056E066E076E020EF625E96E000E7F
:10117600F721EA6EEECF03F003C001F0006A000E1D
:10118600026E036E0450002605500122065002220C
:101196000750032200505725EA6F01505821EB6F84
:1011A60002505921EC6F03505A21ED6FFCC100F03B
:1011B6000032009E0032009E0032009E000E016E3C
:1011C60071C104F072C105F0A6EC00F000C0F0F1A8
:1011D60001C0F1F1070EFC15006E04E07151F02715
:1011E6007251F123F0C1F4F1F1C1F5F175C1E1FFDE
:1011F60076C1E2FFEAC1E6FFEBC1E6FFECC1E6FF1E
:10120600EDC1E6FFF0C1E6FFF1C1E6FFEE0EE66EC8
:10121600010EE66E73C100F074C101F039EC00F006
:1012260000C0F6F101C0F7F10101EE51EA27EF51D6
:10123600EB23000EEC23ED23EE51F05FEF51F15B53
:10124600F26BF36B7751000AD8A481D069C1E7F13C
:101256006AC1E8F1E66B000E006E7251005C02E1B5
:101266007151E65D6DE267C1F9F168C1FAF1E96BAA
:10127600E56BF851E55D60E2E951000A4AE1F24B9F
:10128600F32BF551EF5D02E1F451EE5D38E2F351D7
:10129600EF5D02E1F251EE5D32E2010EF26F000EF9
:1012A600F36F75C1E1FF76C1E2FFEAC1E6FFEBC16C
:1012B600E6FFECC1E6FFEDC1E6FFF0C1E6FFF1C1D6
:1012C600E6FFEE0EE66E010EE66E73C100F074C127
:1012D60001F039EC00F000C0F6F101C0F7F1F0C101
:1012E600F4F1F1C1F5F10101EE51EA27EF51EB23DB
:1012F600000EEC23ED23EE51F05FEF51F15BF6C1EA
:10130600E9FFF7C1EAFFEECFFBF1F64BF72B010E33
:10131600E96FE951FB15006E08E0F9C1FDF1E7C17F
:10132600FEF16FC1FFF1D1EC02F00101F94BFA2B8E
:10133600E937E991E52B9DD7E74BE82BE62B8BD7D1
:10134600010EF925676F000EFA21686F83D067C119
:10135600E7F168C1E8F1E66B000E006E7251005CC1
:1013660002E17151E65DD8B06FD069C1F9F16AC189
:10137600FAF1E96BE56BF851E55D62E2E951000AC5
:101386004AE1F24BF32BF551EF5D02E1F451EE5DCC
:1013960038E2F351EF5D02E1F251EE5D32E2010E09
:1013A600F26F000EF36F75C1E1FF76C1E2FFEAC18D
:1013B600E6FFEBC1E6FFECC1E6FFEDC1E6FFF0C1DB
:1013C600E6FFF1C1E6FFEE0EE66E010EE66E73C1B4
:1013D60000F074C101F039EC00F000C0F6F101C074
:1013E600F7F1F0C1F4F1F1C1F5F10101EE51EA278F
:1013F600EF51EB23000EEC23ED23EE51F05FEF519E
:10140600F15BF6C1E9FFF7C1EAFFEECFFBF1F64B60
:10141600F72B010EE96FE951FB15006E08E0E7C1F5
:10142600FDF1F9C1FEF16FC1FFF1D1EC02F0010E41
:101436000101F95F000EFA5BE937E991E52B9BD7CD
:10144600E74BE82BE62B88D7010EF95D696F000E96
:06145600FA596A6F120052
:10145C00086A096A100E0C6E0134083609360450FD
:10146C00085E0550D8A0053C095ED8B007D00450E2
:10147C0008260550D8B0053C0926D8900036013610
:06148C000C2EEAD712004D
:101492000B6A0C6A086A0350D8B4CDEF0AF002C096
:1014A2000AF0028E9E0E035E03AEBDEF0AF0036CDD
:1014B200080E035CD8A08AEF0AF0036E083600C05B
:1014C20008F001C000F002C001F0026A080E035CDD
:1014D200D8A08AEF0AF0036E083600C008F001C0F7
:1014E20000F0016A080E035CD8A08AEF0AF0036ECE
:1014F200083600C008F0006A080E035CD8A08AEF24
:101502000AF0036E0836086A0350D8A4D89096EF02
:101512000AF00350D8B496EF0AF0D89002320132A2
:1015220000320832032E8EEF0AF00BBC08A0A7EFA0
:101532000AF0D8A0A7EF0AF0082AD8B4002AD8B433
:10154200012AD8B4022A02BED1EF0AF00AAECDEFC8
:101552000AF0021E011E001E081E082AD8B4002A24
:10156200D8B4012AD8B4022ACDEF0AF0026A016A7D
:10157200006A086ACDEF0AF00B800BAED8EF0AF0D2
:10158200026A0AAED8EF0AF0026E016E006E086EB1
:101592000A360232D8EF0AF00C6A000ED9EF0AF0CE
:1015A200010E0C6E000E63EC01F0D9EF0AF0FF0E93
:1015B2000250036E0150026E0050016E0850006E20
:0215C200120015
:1015C400086A096A000E0762036467EF0BF00250B1
:1015D40006180A6E075003267E0ED8A0F8EF0AF00C
:1015E400035ED8B06CEF0BF0FCEF0AF0035ED8A0FA
:1015F40071EF0BF0028E068E02C00EF001C00BF0EC
:1016040000C00DF000500402F4CF0CF001500502AC
:10161400F4CF00F0F3CF08F00402F3500C26F4509A
:101624000822000E00220D500502F3500C26F4503F
:101634000822000E002202500402F3500826F4503F
:10164400002202500502016A000E0122F350002616
:10165400F45001220D500602F3500826F4500022E3
:10166400026A000E012202220B500602F3500026E9
:10167400F4500122000E02220E500602F3500126FD
:10168400F450022202BE4FEF0BF00836003601364A
:1016940002360306D8B471EF0BF062EF0BF0D8807A
:1016A400800E08640030000E002201220222D8A01D
:1016B40062EF0BF0023201320032034A6CEF0BF09E
:1016C4000AAE029E000E74EF0BF0010E9FEC00F0C8
:1016D40074EF0BF0020E45EC00F074EF0BF0040E07
:0616E40051EC00F01200C1
:1016EA00000E0101D35D04E3D3517F0801E301D069
:1016FA0029D0000ED15DD8A0D16BD1513F0802E2AA
:10170A003F0ED16F000ED25DD8A0D26BD2513F08E6
:10171A0002E23F0ED26FD151D25D06E2D1C1D5F1BC
:10172A00D2C1D1F1D5C1D2F1D151D25D0BE3D3C12E
:10173A00FDF1D1C1FEF1D4C1FFF1D1EC02F00101FA
:06174A00D12BF2D71200C2
:101750000101D26BD36BD46BD56BD16B640ED15DB1
:101760001AE2E36B07EC05F027EC05F0D2C104F0B8
:10177000D3C105F0D4C106F0D5C107F03CEC05F0AB
:1017800000C0D2F101C0D3F102C0D4F103C0D5F141
:101790000101D12BE3D7000E046E000E056E480E3A
:1017A000066E850E076ED2C100F0D3C101F0D4C120
:1017B00002F0D5C103F049EC04F0000E046E000EF7
:1017C000056E200E066E810E076EFCDE62DE1200D4
:1017D0000050086E0150006E0250016E0350026E00
:1017E000036A0B6A0C6A9E0E036E0A6A02AE05EF6C
:1017F0000CF0081E001E011E021E082AD8B4002A82
:10180000D8B4012AD8B4022A0A8E020E0C6E77ECE4
:0418100001F01200D1
:101814000101DE6BDF6BE06BE16BE26BD1C1DAF1EE
:10182400D2C1DBF1D3C1DCF1D4C1DDF1DD51FF0A5A
:1018340008E1DC51FF0A05E1DB51FF0A02E1DA515C
:10184400FF0A0DE1D5C1E3F1D6C1E4F1EE0EE56F77
:10185400000EE66F31EC03F0030E006E5CD2010E55
:10186400D86FDCAF0FD0800EDC19006E00C0DCF145
:10187400D82BDF2BD5C1E1FFD6C1E2FF2D0EE66EDA
:10188400D54BD62B000E006EDD1908E10050DC1993
:1018940005E10050DB1902E1DA51000A0CE1D5C17F
:1018A400E3F1D6C1E4F1F20EE56F000EE66F31EC20
:1018B40003F0006A30D2DD51FF0A08E1DC51000A6E
:1018C40005E1DB51000A02E1DA51000A0DE1D5C15C
:1018D400E3F1D6C1E4F1C30EE56F000EE66F31EC1F
:1018E40003F0D8C100F017D2000E046E000E056E8E
:1018F400000E066E7F0E076EDAC100F0DBC101F048
:10190400DCC102F0DDC103F061EC03F0010ED8B0DC
:10191400000E006E00521BE0DAC100F0DBC101F0E2
:10192400DCC102F0DDC103F0000E046E000E056E92
:10193400200E066E820E076E43DE00C0DAF101C08F
:10194400DBF102C0DCF103C0DDF1E207CDD7000E0C
:10195400046E000E056E200E066E820E076EDAC14E
:1019640000F0DBC101F0DCC102F0DDC103F061EC89
:1019740003F0000ED8B0010E006E00521BE0DAC175
:1019840000F0DBC101F0DCC102F0DDC103F0CD0EDB
:10199400046ECC0E056E4C0E066E7B0E076E10DECA
:1019A40000C0DAF101C0DBF102C0DCF103C0DDF1FB
:1019B400E22BCDD7FF0EDA15086EFF0EDB15096E8C
:1019C4007F0EDC150A6E000EDD150B6E08C004F0E8
:1019D40009C005F00AC006F00BC007F004360490F5
:1019E400053606360736000EDA15006E000EDB15D6
:1019F400016E000EDC15026EFF0EDD15036E00C0D5
:101A0400DAF101C0DBF102C0DCF103C0DDF1045006
:101A1400DA11006E0550DB11016E0650DC11026E06
:101A24000750DD11036E00C0DAF101C0DBF102C022
:101A3400DCF103C0DDF17F0EDD5D006E00C0D9F185
:101A4400010EDD6F00C004F0DAC100F0DBC101F06B
:101A5400DCC102F0DDC103F0045007E00036009061
:101A6400013602360336FF0FF8D700C0DAF101C0A1
:101A7400DBF102C0DCF103C0DDF1D5C1E1FFD6C169
:101A8400E2FFDD51300FE66ED54BD62BDF2B800EF7
:101A9400E219006E800E010A005C08E3800E060A5B
:101AA400006E800EE219005C01E30BD0D5C1E1FFAA
:101AB400D6C1E2FF2E0EE66ED54BD62B010EDE6F9D
:101AC400DF2B060ED96FD951000A58E0DD6BDAC15D
:101AD40000F0DBC101F0DCC102F0DDC103F000362F
:101AE4000090013602360336003600900136023685
:101AF4000336DA510026DB510122DC510222DD518A
:101B0400032200C0DAF101C0DBF102C0DCF103C042
:101B1400DDF1DAC100F0DBC101F0DCC102F0DDC1AE
:101B240003F00036009001360236033600C0DAF1C5
:101B340001C0DBF102C0DCF103C0DDF1D5C1E1FF7E
:101B4400D6C1E2FFDD51300FE66ED54BD62BDF2B2D
:101B5400DE51000A11E1E207E251000A0DE1010E33
:101B6400E16FD5C1E1FFD6C1E2FF2E0EE66ED54B83
:101B7400D62B010EDE6FDF2BD907A5D7E151010A61
:101B8400D8B4DF07FF0ED525E96EFF0ED621EA6E25
:101B9400EE502E0A05E1010ED55F000ED65BDF077D
:101BA400800E000A006E800EE219005C02E2010E53
:101BB400E06F800EE219006E800E000A005C02E203
:101BC400020EE06FE2C1D9F1800E090A006E800EA8
:101BD400E219005C02E3E02B02D0020EE027E051A0
:101BE400DF25016E026A000E0222800E0218006ECA
:101BF400800E005C02E1D751015C0AE2D5C1E1FF2D
:101C0400D6C1E2FF300EE66ED54BD62BDF2BE7D7DD
:101C1400E251000A43E0D5C1E1FFD6C1E2FF650EFF
:101C2400E66ED54BD62B800EE219006E800E000AAC
:101C3400005C0BE2D5C1E1FFD6C1E2FF2D0EE66EDA
:101C4400D54BD62BE2510008E26FE2C1D9F1800EE8
:101C5400090A006E800EE219005C0FE20A0E046E9F
:101C6400D9C100F0FAEC03F0D5C1E1FFD6C1E2FF1F
:101C74000050300FE66ED54BD62B0A0E046ED9C138
:101C840000F0FAEC03F008C000F0D5C1E1FFD6C1C2
:101C9400E2FF0050300FE66ED54BD62BE051DF2526
:101CA400006E00C0DFF1D751005C016E01C0D9F1B4
:101CB400800E000A006E800E0118005C0EE2800E99
:101CC400000A006E800ED919005C06E2D907010EE5
:101CD400D55F000ED65BF3D718D0800ED919006EED
:101CE400800E000A005C11E2800ED919006E800E8D
:101CF400000A005C0AE2D92BD5C1E1FFD6C1E2FF9C
:101D0400300EE66ED54BD62BEFD7D5C1E1FFD6C149
:081D1400E2FFE66A006A12001A
:101D1C00000E0101D45D02E1800ED35D01E33CD0E5
:101D2C00000ED65D02E1400ED55D01E335D0D76BD8
:101D3C00D86BD3C1E3F1D4C1E4F1D5C1E5F1D6C17F
:101D4C00E6F158EC03F0D751D125E96ED851D221E8
:101D5C00EA6EEE5221E06551661111E0D751D125A2
:101D6C00E96ED851D221EA6EEECFE3F1000EE46FAA
:101D7C00000EE46F5BEC08F0D74BD82B0CD0D7518E
:101D8C00D125E96ED851D221EA6EEECFE3F14FECBA
:0A1D9C0007F0D74BD82BD7D7120061
:101DA6000101D26BD36BD46BD56BD16B640ED15D55
:101DB6001BE2020EE36F07EC05F027EC05F0D2C13B
:101DC60004F0D3C105F0D4C106F0D5C107F03CEC50
:101DD60005F000C0D2F101C0D3F102C0D4F103C0B6
:101DE600D5F10101D12BE2D7000E046E000E056E6F
:101DF600480E066E850E076ED2C100F0D3C101F003
:101E0600D4C102F0D5C103F049EC04F049EC0AF064
:021E16001200B8
:101E18000101D56B050ED55D0AE2D551D325E16EDA
:101E2800000ED421E26E200EE66ED52BF3D7D551E5
:101E3800D325E16E000ED421E26EE66AD507D551AE
:101E4800D325D66F000ED421D76F0A0E046E000E6C
:101E5800056ED1C100F0D2C101F02EEC0AF008C025
:101E680000F009C001F0300E0026D6C1E1FFD7C14D
:101E7800E2FF00C0E6FF0A0E046E000E056ED1C137
:101E880000F0D2C101F02EEC0AF000C0D1F101C07F
:101E9800D2F1000E011802E1000E001801E102D093
:061EA800D507CDD71200A2
:101EAE00D2C1D6F10101D651D45D0CE3D1C1E3F11B
:101EBE00D3C1E4F1D6C1E5F1D5C1E6F1C8EC03F02A
:061ECE00D62BF0D7120034
:101ED40000C008F00150006E016A026A036A0B6ACE
:101EE4000C6A016A026A036A960E036E0A6A00AEFD
:101EF40082EF0FF0081E001E082AD8B4002A0A8EAA
:101F040000C001F008C000F0086A026A2AEC01F07F
:021F14001200B9
:101F16000101D36BD46BD1C103F0D2C104F0D1C19E
:101F260005F0D2C106F003C0E9FF04C0EAFFEE5097
:101F3600200A04E1D351D41101E110D0010ED36F70
:101F4600000ED46F03C0E9FF04C0EAFF05C0E1FF3D
:101F560006C0E2FFEECFE6FF054A062A03C001F0FF
:101F660004C002F0034A042A01C0E9FF02C0EAFFE6
:101F7600EE50000AD8E1D1C100F0D2C101F0120042
:081F8600067E3CEC05F01200A0
:101F8E0084B216D084A014D08490010E0101A36FE8
:101F9E00000EA46F010EA56F000EA66F820E0C6EC2
:101FAE00DD0E0D6E0D2EFED70C2EFCD700000000A0
:021FBE0012000F
:101FC000819281800101C46BC451070811E3C4C12F
:101FD0000DF21FEC00F00101C36BC3513F0806E393
:101FE000C2C10DF298EC00F0C32BF7D7C42BECD78D
:101FF00081908182C46BC451070811E3C4C10DF202
:102000001FEC00F00101C36BC3513F0806E3C2C1DE
:102010000DF298EC00F0C32BF7D7C42BECD71200CD
:10202000010E0101C66F000EC76FA8EC0BF0E8ECC3
:102030000BF000C078F101C079F102C07AF103C061
:102040007BF1000E046EC00E056E7F0E066E880ECC
:10205000076E49EC04F0000E046E000E056E480E8B
:10206000066E850E076EE2EC0AF000C07CF101C03E
:102070007DF102C07EF103C07FF100C0D1F101C04B
:10208000D2F102C0D3F103C0D4F1840E0101D56FA7
:10209000010ED66F040ED76F0AEC0CF0840ED16FD0
:1020A000010ED26F38DFC6C100F0C7C101F012DFE8
:1020B000C2C104F0C3C105F0C4C106F0C5C107F038
:1020C0003CEC05F000C004F001C005F002C006F0D1
:1020D00003C007F078C100F079C101F07AC102F0C5
:1020E0007BC103F061EC03F0000ED8B0010E006E6E
:1020F000005227E1C6C100F0C7C101F0EBDE00C00D
:1021000004F001C005F002C006F003C007F0C2C130
:1021100000F0C3C101F0C4C102F0C5C103F033DF58
:1021200078C104F079C105F07AC106F07BC107F0EF
:1021300061EC03F0000ED8B0010E006E005201E118
:1021400043D0460ED16F0F0ED26F5C0ED36F1E0EB2
:10215000D46FD56BACDE8B0EE36F010EE46F840E93
:10216000E56F010EE66F31EC03F0F70ED16F000E54
:10217000D26F0A0ED36F000ED46F0F0ED56F000E04
:10218000D66FCCDD840ED16F010ED26F480ED36FA7
:10219000000ED46F0F0ED56F000ED66FBFDDF40E9C
:1021A000D16F000ED26F5D0ED36F000ED46F0F0E85
:1021B000D56F000ED66FB2DD78C1C2F179C1C3F11F
:0A21C0007AC1C4F17BC1C5F1120021
:1021CA00C2C1E3F1C4C1E4F1C3C1E5F1C6C1E6F19C
:1021DA00C8EC03F0C2C1E3F1C4C1E4F1C5C1E5F141
:1021EA00C6C1E6F1C8EC03F0C3C1D1F1C5C1D2F151
:1021FA00C2C1D3F1C6C1D4F175EC0BF0C3C1D1F1A0
:10220A00C5C1D2F1C4C1D3F1C6C1D4F175EC0BF08A
:02221A001200B0
:10221C000101C66BC76BC86BC651070849E30201C5
:10222C000D6B2BEC00F0C6C10DF21FEC00F00D6B2A
:10223C0085EC00F00101C56BC5513F0812E3C75195
:10224C00C225F66EC851C321F76E000EC421F86E7C
:10225C000900F5CF0DF298EC00F0C74BC82BC52B3D
:10226C00EBD7400E02010D6F2BEC00F0C6C10DF246
:10227C001FEC00F0400E0D6F85EC00F0400E0101DC
:10228C00C56FC5517F0812E3C751C225F66EC85100
:10229C00C321F76E000EC421F86E0900F5CF0DF2C4
:1022AC0098EC00F0C74BC82BC52BEBD7C62BB4D77B
:0222BC0012000E
:1022BE00000E0101C71902E1000EC61909E1C2C1E3
:1022CE00FDF1C4C1FEF1C8C1FFF1D1EC02F0E3D0C3
:1022DE000101CD6BCE6BC251C45DCF6FC351C559D9
:1022EE00D06FC6C1CBF1C7C1CCF1C6C100F0C7C11A
:1022FE0001F000360090013600C0C9F101C0CAF1EC
:10230E0000500308C96F01C0CAF1000ECA57010E72
:10231E00CB25016E000ECC21026E800ECE19006E02
:10232E00800E0218005C02E10150CD5DD8B0B3D032
:10233E00CD51C225FD6FCB51C425FE6FC8C1FFF133
:10234E00D1EC02F00101CD51C225FD6FCB51C45D20
:10235E00FE6FC8C1FFF1D1EC02F0800E006E800E50
:10236E000101CE19005C02E1CD51000815E2CD51FC
:10237E00C25DFD6FCB51C425FE6FC8C1FFF1D1EC1C
:10238E0002F00101CD51C25DFD6FCB51C45DFE6FF8
:10239E00C8C1FFF1D1EC02F00101CE51CC1902E11E
:1023AE00CB51CD193CE0CB51C425FD6FCF51FD5F14
:1023BE00CD51C425FE6FC8C1FFF1D1EC02F0010171
:1023CE00CB51C45DFD6FCF51FD5FCD51C425FE6F66
:1023DE00C8C1FFF1D1EC02F0800E006E800E01013B
:1023EE00CE19005C02E1CD51000819E2CB51C42593
:1023FE00FD6FCF51FD5FCD51C45DFE6FC8C1FFF1C2
:10240E00D1EC02F00101CB51C45DFD6FCF51FD5FE8
:10241E00CD51C45DFE6FC8C1FFF1D1EC02F0800E4C
:10242E000101CA19006E800E005C02E1000EC95D4A
:10243E0013E2CDC100F0CEC101F00036009001369E
:10244E00003600900136060E0026000E01220050C6
:10245E00C9270150CA231CD0CB51CD5D036ECC5180
:10246E00CE59046E03C000F004C001F00036009097
:10247E0001360036009001360A0E0026000E0122AB
:10248E000050C9270150CA23010ECB5F000ECC5B52
:08249E00CD4BCE2B3CD7120000
:1024A60084B216D084A014D08482010E0101A36FD9
:1024B600000EA46F020EA56F000EA66F820E0C6EA4
:1024C600DD0E0D6E0D2EFED70C2EFCD70000000083
:0224D6001200F2
:1024D8000101C86BC96BC2C1CAF1C3C1CBF1800E7F
:1024E800C319006E800E005C02E1000EC25D0BE2B3
:1024F800010EC86F000EC96FC2510008CA6FC3C170
:10250800CBF1000ECB57CAC1D1F1CBC1D2F1C4C1B6
:10251800D3F1C5C1D4F17CDC060EC66F000EC76FBF
:10252800000E006EC751005C02E1C651000819E2B6
:10253800C651C425E16EC751C521E26E010EC65DC4
:10254800006E000EC759016E0050C425E96E015097
:10255800C521EA6EEECFE6FF010EC65F000EC75B2F
:10256800DFD7C4C1E1FFC5C1E2FF200EE66EC85146
:10257800C9111AE0C66BC76BC651C425E96EC751AD
:10258800C521EA6EEE50200A03E1C64BC72BF4D7EB
:10259800010EC65F000EC75BC651C425E16EC75168
:0A25A800C521E26E2D0EE66E120052
:1025B2000F0E0101C66F000EC76FD3EC0EF0E8ECF0
:1025C2000BF000C092F101C093F102C094F103C07C
:1025D20095F1000E046E000E056E700E066E830EEF
:1025E200076EE2EC0AF0000E046EC00E056E7F0E5E
:1025F200066E880E076E49EC04F000C098F101C027
:1026020099F102C09AF103C09BF100C0D1F101C05F
:10261200D2F102C0D3F103C0D4F19C0E0101D56FF7
:10262200010ED66F040ED76F0AEC0CF09C0ED16F20
:10263200010ED26F6FDCC6C100F0C7C101F049DCE8
:10264200C2C104F0C3C105F0C4C106F0C5C107F0A0
:102652003CEC05F000C004F001C005F002C006F039
:1026620003C007F092C100F093C101F094C102F0DF
:1026720095C103F061EC03F0000ED8B0010E006EBC
:10268200005227E1C6C100F0C7C101F022DC00C040
:1026920004F001C005F002C006F003C007F0C2C199
:1026A20000F0C3C101F0C4C102F0C5C103F06ADC8D
:1026B20092C104F093C105F094C106F095C107F0F0
:1026C20061EC03F0000ED8B0010E006E005201E181
:1026D2003DD0460ED16F0F0ED26F590ED36F1E0E24
:1026E200D46FD56B57EC0FF0100ED16F010ED26F75
:1026F2000A0ED36F000ED46F0F0ED56F000ED66F79
:102702008EEC0EF09C0ED16F010ED26F460ED36F7F
:10271200000ED46F0F0ED56F000ED66F8EEC0EF03A
:102722001A0ED16F010ED26F5A0ED36F000ED46FF4
:102732000F0ED56F000ED66F8EEC0EF092C1C2F165
:0E27420093C1C3F194C1C4F195C1C5F1120059
:1027500084928480010E0101A36F000EA46FA56B0B
:10276000A66B820E0C6EDD0E0D6E0D2EFED70C2E9E
:08277000FCD70000000012007C
:10277800000E0101AA1902E1010EA9190DE1010ECD
:10278800D16F0D0ED26F7E0ED36F3E0ED46FD56B08
:0C27980057EC0FF0A96BAA6B08DF1200D1
:1027A400000E0101971902E1010E9619D8A479D0FF
:1027B400C26BC36B7F0EC46F3F0EC56F010EC66F35
:1027C40002DDD16BD26B7F0ED36F0C0ED46F010E72
:1027D400D56F57EC0FF0D20E0201016F320E026F6B
:1027E400000E036F046B056B68EC02F0B6C1D1F107
:1027F400B7C1D2F11E0ED36F000ED46F010ED56F88
:10280400000ED66F8EEC0EF0760EC26F000EC36F04
:10281400060EC46F000EC56F060EC66F000EC76F9E
:10282400020EC86F4ADD000E00018F1902E1010E8D
:102834008E190FE1190E0101D16F000ED26F730EC4
:10284400D36F000ED46F010ED56F000ED66F8EECD1
:102854000EF0000E0001821902E1010E81190FE150
:102864001B0E0101D16F000ED26F730ED36F000ED9
:10287400D46F010ED56F000ED66F8EEC0EF0D20E13
:102884000201016F320E026F000E036F010E046F1E
:10289400056B68EC02F0966B976B010EA96F000E46
:0428A400AA6F120005
:1028A80001016E6B656B666B939A939893949396FC
:1028B80093929390819A120E006E000E016E830E11
:1028C8000024E16E0F0E0120E26EE66A8194819683
:1028D80081928180818A3F0E836E1AEC00F0C00ECF
:1028E800836E1AEC00F0818281903F0E836E1AECA1
:0C28F80000F0C00E836E1AEC00F012001D
:102904000900F5CFE6FF0006FBE10106F9E112003C
:102914000101C26BE0EC0FF082A408D0850EC26FF7
:10292400380EC36F000EC46F77DCF6D7C26BE0ECD1
:0C2934000FF0010E966F000E976F12005E
:10294000000E0101BA6F000EBB6F700EBC6F840EDB
:10295000BD6F000EBE6F000EBF6F340EC06F840ED1
:10296000C16FA8EC0BF0E8EC0BF0000E046EC00E8B
:10297000056E7F0E066E880E076E49EC04F0000EA1
:10298000046E000E056E480E066E850E076EE2ECB4
:102990000AF000C0B6F101C0B7F102C0B8F103C03F
:1029A000B9F100C004F001C005F002C006F003C098
:1029B00007F0BEC100F0BFC101F0C0C102F0C1C14B
:1029C00003F061EC03F0000ED8B0010E006E00526F
:1029D000D8A48086BAC104F0BBC105F0BCC106F022
:1029E000BDC107F0B6C100F0B7C101F0B8C102F037
:1029F000B9C103F061EC03F0000ED8B0010E006E17
:082A00000052D8A480961200D8
:102A0800000E0101AA1902E1010EA9190DE1010E3A
:102A1800D16F0D0ED26F7E0ED36F3E0ED46FD56B75
:0E2A280057EC0FF0A96BAA6B10EC10F0120027
:102A3600010E0101E36F07EC05F000C0A7F101C02C
:102A4600A8F1800E026E800E0118025C02E10050B1
:102A56000A080CE2050E0101D16F1E0ED26F500E50
:102A6600D36F280ED46FD56B57EC0FF00101000E13
:102A7600AC1902E1010EAB194EE1A851B51902E1FC
:102A8600B451A7190FE0050ED16F320ED26F640E46
:102A9600D36F3C0ED46FD56B57EC0FF0A7C1B4F1D2
:102AA600A8C1B5F1A7C1C2F1A8C1C3F1AD0EC46FEB
:102AB600010EC56F0EDDAD0ED16F010ED26F8BEC20
:102AC6000FF0AD0ED16F010ED26F280ED36F000E30
:102AD600D46F320ED56F000ED66F8EEC0EF01D0E33
:102AE600D16F010ED26F050ED36F000ED46F320E6A
:102AF600D56F000ED66F8EEC0EF0020E0B6E450EE5
:102B06000C6EA90E0D6E0D2EFED70C2EFCD70B2EBD
:102B1600FAD700000000800EA819006E800E005C37
:102B260002E1500EA75D19E3800E006E800EA81913
:102B3600005C02E1A751640810E3B2DC240E010137
:102B4600D16F010ED26F050ED36F000ED46F1E0E1D
:102B5600D56F000ED66F8EEC0EF0800EA819006EA3
:102B6600800E005C02E1780EA75D18E3800E006E11
:102B7600800EA819005C02E1A7518C080FE3E5DD81
:102B8600360ED16F010ED26F050ED36F000ED46FC5
:102B96001E0ED56F000ED66F8EEC0EF0800EA819A5
:102BA600006E800E005C02E1AA0EA75D1AE3800E9D
:102BB600006E800EA819005C02E1A751BE0811E361
:102BC600C7EC0FF0440E0101D16F010ED26F050E56
:102BD600D36F000ED46F1E0ED56F000ED66F8EEC1F
:102BE6000EF0800EA819006E800E005C02E1C80E81
:102BF600A75D18E3800E006E800EA819005C02E146
:102C0600A751DC080FE32C0ED16F010ED26F050E13
:102C1600D36F000ED46F1E0ED56F000ED66F8EECDE
:102C26000EF08086800EA819006E800E005C02E110
:102C3600E60EA75D18E3800E006E800EA819005CF4
:102C460002E1A751F0080FE3050ED16F010ED26F16
:102C5600050ED36F000ED46F1E0ED56F000ED66F05
:102C66008EEC0EF08096800EA819006E800E010A7A
:102C7600005C02E1360EA75D2CE3800E010A006EB1
:102C8600800EA819005C02E1A7514A0822E3000E53
:102C96000001821902E1010E81191BE1830E010177
:102CA600D16F000ED26F050ED36F000ED46F1E0EBD
:102CB600D56F000ED66F8EEC0EF00001816B826B25
:102CC600010E8E6F000E8F6F010E0101966F000EC2
:102CD600976F0101800EA819006E800E020A005C33
:102CE60002E14E0EA75D2CE3800E020A006E800EF6
:102CF600A819005C02E1A751620822E3000E000158
:102D06008F1902E1010E8E191BE17A0E0101D16FB6
:102D1600000ED26F050ED36F000ED46F1E0ED56F48
:102D2600000ED66F8EEC0EF0010E0001816F000EC4
:102D3600826F8E6B8F6B010E0101966F000E976F7F
:102D46000101800EA819006E800E020A005C02E1E5
:102D5600A80EA75D19E3800E020A006E800EA81960
:102D6600005C02E1A751BC080FE36C0ED16F000EA8
:102D7600D26F050ED36F000ED46F1E0ED56F000EE8
:102D8600D66F8EEC0EF08078800EA819006E800E3D
:102D9600030A005C02E13E0EA75D31E3800E030AE2
:102DA600006E800EA819005C02E1A751520827E3C5
:102DB600720ED16F000ED26F050ED36F000ED46F58
:102DC6001E0ED56F000ED66F8EEC0EF0000EAC19EF
:102DD60002E1000EAB1913E1800E5219006E800E4F
:102DE6005419005C02E15351515D03E2514B522BE1
:102DF60002D0516B526B010E966F000E976F800ECC
:102E0600A819006E800E030A005C02E1700EA75D31
:102E16003FE3800E030A006E800EA819005C02E1F3
:102E2600A751840835E3A60ED16F000ED26F050EAA
:102E3600D36F000ED46F1E0ED56F000ED66F8EECBC
:102E46000EF0060E0B6E130E0C6EAD0E0D6E0D2EE5
:102E5600FED70C2EFCD70B2EFAD700000000AB5184
:102E6600AC11010ED8A4000EAB6F000EAC6F000EB5
:102E7600AC1902E1000EAB190BE1050ED16F320E53
:102E8600D26F640ED36F3C0ED46FD56B57EC0FF038
:102E9600800EA819006E800E030A005C02E1D40EB3
:102EA600A75D34E3800E030A006E800EA819005C4D
:102EB60002E1A751E8082AE39D0ED16F000ED26FFA
:102EC600050ED36F000ED46F1E0ED56F000ED66F93
:102ED6008EEC0EF0000EAC1902E1000EAB1916E1F5
:102EE600800E006E800E5219005C02E151510008FE
:102EF60005E2010E515F000E525B04D053C151F141
:0E2F060054C152F1010E966F000E976F12002B
:102F1400000E0101AA1902E1010EA91911E1010E25
:102F2400D16F0D0ED26F7E0ED36F3E0ED46FD56B64
:102F340057EC0FF0010EA36F000EA46FA96BAA6BE0
:102F4400000EA41902E1010EA319D8A41BD1C26B6F
:102F5400330EC36F7F0EC46F3F0EC56F010EC66F75
:102F6400E5EC10F0010ED16F340ED26F7E0ED36FEC
:102F74003E0ED46FD56B57EC0FF0F0D0900ED16F9E
:102F8400000ED26F060ED36F000ED46F340ED56FC1
:102F9400000ED66F8EEC0EF02B0ED16F330ED26F67
:102FA400550ED36F3E0ED46F010ED56F57EC0FF054
:102FB400D20E0201016F320E026F000E036F046B1A
:102FC400056B68EC02F0950ED16F000ED26F370ED0
:102FD400D36F000ED46F340ED56F000ED66F8EEC07
:102FE4000EF0D20E0201016F320E026F000E036F5B
:102FF400010E046F056B68EC02F0990ED16F000EA0
:10300400D26F600ED36F000ED46F340ED56F000EE6
:10301400D66F8EEC0EF0A36BA46BB4D0010ED16FFF
:10302400330ED26F2A0ED36F3E0ED46F010ED56FBE
:1030340057EC0FF0D20E0201016F320E026F000E38
:10304400036F046B056B68EC02F0670ED16F000E22
:10305400D26F060ED36F000ED46F340ED56F000EF0
:10306400D66F8EEC0EF0D20E0201016F320E026F9B
:10307400000E036F010E046F056B68EC02F0210E65
:10308400D16F000ED26F370ED36F000ED46F340E93
:10309400D56F000ED66F8EEC0EF0250ED16F000E9C
:1030A400D26F600ED36F000ED46F340ED56F000E46
:1030B400D66F8EEC0EF0A36BA46B64D0290ED16F87
:1030C400000ED26F060ED36F000ED46F340ED56F80
:1030D400000ED66F8EEC0EF01D0ED16F000ED26F67
:1030E400370ED36F000ED46F340ED56F000ED66F2B
:1030F4008EEC0EF0550ED16F330ED26F7E0ED36F61
:103104003E0ED46F010ED56F57EC0FF0D20E0201B4
:10311400016F320E026F000E036F046B056B68ECD7
:1031240002F0150ED16F000ED26F600ED36F000E39
:10313400D46F340ED56F000ED66F8EEC0EF0D20E17
:103144000201016F320E026F000E036F010E046F55
:10315400056B68EC02F0A36BA46B14D0000EA619E7
:1031640002E1000EA519D8B409D7000EA61902E190
:10317400010EA519D8B452D7000EA61902E1020E09
:06318400A5199CE01200F9
:10318A00DDEC1EF0540E01014D6F000E4E6F410E24
:10319A004F6F000E506F2E0E496F000E4A6FAF0E22
:1031AA004B6F000E4C6FDA0E806F000E816FC70EE8
:1031BA00826F000E836F060E536F000E546F0C0E53
:1031CA00C112070EB412070E926E800E946EF00EA4
:1031DA00956E966A816A826A836A846A54EC14F0EC
:1031EA00C26BE0EC0FF0040E516F000E526F010E2D
:1031FA00966F000E976FAB6BAC6B010EA56F000E4E
:10320A00A66F80968098809A2FD04DC1B6F14EC194
:10321A00B7F1D2EC13F079DE4CD04FC1B6F150C100
:10322A00B7F1D2EC13F045D049C1B6F14AC1B7F1B2
:10323A00D2EC13F03ED04BC1B6F14CC1B7F1D2EC8F
:10324A0013F037D080C1B6F181C1B7F1D2EC13F0D7
:10325A0004EC15F02ED082C1B6F183C1B7F1D2ECDD
:10326A0013F0BCEC13F025D00101000E521902E153
:10327A00000E5119CAE0000E521902E1010E51194D
:10328A00CCE0000E521902E1020E5119CDE0000EF7
:10329A00521902E1030E5119CEE0000E521902E151
:1032AA00040E5119CFE0000E521902E1050E511910
:1032BA00D2E01BEC15F0A0EC14F082A403D08AEC47
:0832CA0014F0FBD7A1D7FFD7D8
:103DBA0010EE15F0340E006E020E016E850EF66ED0
:0E3DCA003C0EF76E000EF86E82EC14F0120044
:1032D200000020007F000B00018801000193010023
:1032E200039E010007A9010005B4010009BF010006
:1032F20006D5010001E0010003EB010002F6010026
:1033020005010200060C020002170200022202005E
:10331200022D02000338020004430200044E0200A0
:103322000459020004640200056F0200047A0200DC
:103332000485020004900200049B020004A602001D
:1033420002B1020002BC020006C7020006D202005D
:1033520006DD020004E8020007F3020006FE020096
:103362000509030006140300061F0300052A0300D3
:103372000535030006400300064B03000356030015
:1033820003610300056C0300047703000782030056
:10339200068D03000798030005A3030007AE030090
:1033A20005B9030005C4030005CF030006DA0300D4
:1033B20006E5030007F0030004FB03000506040012
:1033C20004110400021C040003270400023204005A
:1033D200053D04000548040003530400045E040094
:1033E2000469040003740400047F0400048A0400D6
:1033F2000395040004A0040004AB040001B6040019
:1034020002C1040004CC040001D7040007E2040056
:1034120004ED040004F8040004030500040E050092
:103422000319050003240500022F0500043A0500D4
:103432000545050007500500035B0500056605000C
:1034420003710500037C0500028705000392050055
:10345200069D050002A80500000000000000000013
:10346200000000000001010101010001000000054F
:10347200050500000000000000000024247E143F27
:10348200121200000000041E05060C140F040400B2
:10349200000000460029002900D60028012801C4A6
:1034A20000000000000000060909160919260000A4
:1034B20000010101000000000000000004020101FF
:1034C20001010101020400000102020202020201E2
:1034D2000004150E150400000000000000000008A2
:1034E200083E080800000000000000000000020280
:1034F20001000000000000000300000000000000C6
:1035020000000000020200000004040202020202A3
:10351200010100000006090909090906000000006E
:103522000406040404040E00000000070808040254
:10353200010F000000000708080608080700000045
:1035420000080C0A091F0808000000000F0101070B
:10355200080807000000000601010709090600002B
:1035620000000F080404020201000000000609091D
:1035720006090906000000000609090E08080600EF
:103582000000000000020200020200000000000031
:103592000202000202010000000000201C021C20A6
:1035A200000000000000003F003F0000000000009B
:1035B20000021C201C020000000007080804020090
:1035C20002000000001C2259555539021C0000005F
:1035D2000C0C12123F2121000000000709090F11F3
:1035E200110F000000001C22010101221C0000003A
:1035F200000F11212121110F000000001F01010FF6
:1036020001011F000000001F01010F010101000064
:1036120000001C22013921223C000000002121214E
:103622003F212121000000000702020202020700DE
:103632000000000604040404040300000000110951
:103642000503050911000000000101010101010F3C
:103652000000000063635555494941000000002104
:10366200232529312121000000001C224141412251
:103672001C000000000F1111110F010100000000D9
:103682001C22414141221C106000000F11110F0544
:103692000911000000001E01010E10100F000000B1
:1036A200001F04040404040400000000212121215D
:1036B20021211E0000000021212112120C0C000009
:1036C200000049495555552222000000000909060B
:1036D2000606090900000000110A0A040404040095
:1036E2000000000F08040202010F000000030101A4
:1036F20001010101010103000101020202020204AF
:103702000400000302020202020202020300000499
:103712000A1100000000000000000000000000008C
:1037220000001F0002040000000000000000000072
:10373200000006080E090E00000001010107090938
:103742000907000000000000060101010600000058
:103752000808080E0909090E000000000000060909
:103762000F010E0000000601010701010101000026
:10377200000000000E0909090E08060001010107F8
:10378200090909090000000001000101010101000D
:103792000000000200030202020202010001010114
:1037A20009050305090000000101010101010101F0
:1037B20000000000000037494949490000000000AC
:1037C20000070909090900000000000006090909AB
:1037D20006000000000000070909090701010000B6
:1037E20000000E0909090E08080000000005030187
:1037F20001010000000000000701020407000000B0
:10380200000001030101010200000000000009099B
:1038120009090E000000000000110A0A0A04000053
:103822000000000049495536220000000000000552
:1038320002020205000000000000110A0A0A040444
:103842000200000000070402010700000004020257
:103852000202010202020400020202020202020247
:10386200020200010202020204020202010000003E
:1038720000002619000000000000000303030303F8
:0338820000000043
:103885000000000000000000000000000000000033
:103895000000000000000000000000000000000023
:1038A5000000000000000000000000000000000013
:1038B5000000000000000000000000000000000003
:1038C50000000000000000000000000000000000F3
:1038D50000000000000000000000000000000000E3
:1038E50000000000000000000000000000000000D3
:1038F50000000000000000000000000000000000C3
:1039050000000000000000000000000000000000B2
:1039150000000000000000000000000000000000A2
:103925000000000000000000000000000000000092
:103935000000000000000000000000000000000082
:103945000000000000000000000000000000000072
:103955000000000000000000000000000000000062
:103965000000000000000000000000000000000052
:103975000000000000000000000000000000000042
:103985000000000000808080808080808000000032
:1039950080808000000000808080000000808080A2
:1039A5008080808080000000008080808080800092
:1039B5000000000000000080808080808000000002
:1039C5000080A0B89898B0A080000000808080009A
:1039D50000000000808000000000000080808080E2
:1039E50000000000008080808080808080000000D2
:1039F50000000080808080000000000000000000C2
:103A05000000000000FFFFFF3131313131000000BF
:103A1500FFFF073FF0F01F07FFFF000000FFFFFF5C
:103A2500313131313100000000FFFF6161E1F3BF49
:103A35001F000000FCFE070301313131F1F30000E6
:103A450000FFFFFF3131313131000000FFFF0F1F53
:103A55007CF0C080FFFF0000F8FEFF0303010101B9
:103A65000100000000010101FFFF0101010000004C
:103A750000E0FC9F8387BFFCE00000000000000021
:103A850000000000000F0F0F0C0C0C0C0C000000C8
:103A95000F0F0000000000000F0F0000000F0F0FB8
:103AA5000C0C0C0C0C000000000F0F000000030FA5
:103AB5000E0800000107070E0C0C0C0C0F07000088
:103AC500000F0F0F0C0C0C0C0C0000000F0F00006A
:103AD5000001070F0F0F00000103070E0C0C0C0C63
:103AE50006000000000C0C0C0F0F0C0C0C0000085D
:103AF5000F0F0101010101030F0F0000000000007D
:103B050000000000000000000000000000000000B0
:103B150000000000000000000000000000000000A0
:103B25000000000000000000000000000000000090
:103B35000000000000000000000000000000000080
:103B45000000000000000000000000000000000070
:103B55000000000000000000000000000000000060
:103B65000000000000000000000000000000000050
:103B75000000000000000000000000000000000040
:103B85000000000000000000000000000000000030
:103B95000000000000000000000000000000000020
:103BA5000000000000000000000000000000000010
:103BB5000000000000000000000000000000000000
:103BC50000000000000000000000000000000000F0
:103BD50000000000000000000000000000000000E0
:103BE50000000000000000000000000000000000D0
:103BF50000000000000000000000000000000000C0
:103C050000000000000000000000000000000000AF
:103C1500000000000000000000000000000000009F
:103C2500000000000000000000000000000000008F
:103C3500000000000000000000000000000000007F
:103C4500000000000000000000000000000000006F
:103C5500000000000000000000000000000000005F
:103C6500000000000000000000000000000000004F
:103C7500000000000000000000000000000000003F
:043C8500474D470060
:023C89004100F8
:023C8B004D00EA
:043C8D004F46460058
:043C91004F46460054
:043C9500474D470050
:053C9900524544450006
:103C9E002032202D20436F7272656E74652052653E
:033CAE006465004A
:103CB1002031202D2054656E73616F20526564653B
:033CC100202000C0
:103CC40020202030202D205072696E636970616C51
:033CD400202000AD
:053CD7005245444500C8
:063CDC00526573657400DF
:083CE200446972656974610018
:073CEA004D616E75616C0075
:023CF1000100D0
:0B3CF3004175746F6D617469636F00B0
:023CFE000000C4
:053D000052454445009E
:043D05004F464600DF
:043D0900474D4700DB
:093D0D0045737175657264610073
:093D160043616C69627261720084
:103D1F00202033202D204672657175656E636961B1
:033D2F0020200051
:013D32000090
:043D3300494E4600AF
:103D370035202D2054656E73616F20426174657262
:033D4700696100AF
:103D4A002034202D2054656D70657261747572611E
:033D5A0020200026
:013D5D003035
:043D5E004E614E0064
:023D620030002F
:033D6400432000F9
:0E3D670054656D70657261747572613A20006A
:0B3D750050617274697220474D4700D6
:0A3D8000426174657269613A200027
:033D8A00562000C0
:073D8D00426F74616F3A0000
:083D940047657261646F720063
:0A3D9C00506172617220474D47002C
:0E3DA6004465736C6967612043617267610058
:053DB40052656465008A
:020000040030CA
:0E000000044C191EFF0380FF0FC00FE00F40DD
:00000001FF
