:1000000001EF17F00000000000EF00F0000000001A
:0A0010000000000000000000F3D71C
:0C001C00100E0D6E0D2EFED7000012001D
:0C002800000000000000000000001200BA
:0A003400F3DF8188F1DF81981200EC
:08003E000AAE029E000E120042
:100046000B840BAE2EEF00F0010E036E026A016AFE
:0A005600006A0A360232FF0E1200A3
:10006000F250026EF29E0500FF6A0150FE6E0050D3
:08007000FD6E02BEF28E1200CB
:100078000B820BAE46EF00F0036802680168006867
:080088000A360232FF0E1200DD
:100090007F0E0101FC15016E01C0FCF101AC03D023
:0C00A0008182819002D081928180120048
:1000AC0081948196B80E0101FC11836EBDDF1200A4
:1000BC007F0E0101FC15006E00C0FCF1819481964D
:1000CC00BF0E001600C0FCF1008C00C0FCF100C09B
:0600DC0083FFAADF120001
:1000E200120E006E000E016E830E0024E16E0F0EE2
:1000F2000120E26EFF0EE66E96DF95DF8184819825
:10010200818681888ADF83CFFCF1819881968BDF9B
:100112008ADF120E006E000E016E830E0024E16E65
:0E0122000F0E0120E26EE66AFCC100F0120032
:0E013000026A016A006A086A036A000E120081
:0E013E00819881848196FCC183FF75DF1200D9
:10014C00620E0101FA6F010EFB6F000E006EF3518F
:10015C00005C02E1F251000843E26CC1E1FF6DC1A9
:10016C00E2FFEEC1E6FFEFC1E6FFF0C1E6FFF1C131
:10017C00E6FFF2C1E6FFF3C1E6FFF60EE66E010EF6
:10018C00E66E6AC100F06BC101F064DF00C0F8F1EB
:10019C0001C0F9F10101F46BF56BF751F55D02E16A
:1001AC00F651F45D11E2F8C1E9FFF9C1EAFFFAC1B9
:1001BC00E1FFFBC1E2FFEECFE6FFFA4BFB2BF84B66
:1001CC00F92BF44BF52BE9D7F651F25FF751F35BB2
:1001DC00F651EE27F751EF23000EF023F123B5D79C
:0201EC001200FF
:1001EE00000E0101EE5D0AE3EE517F0807E3000EFB
:1001FE00EF5D04E3EF513F0801E301D04AD0EEC1B9
:10020E00FCF13FDFEFC1FCF1FC33FC9FFC33FC9FA4
:10021E00FC33FC9F44DFEEC1FCF149DF5BDF00C025
:10022E00F3F158DF00C0F3F1EFC1FCF1FC33FC9F9A
:10023E00FC33FC9FFC33FC9F32DFEEC1FCF137DF59
:10024E00070EEF15006E00C0F1F100C001F0010EB7
:10025E00006E015004E000360090FF0FFBD700C087
:10026E00F1F1001CF26F09D0F251F3170FD0F151DA
:10027E00F3130CD0F151F31B09D0F051000AF4E046
:10028E00F051010AF4E0F051020AF4E0F3C1FCF17E
:04029E004FDF12001C
:1002A2000B6A0A6A096A00500402F4CF09F0F3CF1C
:1002B20008F001500502F4CF0BF0F3CF0AF0005022
:1002C2000502F3500926F4500A22E86A0B22015073
:1002D2000402F3500926F4500A22E86A0B2208C0ED
:1002E20000F009C001F00AC002F00BC003F01200D6
:1002F2000B800BAE85EF01F0026A0AAEFF0E026EB2
:0C030200016E006E0A360232FF0E12007F
:10030E000C6A0E6A0250D8A4A0EF01F001C002F0F0
:10031E0000C001F0006A0E860250D8A4A0EF01F0D2
:10032E0001C002F0016A0E960E880250D8B4B2EFE8
:10033E0001F00E50035ED8A4D8A0B7EF01F0D8900C
:10034E0002BEBCEF01F0003601360236032EA7EFD7
:10035E0001F0B7EF01F0010E0C6EE3DEBFEF01F01E
:10036E00020E0C6E69DEBFEF01F0040E0C6E60DE45
:02037E0012006B
:0C038000240E0D6E0D2EFED700001200A2
:10038C000CB008EF02F00CA2AEEF02F00E6A000EF9
:10039C0002641FEF02F0F00E0214D8A4EAEF01F091
:1003AC00023A01380F0B02260138F00B016E0038AF
:1003BC000F0B01260038F00B006E08380F0B0026CF
:1003CC000838F00B086E0E84D89002BE03EF02F0D2
:1003DC0008360036013602360E2A02BE03EF02F052
:1003EC0008360036013602360E2A02BE03EF02F042
:1003FC0008360036013602360E2A0E500364A4EF7E
:10040C0002F0035E0BBC08AEA9EF02F0D880800EA0
:10041C0008640030000E002201220222D8A0A9EFAD
:10042C0002F0023201320032034AAEEF02F0A9EFC1
:10043C0002F001C002F000C001F008C000F0086A30
:10044C00000E0E86026456EF02F0F00E0214D8A4D1
:10045C003EEF02F0023A01380F0B02260138F00B86
:10046C00016E00380F0B01260038F00B006E0E8465
:10047C00D89002BE03EF02F00036013602360E2A87
:10048C0002BE03EF02F00036013602360E2A02BE1F
:10049C0003EF02F00036013602360E2A03EF02F0AB
:1004AC0001C002F000C001F0006A000E0E960E882A
:1004BC00026483EF02F0F00E0214D8A46EEF02F087
:1004CC00023A01380F0B02260138F00B016E0E8434
:1004DC00D89002BE03EF02F0013602360E2A02BE9D
:1004EC0003EF02F0013602360E2A02BE03EF02F0D1
:1004FC00013602360E2A03EF02F001C002F0016A47
:10050C00000E0E860264B3EF02F0F00E0214D8A4B3
:10051C0092EF02F0023A0E84D89002BE03EF02F082
:10052C0002360E2A02BE03EF02F002360E2A02BE7B
:10053C0003EF02F002360E2A03EF02F0010E0C6EEE
:10054C007CDDB6EF02F0020E0C6E73DDB6EF02F03E
:10055C00040E0C6E8BDDB6EF02F0080E0C6EE2DDB5
:02056C0012007B
:10056E00EEC155F1EFC156F1F0C157F1020E010186
:10057E00EE25F66E000EEF21F76E000EF021F86EEE
:10058E000900F5CF04F0030EEE25F66E000EEF21F6
:10059E00F76E000EF021F86E0900F5CF03F003C0E0
:1005AE0001F0006A045000244F6F000E0120506FBE
:1005BE00040EEE25F66E000EEF21F76E000EF02102
:1005CE00F86E0900F5CF04F0050EEE25F66E000E5E
:1005DE00EF21F76E000EF021F86E0900F5CF03F053
:1005EE0003C001F0006A04500024516F000E012078
:1005FE00526F060EEE25F66E000EEF21F76E000E10
:10060E00F021F86E0900F5CF53F1000E546FF1C1D1
:10061E006FF1000E706FF2C171F1010E0001C56F26
:08062E0001015C6B5D6B120021
:080636000B6A0B86FF0E120097
:10063E00D4C104F0D5C105F004C002F005C003F02A
:10064E00044A052AD6C100F0D7C101F00101D64BEC
:10065E00D72B00C0E9FF01C0EAFF02C0E1FF03C0D3
:10066E00E2FFEECFE6FF02C0E9FF03C0EAFFEE5263
:0E067E0001E0E2D7D4C100F0D5C101F01200B6
:10068C000450000A12E10550000A0FE10650000A5E
:10069C000CE10750000A09E1FF0E006EFF0E016E1F
:1006AC007F0E026EFF0E036EA4D0086A096A075013
:1006BC00D8B4F1EF03F00350D8B4F5EF03F00250C7
:1006CC0006180A6E028E068E0E6A02C008F001C071
:1006DC000CF000C00DF004500D5E0550D8A0053C88
:1006EC000C5E0650D8A0063C085E086A0C6A0D6ABF
:1006FC00D8A088EF03F0D8900232013200320832D1
:10070C00010E0E6E0750035ED8A095EF03F07E0E1F
:10071C000E240326D8B0F9EF03F09BEF03F07E0E06
:10072C000E240326D8A0FDEF03F0180E0B6E0D3629
:10073C000C3608360036013602360E360450005E92
:10074C000550D8A0053C015E0650D8A0063C025EC0
:10075C0006340E120EA0B6EF03F00D80C1EF03F0BD
:10076C00045000260550D8B0053C01260650D8B0E0
:10077C00062802260D900B2E9DEF03F0E7EF03F0F9
:10078C00D8900036013602360E360450005E055005
:10079C00D8A0053C015E0650D8A0063C025E06348B
:1007AC000E10010B0D26D8B00C2AD8B4082AD8A4E8
:1007BC00E7EF03F008320C320D32032AD8B4F9EF0C
:1007CC0003F00AAE089E0850026E0C50016E0D50DC
:1007DC00006EFFEF03F0010E28DFFFEF03F0020EB7
:1007EC00A1DCFFEF03F0040E41DCFFEF03F0080E79
:0407FC0024DC1200E7
:100800000A6A0350D8A40A800750D8A40A820A5062
:10081000D8B463EF04F0030AD8B41CEF04F00AB0B4
:1008200017EF04F006AE61EF04F05FEF04F002AEE4
:100830005FEF04F061EF04F00250800B0A6E029E3D
:100840000650800B069E0A18D8B42DEF04F00A500B
:10085000D8B45FEF04F061EF04F00750035CD8B444
:1008600037EF04F0D8A053EF04F059EF04F006502E
:10087000025CD8B441EF04F0D8A053EF04F059EF74
:1008800004F00550015CD8B44BEF04F0D8A053EF4E
:1008900004F059EF04F00450005CD8B463EF04F0A6
:1008A000D8B059EF04F00A52D8B461EF04F05FEF0A
:1008B00004F00A52D8B45FEF04F061EF04F0D8807E
:0E08C0001200D8901200D880D88412001200C6
:1008CE00000E0101D65D04E3D6513F0801E301D0CD
:1008DE0027D0000ED45DD8A0D46BD4517F0802E28D
:1008EE007F0ED46F000ED55DD8A0D56BD5517F0885
:1008FE0002E27F0ED56FD451D55D06E2D4C1D8F198
:10090E00D5C1D4F1D8C1D5F1D451D55D09E3D4C147
:10091E00EEF1D6C1EFF1D7C1F0F162DCD42BF4D7F2
:02092E001200B5
:10093000086A096A000E076203641DEF05F00250A1
:1009400006180A6E075003267E0ED8A0AEEF04F0FC
:10095000035ED8B022EF05F0B2EF04F0035ED8A03A
:1009600027EF05F0028E068E02C00EF001C00BF0DC
:1009700000C00DF000500402F4CF0CF0015005024D
:10098000F4CF00F0F3CF08F00402F3500C26F4503B
:100990000822000E00220D500502F3500C26F450E0
:1009A0000822000E002202500402F3500826F450E0
:1009B000002202500502016A000E0122F3500026B7
:1009C000F45001220D500602F3500826F450002284
:1009D000026A000E012202220B500602F35000268A
:1009E000F4500122000E02220E500602F35001269E
:1009F000F450022202BE05EF05F00836003601363B
:100A000002360306D8B427EF05F018EF05F0D880BA
:100A1000800E08640030000E002201220222D8A0BD
:100A200018EF05F0023201320032034A22EF05F0DE
:100A30000AAE029E000E2AEF05F0010E98EC00F0BF
:100A40002AEF05F0020E3CEC00F02AEF05F0040E50
:060A500023EC00F012008F
:100A56000101DC6BDD6BDE6B0001C551000A0EE1A6
:100A6600500E0101EE6F2F0EEF6F000EF06F010EAC
:100A7600F16FF26B79DD010E0001C56F000E006E9D
:100A860001015051005C02E14F51D45D01E2E8D012
:100A9600000E525D02E1D451515D01E2E1D04F51A9
:100AA600D45D016E50C102F0000E025601C003F083
:100AB60002C004F00336039004360336039004366E
:100AC600080E5525006E000E5621016E000E5721A8
:100AD600026E000E056E00500326015004220250DD
:100AE600052203C0F6FF04C0F7FF05C0F8FF0900A2
:100AF600F5CFDCF1010E0324F66E000E0420F76E2E
:100B0600000E0520F86E0900F5CF00F000C006F0D3
:100B1600000E076E086E096E020E0324F66E000EB6
:100B26000420F76E000E0520F86E0900F5CF03F0DD
:100B360003C001F0006A000E026E036E0650002626
:100B46000750012208500222095003225551002461
:100B5600D96F56510120DA6F57510220DB6F715160
:100B6600000A40E15AC1D7F1D66B000E006E54510F
:100B7600005C02E15351D65D2EE258C1DDF1D86B1F
:100B8600D56BDC51D55D24E2D851000A10E1D9C1FC
:100B9600F6FFDAC1F7FFDBC1F8FF0900F5CFDEF19A
:100BA600010ED927000EDA23DB23010ED86FD851A8
:100BB600DE15006E08E0DDC1EEF1D7C1EFF16FC1C1
:100BC600F0F1F7EC00F0DD2BD837D891D52BD9D73B
:100BD600D72BD62BCAD7DD51010F586F596B000E94
:100BE60059233ED058C1D7F1D66B000E006E545132
:100BF600005C02E15351D65D2EE25AC1DDF1D86B9D
:100C0600D56BDC51D55D24E2D851000A10E1D9C17B
:100C1600F6FFDAC1F7FFDBC1F8FF0900F5CFDEF119
:100C2600010ED927000EDA23DB23010ED86FD85127
:100C3600DE15006E08E0D7C1EEF1DDC1EFF16FC140
:100C4600F0F1F7EC00F0DD07D837D891D52BD9D7DE
:100C5600D72BD62BCAD7DD055A6F5B6B000E5B5BB5
:020C660012007A
:100C6800C26A0001F01D006E0050C116070EC012C6
:100C7800C08ED4C100F000360090003600900050BD
:100C8800C212C280C0EC01F0C282C2A201D0FDD75C
:100C9800C4CF01F0006AC3500012000E0112C290C6
:020CA800120038
:100CAA000050086E0150006E016A026A036A0B6AFC
:100CBA000C6A960E036E0A6A00C001F008C000F0C2
:0A0CCA00086A026A87EC01F01200CC
:100CD400025006180E6E086A096A0B6A035007640C
:100CE4005DEF07F006500A6E068E028E03500B6EFF
:100CF4000750036E000E0B64ADEF06F00B50075E59
:100D0400D8B44EEF07F0070E07641CEF07F0075E38
:100D140000C008F001C000F002C001F0026A074EF2
:100D24004EEF07F00764F1EF06F0075E00C008F02D
:100D340001C000F0016A074E4EEF07F00764CFEFE1
:100D440006F0075E00C008F0006A074E4EEF07F099
:100D54000764B6EF06F00AC002F005C001F004C053
:100D640000F0086A7AEF08F0030E0764C1EF06F09A
:100D7400075E08380F0B086E074E4EEF07F0D89049
:100D84000832074E4EEF07F0D8900832074E4EEF68
:100D940007F0D89008324EEF07F0030E0764E0EF37
:100DA40006F0075E08380F0B086E0038F00B0826B3
:100DB40000380F0B006E074E4EEF07F0D89000324C
:100DC4000832074E4EEF07F0D89000320832074E33
:100DD4004EEF07F0D890003208324EEF07F0030EC2
:100DE400076408EF07F0075E08380F0B086E003839
:100DF400F00B082600380F0B006E0138F00B0026AC
:100E040001380F0B016E074E4EEF07F0D8900132F8
:100E140000320832074E4EEF07F0D890013200320C
:100E24000832074E4EEF07F0D890013200320832F4
:100E34004EEF07F0030E076439EF07F0075E08383A
:100E44000F0B086E0038F00B082600380F0B006EED
:100E54000138F00B002601380F0B016E0238F00B3D
:100E6400012602380F0B026E074E4EEF07F0D890A2
:100E74000232013200320832074E4EEF07F0D890AA
:100E84000232013200320832074E4EEF07F0D8909A
:100E94000232013200320832096A000E0EAE42EF0D
:100EA40008F0081E001E011E021E082A002201224C
:100EB400022242EF08F00750D8A463EF07F07AEF5C
:100EC40008F0096A02C00AF0028E068E0750035C1D
:100ED400076ED8B435EF08F0070E076403EF08F087
:100EE400075E0450096E0550046E0650056E066ACE
:100EF400074E35EF08F0070E0764D8EF07F0075EDA
:100F04000450096E0550046E056A074E35EF08F06B
:100F1400070E0764B6EF07F0075E0450096E046A13
:100F2400074E35EF08F0070E07649DEF07F00AC07F
:100F340002F07AEF08F0030E0764A8EF07F0075EEB
:100F440009380F0B096E074E35EF08F0D8900932B7
:100F5400074E35EF08F0D8900932074E35EF08F008
:100F6400D890093235EF08F0030E0764C7EF07F095
:100F7400075E09380F0B096E0438F00B0926043894
:100F84000F0B046E074E35EF08F0D8900432093287
:100F9400074E35EF08F0D89004320932074E35EF8A
:100FA40008F0D8900432093235EF08F0030E0764D4
:100FB400EFEF07F0075E09380F0B096E0438F00BEA
:100FC400092604380F0B046E0538F00B0426053887
:100FD4000F0B056E074E35EF08F0D890053204323A
:100FE4000932074E35EF08F0D89005320432093241
:100FF400074E35EF08F0D89005320432093235EF48
:1010040008F0030E076420EF08F0075E09380F0BA1
:10101400096E0438F00B092604380F0B046E0538EA
:10102400F00B042605380F0B056E0638F00B052669
:1010340006380F0B066E074E35EF08F0D8900632CF
:10104400053204320932074E35EF08F0D8900632E3
:10105400053204320932074E35EF08F0D8900632D3
:10106400053204320932086A000E0EAE42EF08F06F
:10107400091E041E051E061E092A04220522062234
:10108400095008260450002205500122065002226D
:101094000EBE59EF08F0D8A068EF08F00232013212
:1010A40000320832033E68EF08F074EF08F0D8B05D
:1010B4006EEF08F0000E081E001E011E021E082A14
:1010C4000022012202220A7E6EEF08F0010E0C6E4D
:1010D400C6EC01F07CEF08F0020E0C6EC6EC01F0D9
:1010E4007CEF08F0040E0C6E3CEC00F07CEF08F092
:0610F400000E0C6E12005C
:1010FA000101E96BEA6BEB6BEC6B5051D55D02E1D8
:10110A004F51D45D01E2BBD1D551525D02E1D451B8
:10111A00515D01E2B4D14F51D45D036E5051D5599E
:10112A00046E03C000F004C001F0003600900136DE
:10113A00003600900136080E5E25EE6F000E5F2124
:10114A00EF6F000E6021F06F000E6121F16F005009
:10115A00EE270150EF23000EF023F123040EF26F65
:10116A00000EF36FA6EC00F0620EE76F010EE86F57
:10117A00E7C1E9FFE8C1EAFFEECFEDF1EDC1E9F120
:10118A00010EE725E96E000EE821EA6EEECF04F0C3
:10119A00000E056E066E076E020EE725E96E000E5A
:1011AA00E821EA6EEECF03F003C001F0006A000EF8
:1011BA00026E036E045000260550012206500222D8
:1011CA000750032200505E25DB6F01505F21DC6F60
:1011DA0002506021DD6F03506121DE6FEDC100F026
:1011EA000032009E0032009E0032009E000E016E08
:1011FA0053C104F054C105F051EC01F000C0E1F113
:10120A0001C0E2F1070EED15006E04E05351E1272B
:10121A005451E223E1C1E5F1E2C1E6F16CC1E1FF1B
:10122A006DC1E2FFDBC1E6FFDCC1E6FFDDC1E6FF1F
:10123A00DEC1E6FFE1C1E6FFE2C1E6FFDF0EE66ED0
:10124A00010EE66E6AC100F06BC101F030EC00F0ED
:10125A0000C0E7F101C0E8F10101DF51DB27E051ED
:10126A00DC23000EDD23DE23DF51E15FE051E25B88
:10127A00E36BE46B7151000AD8A480D05AC1D8F14B
:10128A005BC1D9F1D76B000E006E5451005C02E1CC
:10129A005351D75D6CE258C1EAF159C1EBF1DA6BEF
:1012AA00D66BE951D65D5FE2DA51000A4AE1E34BB7
:1012BA00E42BE651E05D02E1E551DF5D38E2E451FD
:1012CA00E05D02E1E351DF5D32E2010EE36F000E01
:1012DA00E46F6CC1E1FF6DC1E2FFDBC1E6FFDCC177
:1012EA00E6FFDDC1E6FFDEC1E6FFE1C1E6FFE2C1DE
:1012FA00E6FFDF0EE66E010EE66E6AC100F06BC114
:10130A0001F030EC00F000C0E7F101C0E8F1E1C102
:10131A00E5F1E2C1E6F10101DF51DB27E051DC230F
:10132A00000EDD23DE23DF51E15FE051E25BE7C11E
:10133A00E9FFE8C1EAFFEECFECF1E74BE82B010E3B
:10134A00DA6FDA51EC15006E08E0EAC1EEF1D8C1A5
:10135A00EFF16FC1F0F1F7EC00F0EA4BEB2BDA3763
:10136A00DA91D62B9ED7D84BD92BD72B8CD7010EF7
:10137A00EA25586F000EEB21596F81D058C1D8F178
:10138A0059C1D9F1D76B000E006E5451005C02E1CD
:10139A005351D75D6EE25AC1EAF15BC1EBF1DA6BE8
:1013AA00D66BE951D65D61E2DA51000A4AE1E34BB4
:1013BA00E42BE651E05D02E1E551DF5D38E2E451FC
:1013CA00E05D02E1E351DF5D32E2010EE36F000E00
:1013DA00E46F6CC1E1FF6DC1E2FFDBC1E6FFDCC176
:1013EA00E6FFDDC1E6FFDEC1E6FFE1C1E6FFE2C1DD
:1013FA00E6FFDF0EE66E010EE66E6AC100F06BC113
:10140A0001F030EC00F000C0E7F101C0E8F1E1C101
:10141A00E5F1E2C1E6F10101DF51DB27E051DC230E
:10142A00000EDD23DE23DF51E15FE051E25BE7C11D
:10143A00E9FFE8C1EAFFEECFECF1E74BE82B010E3A
:10144A00DA6FDA51EC15006E08E0D8C1EEF1EAC1A4
:10145A00EFF16FC1F0F1F7EC00F0010EEA5F000E58
:10146A00EB5BDA37DA91D62B9CD7D84BD92BD72B13
:10147A008AD7010EEA5D5A6F000EEB595B6F1200B4
:10148A00D4C158F1D5C159F1D6C15AF1D7C15BF1CE
:02149A0012003E
:10149C000D6A086A0050D8B4000C04180A6E0ABE13
:1014AC000D1E0B6A04AE02D0041E042A00AE02D03C
:1014BC00001E002A005004100A6E0ABE1FD00450F1
:1014CC00085E003600340836045008260036060E36
:1014DC000C6E00340836045000B0085E00A00826DC
:1014EC0000360C2EF6D700A008260BB015D00DAE8A
:1014FC00000C001E002A081E082A000C04AE09D09D
:10150C0000BE04D00050086E006AF1D7006A002AB1
:10151C00000C001E0B2AD3D7082A0450085CD8A450
:0E152C00E6D7086A002A00AEE2D7FF0C1200D4
:10153A000B6A0C6A086A0350D8B421EF0BF002C098
:10154A000AF0028E9E0E035E03AE11EF0BF0036CDF
:10155A00080E035CD8A0DEEF0AF0036E083600C05E
:10156A0008F001C000F002C001F0026A080E035C34
:10157A00D8A0DEEF0AF0036E083600C008F001C0FA
:10158A0000F0016A080E035CD8A0DEEF0AF0036ED1
:10159A00083600C008F0006A080E035CD8A0DEEF27
:1015AA000AF0036E0836086A0350D8A4D890EAEF06
:1015BA000AF00350D8B4EAEF0AF0D89002320132A6
:1015CA0000320832032EE2EF0AF00BBC08A0FBEF50
:1015DA000AF0D8A0FBEF0AF0082AD8B4002AD8B437
:1015EA00012AD8B4022A02BE25EF0BF00AAE21EF77
:1015FA000BF0021E011E001E081E082AD8B4002A7B
:10160A00D8B4012AD8B4022A21EF0BF0026A016A7F
:10161A00006A086A21EF0BF00B800BAE2CEF0BF07F
:10162A00026A0AAE2CEF0BF0026E016E006E086EB3
:10163A000A3602322CEF0BF00C6A000E2DEF0BF07B
:10164A00010E0C6E000E79EC01F02DEF0BF0FF0E7F
:10165A000250036E0150026E0050016E0850006E77
:02166A0012006C
:10166C00086A096A100E0C6E0134083609360450EB
:10167C00085E0550D8A0053C095ED8B007D00450D0
:10168C0008260550D8B0053C0926D89000360136FE
:06169C000C2EEAD712003B
:1016A200000E0101C45D04E3C4517F0801E301D0CF
:1016B20028D0000EC25DD8A0C26BC2513F0802E220
:1016C2003F0EC26F000EC35DD8A0C36BC3513F086B
:1016D20002E23F0EC36FC251C35D06E2C2C1C6F150
:1016E200C3C1C2F1C6C1C3F1C251C35D0AE3C4C1E1
:1016F200EEF1C2C1EFF1C5C1F0F1F7EC00F0C22B7F
:04170200F3D7120007
:101706000050086E0150006E0250016E0350026ECA
:10171600036A0B6A0C6A9E0E036E0A6A02AEA0EF9B
:101726000BF0081E001E011E021E082AD8B4002A4D
:10173600D8B4012AD8B4022A0A8E020E0C6EC6EC60
:0417460001F012009C
:10174A00220E0C6E086A096A0A6A0B6A0C06D8B479
:10175A001FD0D8900B320A320932083203320232D1
:10176A0001320032D8A0F2D70C06D8B409D00450FE
:10177A0008260550092206500A2207500B22EAD7EA
:10178A00045008260550092206500A2207500B2247
:02179A0012003B
:10179C000101C36BC46BC56BC66BC26B640EC25DBF
:1017AC001AE2D46B34EC06F055EC06F0C3C104F02D
:1017BC00C4C105F0C5C106F0C6C107F06AEC06F05D
:1017CC0000C0C3F101C0C4F102C0C5F103C0C6F131
:1017DC000101C22BE3D7000E046E000E056E480EFD
:1017EC00066E850E076EC3C100F0C4C101F0C5C101
:0E17FC0002F0C6C103F046EC03F099DE1200C5
:10180A00000E0101C55D02E1800EC45D01E33AD01C
:10181A00000EC75D02E1400EC65D01E333D0C86B1E
:10182A00C96BC4C1D4F1C5C1D5F1C6C1D6F1C7C10E
:10183A00D7F126DEC851C225E96EC951C321EA6E25
:10184A00EE5220E05C515D1110E0C851C225E96EEC
:10185A00C951C321EA6EEECFD4F1000ED56F000E46
:10186A00D56F46DCC84BC92B0CD0C851C225E96ECE
:10187A00C951C321EA6EEECFD4F12BEC05F0C84B67
:06188A00C92BD8D71200A3
:10189000C3C1C7F10101C751C55D0CE3C2C1D4F199
:1018A000C4C1D5F1C7C1D6F1C6C1D7F167EC04F008
:0618B000C72BF0D7120067
:1018B6000101C36BC46BC56BC66BC26B640EC25DA4
:1018C6001BE2020ED46F34EC06F055EC06F0C3C1F1
:1018D60004F0C4C105F0C5C106F0C6C107F06AEC44
:1018E60006F000C0C3F101C0C4F102C0C5F103C0D7
:1018F600C6F10101C22BE2D7000E046E000E056E82
:10190600480E066E850E076EC3C100F0C4C101F015
:10191600C5C102F0C6C103F046EC03F00BDE1200AF
:101926000101C66B050EC65D0AE2C651C425E16E0D
:10193600000EC521E26E200EE66EC62BF3D7C65109
:10194600C425E16E000EC521E26EE66AC607C651E1
:10195600C425C76F000EC521C86F0A0E046E000E9F
:10196600056EC2C100F0C3C101F07DDE08C000F003
:1019760009C001F0300E0026C7C1E1FFC8C1E2FF71
:1019860000C0E6FF0A0E046E000E056EC2C100F02E
:10199600C3C101F068DE00C0C2F101C0C3F1000E90
:1019A600011802E1000E001801E102D0C607CFD7E8
:0219B60012001D
:1019B8000101C46BC56BC2C103F0C3C104F0C2C14D
:1019C80005F0C3C106F003C0E9FF04C0EAFFEE500A
:1019D800200A04E1C451C51101E110D0010EC46F01
:1019E800000EC56F03C0E9FF04C0EAFF05C0E1FFB0
:1019F80006C0E2FFEECFE6FF054A062A03C001F063
:101A080004C002F0034A042A01C0E9FF02C0EAFF49
:101A1800EE50000AD8E1C2C100F0C3C101F01200C3
:101A28000101CF6BD06BD16BD26BD36BC2C1CBF141
:101A3800C3C1CCF1C4C1CDF1C5C1CEF1CE51FF0AAD
:101A480008E1CD51FF0A05E1CC51FF0A02E1CB5173
:101A5800FF0A0DE1C6C1D4F1C7C1D5F1F10ED66FA9
:101A6800000ED76F1FEC03F0030E006E5ED2010E5E
:101A7800C96FCDAF0FD0800ECD19006E00C0CDF16B
:101A8800C92BD02BC6C1E1FFC7C1E2FF2D0EE66E00
:101A9800C64BC72B000E006ECE1908E10050CD19B9
:101AA80005E10050CC1902E1CB51000A0CE1C6C196
:101AB800D4F1C7C1D5F1F50ED66F000ED76F1FEC64
:101AC80003F0006A32D2CE51FF0A08E1CD51000A74
:101AD80005E1CC51000A02E1CB51000A0DE1C6C173
:101AE800D4F1C7C1D5F1C60ED66F000ED76F1FEC63
:101AF80003F0C9C100F019D2000E046E000E056E85
:101B0800000E066E7F0E076ECBC100F0CCC101F04F
:101B1800CDC102F0CEC103F000EC04F0010ED8B044
:101B2800000E006E00521CE0CBC100F0CCC101F0E9
:101B3800CDC102F0CEC103F0000E046E000E056E9A
:101B4800200E066E820E076E98EC04F000C0CBF1F2
:101B580001C0CCF102C0CDF103C0CEF1D307CCD780
:101B6800000E046E000E056E200E066E820E076EC5
:101B7800CBC100F0CCC101F0CDC102F0CEC103F061
:101B880000EC04F0000ED8B0010E006E00521CE00C
:101B9800CBC100F0CCC101F0CDC102F0CEC103F041
:101BA800CD0E046ECC0E056E4C0E066E7B0E076EC7
:101BB80098EC04F000C0CBF101C0CCF102C0CDF12B
:101BC80003C0CEF1D32BCCD7FF0ECB15086EFF0E7A
:101BD800CC15096E7F0ECD150A6E000ECE150B6E54
:101BE80008C004F009C005F00AC006F00BC007F0F1
:101BF80004360490053606360736000ECB15006EFF
:101C0800000ECC15016E000ECD15026EFF0ECE151E
:101C1800036E00C0CBF101C0CCF102C0CDF103C00E
:101C2800CEF10450CB11006E0550CC11016E065058
:101C3800CD11026E0750CE11036E00C0CBF101C06A
:101C4800CCF102C0CDF103C0CEF17F0ECE5D006EA7
:101C580000C0CAF1010ECE6F00C004F0CBC100F085
:101C6800CCC101F0CDC102F0CEC103F0045007E0B1
:101C780000360090013602360336FF0FF8D700C051
:101C8800CBF101C0CCF102C0CDF103C0CEF1C6C189
:101C9800E1FFC7C1E2FFCE51300FE66EC64BC72B3E
:101CA800D02B800ED319006E800E010A005C08E369
:101CB800800E060A006E800ED319005C01E30BD07B
:101CC800C6C1E1FFC7C1E2FF2E0EE66EC64BC72BA9
:101CD800010ECF6FD02B060ECA6FCA51000A58E00A
:101CE800CE6BCBC100F0CCC101F0CDC102F0CEC1AA
:101CF80003F00036009001360236033600360090B5
:101D0800013602360336CB510026CC510122CD5183
:101D18000222CE51032200C0CBF101C0CCF102C097
:101D2800CDF103C0CEF1CBC100F0CCC101F0CDC1E3
:101D380002F0CEC103F000360090013602360336B9
:101D480000C0CBF101C0CCF102C0CDF103C0CEF18F
:101D5800C6C1E1FFC7C1E2FFCE51300FE66EC64BE8
:101D6800C72BD02BCF51000A11E1D307D351000A5A
:101D78000DE1010ED26FC6C1E1FFC7C1E2FF2E0E11
:101D8800E66EC64BC72B010ECF6FD02BCA07A5D75F
:101D9800D251010AD8B4D007FF0EC625E96EFF0E4E
:101DA800C721EA6EEE502E0A05E1010EC65F000E4D
:101DB800C75BD007800E000A006E800ED319005C46
:101DC80002E2010ED16F800ED319006E800E000A58
:101DD800005C02E2020ED16FD3C1CAF1800E090A7B
:101DE800006E800ED319005C02E3D12B02D0020EE4
:101DF800D127D151D025016E026A000E0222800E31
:101E08000218006E800E005C02E1C851015C0AE213
:101E1800C6C1E1FFC7C1E2FF300EE66EC64BC72B55
:101E2800D02BE7D7D351000A43E0C6C1E1FFC7C1B1
:101E3800E2FF650EE66EC64BC72B800ED319006E07
:101E4800800E000A005C0BE2C6C1E1FFC7C1E2FFD9
:101E58002D0EE66EC64BC72BD3510008D36FD3C1E6
:101E6800CAF1800E090A006E800ED319005C0FE2D9
:101E78000A0E046ECAC100F04EEC0AF0C6C1E1FFBA
:101E8800C7C1E2FF0050300FE66EC64BC72B0A0EE3
:101E9800046ECAC100F04EEC0AF008C000F0C6C1DA
:101EA800E1FFC7C1E2FF0050300FE66EC64BC72BFB
:101EB800D151D025006E00C0D0F1C851005C016E30
:101EC80001C0CAF1800E000A006E800E0118005C85
:101ED8000EE2800E000A006E800ECA19005C06E24F
:101EE800CA07010EC65F000EC75BF3D718D0800E75
:101EF800CA19006E800E000A005C11E2800ECA1931
:101F0800006E800E000A005C0AE2CA2BC6C1E1FF1F
:101F1800C7C1E2FF300EE66EC64BC72BEFD7C6C16E
:0C1F2800E1FFC7C1E2FFE66A006A120098
:081F3400067E6AEC06F01200C3
:101F3C0000C008F00150006E016A026A036A0B6A65
:101F4C000C6A016A026A036A960E036E0A6A00AE94
:101F5C00B6EF0FF0081E001E082AD8B4002A0A8E0D
:101F6C0000C001F008C000F0086A026A87EC01F0BA
:021F7C00120051
:101F7E00819281800101BA6BBA51070810E3BAC190
:101F8E00FCF156EC00F0B96BB9513F0806E3B8C14D
:101F9E00FCF19FEC00F0B92BF7D7BA2BEDD781905F
:101FAE008182BA6BBA51070810E3BAC1FCF156EC44
:101FBE0000F0B96BB9513F0806E3B8C1FCF19FECD4
:0C1FCE0000F0B92BF7D7BA2BEDD71200AA
:101FDA0084B216D084A014D08490010E0101A36F9C
:101FEA00000EA46F010EA76F000EA86F820E0C6E72
:101FFA00DD0E0D6E0D2EFED70C2EFCD70000000054
:02200A001200C2
:10200C00B8C1D4F1BAC1D5F1B9C1D6F1BCC1D7F1BF
:10201C0067EC04F0B8C1D4F1BAC1D5F1BBC1D6F1AB
:10202C00BCC1D7F167EC04F0B9C1C2F1BBC1C3F1BB
:10203C00B8C1C4F1BCC1C5F151EC0BF0B9C1C2F1CE
:10204C00BBC1C3F1BAC1C4F1BCC1C5F151EC0BF0B9
:02205C00120070
:10205E000101BC6BBD6BBE6BBC51070845E3FC6B4D
:10206E0048EC00F0BCC1FCF156EC00F0FC6B5EECF1
:10207E0000F0BB6BBB513F0812E3BD51B825F66EA5
:10208E00BE51B921F76E000EBA21F86E0900F5CFD8
:10209E00FCF19FEC00F0BD4BBE2BBB2BEBD7400EE3
:1020AE00FC6F48EC00F0BCC1FCF156EC00F0400EA9
:1020BE00FC6F5EEC00F0400EBB6FBB517F0812E36D
:1020CE00BD51B825F66EBE51B921F76E000EBA217C
:1020DE00F86E0900F5CFFCF19FEC00F0BD4BBE2B66
:0A20EE00BB2BEBD7BC2BB8D71200B8
:1020F800010E0101BC6F000EBD6FCEEC0BF0050E9A
:10210800046E000E056E066E076EA5EC0BF083ECF0
:102118000BF000C076F101C077F102C078F103C07E
:1021280079F1000E046EC00E056E7F0E066E880EE5
:10213800076E46EC03F0000E046E000E056E480EA6
:10214800066E850E076E98EC04F000C07AF101C0A7
:102158007BF102C07CF103C07DF100C0C2F101C077
:10216800C3F102C0C4F103C0C5F1840E0101C66FFA
:10217800010EC76F040EC86F53DC840EC26F010EC8
:10218800C36F16DCBCC100F0BDC101F0D3DEB8C11D
:1021980004F0B9C105F0BAC106F0BBC107F06AEC9A
:1021A80006F000C004F001C005F002C006F003C04C
:1021B80007F076C100F077C101F078C102F079C16B
:1021C80003F000EC04F0000ED8B0010E006E0052CF
:1021D80027E1BCC100F0BDC101F0ACDE00C004F0D5
:1021E80001C005F002C006F003C007F0B8C100F056
:1021F800B9C101F0BAC102F0BBC103F097DE76C1E4
:1022080004F077C105F078C106F079C107F000EC59
:1022180004F0000ED8B0010E006E005201E147D064
:10222800460EC26F0F0EC36F590EC46F1E0EC56FD8
:10223800C66B48EC0CF08B0ED46F010ED56F840E74
:10224800D66F010ED76F1FEC03F0FA0EC26F000EA7
:10225800C36F0A0EC46F000EC56F0F0EC66F000E57
:10226800C76F05EC0CF0840EC26F010EC36F480EE9
:10227800C46F000EC56F0F0EC66F000EC76F05EC5A
:102288000CF0F70EC26F000EC36F5D0EC46F000E28
:10229800C56F0F0EC66F000EC76F05EC0CF076C148
:1022A800B8F177C1B9F178C1BAF179C1BBF11200BF
:1022B80084928480010E0101A36F000EA46FA76BA6
:1022C800A86B820E0C6EDD0E0D6E0D2EFED70C2E39
:0822D800FCD700000000120019
:1022E0000101BE6BBF6BB8C1C0F1B9C1C1F1800EB5
:1022F000B919006E800E005C02E1000EB85D0BE2C1
:10230000010EBE6F000EBF6FB8510008C06FB9C19B
:10231000C1F1000EC157C0C1C2F1C1C1C3F1BAC100
:10232000C4F1BBC1C5F193EC0CF0060EBC6F000EFE
:10233000BD6F000E006EBD51005C02E1BC51000893
:1023400019E2BC51BA25E16EBD51BB21E26E010E0E
:10235000BC5D006E000EBD59016E0050BA25E96EDD
:102360000150BB21EA6EEECFE6FF010EBC5F000E0E
:10237000BD5BDFD7BAC1E1FFBBC1E2FF200EE66E55
:10238000BE51BF111AE0BC6BBD6BBC51BA25E96EE2
:10239000BD51BB21EA6EEE50200A03E1BC4BBD2BC0
:1023A000F4D7010EBC5F000EBD5BBC51BA25E16ED7
:0C23B000BD51BB21E26E2D0EE66E120046
:1023BC000F0E0101BC6F000EBD6F5BEC0CF083ECDB
:1023CC000BF000C09DF101C09EF102C09FF103C053
:1023DC00A0F1000E046E000E056E700E066E830EDC
:1023EC00076E98EC04F0000E046EC00E056E7F0EA6
:1023FC00066E880E076E46EC03F000C099F101C022
:10240C009AF102C09BF103C09CF100C0C2F101C063
:10241C00C3F102C0C4F103C0C5F1920E0101C66F35
:10242C00010EC76F040EC86F14EC0DF0920EC26F44
:10243C00010EC36FDCEC0CF0BCC100F0BDC101F0AF
:10244C0077DDB8C104F0B9C105F0BAC106F0BBC163
:10245C0007F06AEC06F000C004F001C005F002C001
:10246C0006F003C007F09DC100F09EC101F09FC1B2
:10247C0002F0A0C103F000EC04F0000ED8B0010E85
:10248C00006E005227E1BCC100F0BDC101F050DD6F
:10249C0000C004F001C005F002C006F003C007F054
:1024AC00B8C100F0B9C101F0BAC102F0BBC103F070
:1024BC003BDD9DC104F09EC105F09FC106F0A0C19B
:1024CC0007F000EC04F0000ED8B0010E006E0052C4
:1024DC0001E13DD0460EC26F0F0EC36F590EC46F93
:1024EC001E0EC56FC66B48EC0CF00B0EC26F010EC6
:1024FC00C36F0A0EC46F000EC56F0F0EC66F000EB1
:10250C00C76F05EC0CF0920EC26F010EC36F460E36
:10251C00C46F000EC56F0F0EC66F000EC76F05ECB3
:10252C000CF0080EC26F010EC36F5A0EC46F000E72
:10253C00C56F0F0EC66F000EC76F05EC0CF09DC17A
:10254C00B8F19EC1B9F19FC1BAF1A0C1BBF11200A3
:10255C0084B216D084A014D08482010E0101A36F22
:10256C00000EA46F020EA76F000EA86F820E0C6EE9
:10257C00DD0E0D6E0D2EFED70C2EFCD700000000CC
:02258C0012003B
:10258E00000E0101A21902E1010EA1190DE1010EC9
:10259E00C26F0D0EC36F7E0EC46F3E0EC56FC66B3F
:0C25AE0048EC0CF0A16BA26B02DF1200E5
:1025BA00000E0101A61902E1010EA5193CE1B86B52
:1025CA00B96B7F0EBA6F3F0EBB6F010EBC6F19DD80
:1025DA00C26BC36B7F0EC46F0C0EC56F010EC66F44
:1025EA0048EC0CF0500EEE6F2F0EEF6F000EF06FEE
:1025FA00F16BF26BB7EC02F0B6C1C2F1B7C1C3F12D
:10260A001E0EC46F000EC56F010EC66F000EC76F97
:10261A0005EC0CF0500EEE6F2F0EEF6F000EF06F00
:10262A00010EF16FF26BB7EC02F0A56BA66B010E0F
:08263A00A16F000EA26F120057
:102642000900F5CFE6FF0006FBE10106F9E1120001
:1026520001016E6B5C6B5D6B939A93989394939666
:1026620093929390819A120E006E000E016E830E69
:102672000024E16E0F0E0120E26EE66A81948196DB
:1026820081928180818A3F0E836E1AEC00F0C00E27
:10269200836E1AEC00F0818281903F0E836E1AECF9
:0C26A20000F0C00E836E1AEC00F0120075
:1026AE00010E0101D46F34EC06F000C0ADF101C093
:1026BE00AEF1800E026E800E0118025C02E1005037
:1026CE000A080CE2050E0101C26F1E0EC36F500EFA
:1026DE00C46F280EC56FC66B48EC0CF00101000EDE
:1026EE00AC1902E1010EAB194EE1AE51AA1902E18D
:1026FE00A951AD190FE0050EC26F320EC36F640EF5
:10270E00C46F3C0EC56FC66B48EC0CF0ADC1A9F1A1
:10271E00AEC1AAF1ADC1B8F1AEC1B9F1AF0EBA6F8B
:10272E00010EBB6FD6DDAF0EC26F010EC36FDCECB8
:10273E000CF0AF0EC26F010EC36F280EC46F000EE9
:10274E00C56F320EC66F000EC76F05EC0CF03A0E59
:10275E00C26F010EC36F050EC46F000EC56F320E31
:10276E00C66F000EC76F05EC0CF0020E0B6E450E19
:10277E000C6EA90E0D6E0D2EFED70C2EFCD70B2E49
:10278E00FAD700000000800EAE19006E800E005CBD
:10279E0002E1500EAD5D19E3800E006E800EAE1993
:1027AE00005C02E1AD51640810E3D1DE150E0101AB
:1027BE00C26F010EC36F050EC46F000EC56F1E0EE5
:1027CE00C66F000EC76F05EC0CF0800EAE19006ED2
:1027DE00800E005C02E1780EAD5D18E3800E006E97
:1027EE00800EAE19005C02E1AD518C080FE35DDD89
:1027FE00220EC26F010EC36F050EC46F000EC56FA1
:10280E001E0EC66F000EC76F05EC0CF0800EAE19D3
:10281E00006E800E005C02E1AA0EAD5D1AE3800E22
:10282E00006E800EAE19005C02E1AD51BE0811E3E0
:10283E00EDEC0FF01D0E0101C26F010EC36F050E00
:10284E00C46F000EC56F1E0EC66F000EC76F05EC6F
:10285E000CF0800EAE19006E800E005C02E1C80E08
:10286E00AD5D18E3800E006E800EAE19005C02E1C5
:10287E00AD51DC080FE3300EC26F010EC36F050EB3
:10288E00C46F000EC56F1E0EC66F000EC76F05EC2F
:10289E000CF08086800EAE19006E800E005C02E198
:1028AE00E60EAD5D18E3800E006E800EAE19005C74
:1028BE0002E1AD51F0080FE3900EC26F000EC36F30
:1028CE00050EC46F000EC56F1E0EC66F000EC76FCD
:1028DE0005EC0CF08096800EAE19006E800E010A8B
:1028EE00005C02E1360EAD5D19E3800E010A006E4A
:1028FE00800EAE19005C02E1AD514A080FE39B0E4B
:10290E00C26F000EC36F050EC46F000EC56F1E0E94
:10291E00C66F000EC76F05EC0CF0807A800EAE19F4
:10292E00006E800E020A005C02E14E0EAD5D19E3F0
:10293E00800E020A006E800EAE19005C02E1AD51EF
:10294E0062080FE3890EC26F000EC36F050EC46FCF
:10295E00000EC56F1E0EC66F000EC76F05EC0CF095
:10296E008076800EAE19006E800E020A005C02E1C7
:10297E00A80EAD5D19E3800E020A006E800EAE1930
:10298E00005C02E1AD51BC080FE37B0EC26F000E7E
:10299E00C36F050EC46F000EC56F1E0EC66F000E00
:1029AE00C76F05EC0CF08078800EAE19006E800EAD
:1029BE00030A005C02E13E0EAD5D31E3800E030AB8
:1029CE00006E800EAE19005C02E1AD51520827E395
:1029DE00810EC26F000EC36F050EC46F000EC56F61
:1029EE001E0EC66F000EC76F05EC0CF0000EAC1974
:1029FE0002E1000EAB1913E1800E4C19006E800E31
:102A0E004E19005C02E14D514B5D03E24B4B4C2BDA
:102A1E0002D04B6B4C6B010EA56F000EA66F800E95
:102A2E00AE19006E800E030A005C02E1700EAD5D01
:102A3E003FE3800E030A006E800EAE19005C02E1C9
:102A4E00AD51840835E3BC0EC26F000EC36F050E88
:102A5E00C46F000EC56F1E0EC66F000EC76F05EC5D
:102A6E000CF0060E0B6E130E0C6EAD0E0D6E0D2EC3
:102A7E00FED70C2EFCD70B2EFAD700000000AB5160
:102A8E00AC11010ED8A4000EAB6F000EAC6F000E91
:102A9E00AC1902E1000EAB190BE1050EC26F320E3E
:102AAE00C36F640EC46F3C0EC56FC66B48EC0CF062
:102ABE00800EAE19006E800E030A005C02E1D40E89
:102ACE00AD5D34E3800E030A006E800EAE19005C1D
:102ADE0002E1AD51E8082AE3B30EC26F000EC36FD8
:102AEE00050EC46F000EC56F1E0EC66F000EC76FAB
:102AFE0005EC0CF0000EAC1902E1000EAB1916E15C
:102B0E00800E006E800E4C19005C02E14B510008E5
:102B1E0005E2010E4B5F000E4C5B04D04DC14BF134
:0E2B2E004EC14CF1010EA56F000EA66F1200F5
:102B3C000101B86BBFEC0FF082A409D0030EB86F83
:102B4C00350EB96F000EBA6F2FEC10F0F5D7B86BCD
:0E2B5C00BFEC0FF0010EA56F000EA66F120069
:102B6A00000E0101A21902E1010EA11911E1010EE3
:102B7A00C26F0D0EC36F7E0EC46F3E0EC56FC66B5D
:102B8A0048EC0CF0010EA36F000EA46FA16BA26BB0
:102B9A00000EA41902E1010EA319D8A415D1B86B2D
:102BAA00330EB96F7F0EBA6F3F0EBB6F010EBC6F4B
:102BBA0006EC10F0010EC26F340EC36F7E0EC46FA6
:102BCA003E0EC56FC66B48EC0CF0EAD0A60EC26F7B
:102BDA00000EC36F060EC46F000EC56F340EC66FAB
:102BEA00000EC76F05EC0CF02B0EC26F330EC36FCD
:102BFA00550EC46F3E0EC56F010EC66F48EC0CF041
:102C0A00500EEE6F2F0EEF6F000EF06FF16BF26B3E
:102C1A00B7EC02F0AB0EC26F000EC36F370EC46F73
:102C2A00000EC56F340EC66F000EC76F05EC0CF0B0
:102C3A00500EEE6F2F0EEF6F000EF06F010EF16F58
:102C4A00F26BB7EC02F0AF0EC26F000EC36F600EEC
:102C5A00C46F000EC56F340EC66F000EC76F05EC49
:102C6A000CF0A36BA46BB0D0010EC26F330EC36F0E
:102C7A002A0EC46F3E0EC56F010EC66F48EC0CF0EB
:102C8A00500EEE6F2F0EEF6F000EF06FF16BF26BBE
:102C9A00B7EC02F0760EC26F000EC36F060EC46F59
:102CAA00000EC56F340EC66F000EC76F05EC0CF030
:102CBA00500EEE6F2F0EEF6F000EF06F010EF16FD8
:102CCA00F26BB7EC02F0300EC26F000EC36F370E14
:102CDA00C46F000EC56F340EC66F000EC76F05ECC9
:102CEA000CF0340EC26F000EC36F600EC46F000E7C
:102CFA00C56F340EC66F000EC76F05EC0CF0A36BE0
:102D0A00A46B62D0380EC26F000EC36F060EC46F7A
:102D1A00000EC56F340EC66F000EC76F05EC0CF0BF
:102D2A002C0EC26F000EC36F370EC46F000EC56F34
:102D3A00340EC66F000EC76F05EC0CF0550EC26F4D
:102D4A00330EC36F7E0EC46F3E0EC56F010EC66F83
:102D5A0048EC0CF0500EEE6F2F0EEF6F000EF06F76
:102D6A00F16BF26BB7EC02F0150EC26F000EC36F77
:102D7A00600EC46F000EC56F340EC66F000EC76FAB
:102D8A0005EC0CF0500EEE6F2F0EEF6F000EF06F89
:102D9A00010EF16FF26BB7EC02F0A36BA46B14D0C7
:102DAA00000EA81902E1000EA719D8B40FD7000E19
:102DBA00A81902E1010EA719D8B456D7000EA8190E
:0A2DCA0002E1020EA7199EE01200BC
:102DD400000E0101A21902E1010EA1190DE1010E7B
:102DE400C26F0D0EC36F7E0EC46F3E0EC56FC66BF1
:0E2DF40048EC0CF0A16BA26B7CEC10F012000E
:102E020018EC1DF0190E0101416F000E426F630EA6
:102E1200476F000E486F500E496F000E4A6F3D0E0D
:102E2200436F000E446FCA0E456F000E466FDD0EF3
:102E3200826F000E836F060E4D6F000E4E6F7E6B1B
:102E42007F6B806B816B726B736B746B756B0C0E2B
:102E5200C112070EB412070E926E800E946EF00E1F
:102E6200956E966A816A826A836A846A29EC13F093
:102E7200B86BBFEC0FF0040E4B6F000E4C6F010EDF
:102E8200A56F000EA66FAB6BAC6B010EA76F000EA9
:102E9200A86F80968098809A2ED041C1B6F142C127
:102EA200B7F1DDEC12F060DE4AD047C1B6F148C19D
:102EB200B7F1DDEC12F043D049C1B6F14AC1B7F126
:102EC200DDEC12F03CD043C1B6F144C1B7F1DDEC08
:102ED20012F035D045C1B6F146C1B7F1DDEC12F0C2
:102EE20078DF2DD082C1B6F183C1B7F1DDEC12F0EB
:102EF200C7EC12F024D0000E4C1902E1000E4B195F
:102F0200CCE0000E4C1902E1010E4B19CEE0000E8E
:102F12004C1902E1020E4B19CFE0000E4C1902E1EE
:102F2200030E4B19D0E0000E4C1902E1040E4B19AE
:102F3200D1E0000E4C1902E1050E4B19D3E057EC1B
:0E2F420013F082A402D0F9DDFCD7A6D7FFD78A
:103A300010EE15F02C0E006E020E016E030EF66EE7
:0E3A4000390EF76E000EF86E21EC13F0120036
:102F5000000020007F000B000188010001930100A8
:102F6000039E010007A9010005B4010009BF01008B
:102F700006D5010001E0010003EB010002F60100AB
:102F800005010200060C02000217020002220200E4
:102F9000022D02000338020004430200044E020026
:102FA0000459020004640200056F0200047A020062
:102FB0000485020004900200049B020004A60200A3
:102FC00002B1020002BC020006C7020006D20200E3
:102FD00006DD020004E8020007F3020006FE02001C
:102FE0000509030006140300061F0300052A030059
:102FF0000535030006400300064B0300035603009B
:1030000003610300056C03000477030007820300DB
:10301000068D03000798030005A3030007AE030015
:1030200005B9030005C4030005CF030006DA030059
:1030300006E5030007F0030004FB03000506040097
:1030400004110400021C04000327040002320400DF
:10305000053D04000548040003530400045E040019
:103060000469040003740400047F0400048A04005B
:103070000395040004A0040004AB040001B604009E
:1030800002C1040004CC040001D7040007E20400DC
:1030900004ED040004F8040004030500040E050018
:1030A0000319050003240500022F0500043A05005A
:1030B0000545050007500500035B05000566050092
:1030C00003710500037C05000287050003920500DB
:1030D000069D050002A80500000000000000000099
:1030E00000000000000101010101000100000005D5
:1030F000050500000000000000000024247E143FAD
:10310000121200000000041E05060C140F04040037
:10311000000000460029002900D60028012801C42B
:103120000000000000000006090916091926000029
:103130000001010100000000000000000402010184
:103140000101010102040000010202020202020167
:103150000004150E15040000000000000000000827
:10316000083E080800000000000000000000020205
:10317000010000000000000003000000000000004B
:103180000000000002020000000404020202020229
:1031900001010000000609090909090600000000F4
:1031A0000406040404040E000000000708080402DA
:1031B000010F0000000007080806080807000000CB
:1031C00000080C0A091F0808000000000F01010791
:1031D00008080700000000060101070909060000B1
:1031E00000000F08040402020100000000060909A3
:1031F00006090906000000000609090E0808060075
:1032000000000000000202000202000000000000B6
:103210000202000202010000000000201C021C202B
:10322000000000000000003F003F00000000000020
:1032300000021C201C020000000007080804020015
:1032400002000000001C2259555539021C000000E4
:103250000C0C12123F2121000000000709090F1178
:10326000110F000000001C22010101221C000000BF
:10327000000F11212121110F000000001F01010F7B
:1032800001011F000000001F01010F0101010000EA
:1032900000001C22013921223C00000000212121D4
:1032A0003F21212100000000070202020202070064
:1032B00000000006040404040403000000001109D7
:1032C0000503050911000000000101010101010FC2
:1032D000000000006363555549494100000000218A
:1032E000232529312121000000001C2241414122D7
:1032F0001C000000000F1111110F0101000000005F
:103300001C22414141221C106000000F11110F05C9
:103310000911000000001E01010E10100F00000036
:10332000001F0404040404040000000021212121E2
:1033300021211E0000000021212112120C0C00008E
:103340000000494955555522220000000009090690
:103350000606090900000000110A0A04040404001A
:103360000000000F08040202010F00000003010129
:103370000101010101010300010102020202020434
:10338000040000030202020202020202030000041F
:103390000A11000000000000000000000000000012
:1033A00000001F00020400000000000000000000F8
:1033B000000006080E090E000000010101070909BE
:1033C00009070000000000000601010106000000DE
:1033D0000808080E0909090E00000000000006098F
:1033E0000F010E00000006010107010101010000AC
:1033F000000000000E0909090E080600010101077E
:103400000909090900000000010001010101010092
:103410000000000200030202020202010001010199
:103420000905030509000000010101010101010175
:103430000000000000003749494949000000000031
:103440000007090909090000000000000609090930
:10345000060000000000000709090907010100003B
:1034600000000E0909090E0808000000000503010C
:103470000101000000000000070102040700000035
:103480000000010301010102000000000000090921
:1034900009090E000000000000110A0A0A040000D9
:1034A00000000000494955362200000000000005D8
:1034B00002020205000000000000110A0A0A0404CA
:1034C00002000000000704020107000000040202DD
:1034D00002020102020204000202020202020202CD
:1034E00002020001020202020402020201000000C4
:1034F000000026190000000000000003030303037E
:03350000000000C8
:1035030000000000000000000000000000000000B8
:1035130000000000000000000000000000000000A8
:103523000000000000000000000000000000000098
:103533000000000000000000000000000000000088
:103543000000000000000000000000000000000078
:103553000000000000000000000000000000000068
:103563000000000000000000000000000000000058
:103573000000000000000000000000000000000048
:103583000000000000000000000000000000000038
:103593000000000000000000000000000000000028
:1035A3000000000000000000000000000000000018
:1035B3000000000000000000000000000000000008
:1035C30000000000000000000000000000000000F8
:1035D30000000000000000000000000000000000E8
:1035E30000000000000000000000000000000000D8
:1035F30000000000000000000000000000000000C8
:1036030000000000008080808080808080000000B7
:103613008080800000000080808000000080808027
:103623008080808080000000008080808080800017
:103633000000000000000080808080808000000087
:103643000080A0B89898B0A080000000808080001F
:103653000000000080800000000000008080808067
:103663000000000000808080808080808000000057
:103673000000008080808000000000000000000047
:103683000000000000FFFFFF313131313100000045
:10369300FFFF073FF0F01F07FFFF000000FFFFFFE2
:1036A300313131313100000000FFFF6161E1F3BFCF
:1036B3001F000000FCFE070301313131F1F300006C
:1036C30000FFFFFF3131313131000000FFFF0F1FD9
:1036D3007CF0C080FFFF0000F8FEFF03030101013F
:1036E3000100000000010101FFFF010101000000D2
:1036F30000E0FC9F8387BFFCE000000000000000A7
:1037030000000000000F0F0F0C0C0C0C0C0000004D
:103713000F0F0000000000000F0F0000000F0F0F3D
:103723000C0C0C0C0C000000000F0F000000030F2A
:103733000E0800000107070E0C0C0C0C0F0700000D
:10374300000F0F0F0C0C0C0C0C0000000F0F0000EF
:103753000001070F0F0F00000103070E0C0C0C0CE8
:1037630006000000000C0C0C0F0F0C0C0C000008E2
:103773000F0F0101010101030F0F00000000000002
:103783000000000000000000000000000000000036
:103793000000000000000000000000000000000026
:1037A3000000000000000000000000000000000016
:1037B3000000000000000000000000000000000006
:1037C30000000000000000000000000000000000F6
:1037D30000000000000000000000000000000000E6
:1037E30000000000000000000000000000000000D6
:1037F30000000000000000000000000000000000C6
:1038030000000000000000000000000000000000B5
:1038130000000000000000000000000000000000A5
:103823000000000000000000000000000000000095
:103833000000000000000000000000000000000085
:103843000000000000000000000000000000000075
:103853000000000000000000000000000000000065
:103863000000000000000000000000000000000055
:103873000000000000000000000000000000000045
:103883000000000000000000000000000000000035
:103893000000000000000000000000000000000025
:1038A3000000000000000000000000000000000015
:1038B3000000000000000000000000000000000005
:1038C30000000000000000000000000000000000F5
:1038D30000000000000000000000000000000000E5
:1038E30000000000000000000000000000000000D5
:1038F30000000000000000000000000000000000C5
:04390300474D4700E5
:1039070020202030202D205072696E636970616C11
:033917002020006D
:04391A004F464600CE
:04391E004F464600CA
:04392200474D4700C6
:0539260052454445007C
:10392B00202033202D204672657175656E636961A9
:03393B0020200049
:10393E002032202D20436F7272656E7465205265A1
:03394E00646500AD
:103951002031202D2054656E73616F20526564659E
:0339610020200023
:0539640052454445003E
:0639690052657365740055
:08396F0044697265697461008E
:073977004D616E75616C00EB
:0B397E0050617274697220474D4700D1
:0B3989004175746F6D617469636F001D
:0539940052454445000E
:043999004F4646004F
:04399D00474D47004B
:0939A100457371756572646100E3
:0939AA0043616C696272617200F4
:0139B3000013
:0439B400494E460032
:1039B8002034202D2054656D7065726174757261B4
:0339C800202000BC
:1039CB0035202D2054656E73616F204261746572D2
:0339DB006961001F
:0139DE0030B8
:0439DF004E614E00E7
:0239E3003000B2
:0339E5004320007C
:0E39E80054656D70657261747572613A2000ED
:0339F60056200058
:0A39F900426174657269613A2000B2
:083A030047657261646F7200F7
:053A0B00526564650036
:0E3A10004465736C69676120436172676100F1
:0A3A1E00506172617220474D4700AD
:073A2800426F74616F3A0068
:020000040030CA
:0E000000044C191EFF0380FF0FC00FE00F40DD
:00000001FF
