:10000000C5EF19F00000000000EF00F00000000054
:0A0010000000000000000000F3D71C
:0C001C00100E0D6E0D2EFED7000012001D
:0A002800F9DF8188F7DF81981200EC
:0C003200000000000000000000001200B0
:10003E0081948196B80E04014511836EEEDF120095
:10004E000B820BAE31EF00F00368026801680068A6
:08005E000A360232FF0E120007
:100066007F0E04014515016E01C045F401AC03D0B5
:0C0076008182819002D081928180120072
:10008200F250026EF29E0500FF6A0150FE6E0050B1
:08009200FD6E02BEF28E1200A9
:10009A00120E006E000E016E830E0024E16E0F0E2A
:1000AA000120E26EFF0EE66EBFDFBEDF818481981B
:1000BA0081868188AEDF83CF45F481988196B4DF4B
:1000CA00B3DF120E006E000E016E830E0024E16E85
:0E00DA000F0E0120E26EE66A45C400F012002F
:0E00E80081988184819645C483FF9ADF1200BF
:1000F6007F0E04014515006E00C045F4819481967B
:10010600BF0E001600C045F4008C00C045F400C0C8
:0601160083FF87DF1200E9
:10011C000B840BAE99EF00F0010E036E026A016ABC
:0A012C00006A0A360232FF0E1200CC
:0E013600026A016A006A086A036A000E12007B
:080144000AAE029E000E12003B
:10014C000C6A0E6A0250D8A4BFEF00F001C002F096
:10015C0000C001F0006A0E860250D8A4BFEF00F078
:10016C0001C002F0016A0E960E880250D8B4D1EF8D
:10017C0000F00E50035ED8A4D8A0D6EF00F0D890B3
:10018C0002BEDBEF00F0003601360236032EC6EF5E
:10019C0000F0D6EF00F0010E0C6EC7DFDEEF00F0C2
:1001AC00020E0C6EB5DFDEEF00F0040E0C6EC4DF39
:0201BC0012002F
:1001BE0037C4B8F338C4B9F339C4BAF3020E040124
:1001CE003725F66E000E3821F76E000E3921F86EC7
:1001DE000900F5CF04F0030E3725F66E000E382118
:1001EE00F76E000E3921F86E0900F5CF03F003C04B
:1001FE0001F0006A0450002403018F6F000E0120ED
:10020E00906F040E04013725F66E000E3821F76E3E
:10021E00000E3921F86E0900F5CF04F0050E3725D2
:10022E00F66E000E3821F76E000E3921F86E0900B9
:10023E00F5CF03F003C001F0006A0450002403015F
:10024E008D6F000E01208E6F060E04013725F66E9F
:10025E00000E3821F76E000E3921F86E0900F5CF29
:10026E0093F3000E0301946F3AC491F3000E926F54
:10027E003BC488F3010E0201286F03018B6B8C6B5C
:02028E0012005C
:10029000AB0E0401436F030E446F000E006E3C5121
:1002A000005C02E13B51000843E2A9C3E1FFAAC39D
:1002B000E2FF37C4E6FF38C4E6FF39C4E6FF3AC4BC
:1002C000E6FF3BC4E6FF3CC4E6FF3F0EE66E040ECD
:1002D000E66EA7C300F0A8C301F0D3DE00C041F46E
:1002E00001C042F404013D6B3E6B40513E5D02E1B2
:1002F0003F513D5D11E241C4E9FF42C4EAFF43C4FE
:10030000E1FF44C4E2FFEECFE6FF434B442B414BF9
:10031000422B3D4B3E2BE9D73F513B5F40513C5B6D
:100320003F51372740513823000E39233A23B5D7A0
:020330001200B9
:0C033200240E0D6E0D2EFED700001200F0
:10033E000B6A0A6A096A00500402F4CF09F0F3CF7F
:10034E0008F001500502F4CF0BF0F3CF0AF0005085
:10035E000502F3500926F4500A22E86A0B220150D6
:10036E000402F3500926F4500A22E86A0B2208C050
:10037E0000F009C001F00AC002F00BC003F0120039
:08038E000B6A0B86FF0E120042
:100396000CB00DEF02F00CA2B3EF02F00E6A000EE5
:1003A600026424EF02F0F00E0214D8A4EFEF01F07D
:1003B600023A01380F0B02260138F00B016E0038A5
:1003C6000F0B01260038F00B006E08380F0B0026C5
:1003D6000838F00B086E0E84D89002BE08EF02F0C3
:1003E60008360036013602360E2A02BE08EF02F043
:1003F60008360036013602360E2A02BE08EF02F033
:1004060008360036013602360E2A0E500364A9EF6E
:1004160002F0035E0BBC08AEAEEF02F0D880800E91
:1004260008640030000E002201220222D8A0AEEF9E
:1004360002F0023201320032034AB3EF02F0AEEFAD
:1004460002F001C002F000C001F008C000F0086A26
:10045600000E0E8602645BEF02F0F00E0214D8A4C2
:1004660043EF02F0023A01380F0B02260138F00B77
:10047600016E00380F0B01260038F00B006E0E845B
:10048600D89002BE08EF02F00036013602360E2A78
:1004960002BE08EF02F00036013602360E2A02BE10
:1004A60008EF02F00036013602360E2A08EF02F097
:1004B60001C002F000C001F0006A000E0E960E8820
:1004C600026488EF02F0F00E0214D8A473EF02F073
:1004D600023A01380F0B02260138F00B016E0E842A
:1004E600D89002BE08EF02F0013602360E2A02BE8E
:1004F60008EF02F0013602360E2A02BE08EF02F0BD
:10050600013602360E2A08EF02F001C002F0016A37
:10051600000E0E860264B8EF02F0F00E0214D8A4A4
:1005260097EF02F0023A0E84D89002BE08EF02F06E
:1005360002360E2A02BE08EF02F002360E2A02BE6C
:1005460008EF02F002360E2A08EF02F0010E0C6EDA
:10055600E2DDBBEF02F0020E0C6EF1DDBBEF02F046
:10056600040E0C6E71DDBBEF02F0080E0C6EE0DDC2
:02057600120071
:10057800000E0401375D0AE337517F0807E3000ED8
:10058800385D04E338513F0801E301D04AD037C44D
:1005980045F465DD38C445F44533459F4533459FEB
:1005A8004533459F48DD37C445F4A1DD72DD00C001
:1005B8003CF46FDD00C03CF438C445F44533459F36
:1005C8004533459F4533459F36DD37C445F48FDDB8
:1005D800070E3815006E00C03AF400C001F0010E95
:1005E800006E015004E000360090FF0FFBD700C0FA
:1005F8003AF4001C3B6F09D03B513C170FD03A51DD
:100608003C130CD03A513C1B09D03951000AF4E094
:100618003951010AF4E03951020AF4E03CC445F4C6
:040628005FDD120080
:10062C000B800BAE22EF03F0026A0AAEFF0E026ED5
:0C063C00016E006E0A360232FF0E120042
:10064800086A096A000E07620364A9EF03F0025002
:1006580006180A6E075003267E0ED8A03AEF03F05C
:10066800035ED8B0ADEF03F03EEF03F0035ED8A011
:10067800B1EF03F0028E068E02C00EF001C00BF03F
:1006880000C00DF000500402F4CF0CF00150050238
:10069800F4CF00F0F3CF08F00402F3500C26F45026
:1006A8000822000E00220D500502F3500C26F450CB
:1006B8000822000E002202500402F3500826F450CB
:1006C800002202500502016A000E0122F3500026A2
:1006D800F45001220D500602F3500826F45000226F
:1006E800026A000E012202220B500602F350002675
:1006F800F4500122000E02220E500602F350012689
:10070800F450022202BE91EF03F00836003601369B
:1007180002360306D8B4B1EF03F0A4EF03F0D88093
:10072800800E08640030000E002201220222D8A0A8
:10073800A4EF03F0023201320032034AADEF03F0B6
:100748000AAE029E000EB3EF03F0010EF0DCB3EF29
:1007580003F0020E78DCB3EF03F0040EDBDC1200CA
:100768000D6A086A0050D8B4000C04180A6E0ABE54
:100778000D1E0B6A04AE02D0041E042A00AE02D07D
:10078800001E002A005004100A6E0ABE1FD0045032
:10079800085E003600340836045008260036060E77
:1007A8000C6E00340836045000B0085E00A008261D
:1007B80000360C2EF6D700A008260BB015D00DAECB
:1007C800000C001E002A081E082A000C04AE09D0DE
:1007D80000BE04D00050086E006AF1D7006A002AF3
:1007E800000C001E0B2AD3D7082A0450085CD8A492
:0E07F800E6D7086A002A00AEE2D7FF0C120016
:100806000A6A0350D8A40A800750D8A40A820A505C
:10081600D8B466EF04F0030AD8B41FEF04F00AB0A8
:100826001AEF04F006AE64EF04F062EF04F002AED5
:1008360062EF04F064EF04F00250800B0A6E029E31
:100846000650800B069E0A18D8B430EF04F00A5002
:10085600D8B462EF04F064EF04F00750035CD8B438
:100866003AEF04F0D8A056EF04F05CEF04F006501F
:10087600025CD8B444EF04F0D8A056EF04F05CEF65
:1008860004F00550015CD8B44EEF04F0D8A056EF42
:1008960004F05CEF04F00450005CD8B466EF04F09A
:1008A600D8B05CEF04F00A52D8B464EF04F062EFFB
:1008B60004F00A52D8B462EF04F064EF04F0D88072
:0E08C6001200D8901200D880D88412001200C0
:1008D4001DC404F01EC405F004C002F005C003F0FA
:1008E400044A052A1FC400F020C401F004011F4B70
:1008F400202B00C0E9FF01C0EAFF02C0E1FF03C0F2
:10090400E2FFEECFE6FF02C0E9FF03C0EAFFEE52CA
:0E09140001E0E2D71DC400F01EC401F0120085
:10092200000E04011F5D04E31F513F0801E301D0E3
:1009320027D0000E1D5DD8A01D6B1D517F0802E25D
:100942007F0E1D6F000E1E5DD8A01E6B1E517F080C
:1009520002E27F0E1E6F1D511E5D06E21DC421F4D0
:100962001EC41DF421C41EF41D511E5D09E31DC4E5
:1009720037F41FC438F420C439F4FDDD1D2BF4D73D
:02098200120061
:10098400025006180E6E086A096A0B6A035007645F
:10099400B5EF05F006500A6E068E028E03500B6EFC
:1009A4000750036E000E0B6405EF05F00B50075E55
:1009B400D8B4A6EF05F0070E076474EF05F0075EE0
:1009C40000C008F001C000F002C001F0026A074E46
:1009D400A6EF05F0076449EF05F0075E00C008F0D4
:1009E40001C000F0016A074EA6EF05F0076427EF87
:1009F40005F0075E00C008F0006A074EA6EF05F098
:100A040007640EEF05F00AC002F005C001F004C04F
:100A140000F0086AD2EF06F0030E076419EF05F040
:100A2400075E08380F0B086E074EA6EF05F0D89046
:100A34000832074EA6EF05F0D8900832074EA6EF0D
:100A440005F0D8900832A6EF05F0030E076438EFDE
:100A540005F0075E08380F0B086E0038F00B082607
:100A640000380F0B006E074EA6EF05F0D890003249
:100A74000832074EA6EF05F0D89000320832074E30
:100A8400A6EF05F0D89000320832A6EF05F0030E69
:100A9400076460EF05F0075E08380F0B086E003836
:100AA400F00B082600380F0B006E0138F00B0026FF
:100AB40001380F0B016E074EA6EF05F0D8900132F6
:100AC40000320832074EA6EF05F0D890013200320A
:100AD4000832074EA6EF05F0D890013200320832F2
:100AE400A6EF05F0030E076491EF05F0075E0838E2
:100AF4000F0B086E0038F00B082600380F0B006E41
:100B04000138F00B002601380F0B016E0238F00B90
:100B1400012602380F0B026E074EA6EF05F0D8909F
:100B24000232013200320832074EA6EF05F0D890A7
:100B34000232013200320832074EA6EF05F0D89097
:100B44000232013200320832096A000E0EAE9AEF08
:100B540006F0081E001E011E021E082A00220122A1
:100B640002229AEF06F00750D8A4BBEF05F0D2EFAB
:100B740006F0096A02C00AF0028E068E0750035C72
:100B8400076ED8B48DEF06F0070E07645BEF06F02E
:100B9400075E0450096E0550046E0650056E066A21
:100BA400074E8DEF06F0070E076430EF06F0075E80
:100BB4000450096E0550046E056A074E8DEF06F069
:100BC400070E07640EEF06F0075E0450096E046A10
:100BD400074E8DEF06F0070E0764F5EF05F00AC027
:100BE40002F0D2EF06F0030E076400EF06F0075E92
:100BF40009380F0B096E074E8DEF06F0D8900932B5
:100C0400074E8DEF06F0D8900932074E8DEF06F0AF
:100C1400D89009328DEF06F0030E07641FEF06F03B
:100C2400075E09380F0B096E0438F00B09260438E7
:100C34000F0B046E074E8DEF06F0D8900432093284
:100C4400074E8DEF06F0D89004320932074E8DEF2F
:100C540006F0D890043209328DEF06F0030E0764D3
:100C640047EF06F0075E09380F0B096E0438F00BE6
:100C7400092604380F0B046E0538F00B04260538DA
:100C84000F0B056E074E8DEF06F0D8900532043237
:100C94000932074E8DEF06F0D8900532043209323E
:100CA400074E8DEF06F0D8900532043209328DEFED
:100CB40006F0030E076478EF06F0075E09380F0BA1
:100CC400096E0438F00B092604380F0B046E05383E
:100CD400F00B042605380F0B056E0638F00B0526BD
:100CE40006380F0B066E074E8DEF06F0D8900632CD
:100CF400053204320932074E8DEF06F0D8900632E1
:100D0400053204320932074E8DEF06F0D8900632D0
:100D1400053204320932086A000E0EAE9AEF06F06C
:100D2400091E041E051E061E092A04220522062287
:100D340009500826045000220550012206500222C0
:100D44000EBEB1EF06F0D8A0C0EF06F002320132B9
:100D540000320832033EC0EF06F0CCEF06F0D8B004
:100D6400C6EF06F0000E081E001E011E021E082A11
:100D74000022012202220A7EC6EF06F0010E0C6E4A
:100D8400CBEC01F0D4EF06F0020E0C6ECBEC01F0CC
:100D9400D4EF06F0040E0C6E27EC00F0D4EF06F04E
:060DA400000E0C6E1200AF
:100DAA000450000A12E10550000A0FE10650000A39
:100DBA000CE10750000A09E1FF0E006EFF0E016EFA
:100DCA007F0E026EFF0E036EA8D0086A096A0750EA
:100DDA00D8B480EF07F00350D8B485EF07F002507B
:100DEA0006180A6E028E068E0E6A02C008F001C04C
:100DFA000CF000C00DF004500D5E0550D8A0053C63
:100E0A000C5E0650D8A0063C085E086A0C6A0D6A99
:100E1A00D8A017EF07F0D890023201320032083218
:100E2A00010E0E6E0750035ED8A024EF07F07E0E67
:100E3A000E240326D8B08AEF07F02AEF07F07E0EB9
:100E4A000E240326D8A08FEF07F0180E0B6E0D366E
:100E5A000C3608360036013602360E360450005E6D
:100E6A000550D8A0053C015E0650D8A0063C025E9B
:100E7A0006340E120EA045EF07F00D8050EF07F072
:100E8A00045000260550D8B0053C01260650D8B0BB
:100E9A00062802260D900B2E2CEF07F076EF07F0AE
:100EAA00D8900036013602360E360450005E0550E0
:100EBA00D8A0053C015E0650D8A0063C025E063466
:100ECA000E10010B0D26D8B00C2AD8B4082AD8A4C3
:100EDA0076EF07F008320C320D32032AD8B48AEFC3
:100EEA0007F00AAE089E0850026E0C50016E0D50B3
:100EFA00006E92EF07F0010EC7EC01F092EF07F0D7
:100F0A00020E9BEC00F092EF07F0040E27EC00F0C3
:0C0F1A0092EF07F0080E8EEC00F01200C1
:100F2600086A096A100E0C6E013408360936045038
:100F3600085E0550D8A0053C095ED8B007D004501D
:100F460008260550D8B0053C0926D890003601364B
:060F56000C2EEAD7120088
:100F5C00C26A0201541D006E0050C116070EC01269
:100F6C00C08E1DC400F0003600900036009000507A
:100F7C00C212C28099EC01F0C282C2A201D0FDD78C
:100F8C00C4CF01F0006AC3500012000E0112C290CF
:020F9C00120041
:100F9E000050086E0150006E016A026A036A0B6A05
:100FAE000C6A960E036E0A6A00C001F008C000F0CB
:0A0FBE00086A026AA6EC00F01200B7
:0E0FC800ACB202D00000FCD71DC4ADFF120079
:100FD6000401326B336B346B356B030190510401A2
:100FE6001E5D04E103018F5104011D5D01E2E7D19D
:100FF6001E5103018E5D04E104011D5103018D5D47
:1010060001E2DDD18F5104011D5D036E0301905194
:1010160004011E59046E03C000F004C001F000363E
:1010260000900136003600900136080E0301B42503
:101036000401376F000E0301B5210401386F000E5D
:101046000301B6210401396F000E0301B721040123
:101056003A6F0050372701503823000E39233A23C0
:10106600040E3B6F000E3C6F48EC01F0AB0E306F88
:10107600030E316F30C4E9FF31C4EAFFEECF36F418
:1010860036C432F4010E3025E96E000E3121EA6EC7
:10109600EECF04F0000E056E066E076E020E3025CA
:1010A600E96E000E3121EA6EEECF03F003C001F0C7
:1010B600006A000E026E036E0450002605500122DF
:1010C600065002220750032200500301B4250401F2
:1010D600246F01500301B5210401256F025003015D
:1010E600B6210401266F03500301B7210401276FBF
:1010F60036C400F00032009E0032009E0032009E90
:10110600000E016E93C304F094C305F09FEC01F04A
:1011160000C02AF401C02BF4070E3615006E08E055
:101126000301935104012A270301945104012B233F
:101136002AC42EF42BC42FF4A9C3E1FFAAC3E2FFED
:1011460024C4E6FF25C4E6FF26C4E6FF27C4E6FF5F
:101156002AC4E6FF2BC4E6FF280EE66E040EE66EF2
:10116600A7C300F0A8C301F041EC00F000C030F4C2
:1011760001C031F404012851242729512523000EEA
:101186002623272328512A5F29512B5B2C6B2D6B95
:1011960003018851000AD8A488D089C321F48AC3E0
:1011A60022F40401206B000E006E03019451005CD2
:1011B60003E193510401205D6DE2040195C333F40C
:1011C60096C334F4236B1F6B32511F5D5FE22351CC
:1011D600000A4AE12C4B2D2B2F51295D02E12E519D
:1011E600285D38E22D51295D02E12C51285D32E25D
:1011F600010E2C6F000E2D6FA9C3E1FFAAC3E2FFFB
:1012060024C4E6FF25C4E6FF26C4E6FF27C4E6FF9E
:101216002AC4E6FF2BC4E6FF280EE66E040EE66E31
:10122600A7C300F0A8C301F041EC00F000C030F401
:1012360001C031F42AC42EF42BC42FF40401285122
:10124600242729512523000E2623272328512A5FE8
:1012560029512B5B30C4E9FF31C4EAFFEECF35F4E8
:10126600304B312B010E236F23513515006E08E0EC
:1012760033C437F421C438F491C339F4BCEC02F01A
:10128600334B342B233723911F2B9ED7214B222BF5
:10129600202B89D70401010E33250301956F000E1B
:1012A600040134210301966F8AD095C321F496C3B5
:1012B60022F40401206B000E006E03019451005CC1
:1012C60003E193510401205DD8B06FD0040189C3B6
:1012D60033F48AC334F4236B1F6B32511F5D61E212
:1012E6002351000A4AE12C4B2D2B2F51295D02E197
:1012F6002E51285D38E22D51295D02E12C51285DE1
:1013060032E2010E2C6F000E2D6FA9C3E1FFAAC3B6
:10131600E2FF24C4E6FF25C4E6FF26C4E6FF27C491
:10132600E6FF2AC4E6FF2BC4E6FF280EE66E040E8F
:10133600E66EA7C300F0A8C301F041EC00F000C0C0
:1013460030F401C031F42AC42EF42BC42FF4040166
:101356002851242729512523000E262327232851E7
:101366002A5F29512B5B30C4E9FF31C4EAFFEECF77
:1013760035F4304B312B010E236F23513515006E9A
:1013860008E021C437F433C438F491C339F4BCEC13
:1013960002F0010E335F000E345B233723911F2BBF
:1013A6009CD7214B222B202B86D70401010E335DBF
:1013B6000301896F000E0401345903018A6F12007C
:1013C6001DC495F31EC496F31FC489F320C48AF383
:0213D600120003
:1013D8000401256B266B276B02012851000A0FE1D7
:1013E800700E0401376F350E386F000E396F010E1D
:1013F8003A6F3B6BDFEC00F0010E0201286F000E24
:10140800006E03019051005C03E18F5104011D5DE2
:1014180001E2FFD0000E03018E5D04E104011D51BD
:1014280003018D5D01E2F5D08F5104011D5D016E50
:1014380090C302F0000E025601C003F002C004F08F
:10144800033603900436033603900436080E03016E
:10145800B825006E000EB921016E000EBA21026E89
:10146800000E056E0050032601500422025005228A
:1014780003C0F6FF04C0F7FF05C0F8FF0900F5CF69
:1014880025F4010E0324F66E000E0420F76E000EFC
:101498000520F86E0900F5CF00F000C006F0000E38
:1014A800076E086E096E020E0324F66E000E042005
:1014B800F76E000E0520F86E0900F5CF03F003C0A3
:1014C80001F0006A000E026E036E065000260750F7
:1014D80001220850022209500322B85100240401B5
:1014E800226F0301B95101200401236F0301BA518E
:1014F80002200401246F03018851000A46E189C3D0
:1015080020F404011F6B000E006E03019451005C6F
:1015180003E1935104011F5D2FE2040195C326F4F2
:10152800216B1E6B25511E5D24E22151000A10E13A
:1015380022C4F6FF23C4F7FF24C4F8FF0900F5CF3F
:1015480027F4010E2227000E23232423010E216FE6
:1015580021512715006E08E026C437F420C438F45A
:1015680091C339F4BCEC02F0262B213721911E2BB4
:10157800D9D7202B1F2BC7D704012651010F0301F0
:10158800956F966B000E962344D095C320F4040102
:101598001F6B000E006E03019451005C03E1935130
:1015A80004011F5D2FE2040189C326F4216B1E6B21
:1015B80025511E5D24E22151000A10E122C4F6FFE4
:1015C80023C4F7FF24C4F8FF0900F5CF27F4010E60
:1015D8002227000E23232423010E216F21512715D2
:1015E800006E08E020C437F426C438F491C339F4F7
:1015F800BCEC02F02607213721911E2BD9D7202BCE
:101608001F2BC7D7040126050301896F8A6B000EBB
:041618008A5B1200D7
:10161C000B6A0C6A086A0350D8B492EF0BF002C044
:10162C000AF0028E9E0E035E03AE82EF0BF0036C8B
:10163C00080E035CD8A04FEF0BF0036E083600C009
:10164C0008F001C000F002C001F0026A080E035C51
:10165C00D8A04FEF0BF0036E083600C008F001C0A5
:10166C0000F0016A080E035CD8A04FEF0BF0036E7C
:10167C00083600C008F0006A080E035CD8A04FEFD3
:10168C000BF0036E0836086A0350D8A4D8905BEFB1
:10169C000BF00350D8B45BEF0BF0D8900232013250
:1016AC0000320832032E53EF0BF00BBC08A06CEF8A
:1016BC000BF0D8A06CEF0BF0082AD8B4002AD8B4E1
:1016CC00012AD8B4022A02BE96EF0BF00AAE92EFB2
:1016DC000BF0021E011E001E081E082AD8B4002A98
:1016EC00D8B4012AD8B4022A92EF0BF0026A016A2C
:1016FC00006A086A92EF0BF00B800BAE9DEF0BF0BB
:10170C00026A0AAE9DEF0BF0026E016E006E086E5F
:10171C000A3602329DEF0BF00C6A000E9EEF0BF0B6
:10172C00010E0C6E000E16EC03F09EEF0BF0FF0E8C
:10173C000250036E0150026E0050016E0850006E94
:02174C00120089
:10174E0004010C6B0D6B0E6B0F6B0B6B640E0B5D54
:10175E001AE2030E1D6FAEEC07F01ADC0CC404F097
:10176E000DC405F00EC406F00FC407F0C2EC04F071
:10177E0000C00CF401C00DF402C00EF403C00FF44F
:10178E0004010B2BE3D7000E046E000E056E480EFF
:10179E00066E850E076E0CC400F00DC401F00EC46B
:0E17AE0002F00FC403F0D5EC06F031DF12009C
:1017BC00000E04010D5D04E30D517F0801E301D01F
:1017CC0028D0000E0B5DD8A00B6B0B513F0802E22A
:1017DC003F0E0B6F000E0C5DD8A00C6B0C513F082C
:1017EC0002E23F0E0C6F0B510C5D06E20BC40FF4C2
:1017FC000CC40BF40FC40CF40B510C5D0AE30DC4B8
:10180C0037F40BC438F40EC439F4BCEC02F00B2BD7
:04181C00F3D71200EC
:101820000050086E0150006E0250016E0350026EAF
:10183000036A0B6A0C6A9E0E036E0A6A02AE2DEFF3
:101840000CF0081E001E011E021E082AD8B4002A31
:10185000D8B4012AD8B4022A0A8E020E0C6ECBEC40
:0418600001F0120081
:101864000401186B196B1A6B1B6B1C6B0BC414F4FF
:101874000CC415F40DC416F40EC417F41751FF0A62
:1018840008E11651FF0A05E11551FF0A02E114515E
:10189400FF0A0DE10FC41DF410C41EF4500E1F6F97
:1018A400020E206F6AEC04F0030E006E5ED2010E8D
:1018B400126F16AF0FD0800E1619006E00C016F40A
:1018C400122B192B0FC4E1FF10C4E2FF2D0EE66E9C
:1018D4000F4B102B000E006E171908E1005016195B
:1018E40005E10050151902E11451000A0CE10FC47E
:1018F4001DF410C41EF4590E1F6F020E206F6AEC03
:1019040004F0006A32D21751FF0A08E11651000AA6
:1019140005E11551000A02E11451000A0DE10FC45A
:101924001DF410C41EF4550E1F6F020E206F6AECD6
:1019340004F012C400F019D2000E046E000E056EFD
:10194400000E066E7F0E076E14C400F015C401F07D
:1019540016C402F017C403F003EC04F0010ED8B06F
:10196400000E006E00521CE014C400F015C401F017
:1019740016C402F017C403F0000E046E000E056EC8
:10198400200E066E820E076E24EC03F000C014F4E1
:1019940001C015F402C016F403C017F41C07CCD719
:1019A400000E046E000E056E200E066E820E076E8B
:1019B40014C400F015C401F016C402F017C403F0F7
:1019C40003EC04F0000ED8B0010E006E00521CE0CF
:1019D40014C400F015C401F016C402F017C403F0D7
:1019E400CD0E046ECC0E056E4C0E066E7B0E076E8D
:1019F40024EC03F000C014F401C015F402C016F482
:101A040003C017F41C2BCCD7FF0E1415086EFF0E61
:101A14001515096E7F0E16150A6E000E17150B6E3E
:101A240008C004F009C005F00AC006F00BC007F0B6
:101A340004360490053606360736000E1415006E7B
:101A4400000E1515016E000E1615026EFF0E171509
:101A5400036E00C014F401C015F402C016F403C0F0
:101A640017F404501411006E05501511016E065040
:101A74001611026E07501711036E00C014F401C052
:101A840015F402C016F403C017F47F0E175D006E40
:101A940000C013F4010E176F00C004F014C400F06A
:101AA40015C401F016C402F017C403F0045007E093
:101AB40000360090013602360336FF0FF8D700C017
:101AC40014F401C015F402C016F403C017F40FC4D3
:101AD400E1FF10C4E2FF1751300FE66E0F4B102BDD
:101AE400192B800E1C19006E800E010A005C08E39D
:101AF400800E060A006E800E1C19005C01E30BD0F8
:101B04000FC4E1FF10C4E2FF2E0EE66E0F4B102B44
:101B1400010E186F192B060E136F1351000A58E0AB
:101B2400176B14C400F015C401F016C402F017C4F6
:101B340003F000360090013602360336003600907A
:101B4400013602360336145100261551012216516E
:101B540002221751032200C014F401C015F402C07C
:101B640016F403C017F414C400F015C401F016C42D
:101B740002F017C403F00036009001360236033633
:101B840000C014F401C015F402C016F403C017F425
:101B94000FC4E1FF10C4E2FF1751300FE66E0F4B84
:101BA400102B192B1851000A11E11C071C51000AB3
:101BB4000DE1010E1B6F0FC4E1FF10C4E2FF2E0EF6
:101BC400E66E0F4B102B010E186F192B1307A5D7B8
:101BD4001B51010AD8B41907FF0E0F25E96EFF0E39
:101BE4001021EA6EEE502E0A05E1010E0F5F000E81
:101BF400105B1907800E000A006E800E1C19005C31
:101C040002E2010E1A6F800E1C19006E800E000A8B
:101C1400005C02E2020E1A6F1CC413F4800E090A5F
:101C2400006E800E1C19005C02E31A2B02D0020E17
:101C34001A271A511925016E026A000E0222800E1B
:101C44000218006E800E005C02E11151015C0AE290
:101C54000FC4E1FF10C4E2FF300EE66E0F4B102BF1
:101C6400192BE7D71C51000A43E00FC4E1FF10C44D
:101C7400E2FF650EE66E0F4B102B800E1C19006EF2
:101C8400800E000A005C0BE20FC4E1FF10C4E2FF07
:101C94002D0EE66E0F4B102B1C5100081C6F1CC43C
:101CA40013F4800E090A006E800E1C19005C0FE20A
:101CB4000A0E046E13C400F0B4EC03F00FC4E1FF89
:101CC40010C4E2FF0050300FE66E0F4B102B0A0ECB
:101CD400046E13C400F0B4EC03F008C000F00FC4A9
:101CE400E1FF10C4E2FF0050300FE66E0F4B102BE3
:101CF4001A511925006E00C019F41151005C016ECF
:101D040001C013F4800E000A006E800E0118005CFE
:101D14000EE2800E000A006E800E1319005C06E2CB
:101D24001307010E0F5F000E105BF3D718D0800E5F
:101D34001319006E800E000A005C11E2800E131964
:101D4400006E800E000A005C0AE2132B0FC4E1FF50
:101D540010C4E2FF300EE66E0F4B102BEFD70FC40A
:0C1D6400E1FF10C4E2FFE66A006A120012
:101D7000000E04010E5D02E1800E0D5D01E341D015
:101D8000000E105D02E1400E0F5D01E33AD0116BD1
:101D9000126B0DC41DF40EC41EF40FC41FF410C446
:101DA00020F4E3EC09F011510B25E96E12510C21DE
:101DB000EA6EEE5226E003018B518C1113E0040110
:101DC00011510B25E96E12510C21EA6EEECF1DF474
:101DD000000E1E6F000E1E6FEBEC07F00401114B9E
:101DE000122B0ED0040111510B25E96E12510C215A
:101DF000EA6EEECF1DF4ECEC09F00401114B122B4E
:041E0000D2D7120023
:101E040004010F6B050E0F5D0AE20F510D25E16E03
:101E1400000E0E21E26E200EE66E0F2BF3D70F514B
:101E24000D25E16E000E0E21E26EE66A0F070F51DA
:101E34000D25106F000E0E21116F0A0E046E000E98
:101E4400056E0BC400F00CC401F093EC07F008C05D
:101E540000F009C001F0300E002610C4E1FF11C4E7
:101E6400E2FF00C0E6FF0A0E046E000E056E0BC40E
:101E740000F00CC401F093EC07F000C00BF401C0B7
:101E84000CF4000E011802E1000E001801E102D06A
:061E94000F07CDD712007C
:101E9A0004010E6B0BC4E9FF0CC4EAFFEECF0DF48C
:101EAA000D51000A0FE00DC41DF4E4EC07F0040123
:101EBA000E2B0E510B25E96E000E0C21EA6EEECFA9
:061ECA000DF4EED712003A
:101ED0000CC410F4040110510E5D0CE30BC41DF48E
:101EE0000DC41EF410C41FF40FC420F491EC04F0D0
:061EF000102BF0D71200D8
:101EF60000C008F00150006E016A026A036A0B6AAC
:101F06000C6A016A026A036A960E036E0A6A00AEDA
:101F160093EF0FF0081E001E082AD8B4002A0A8E76
:101F260000C001F008C000F0086A026AA6EC00F0E2
:021F3600120097
:101F380004010D6B0E6B0BC403F00CC404F00BC44E
:101F480005F00CC406F003C0E9FF04C0EAFFEE5038
:101F5800200A04E10D510E1101E110D0010E0D6FA0
:101F6800000E0E6F03C0E9FF04C0EAFF05C0E1FFE1
:101F780006C0E2FFEECFE6FF054A062A03C001F0DD
:101F880004C002F0034A042A01C0E9FF02C0EAFFC4
:101F9800EE50000AD8E10BC400F00CC401F01200A6
:081FA800067EC2EC04F01200F9
:101FB0000F0E0401056F000E066FA7EC0BF030DC6E
:101FC00000C0C9F301C0CAF302C0CBF303C0CCF315
:101FD000000E046E000E056E200E066E830E076E58
:101FE00024EC03F0000E046EC00E056E7F0E066E2C
:101FF000880E076ED5EC06F000C0CDF301C0CEF31D
:1020000002C0CFF303C0D0F300C00BF401C00CF446
:1020100002C00DF403C00EF4D30E04010F6F030EC3
:10202000106F040E116F1EDCD30E0B6F030E0C6FBE
:1020300083DF05C400F006C401F05DDF01C404F0D5
:1020400002C405F003C406F004C407F0C2EC04F0B7
:1020500000C004F001C005F002C006F003C007F0A4
:10206000C9C300F0CAC301F0CBC302F0CCC303F074
:1020700003EC04F0000ED8B0010E006E005227E110
:1020800005C400F006C401F036DF00C004F001C052
:1020900005F002C006F003C007F001C400F002C45E
:1020A00001F003C402F004C403F07EDFC9C304F0EE
:1020B000CAC305F0CBC306F0CCC307F003EC04F0B1
:1020C000000ED8B0010E006E005201E112D0DA0EFF
:1020D0001D6F030E1E6FD30E1F6F030E206F6AEC71
:1020E00004F0C9C301F4CAC302F4CBC303F4CCC3E4
:1020F00004F4E10E0B6F010E0C6FCFDED30E0B6FED
:10210000030E0C6FCADEDE0E0B6F010E0C6FC5DE08
:102110000D0E1D6FE4EC07F00A0E04011D6FE4ECD8
:0421200007F01200B2
:102124000C0E04011D6FE4EC07F0130E04010B6F99
:10213400020E0C6FB0DE0A0E1D6FE4EC07F00D0EFC
:1021440004011D6FE4EC07F0EB0E04010B6F010EAC
:102154000C6FA1DE0A0E1D6FE4EC07F00D0E0401F6
:102164001D6FE4EC07F0C00E04010B6F010E0C6F41
:1021740092DE0A0E1D6FE4EC07F00D0E04011D6FD4
:06218400E4EC07F012007C
:10218A000C0E04011D6FE4EC07F0BE0E04010B6F88
:10219A00020E0C6F7DDE0A0E1D6FE4EC07F00D0EC9
:1021AA0004011D6FE4EC07F0D50E04010B6F020E5B
:1021BA000C6F6EDE0A0E1D6FE4EC07F00D0E0401C3
:1021CA001D6FE4EC07F09C0E04010B6F020E0C6FFE
:1021DA005FDE0A0E1D6FE4EC07F00D0E04011D6FA1
:1021EA00E4EC07F0AF0E04010B6F020E0C6F50DE29
:1021FA000A0E1D6FE4EC07F00D0E04011D6FE4ECEE
:04220A0007F01200C7
:10220E00819281800401016B0151070810E301C422
:10221E0045F41FEC00F0006B00513F0806E3FFC3CE
:10222E0045F474EC00F0002BF7D7012BEDD781901D
:10223E008182016B0151070810E301C445F41FECC4
:10224E0000F0006B00513F0806E3FFC345F474EC49
:0C225E0000F0002BF7D7012BEDD7120089
:10226A000401006B046B056B005107084DE3456BD5
:10227A0033EC00F000C445F41FEC00F0456B7BEC36
:10228A0000F00301FF6BFF513F0814E304010451FE
:10229A000125F66E05510221F76E000E0321F86E34
:1022AA000900F5CF45F474EC00F0044B052B03014B
:1022BA00FF2BE9D7400E0401456F33EC00F000C450
:1022CA0045F41FEC00F0400E456F7BEC00F0400E29
:1022DA000301FF6FFF517F0814E304010451012534
:1022EA00F66E05510221F76E000E0321F86E090001
:1022FA00F5CF45F474EC00F0044B052B0301FF2BDA
:0A230A00E9D70401002BB0D7120040
:1023140001C41DF403C41EF402C41FF405C420F454
:1023240091EC04F001C41DF403C41EF404C41FF4AE
:1023340005C420F491EC04F002C40BF404C40CF4BE
:1023440001C40DF405C40EF4DEEC0BF002C40BF46E
:1023540004C40CF403C40DF405C40EF4DEEC0BF059
:02236400120065
:102366000F0E0401056F000E066FA7EC0BF010ECC4
:102376000CF000C0C9F301C0CAF302C0CBF303C01E
:10238600CCF3000E046E000E056E200E066E830E54
:10239600076E24EC03F0000E046EC00E056E7F0E71
:1023A600066E880E076ED5EC06F000C0CDF301C0B0
:1023B600CEF302C0CFF303C0D0F300C00BF401C0CC
:1023C6000CF402C00DF403C00EF4D30E04010F6F1B
:1023D600030E106F040E116F32EC0CF0D30E0B6F60
:1023E600030E0C6FA6DD05C400F006C401F080DD07
:1023F60001C404F002C405F003C406F004C407F0E7
:10240600C2EC04F000C004F001C005F002C006F002
:1024160003C007F0C9C300F0CAC301F0CBC302F082
:10242600CCC303F003EC04F0000ED8B0010E006E2E
:10243600005227E105C400F006C401F059DD00C0D2
:1024460004F001C005F002C006F003C007F001C4A5
:1024560000F002C401F003C402F004C403F0A1DDDD
:10246600C9C304F0CAC305F0CBC306F0CCC307F05A
:1024760003EC04F0000ED8B0010E006E005201E12C
:1024860043D0460E0B6F0F0E0C6F590E0D6F1E0EBE
:102496000E6F0F6B1ADDDA0E1D6F030E1E6FD30E55
:1024A6001F6F030E206F6AEC04F0800E0B6F020E96
:1024B6000C6F0A0E0D6F000E0E6F0F0E0F6F000ED3
:1024C600106F53DCD30E0B6F030E0C6F460E0D6FA1
:1024D600000E0E6F0F0E0F6F000E106F46DC7D0E96
:1024E6000B6F020E0C6F5A0E0D6F000E0E6F0F0E55
:1024F6000F6F000E106F39DCC9C301F4CAC302F4B2
:0A250600CBC303F4CCC304F41200AD
:102510000401016B026B036B046B0301FF6B640E20
:10252000FF5D1BE204011D6BAEEC07F0CFEC07F082
:1025300001C404F002C405F003C406F004C407F0AB
:10254000C2EC04F000C001F401C002F402C003F4C4
:1025500003C004F40301FF2BE2D7000E046E000E4B
:10256000056E480E066E850E076E01C400F002C4AB
:1025700001F003C402F004C403F0D5EC06F00EEC45
:042580000BF012004A
:1025840084928480320E04010B6F030E0C6F050ECF
:102594000D6F000E0E6F1E0E0F6F000E106FB8EC55
:1025A4000EF0010E0301F76F000EF86FE16BE26BA2
:1025B400820E0C6EDD0E0D6E0D2EFED70C2EFCD78A
:0625C400000000001200FF
:1025CA0084B225D084A023D08482B80E04010B6F74
:1025DA00010E0C6F050E0D6F000E0E6F1E0E0F6FA3
:1025EA00000E106FB8EC0EF0010E0301F76F000E2B
:1025FA00F86F020EE16F000EE26F820E0C6EDD0EB6
:10260A000D6E0D2EFED70C2EFCD700000000120016
:10261A000401076B086B01C409F402C40AF4800EB2
:10262A000219006E800E005C02E1000E015D0BE2F1
:10263A00010E076F000E086F01510008096F02C4EE
:10264A000AF4000E0A5709C40BF40AC40CF403C4B2
:10265A000DF404C40EF402EC0FF0060E056F000E22
:10266A00066F000E006E0651005C02E1055100087B
:10267A0019E205510325E16E06510421E26E010EAD
:10268A00055D006E000E0659016E00500325E96EC5
:10269A0001500421EA6EEECFE6FF010E055F000E3F
:1026AA00065BDFD703C4E1FF04C4E2FF200EE66E37
:1026BA00075108111AE0056B066B05510325E96EEF
:1026CA0006510421EA6EEE50200A03E1054B062B5F
:1026DA00F4D7010E055F000E065B05510325E16E76
:0C26EA0006510421E26E2D0EE66E120077
:1026F60084B225D084A023D08490650E04010B6F8C
:10270600030E0C6F050E0D6F000E0E6F1E0E0F6F73
:10271600000E106FB8EC0EF0010E0301F76F000EFD
:10272600F86F010EE16F000EE26F820E0C6EDD0E89
:102736000D6E0D2EFED70C2EFCD7000000001200E9
:10274600AECF01F0ABA202D0AB98AB8801C000F0CF
:0227560012006F
:1027580033D0040E04010B6F030E0C6F4DEC0FF019
:102768000A0E1D6FE4EC07F00D0E04011D6FE4EC7A
:1027780007F035D0140E04010B6F030E0C6F4DECEF
:102788000FF00A0E1D6FE4EC07F00D0E04011D6F2B
:10279800E4EC07F024D0E90E04010B6F020E0C6F75
:1027A8004DEC0FF00A0E1D6FE4EC07F00D0E04015E
:1027B8001D6FE4EC07F013D0000E0301E21902E1EB
:1027C800000EE119C6E0000EE21902E1010EE1195E
:1027D800D1E0000EE21902E1020EE119DCE0F60E8A
:1027E80004010B6F020E0C6F4DEC0FF00A0E1D6FFB
:1027F800E4EC07F00D0E04011D6FE4EC07F08A0EFF
:1028080004010B6F020E0C6F4DEC0FF00A0E1D6FDA
:10281800E4EC07F00D0E04011D6FE4EC07F06C0EFC
:1028280004010B6F020E0C6F4DEC0FF00A0E1D6FBA
:10283800E4EC07F00D0E04011D6FE4EC07F0120044
:0A284800000E9EBA010E006E120091
:10285200010E04011D6FAEEC07F000C0F3F301C0DE
:10286200F4F3800E026E800E0118025C02E1005049
:102872000A080CE2050E04010B6F1E0E0C6F320EDD
:102882000D6F280E0E6F0F6B68EC0FF0000E030138
:10289200F61902E1010EF51950E1F451F21902E1C3
:1028A200F151F31910E0050E04010B6F140E0C6FB9
:1028B200640E0D6F280E0E6F0F6B68EC0FF0F3C3F2
:1028C200F1F3F4C3F2F30401F3C301F4F4C302F429
:1028D200E70E036F030E046F9FDEE70E0B6F030E0E
:1028E2000C6F9CEC0FF0E70E0B6F030E0C6F280EB3
:1028F2000D6F000E0E6F140E0F6F000E106FB8ECFE
:102902000EF02B0E0B6F030E0C6F050E0D6F000EEB
:102912000E6F140E0F6F000E106FB8EC0EF0020E59
:102922000B6E450E0C6EA90E0D6E0D2EFED70C2EE3
:10293200FCD70B2EFAD700000000800E0301F41919
:10294200006E800E005C02E1500EF35D0AE3800E21
:10295200006E800EF419005C02E1F351640801E399
:10296200C9DE800E0301F419006E800E005C02E1E4
:10297200AA0EF35D0AE3800E006E800EF419005C6D
:1029820002E1F351BE0801E3FCDD800EF419006E92
:10299200800E010A005C02E1360EF35D0BE3800E4D
:1029A200010A006E800EF419005C02E1F3514A083C
:1029B20001E30ADE800E0301F419006E800E030AA1
:1029C200005C02E1D40EF35D30E3800E030A006E78
:1029D200800EF419005C02E1F351E80826E3220EAE
:1029E20004010B6F030E0C6F050E0D6F000E0E6FC0
:1029F2001E0E0F6F000E106FB8EC0EF0800E006E00
:102A0200800E0301E419005C02E1E351000805E2D3
:102A1200010EE35F000EE45B04D0E5C3E3F3E6C31B
:102A2200E4F3010EEE6F000EEF6F800EF419006EEC
:102A3200800E030A005C02E13E0EF35D2DE3800E80
:102A4200030A006E800EF419005C02E1F351520891
:102A520023E34D0E04010B6F030E0C6F050E0D6F79
:102A6200000E0E6F1E0E0F6F000E106FB8EC0EF000
:102A7200800E0301E419006E800EE619005C02E18B
:102A8200E551E35D03E2E34BE42B02D0E36BE46B3D
:102A9200010EEE6F000EEF6F800EF419006E800EC5
:102AA200020A005C02E14E0EF35D1EE3800E020A92
:102AB200006E800EF419005C02E1F351620814E327
:102AC200550E04010B6F030E0C6F050E0D6F000EF9
:102AD2000E6F1E0E0F6F000E106FB8EC0EF0010E8F
:102AE2000301F56F000EF66F800EF419006E800E72
:102AF200020A005C02E1A80EF35D1CE3800E020AEA
:102B0200006E800EF419005C02E1F351BC0812E37E
:102B12003A0E04010B6F030E0C6F050E0D6F000EC3
:102B22000E6F1E0E0F6F000E106FB8EC0EF0030149
:062B3200F56BF66B1200CA
:102B3800C80E03019B6F0F0E9C6F1D0E9D6F040E38
:102B48009E6F460E976F270E986F000E996F000EB6
:102B58009A6F480EA36F280EA46F000EA56F000E83
:102B6800A66FFF0E9F6FFF0EA06F000EA16F000EE5
:102B7800A26FAC8A900EAB6E948E949C9EAA03D0E2
:082B8800AECF00F0FBD71200F4
:102B9000000E0301EF1902E1010EEE193FE10401FD
:102BA000016B026B7F0E036F3F0E046F010E056F0A
:102BB0008AEC11F00B6B0C6B7F0E0D6F0C0E0E6F11
:102BC000010E0F6F68EC0FF0700E376F350E386F17
:102BD000000E396F3A6B3B6BDFEC00F0F9C30BF47E
:102BE000FAC30CF41E0E04010D6F000E0E6F010EE1
:102BF0000F6F000E106FB8EC0EF0700E376F350EC1
:102C0000386F000E396F010E3A6F3B6BDFEC00F04E
:0E2C1000EE6BEF6B010ED16F000ED26F120053
:102C1E000301B36B8B6B8C6B939A939893949396EF
:102C2E0093929390819A120E006E000E016E830E97
:102C3E000024E16E0F0E0120E26EE66A8194819609
:102C4E0081928180818A3F0E836E14EC00F0C00E5B
:102C5E00836E14EC00F0818281903F0E836E14EC33
:0C2C6E0000F0C00E836E14EC00F01200A9
:102C7A000900F5CFE6FF0006FBE10106F9E11200C3
:102C8A000301FF6B07EC11F003017E517F111CE079
:102C9A00230E0401016F3B0E026F000E036F35EC29
:102CAA0011F082A410D0000E03017F1902E1010E77
:102CBA007E1909E17E6B7F6B670E04010B6F000EB4
:102CCA000C6F4DEC0FF0E0D782A413D00401230E51
:102CDA00016F3B0E026F000E036F35EC11F0000E10
:102CEA0003017F1902E1010E7E1902E17E6B7F6BFF
:102CFA00EBD70A0E04011D6FE4EC07F00D0E040178
:102D0A001D6FE4EC07F0AB0E04010B6F000E0C6FA5
:102D1A004DEC0FF00D0E1D6FE4EC07F00A0E0401E6
:102D2A001D6FE4EC07F00301FF6B07EC11F0010ED5
:0A2D3A000301EE6F000EEF6F1200B0
:102D440081DD0052D8B4E5D0FCDC00C0F0F30050C3
:102D54004C0A05E10C0E04011D6FE4EC07F00301BD
:102D6400F051780A1DE10C0E04011D6FE4EC07F02C
:102D74007A0E04010B6F010E0C6F4DEC0FF00A0E6E
:102D84001D6FE4EC07F00D0E04011D6FE4EC07F079
:102D94000D0E04011D6FE4EC07F0C2EC12F0DADC56
:102DA4000301F0517A0A1CE10C0E04011D6FE4ECDE
:102DB40007F06E0E04010B6F010E0C6F4DEC0FF05B
:102DC4000A0E1D6FE4EC07F00D0E04011D6FE4EC18
:102DD40007F00D0E04011D6FE4EC07F08ADCBADC89
:102DE4000301F051630A1DE10C0E04011D6FE4ECB4
:102DF40007F0A90E04010B6F010E0C6F4DEC0FF0E0
:102E04000A0E1D6FE4EC07F00D0E04011D6FE4ECD7
:102E140007F00D0E04011D6FE4EC07F0E5EC12F071
:102E240099DC0301F051610A3FE10C0E04011D6FAE
:102E3400E4EC07F08A0E04010B6F010E0C6F4DECED
:102E44000FF00A0E1D6FE4EC07F00D0E04011D6F68
:102E5400E4EC07F0080E04010B6F010E0C6F4DEC4F
:102E64000FF00A0E1D6FE4EC07F00D0E04011D6F48
:102E7400E4EC07F0E80E04010B6F000E0C6F4DEC50
:102E84000FF00A0E1D6FE4EC07F00D0E04011D6F28
:102E9400E4EC07F0010E03017E6F000E7F6F010E5C
:102EA40004011D6FE4EC07F00301F051730A15E10E
:102EB4000C0E04011D6FE4EC07F03C0E04010B6FD3
:102EC400010E0C6F4DEC0FF00A0E1D6FE4EC07F0D1
:102ED4000D0E04011D6FE4EC07F00301F051480AE4
:102EE40002E1C5EC10F00301F051770A06E10C0E83
:102EF40004011D6FE4EC07F02DDC0301F051650AB9
:102F040002E192EC10F00301F051720A02E1D8ECF4
:042F14000FF01200A8
:102F1800000E0301D21902E1010ED1190FE1010ED1
:102F280004010B6F0D0E0C6F7E0E0D6F3E0E0E6FB3
:102F38000F6B68EC0FF00301D16BD26BB3EC11F09F
:022F4800120075
:102F4A00000E0301D21902E1010ED11913E1010E9B
:102F5A0004010B6F0D0E0C6F7E0E0D6F3E0E0E6F81
:102F6A000F6B68EC0FF0010E0301F76F000EF86F9C
:102F7A00D16BD26B000EF81902E1010EF719D8A431
:102F8A0021D10401016B330E026F7F0E036F3F0ED6
:102F9A00046F010E056F8AEC11F0010E0B6F340EEF
:102FAA000C6F7E0E0D6F3E0E0E6F0F6B68EC0FF0FE
:102FBA00F4D004012D0E0B6F020E0C6F060E0D6F6E
:102FCA00000E0E6F340E0F6F000E106FB8EC0EF07D
:102FDA002B0E0B6F330E0C6F550E0D6F3E0E0E6FD0
:102FEA00010E0F6F68EC0FF0700E376F350E386FE9
:102FFA00000E396F3A6B3B6BDFEC00F0290E0401CF
:10300A000B6F020E0C6F370E0D6F000E0E6F340E23
:10301A000F6F000E106FB8EC0EF0700E376F350E92
:10302A00386F000E396F010E3A6F3B6BDFEC00F020
:10303A00370E04010B6F020E0C6F600E0D6F000E3F
:10304A000E6F340E0F6F000E106FB8EC0EF0030106
:10305A00F76BF86BB7D0010E04010B6F330E0C6FD0
:10306A002A0E0D6F3E0E0E6F010E0F6F68EC0FF0F9
:10307A00700E376F350E386F000E396F3A6B3B6B37
:10308A00DFEC00F0320E04010B6F020E0C6F060E1D
:10309A000D6F000E0E6F340E0F6F000E106FB8EC2E
:1030AA000EF0700E376F350E386F000E396F010E45
:1030BA003A6F3B6BDFEC00F04C0E04010B6F020E13
:1030CA000C6F370E0D6F000E0E6F340E0F6F000E61
:1030DA00106FB8EC0EF0600E0B6F020E0C6F600EE4
:1030EA000D6F000E0E6F340E0F6F000E106FB8ECDE
:1030FA000EF00301F76BF86B65D05B0E04010B6FE2
:10310A00020E0C6F060E0D6F000E0E6F340E0F6F4F
:10311A00000E106FB8EC0EF0680E0B6F020E0C6FFB
:10312A00370E0D6F000E0E6F340E0F6F000E106FFC
:10313A00B8EC0EF0550E0B6F330E0C6F7E0E0D6F42
:10314A003E0E0E6F010E0F6F68EC0FF0700E376FA8
:10315A00350E386F000E396F3A6B3B6BDFEC00F0BF
:10316A00640E04010B6F020E0C6F600E0D6F000EE1
:10317A000E6F340E0F6F000E106FB8EC0EF0700E5B
:10318A00376F350E386F000E396F010E3A6F3B6B91
:10319A00DFEC00F0F76BF86B15D00301000EE219B3
:1031AA0002E1000EE119D8B404D7000EE21902E1D7
:1031BA00010EE119D8B44FD7000EE21902E1020E4E
:0631CA00E1199BE0120078
:1031D000050E0301FD6F000EFE6F88EC12F010EC7F
:1031E0000CF000C072F301C073F302C074F303C0AB
:1031F00075F3000E046EC00E056E7F0E066E880E0F
:10320000076ED5EC06F0000E046E000E056E480E3B
:10321000066E850E076E24EC03F000C084F301C037
:1032200085F302C086F303C087F300C00BF401C02E
:103230000CF402C00DF403C00EF4C20E04010F6FB3
:10324000030E106F040E116F32EC0CF0C20E0B6FF8
:10325000030E0C6F9CEC0FF0FDC300F0FEC301F0F9
:103260007BEC0FF0F9C304F0FAC305F0FBC306F0E2
:10327000FCC307F0C2EC04F000C004F001C005F08C
:1032800002C006F003C007F072C300F073C301F080
:1032900074C302F075C303F003EC04F0000ED8B061
:1032A000010E006E005229E1FDC300F0FEC301F0E3
:1032B0007BEC0FF000C004F001C005F002C006F086
:1032C00003C007F0F9C300F0FAC301F0FBC302F03A
:1032D000FCC303F0D4EC0FF072C304F073C305F029
:1032E00074C306F075C307F003EC04F0000ED8B009
:1032F000010E006E005201E147D0460E0B6F0F0E1B
:103300000C6F590E0D6F1E0E0E6F0F6B68EC0FF0E9
:10331000BB0E1D6F030E1E6FC20E1F6F030E206FBC
:103320006AEC04F03E0E0B6F020E0C6F0A0E0D6F6E
:10333000000E0E6F0F0E0F6F000E106FB8EC0EF038
:10334000C20E0B6F030E0C6F460E0D6F000E0E6F4C
:103350000F0E0F6F000E106FB8EC0EF03B0E0B6FE0
:10336000020E0C6F5A0E0D6F000E0E6F0F0E0F6FC8
:10337000000E106FB8EC0EF072C3F9F373C3FAF3DA
:0A33800074C3FBF375C3FCF31200E5
:10338A003CEC21F0CB0E0301806F010E816FD50E4C
:10339A00826F000E836F3B0E6E6F000E6F6F4E0EC4
:1033AA00706F000E716F150E6A6F000E6B6F280E2C
:1033BA006C6F000E6D6F060EE56F000EE66FB88635
:1033CA00020EB06E080EAF6EAC849CEC15F0030EC4
:1033DA000B6E8A0E0C6E550E0D6E0D2EFED70C2E30
:1033EA00FCD70B2EFAD700000000610E04010B6F08
:1033FA00000E0C6F4DEC0FF00A0E1D6FE4EC07F097
:10340A000D0E04011D6FE4EC07F0BE0E04010B6FF4
:10341A00000E0C6F4DEC0FF00A0E1D6FE4EC07F076
:10342A000D0E04011D6FE4EC07F00301766B776B58
:10343A00786B796B7A6B7B6B7C6B7D6B0B0EC11235
:10344A00070EB4127F0E926E800E946EF00E956E79
:10345A00966A816A826A836A846A0FEC16F0FF6B45
:10346A0007EC11F0040E0301E36F000EE46F010E86
:10347A00EE6F000EEF6FF56BF66B7E6B7F6B010ED6
:10348A00E16F000EE26F2DD080C3F9F381C3FAF326
:10349A00C8EC15F055DD4AD082C3F9F383C3FAF3B9
:1034AA00C8EC15F043D06EC3F9F36FC3FAF3C8EC56
:1034BA0015F03CD070C3F9F371C3FAF3C8EC15F0F8
:1034CA0035D06AC3F9F36BC3FAF3C8EC15F07BDEA7
:1034DA002DD06CC3F9F36DC3FAF3C8EC15F017DD00
:1034EA0025D0000E0301E41902E1000EE319CCE035
:1034FA00000EE41902E1010EE319CEE0000EE41910
:10350A0002E1020EE319CFE0000EE41902E1030E14
:10351A00E319D0E0000EE41902E1040EE319D1E048
:10352A00000EE41902E1050EE319D3E029EC14F0C8
:10353A0004DC82A40FD00C0E04011D6FE4EC07F02A
:10354A00900E04010B6F000E0C6F4DEC0FF045EC62
:10355A0016F0EFD703017E517F1103E045EC16F018
:06356A00F9D791D7FFD74D
:1042780010EE15F0550E006E040E016E230EF66E4C
:0E4288003F0EF76E000EF86E3DEC16F01200C1
:10357000000020007F000B00018801000193010082
:10358000039E010007A9010005B4010009BF010065
:1035900006D5010001E0010003EB010002F6010085
:1035A00005010200060C02000217020002220200BE
:1035B000022D02000338020004430200044E020000
:1035C0000459020004640200056F0200047A02003C
:1035D0000485020004900200049B020004A602007D
:1035E00002B1020002BC020006C7020006D20200BD
:1035F00006DD020004E8020007F3020006FE0200F6
:103600000509030006140300061F0300052A030032
:103610000535030006400300064B03000356030074
:1036200003610300056C03000477030007820300B5
:10363000068D03000798030005A3030007AE0300EF
:1036400005B9030005C4030005CF030006DA030033
:1036500006E5030007F0030004FB03000506040071
:1036600004110400021C04000327040002320400B9
:10367000053D04000548040003530400045E0400F3
:103680000469040003740400047F0400048A040035
:103690000395040004A0040004AB040001B6040078
:1036A00002C1040004CC040001D7040007E20400B6
:1036B00004ED040004F8040004030500040E0500F2
:1036C0000319050003240500022F0500043A050034
:1036D0000545050007500500035B0500056605006C
:1036E00003710500037C05000287050003920500B5
:1036F000069D050002A80500000000000000000073
:1037000000000000000101010101000100000005AE
:10371000050500000000000000000024247E143F86
:10372000121200000000041E05060C140F04040011
:10373000000000460029002900D60028012801C405
:103740000000000000000006090916091926000003
:10375000000101010000000000000000040201015E
:103760000101010102040000010202020202020141
:103770000004150E15040000000000000000000801
:10378000083E0808000000000000000000000202DF
:103790000100000000000000030000000000000025
:1037A0000000000002020000000404020202020203
:1037B00001010000000609090909090600000000CE
:1037C0000406040404040E000000000708080402B4
:1037D000010F0000000007080806080807000000A5
:1037E00000080C0A091F0808000000000F0101076B
:1037F000080807000000000601010709090600008B
:1038000000000F080404020201000000000609097C
:1038100006090906000000000609090E080806004E
:103820000000000000020200020200000000000090
:103830000202000202010000000000201C021C2005
:10384000000000000000003F003F000000000000FA
:1038500000021C201C0200000000070808040200EF
:1038600002000000001C2259555539021C000000BE
:103870000C0C12123F2121000000000709090F1152
:10388000110F000000001C22010101221C00000099
:10389000000F11212121110F000000001F01010F55
:1038A00001011F000000001F01010F0101010000C4
:1038B00000001C22013921223C00000000212121AE
:1038C0003F2121210000000007020202020207003E
:1038D00000000006040404040403000000001109B1
:1038E0000503050911000000000101010101010F9C
:1038F0000000000063635555494941000000002164
:10390000232529312121000000001C2241414122B0
:103910001C000000000F1111110F01010000000038
:103920001C22414141221C106000000F11110F05A3
:103930000911000000001E01010E10100F00000010
:10394000001F0404040404040000000021212121BC
:1039500021211E0000000021212112120C0C000068
:10396000000049495555552222000000000909066A
:103970000606090900000000110A0A0404040400F4
:103980000000000F08040202010F00000003010103
:10399000010101010101030001010202020202040E
:1039A00004000003020202020202020203000004F9
:1039B0000A110000000000000000000000000000EC
:1039C00000001F00020400000000000000000000D2
:1039D000000006080E090E00000001010107090998
:1039E00009070000000000000601010106000000B8
:1039F0000808080E0909090E000000000000060969
:103A00000F010E0000000601010701010101000085
:103A1000000000000E0909090E0806000101010757
:103A2000090909090000000001000101010101006C
:103A30000000000200030202020202010001010173
:103A4000090503050900000001010101010101014F
:103A5000000000000000374949494900000000000B
:103A6000000709090909000000000000060909090A
:103A70000600000000000007090909070101000015
:103A800000000E0909090E080800000000050301E6
:103A9000010100000000000007010204070000000F
:103AA00000000103010101020000000000000909FB
:103AB00009090E000000000000110A0A0A040000B3
:103AC00000000000494955362200000000000005B2
:103AD00002020205000000000000110A0A0A0404A4
:103AE00002000000000704020107000000040202B7
:103AF00002020102020204000202020202020202A7
:103B0000020200010202020204020202010000009D
:103B10000000261900000000000000030303030357
:033B2000000000A2
:103B23000000000000000000000000000000000092
:103B33000000000000000000000000000000000082
:103B43000000000000000000000000000000000072
:103B53000000000000000000000000000000000062
:103B63000000000000000000000000000000000052
:103B73000000000000000000000000000000000042
:103B83000000000000000000000000000000000032
:103B93000000000000000000000000000000000022
:103BA3000000000000000000000000000000000012
:103BB3000000000000000000000000000000000002
:103BC30000000000000000000000000000000000F2
:103BD30000000000000000000000000000000000E2
:103BE30000000000000000000000000000000000D2
:103BF30000000000000000000000000000000000C2
:103C030000000000000000000000000000000000B1
:103C130000000000000000000000000000000000A1
:103C23000000000000808080808080808000000091
:103C33008080800000000080808000000080808001
:103C430080808080800000000080808080808000F1
:103C53000000000000000080808080808000000061
:103C63000080A0B89898B0A08000000080808000F9
:103C73000000000080800000000000008080808041
:103C83000000000000808080808080808000000031
:103C93000000008080808000000000000000000021
:103CA3000000000000FFFFFF31313131310000001F
:103CB300FFFF073FF0F01F07FFFF000000FFFFFFBC
:103CC300313131313100000000FFFF6161E1F3BFA9
:103CD3001F000000FCFE070301313131F1F3000046
:103CE30000FFFFFF3131313131000000FFFF0F1FB3
:103CF3007CF0C080FFFF0000F8FEFF030301010119
:103D03000100000000010101FFFF010101000000AB
:103D130000E0FC9F8387BFFCE00000000000000080
:103D230000000000000F0F0F0C0C0C0C0C00000027
:103D33000F0F0000000000000F0F0000000F0F0F17
:103D43000C0C0C0C0C000000000F0F000000030F04
:103D53000E0800000107070E0C0C0C0C0F070000E7
:103D6300000F0F0F0C0C0C0C0C0000000F0F0000C9
:103D73000001070F0F0F00000103070E0C0C0C0CC2
:103D830006000000000C0C0C0F0F0C0C0C000008BC
:103D93000F0F0101010101030F0F000000000000DC
:103DA3000000000000000000000000000000000010
:103DB3000000000000000000000000000000000000
:103DC30000000000000000000000000000000000F0
:103DD30000000000000000000000000000000000E0
:103DE30000000000000000000000000000000000D0
:103DF30000000000000000000000000000000000C0
:103E030000000000000000000000000000000000AF
:103E1300000000000000000000000000000000009F
:103E2300000000000000000000000000000000008F
:103E3300000000000000000000000000000000007F
:103E4300000000000000000000000000000000006F
:103E5300000000000000000000000000000000005F
:103E6300000000000000000000000000000000004F
:103E7300000000000000000000000000000000003F
:103E8300000000000000000000000000000000002F
:103E9300000000000000000000000000000000001F
:103EA300000000000000000000000000000000000F
:103EB30000000000000000000000000000000000FF
:103EC30000000000000000000000000000000000EF
:103ED30000000000000000000000000000000000DF
:103EE30000000000000000000000000000000000CF
:103EF30000000000000000000000000000000000BF
:103F030000000000000000000000000000000000AE
:103F1300000000000000000000000000000000009E
:103F23002034202D2054656D706572617475726143
:033F33002020004B
:103F360035202D2054656E73616F20426174657261
:033F4600696100AE
:103F49002032202D20436F7272656E746520526590
:033F59006465009C
:103F5C00202033202D204672657175656E63696172
:033F6C0020200012
:063F6F005374617274003E
:103F7500536F6C7465206F20626F74616F20646588
:103F850020656D657267656E636961207061726138
:093F95002072657365746172000D
:103F9E004D4F444F20444520454D455247454E43D5
:0B3FAE004941204154495641444F0056
:103FB90050726F6E746F2070617261206F706572DC
:033FC90061720022
:103FCC005072657373696F6E652048207061726101
:073FDC0020616A75646100B9
:103FE3002031202D2054656E73616F205265646506
:033FF3002020008B
:103FF60065207369676120617320696E74727563E9
:104006006F657320646F207465726D696E616C00F4
:104016005061726120726573657461722C207072D2
:10402600657373696F6E65206F20626F74616F20B0
:10403600646520656D657267656E636961206C6F86
:0440460063616C0046
:10404A004D4F444F20454D455247454E4349412027
:10405A0053D320504F4445205345522044455341A1
:10406A0054495641444F204C4F43414C4D454E54C0
:02407A004500FF
:0C407C0052656465204C69676164610056
:104088004361726761204465736C696761646100AC
:104098004551554950414D454E544F20454D204DB1
:0F40A8004F444F20454D455247454E4349410037
:0F40B70047657261646F72204C696761646F00C6
:0840C60067657261646F72000E
:0B40CE0048202D20566F6C74617200BA
:1040D90020202030202D205072696E636970616C38
:0340E90020200094
:0340EC002056005B
:0A40EF00426174657269613A2000B5
:1040F90073202D2044657361746976617220456D62
:10410900657267656E6369612028536F6D656E74AA
:084119006520496E666F290064
:1041210061202D20417469766120456D6572676556
:054131006E63696100EE
:014136000088
:044137004F464600A9
:05413B0052454445005F
:0541400052454445005A
:04414500474D47009B
:0341490043200010
:0E414C0054656D70657261747572613A200081
:04415A004F46460086
:04415E004E614E0060
:01416200302C
:04416300494E46007B
:02416700300026
:05416900524544450031
:04416E00474D470072
:04417200474D47006E
:044176004F4646006A
:10417A0063202D204C6967612047657261646F7204
:01418A000034
:03418B00562000BB
:0A418E00426174657269613A200015
:1041980078202D204465736C6967612063617267BC
:0241A8006100B4
:1041AA0072202D2054656E73616F204261746572AE
:0341BA0069610038
:0F41BD004C202D204C696D70612074656C610081
:1041CC0077202D204D656E75205472616E73666577
:0741DC0072656E636961006A
:1041E30065202D204D656E7520456D657267656E82
:0441F300636961009B
:0D41F700474D4720656D20636172676100D0
:0E4204007A202D204C696761205265646500A8
:104212004361726761204465736C69676164610020
:0E4222005265646520656D20636172676100FE
:094230006573717565726461002B
:07423900626F74616F3A002F
:084240006465736C696761009D
:104248006465736C6967612063616C69627261633C
:03425800616F0093
:08425B00646972656974610079
:104263006C6967612063616C6962726163616F008D
:054273007265646500A6
:020000040030CA
:0E000000044C1F1EFF0380FF0FC00FE00F40D7
:00000001FF
