:10000000D4EF18F00000000000EF00F00000000046
:0A0010000000000000000000F3D71C
:0C001C00100E0D6E0D2EFED7000012001D
:0C002800000000000000000000001200BA
:0A003400F3DF8188F1DF81981200EC
:10003E000B820BAE29EF00F00368026801680068BE
:08004E000A360232FF0E120017
:10005600120E006E000E016E830E0024E16E0F0E6E
:100066000120E26EFF0EE66EDCDFDBDF8184819825
:1000760081868188D0DF83CF0DF281988196D1DF8A
:10008600D0DF120E006E000E016E830E0024E16EAC
:0E0096000F0E0120E26EE66A0DC200F01200AD
:0E00A4008198818481960DC283FFC2DF120015
:1000B200F250026EF29E0500FF6A0150FE6E005081
:0800C200FD6E02BEF28E120079
:1000CA0081948196B80E02010D11836EAEDF120083
:1000DA007F0E02010D15006E00C00DF2819481960B
:1000EA00BF0E001600C00DF2008C00C00DF200C059
:0600FA0083FF9BDF1200F2
:100100007F0E02010D15016E01C00DF201AC03D08E
:0C0110008182819002D0819281801200D7
:0E011C00026A016A006A086A036A000E120095
:08012A000AAE029E000E120055
:100132000B840BAEA4EF00F0010E036E026A016A9B
:0A014200006A0A360232FF0E1200B6
:10014C006A0E02010B6F010E0C6F000E006E065151
:10015C00005C02E1055100084AE274C1E1FF75C17F
:10016C00E2FF01C2E6FF02C2E6FF03C2E6FF04C2E1
:10017C00E6FF05C2E6FF06C2E6FF070EE66E020EBC
:10018C00E66E72C100F073C101F08DDF00C009F2A0
:10019C0001C00AF20101FD6BFE6B02010851010165
:1001AC00FE5D04E1020107510101FD5D13E209C28C
:1001BC00E9FF0AC2EAFF0BC2E1FF0CC2E2FFEECF7D
:1001CC00E6FF02010B4B0C2B094B0A2B0101FD4BDB
:1001DC00FE2BE3D702010751055F0851065B07515F
:1001EC00012708510223000E03230423AED712006B
:1001FC000B6A0A6A096A00500402F4CF09F0F3CFC3
:10020C0008F001500502F4CF0BF0F3CF0AF00050C8
:10021C000502F3500926F4500A22E86A0B22015019
:10022C000402F3500926F4500A22E86A0B2208C093
:10023C0000F009C001F00AC002F00BC003F012007C
:10024C00000E0101FD5D0AE3FD517F0807E3000E7E
:10025C00FE5D04E3FE513F0801E301D050D0FDC127
:10026C000DF248DFFEC10DF20D330D9F0D330D9FC6
:10027C000D330D9F24DFFDC10DF229DFE6DE00C03A
:10028C0002F2E3DE00C002F2FEC10DF20D330D9F4F
:10029C000D330D9F0D330D9F12DFFDC10DF217DFD6
:1002AC00070E0101FE15006E00C000F200C001F047
:1002BC00010E006E015004E000360090FF0FFBD7DA
:1002CC0000C000F2001C0201016F0CD002010151B0
:1002DC00021712D00201005102130ED0020100517C
:1002EC00021B0AD00101FF51000AF0E0FF51010A84
:1002FC00F1E0FF51020AF2E002C20DF2CDDE120073
:10030C0001C261F102C262F103C263F1020E020189
:10031C000125F66E000E0221F76E000E0321F86E19
:10032C000900F5CF04F0030E0125F66E000E022134
:10033C00F76E000E0321F86E0900F5CF03F003C031
:10034C0001F0006A0450002401015B6F000E0120D3
:10035C005C6F040E02010125F66E000E0221F76E91
:10036C00000E0321F86E0900F5CF04F0050E0125EF
:10037C00F66E000E0221F76E000E0321F86E0900D6
:10038C00F5CF03F003C001F0006A04500024010112
:10039C005D6F000E01205E6F060E02010125F66EE8
:1003AC00000E0221F76E000E0321F86E0900F5CF46
:1003BC005FF1000E0101606F04C27BF1000E7C6FD7
:1003CC0005C27DF1010E0001C66F0101646B656B06
:0203DC0012000D
:1003DE000C6A0E6A0250D8A408EF02F001C002F0B7
:1003EE0000C001F0006A0E860250D8A408EF02F099
:1003FE0001C002F0016A0E960E880250D8B41AEFB0
:10040E0002F00E50035ED8A4D8A01FEF02F0D890D1
:10041E0002BE24EF02F0003601360236032E0FEF35
:10042E0002F01FEF02F0010E0C6E71DE27EF02F0EC
:10043E00020E0C6E77DE27EF02F0040E0C6E6EDEEF
:02044E0012009A
:0C045000240E0D6E0D2EFED700001200D1
:10045C000CB070EF02F00CA216EF03F00E6A000E57
:10046C00026487EF02F0F00E0214D8A452EF02F0EF
:10047C00023A01380F0B02260138F00B016E0038DE
:10048C000F0B01260038F00B006E08380F0B0026FE
:10049C000838F00B086E0E84D89002BE6BEF02F099
:1004AC0008360036013602360E2A02BE6BEF02F019
:1004BC0008360036013602360E2A02BE6BEF02F009
:1004CC0008360036013602360E2A0E5003640CEF45
:1004DC0003F0035E0BBC08AE11EF03F0D880800E66
:1004EC0008640030000E002201220222D8A011EF75
:1004FC0003F0023201320032034A16EF03F011EF1F
:10050C0003F001C002F000C001F008C000F0086A5E
:10051C00000E0E860264BEEF02F0F00E0214D8A498
:10052C00A6EF02F0023A01380F0B02260138F00B4D
:10053C00016E00380F0B01260038F00B006E0E8494
:10054C00D89002BE6BEF02F00036013602360E2A4E
:10055C0002BE6BEF02F00036013602360E2A02BEE6
:10056C006BEF02F00036013602360E2A6BEF02F00A
:10057C0001C002F000C001F0006A000E0E960E8859
:10058C000264EBEF02F0F00E0214D8A4D6EF02F0E6
:10059C00023A01380F0B02260138F00B016E0E8463
:1005AC00D89002BE6BEF02F0013602360E2A02BE64
:1005BC006BEF02F0013602360E2A02BE6BEF02F030
:1005CC00013602360E2A6BEF02F001C002F0016A0E
:1005DC00000E0E8602641BEF03F0F00E0214D8A47A
:1005EC00FAEF02F0023A0E84D89002BE6BEF02F0E2
:1005FC0002360E2A02BE6BEF02F002360E2A02BE43
:10060C006BEF02F002360E2A6BEF02F0010E0C6E4D
:10061C008ADD1EEF03F0020E0C6E81DD1EEF03F07F
:10062C00040E0C6E06DD1EEF03F0080E0C6E70DD72
:02063C001200AA
:10063E000B800BAE2BEF03F0026A0AAEFF0E026EBA
:0C064E00016E006E0A360232FF0E120030
:08065A000B6A0B86FF0E120073
:100662000450000A12E10550000A0FE10650000A88
:100672000CE10750000A09E1FF0E006EFF0E016E49
:100682007F0E026EFF0E036EA4D0086A096A07503D
:10069200D8B4DCEF03F00350D8B4E0EF03F002501B
:1006A20006180A6E028E068E0E6A02C008F001C09B
:1006B2000CF000C00DF004500D5E0550D8A0053CB2
:1006C2000C5E0650D8A0063C085E086A0C6A0D6AE9
:1006D200D8A073EF03F0D890023201320032083210
:1006E200010E0E6E0750035ED8A080EF03F07E0E5F
:1006F2000E240326D8B0E4EF03F086EF03F07E0E5B
:100702000E240326D8A0E8EF03F0180E0B6E0D3668
:100712000C3608360036013602360E360450005EBC
:100722000550D8A0053C015E0650D8A0063C025EEA
:1007320006340E120EA0A1EF03F00D80ACEF03F011
:10074200045000260550D8B0053C01260650D8B00A
:10075200062802260D900B2E88EF03F0D2EF03F04D
:10076200D8900036013602360E360450005E05502F
:10077200D8A0053C015E0650D8A0063C025E0634B5
:100782000E10010B0D26D8B00C2AD8B4082AD8A412
:10079200D2EF03F008320C320D32032AD8B4E4EF60
:1007A20003F00AAE089E0850026E0C50016E0D5006
:1007B200006EEAEF03F0010E4FDFEAEF03F0020EE4
:1007C200ACDCEAEF03F0040E39DCEAEF03F0080ECA
:0407D200AFDC120086
:1007D600086A096A000E0762036470EF04F00250AB
:1007E60006180A6E075003267E0ED8A001EF04F005
:1007F600035ED8B074EF04F005EF04F0035ED8A0F2
:1008060079EF04F0028E068E02C00EF001C00BF0E6
:1008160000C00DF000500402F4CF0CF001500502A8
:10082600F4CF00F0F3CF08F00402F3500C26F45096
:100836000822000E00220D500502F3500C26F4503B
:100846000822000E002202500402F3500826F4503B
:10085600002202500502016A000E0122F350002612
:10086600F45001220D500602F3500826F4500022DF
:10087600026A000E012202220B500602F3500026E5
:10088600F4500122000E02220E500602F3500126F9
:10089600F450022202BE58EF04F008360036013644
:1008A60002360306D8B479EF04F06BEF04F0D88073
:1008B600800E08640030000E002201220222D8A019
:1008C6006BEF04F0023201320032034A74EF04F097
:1008D6000AAE029E000E7BEF04F0010E1CDC7BEFDD
:1008E60004F0020E1FEC00F07BEF04F0040E1EDC99
:0208F6001200EE
:1008F800025006180E6E086A096A0B6A03500764EC
:100908006FEF05F006500A6E068E028E03500B6ECE
:100918000750036E000E0B64BFEF04F00B50075E28
:10092800D8B460EF05F0070E07642EEF05F0075EF8
:1009380000C008F001C000F002C001F0026A074ED2
:1009480060EF05F0076403EF05F0075E00C008F0EC
:1009580001C000F0016A074E60EF05F00764E1EF9F
:1009680004F0075E00C008F0006A074E60EF05F06B
:100978000764C8EF04F00AC002F005C001F004C023
:1009880000F0086A8CEF06F0030E0764D3EF04F05A
:10099800075E08380F0B086E074E60EF05F0D89019
:1009A8000832074E60EF05F0D8900832074E60EF26
:1009B80005F0D890083260EF05F0030E0764F2EFF7
:1009C80004F0075E08380F0B086E0038F00B082695
:1009D80000380F0B006E074E60EF05F0D89000321C
:1009E8000832074E60EF05F0D89000320832074E03
:1009F80060EF05F0D8900032083260EF05F0030E82
:100A080007641AEF05F0075E08380F0B086E003808
:100A1800F00B082600380F0B006E0138F00B00268B
:100A280001380F0B016E074E60EF05F0D8900132C8
:100A380000320832074E60EF05F0D89001320032DC
:100A48000832074E60EF05F0D890013200320832C4
:100A580060EF05F0030E07644BEF05F0075E0838FA
:100A68000F0B086E0038F00B082600380F0B006ECD
:100A78000138F00B002601380F0B016E0238F00B1D
:100A8800012602380F0B026E074E60EF05F0D89072
:100A98000232013200320832074E60EF05F0D8907A
:100AA8000232013200320832074E60EF05F0D8906A
:100AB8000232013200320832096A000E0EAE54EFDB
:100AC80006F0081E001E011E021E082A002201222E
:100AD800022254EF06F00750D8A475EF05F08CEF0A
:100AE80006F0096A02C00AF0028E068E0750035CFF
:100AF800076ED8B447EF06F0070E076415EF06F047
:100B0800075E0450096E0550046E0650056E066AAD
:100B1800074E47EF06F0070E0764EAEF05F0075E99
:100B28000450096E0550046E056A074E47EF06F03B
:100B3800070E0764C8EF05F0075E0450096E046AE3
:100B4800074E47EF06F0070E0764AFEF05F00AC03F
:100B580002F08CEF06F0030E0764BAEF05F0075EAB
:100B680009380F0B096E074E47EF06F0D890093287
:100B7800074E47EF06F0D8900932074E47EF06F0C8
:100B8800D890093247EF06F0030E0764D9EF05F055
:100B9800075E09380F0B096E0438F00B0926043874
:100BA8000F0B046E074E47EF06F0D8900432093257
:100BB800074E47EF06F0D89004320932074E47EF48
:100BC80006F0D8900432093247EF06F0030E0764A6
:100BD80001EF06F0075E09380F0B096E0438F00BB9
:100BE800092604380F0B046E0538F00B0426053867
:100BF8000F0B056E074E47EF06F0D890053204320A
:100C08000932074E47EF06F0D89005320432093210
:100C1800074E47EF06F0D89005320432093247EF05
:100C280006F0030E076432EF06F0075E09380F0B73
:100C3800096E0438F00B092604380F0B046E0538CA
:100C4800F00B042605380F0B056E0638F00B052649
:100C580006380F0B066E074E47EF06F0D89006329F
:100C6800053204320932074E47EF06F0D8900632B3
:100C7800053204320932074E47EF06F0D8900632A3
:100C8800053204320932086A000E0EAE54EF06F03F
:100C9800091E041E051E061E092A04220522062214
:100CA800095008260450002205500122065002224D
:100CB8000EBE6BEF06F0D8A07AEF06F002320132D2
:100CC80000320832033E7AEF06F086EF06F0D8B01D
:100CD80080EF06F0000E081E001E011E021E082AE4
:100CE8000022012202220A7E80EF06F0010E0C6E1D
:100CF8002EEC02F08EEF06F0020E0C6E2EEC02F0D7
:100D08008EEF06F0040E0C6E1FEC00F08EEF06F06E
:060D1800000E0C6E12003B
:100D1E00C26A0001E01D006E0050C116070EC0121F
:100D2E00C08EE3C100F000360090003600900050F7
:100D3E00C212C28028EC02F0C282C2A201D0FDD73C
:100D4E00C4CF01F0006AC3500012000E0112C2900F
:020D5E00120081
:100D60000050086E0150006E016A026A036A0B6A45
:100D70000C6A960E036E0A6A00C001F008C000F00B
:0A0D8000086A026AEFEC01F01200AD
:100D8A000D6A086A0050D8B4000C04180A6E0ABE2C
:100D9A000D1E0B6A04AE02D0041E042A00AE02D055
:100DAA00001E002A005004100A6E0ABE1FD004500A
:100DBA00085E003600340836045008260036060E4F
:100DCA000C6E00340836045000B0085E00A00826F5
:100DDA0000360C2EF6D700A008260BB015D00DAEA3
:100DEA00000C001E002A081E082A000C04AE09D0B6
:100DFA0000BE04D00050086E006AF1D7006A002ACB
:100E0A00000C001E0B2AD3D7082A0450085CD8A469
:0E0E1A00E6D7086A002A00AEE2D7FF0C1200ED
:100E2800000E0101E55D04E3E5513F0801E301D04F
:100E380029D0000EE35DD8A0E36BE3517F0802E2FE
:100E48007F0EE36F000EE45DD8A0E46BE4517F08E9
:100E580002E27F0EE46FE351E45D06E2E3C1E7F1ED
:100E6800E4C1E3F1E7C1E4F1E351E45D0BE3E3C17D
:100E7800FDF1E5C1FEF1E6C1FFF126EC01F001014B
:060E8800E32BF2D712007B
:100E8E000A6A0350D8A40A800750D8A40A820A50CE
:100E9E00D8B4AAEF07F0030AD8B463EF07F00AB08C
:100EAE005EEF07F006AEA8EF07F0A6EF07F002AE72
:100EBE00A6EF07F0A8EF07F00250800B0A6E029E15
:100ECE000650800B069E0A18D8B474EF07F00A502D
:100EDE00D8B4A6EF07F0A8EF07F00750035CD8B41C
:100EEE007EEF07F0D8A09AEF07F0A0EF07F00650BC
:100EFE00025CD8B488EF07F0D8A09AEF07F0A0EF05
:100F0E0007F00550015CD8B492EF07F0D8A09AEF25
:100F1E0007F0A0EF07F00450005CD8B4AAEF07F07A
:100F2E00D8B0A0EF07F00A52D8B4A8EF07F0A6EF9A
:100F3E0007F00A52D8B4A6EF07F0A8EF07F0D88052
:0E0F4E001200D8901200D880D8841200120031
:100F5C000B6A0C6A086A0350D8B432EF08F002C06E
:100F6C000AF0028E9E0E035E03AE22EF08F0036CB5
:100F7C00080E035CD8A0EFEF07F0036E083600C034
:100F8C0008F001C000F002C001F0026A080E035C18
:100F9C00D8A0EFEF07F0036E083600C008F001C0D0
:100FAC0000F0016A080E035CD8A0EFEF07F0036EA7
:100FBC00083600C008F0006A080E035CD8A0EFEFFA
:100FCC0007F0036E0836086A0350D8A4D890FBEFDC
:100FDC0007F00350D8B4FBEF07F0D890023201327F
:100FEC0000320832032EF3EF07F00BBC08A00CEF15
:100FFC0008F0D8A00CEF08F0082AD8B4002AD8B40E
:10100C00012AD8B4022A02BE36EF08F00AAE32EF3B
:10101C0008F0021E011E001E081E082AD8B4002A61
:10102C00D8B4012AD8B4022A32EF08F0026A016A55
:10103C00006A086A32EF08F00B800BAE3DEF08F047
:10104C00026A0AAE3DEF08F0026E016E006E086E89
:10105C000A3602323DEF08F00C6A000E3EEF08F043
:10106C00010E0C6E000E1FEC03F03EEF08F0FF0EAD
:10107C000250036E0150026E0050016E0850006E5B
:02108C00120050
:10108E00E3C104F0E4C105F004C002F005C003F0B2
:10109E00044A052AE5C100F0E6C101F00101E54B65
:1010AE00E62B00C0E9FF01C0EAFF02C0E1FF03C06A
:1010BE00E2FFEECFE6FF02C0E9FF03C0EAFFEE5209
:0E10CE0001E0E2D7E3C100F0E4C101F012003E
:1010DC000101EB6BEC6BED6B0001C651000A0FE1EB
:1010EC00F00E0201016F320E026F000E036F010E43
:1010FC00046F056B86EC01F0010E0001C66F000E4B
:10110C00006E01015C51005C02E15B51E35D01E2A8
:10111C00EAD0000E5E5D02E1E3515D5D01E2E3D0D9
:10112C005B51E35D016E5CC102F0000E025601C022
:10113C0003F002C004F00336039004360336039028
:10114C000436080E6125006E000E6221016E000E41
:10115C006321026E000E056E00500326015004221E
:10116C000250052203C0F6FF04C0F7FF05C0F8FFCC
:10117C000900F5CFEBF1010E0324F66E000E0420EE
:10118C00F76E000E0520F86E0900F5CF00F000C0D8
:10119C0006F0000E076E086E096E020E0324F66E42
:1011AC00000E0420F76E000E0520F86E0900F5CF36
:1011BC0003F003C001F0006A000E026E036E0650CD
:1011CC0000260750012208500222095003226151C7
:1011DC000024E86F62510120E96F63510220EA6F2D
:1011EC007D51000A41E168C1E6F1E56B000E006E2D
:1011FC006051005C02E15F51E55D2FE266C1ECF1EC
:10120C00E76BE46BEB51E45D25E2E751000A10E17A
:10121C00E8C1F6FFE9C1F7FFEAC1F8FF0900F5CF15
:10122C00EDF1010EE827000EE923EA23010EE76F2A
:10123C00E751ED15006E08E0ECC1FDF1E6C1FEF1E1
:10124C007BC1FFF126EC01F00101EC2BE737E791B4
:10125C00E42BD8D7E62BE52BC9D7EC51010F666FE1
:10126C00676B000E67233FD066C1E6F1E56B000E9D
:10127C00006E6051005C02E15F51E55D2FE268C1D8
:10128C00ECF1E76BE46BEB51E45D25E2E751000A0E
:10129C0010E1E8C1F6FFE9C1F7FFEAC1F8FF090068
:1012AC00F5CFEDF1010EE827000EE923EA23010E3C
:1012BC00E76FE751ED15006E08E0E6C1FDF1ECC1FA
:1012CC00FEF17BC1FFF126EC01F00101EC07E737E1
:1012DC00E791E42BD8D7E62BE52BC9D7EC05686F43
:0812EC00696B000E695B120042
:1012F400086A096A100E0C6E013408360936045067
:10130400085E0550D8A0053C095ED8B007D004504B
:1013140008260550D8B0053C0926D8900036013679
:061324000C2EEAD71200B6
:10132A000101F86BF96BFA6BFB6B5C51E45D02E14E
:10133A005B51E35D01E2C6D1E4515E5D02E1E35136
:10134A005D5D01E2BFD15B51E35D036E5C51E4591F
:10135A00046E03C000F004C001F0003600900136AC
:10136A00003600900136080E77250201016F000E43
:10137A00010178210201026F000E010179210201A7
:10138A00036F000E01017A210201046F0050012748
:10139A0001500223000E03230423040E056F000EDE
:1013AA00066FA6EC00F06A0E0101F66F010EF76FE8
:1013BA00F6C1E9FFF7C1EAFFEECFFCF1FCC1F8F193
:1013CA00010EF625E96E000EF721EA6EEECF04F063
:1013DA00000E056E066E076E020EF625E96E000E09
:1013EA00F721EA6EEECF03F003C001F0006A000EA7
:1013FA00026E036E04500026055001220650022296
:10140A000750032200507725EA6F01507821EB6FCD
:10141A0002507921EC6F03507A21ED6FFCC100F084
:10142A000032009E0032009E0032009E000E016EC5
:10143A005FC104F060C105F0FEEC00F000C0F0F1FD
:10144A0001C0F1F1070EFC15006E04E05F51F027B0
:10145A006051F123F0C1F4F1F1C1F5F174C1E1FF7A
:10146A0075C1E2FFEAC1E6FFEBC1E6FFECC1E6FFA8
:10147A00EDC1E6FFF0C1E6FFF1C1E6FFEE0EE66E52
:10148A00010EE66E72C100F073C101F059EC00F072
:10149A0000C0F6F101C0F7F10101EE51EA27EF5160
:1014AA00EB23000EEC23ED23EE51F05FEF51F15BDD
:1014BA00F26BF36B7D51000AD8A481D068C1E7F1C1
:1014CA0069C1E8F1E66B000E006E6051005C02E152
:1014DA005F51E65D6DE266C1F9F167C1FAF1E96B48
:1014EA00E56BF851E55D60E2E951000A4AE1F24B29
:1014FA00F32BF551EF5D02E1F451EE5D38E2F35161
:10150A00EF5D02E1F251EE5D32E2010EF26F000E82
:10151A00F36F74C1E1FF75C1E2FFEAC1E6FFEBC1F7
:10152A00E6FFECC1E6FFEDC1E6FFF0C1E6FFF1C15F
:10153A00E6FFEE0EE66E010EE66E72C100F073C1B2
:10154A0001F059EC00F000C0F6F101C0F7F1F0C16A
:10155A00F4F1F1C1F5F10101EE51EA27EF51EB2364
:10156A00000EEC23ED23EE51F05FEF51F15BF6C173
:10157A00E9FFF7C1EAFFEECFFBF1F64BF72B010EBD
:10158A00E96FE951FB15006E08E0F9C1FDF1E7C109
:10159A00FEF17BC1FFF126EC01F00101F94BFA2BB8
:1015AA00E937E991E52B9DD7E74BE82BE62B8BD75B
:1015BA00010EF925666F000EFA21676F83D066C1A6
:1015CA00E7F167C1E8F1E66B000E006E6051005C5E
:1015DA0002E15F51E65DD8B06FD068C1F9F169C127
:1015EA00FAF1E96BE56BF851E55D62E2E951000A4F
:1015FA004AE1F24BF32BF551EF5D02E1F451EE5D56
:10160A0038E2F351EF5D02E1F251EE5D32E2010E92
:10161A00F26F000EF36F74C1E1FF75C1E2FFEAC118
:10162A00E6FFEBC1E6FFECC1E6FFEDC1E6FFF0C164
:10163A00E6FFF1C1E6FFEE0EE66E010EE66E72C13E
:10164A0000F073C101F059EC00F000C0F6F101C0DE
:10165A00F7F1F0C1F4F1F1C1F5F10101EE51EA2718
:10166A00EF51EB23000EEC23ED23EE51F05FEF5127
:10167A00F15BF6C1E9FFF7C1EAFFEECFFBF1F64BEA
:10168A00F72B010EE96FE951FB15006E08E0E7C17F
:10169A00FDF1F9C1FEF17BC1FFF126EC01F0010E6B
:1016AA000101F95F000EFA5BE937E991E52B9BD757
:1016BA00E74BE82BE62B88D7010EF95D686F000E21
:0616CA00FA59696F1200DD
:1016D000E3C166F1E4C167F1E5C168F1E6C169F112
:0216E0001200F6
:1016E2000050086E0150006E0250016E0350026EEF
:1016F200036A0B6A0C6A9E0E036E0A6A02AE8EEFD2
:101702000BF0081E001E011E021E082AD8B4002A71
:10171200D8B4012AD8B4022A0A8E020E0C6E2EEC1C
:0417220002F01200BF
:101726000101DE6BDF6BE06BE16BE26BD1C1DAF1DD
:10173600D2C1DBF1D3C1DCF1D4C1DDF1DD51FF0A49
:1017460008E1DC51FF0A05E1DB51FF0A02E1DA514B
:10175600FF0A0CE1D5C1E3F1D6C1E4F1E10EE56F74
:10176600000EE66F91DC030E006E5CD2010ED86FA0
:10177600DCAF0FD0800EDC19006E00C0DCF1D82B78
:10178600DF2BD5C1E1FFD6C1E2FF2D0EE66ED54BAC
:10179600D62B000E006EDD1908E10050DC1905E1BC
:1017A6000050DB1902E1DA51000A0BE1D5C1E3F181
:1017B600D6C1E4F1E50EE56F000EE66F65DC006A62
:1017C60031D2DD51FF0A08E1DC51000A05E1DB51A7
:1017D600000A02E1DA51000A0CE1D5C1E3F1D6C1F3
:1017E600E4F1C70EE56F000EE66F4EDCD8C100F0DF
:1017F60019D2000E046E000E056E000E066E7F0EE8
:10180600076EDAC100F0DBC101F0DCC102F0DDC118
:1018160003F047EC07F0010ED8B0000E006E005240
:101826001CE0DAC100F0DBC101F0DCC102F0DDC171
:1018360003F0000E046E000E056E200E066E820E7C
:10184600076EEBEC03F000C0DAF101C0DBF102C079
:10185600DCF103C0DDF1E207CCD7000E046E000E0A
:10186600056E200E066E820E076EDAC100F0DBC131
:1018760001F0DCC102F0DDC103F047EC07F0000E19
:10188600D8B0010E006E00521CE0DAC100F0DBC1D8
:1018960001F0DCC102F0DDC103F0CD0E046ECC0E0A
:1018A600056E4C0E066E7B0E076EEBEC03F000C069
:1018B600DAF101C0DBF102C0DCF103C0DDF1E22B9D
:1018C600CCD7FF0EDA15086EFF0EDB15096E7F0EFC
:1018D600DC150A6E000EDD150B6E08C004F009C09B
:1018E60005F00AC006F00BC007F004360490053672
:1018F60006360736000EDA15006E000EDB15016E91
:10190600000EDC15026EFF0EDD15036E00C0DAF167
:1019160001C0DBF102C0DCF103C0DDF10450DA11D5
:10192600006E0550DB11016E0650DC11026E075089
:10193600DD11036E00C0DAF101C0DBF102C0DCF19B
:1019460003C0DDF17F0EDD5D006E00C0D9F1010E32
:10195600DD6F00C004F0DAC100F0DBC101F0DCC1CC
:1019660002F0DDC103F0045007E0003600900136B6
:1019760002360336FF0FF8D700C0DAF101C0DBF1FB
:1019860002C0DCF103C0DDF1D5C1E1FFD6C1E2FF43
:10199600DD51300FE66ED54BD62BDF2B800EE219CC
:1019A600006E800E010A005C08E3800E060A006ED7
:1019B600800EE219005C01E30BD0D5C1E1FFD6C170
:1019C600E2FF2E0EE66ED54BD62B010EDE6FDF2B19
:1019D600060ED96FD951000A58E0DD6BDAC100F066
:1019E600DBC101F0DCC102F0DDC103F0003600907E
:1019F60001360236033600360090013602360336CB
:101A0600DA510026DB510122DC510222DD5103228C
:101A160000C0DAF101C0DBF102C0DCF103C0DDF188
:101A2600DAC100F0DBC101F0DCC102F0DDC103F078
:101A36000036009001360236033600C0DAF101C0E6
:101A4600DBF102C0DCF103C0DDF1D5C1E1FFD6C197
:101A5600E2FFDD51300FE66ED54BD62BDF2BDE5184
:101A6600000A11E1E207E251000A0DE1010EE16F01
:101A7600D5C1E1FFD6C1E2FF2E0EE66ED54BD62BC1
:101A8600010EDE6FDF2BD907A5D7E151010AD8B4C5
:101A9600DF07FF0ED525E96EFF0ED621EA6EEE5062
:101AA6002E0A05E1010ED55F000ED65BDF07800E1C
:101AB600000A006E800EE219005C02E2010EE06F81
:101AC600800EE219006E800E000A005C02E2020E31
:101AD600E06FE2C1D9F1800E090A006E800EE219AC
:101AE600005C02E3E02B02D0020EE027E051DF2586
:101AF600016E026A000E0222800E0218006E800E2F
:101B0600005C02E1D751015C0AE2D5C1E1FFD6C112
:101B1600E2FF300EE66ED54BD62BDF2BE7D7E25130
:101B2600000A43E0D5C1E1FFD6C1E2FF650EE66ECD
:101B3600D54BD62B800EE219006E800E000A005C93
:101B46000BE2D5C1E1FFD6C1E2FF2D0EE66ED54B05
:101B5600D62BE2510008E26FE2C1D9F1800E090AE4
:101B6600006E800EE219005C0FE20A0E046ED9C107
:101B760000F0C5EC06F0D5C1E1FFD6C1E2FF00508A
:101B8600300FE66ED54BD62B0A0E046ED9C100F087
:101B9600C5EC06F008C000F0D5C1E1FFD6C1E2FFF2
:101BA6000050300FE66ED54BD62BE051DF25006E88
:101BB60000C0DFF1D751005C016E01C0D9F1800E83
:101BC600000A006E800E0118005C0EE2800E000A0C
:101BD600006E800ED919005C06E2D907010ED55FAA
:101BE600000ED65BF3D718D0800ED919006E800E82
:101BF600000A005C11E2800ED919006E800E000A00
:101C0600005C0AE2D92BD5C1E1FFD6C1E2FF300E56
:101C1600E66ED54BD62BEFD7D5C1E1FFD6C1E2FF95
:061C2600E66A006A1200EC
:041C2C00809812008A
:101C30000101D26BD36BD46BD56BD16B640ED15DCC
:101C40001AE2E36B8FEC06F0B0EC06F0D2C104F0C0
:101C5000D3C105F0D4C106F0D5C107F07CEC04F087
:101C600000C0D2F101C0D3F102C0D4F103C0D5F15C
:101C70000101D12BE3D7000E046E000E056E480E55
:101C8000066E850E076ED2C100F0D3C101F0D4C13B
:101C900002F0D5C103F031EC03F0000E046E000E2B
:101CA000056E200E066E810E076EEBEC03F0AEECB7
:041CB00007F0120027
:101CB4000101D56B050ED55D0AE2D551D325E16E40
:101CC400000ED421E26E200EE66ED52BF3D7D5514B
:101CD400D325E16E000ED421E26EE66AD507D55114
:101CE400D325D66F000ED421D76F0A0E046E000ED2
:101CF400056ED1C100F0D2C101F07AEC09F008C040
:101D040000F009C001F0300E0026D6C1E1FFD7C1B2
:101D1400E2FF00C0E6FF0A0E046E000E056ED1C19C
:101D240000F0D2C101F07AEC09F000C0D1F101C099
:101D3400D2F1000E011802E1000E001801E102D0F8
:061D4400D507CDD7120007
:061D4A00808A809A12005D
:101D50000101D26BD36BD46BD56BD16B640ED15DAB
:101D60001BE2020EE36F8FEC06F0B0EC06F0D2C17E
:101D700004F0D3C105F0D4C106F0D5C107F07CEC66
:101D800004F000C0D2F101C0D3F102C0D4F103C00D
:101D9000D5F10101D12BE2D7000E046E000E056EC5
:101DA000480E066E850E076ED2C100F0D3C101F059
:101DB000D4C102F0D5C103F031EC03F0AEEC07F072
:021DC00012000F
:101DC200D2C1D6F10101D651D45D0CE3D1C1E3F108
:101DD200D3C1E4F1D6C1E5F1D5C1E6F114EC07F0C7
:061DE200D62BF0D7120021
:041DE80080881200DD
:101DEC00000E0101D45D02E1800ED35D01E33BD016
:101DFC00000ED65D02E1400ED55D01E334D0D76B09
:101E0C00D86BD3C1E3F1D4C1E4F1D5C1E5F1D6C1AE
:101E1C00E6F158DCD751D125E96ED851D221EA6EC2
:101E2C00EE5221E06451651111E0D751D125E96ED4
:101E3C00D851D221EA6EEECFE3F1000EE46F000E22
:101E4C00E46F95EC09F0D74BD82B0CD0D751D1259A
:101E5C00E96ED851D221EA6EEECFE3F16EEC08F0C8
:081E6C00D74BD82BD7D7120089
:081E7400067E7CEC04F0120074
:101E7C00000E0101D35D04E3D3517F0801E301D0CF
:101E8C0029D0000ED15DD8A0D16BD1513F0802E210
:101E9C003F0ED16F000ED25DD8A0D26BD2513F084D
:101EAC0002E23F0ED26FD151D25D06E2D1C1D5F123
:101EBC00D2C1D1F1D5C1D2F1D151D25D0BE3D3C195
:101ECC00FDF1D1C1FEF1D4C1FFF126EC01F001010D
:061EDC00D12BF2D7120029
:101EE2000101D36BD46BD1C103F0D2C104F0D1C1D3
:101EF20005F0D2C106F003C0E9FF04C0EAFFEE50CC
:101F0200200A04E1D351D41101E110D0010ED36FA4
:101F1200000ED46F03C0E9FF04C0EAFF05C0E1FF71
:101F220006C0E2FFEECFE6FF054A062A03C001F033
:101F320004C002F0034A042A01C0E9FF02C0EAFF1A
:101F4200EE50000AD8E1D1C100F0D2C101F0120076
:101F520000C008F00150006E016A026A036A0B6A4F
:101F62000C6A016A026A036A960E036E0A6A00AE7E
:101F7200C1EF0FF0081E001E082AD8B4002A0A8EEC
:101F820000C001F008C000F0086A026AEFEC01F03C
:021F920012003B
:101F9400819281800101C46BC451070811E3C4C15B
:101FA4000DF265EC00F00101C36BC3513F0806E379
:101FB400C2C10DF252EC00F0C32BF7D7C42BECD7FF
:101FC40081908182C46BC451070811E3C4C10DF22E
:101FD40065EC00F00101C36BC3513F0806E3C2C1C5
:101FE4000DF252EC00F0C32BF7D7C42BECD7120040
:101FF400000E0101C71902E1000EC61909E1C2C1B0
:10200400FDF1C4C1FEF1C8C1FFF126EC01F0E3D03B
:102014000101CD6BCE6BC251C45DCF6FC351C559A5
:10202400D06FC6C1CBF1C7C1CCF1C6C100F0C7C1E6
:1020340001F000360090013600C0C9F101C0CAF1B8
:1020440000500308C96F01C0CAF1000ECA57010E3F
:10205400CB25016E000ECC21026E800ECE19006ECF
:10206400800E0218005C02E10150CD5DD8B0B3D0FF
:10207400CD51C225FD6FCB51C425FE6FC8C1FFF100
:1020840026EC01F00101CD51C225FD6FCB51C45D99
:10209400FE6FC8C1FFF126EC01F0800E006E800EC9
:1020A4000101CE19005C02E1CD51000815E2CD51C9
:1020B400C25DFD6FCB51C425FE6FC8C1FFF126EC94
:1020C40001F00101CD51C25DFD6FCB51C45DFE6FC6
:1020D400C8C1FFF126EC01F00101CE51CC1902E197
:1020E400CB51CD193CE0CB51C425FD6FCF51FD5FE1
:1020F400CD51C425FE6FC8C1FFF126EC01F00101EA
:10210400CB51C45DFD6FCF51FD5FCD51C425FE6F32
:10211400C8C1FFF126EC01F0800E006E800E0101B3
:10212400CE19005C02E1CD51000819E2CB51C4255F
:10213400FD6FCF51FD5FCD51C45DFE6FC8C1FFF18E
:1021440026EC01F00101CB51C45DFD6FCF51FD5F61
:10215400CD51C45DFE6FC8C1FFF126EC01F0800EC5
:102164000101CA19006E800E005C02E1000EC95D17
:1021740013E2CDC100F0CEC101F00036009001366B
:10218400003600900136060E0026000E0122005093
:10219400C9270150CA231CD0CB51CD5D036ECC514D
:1021A400CE59046E03C000F004C001F00036009064
:1021B40001360036009001360A0E0026000E012278
:1021C4000050C9270150CA23010ECB5F000ECC5B1F
:0821D400CD4BCE2B3CD71200CD
:1021DC00C2C1E3F1C4C1E4F1C3C1E5F1C6C1E6F18A
:1021EC0014EC07F0C2C1E3F1C4C1E4F1C5C1E5F1DF
:1021FC00C6C1E6F114EC07F0C3C1D1F1C5C1D2F1EF
:10220C00C2C1D3F1C6C1D4F133DEC3C1D1F1C5C152
:0E221C00D2F1C4C1D3F1C6C1D4F12ADE120042
:10222A000101C66BC76BC86BC651070849E30201B7
:10223A000D6B80EC00F0C6C10DF265EC00F00D6B81
:10224A006DEC00F00101C56BC5513F0812E3C7519F
:10225A00C225F66EC851C321F76E000EC421F86E6E
:10226A000900F5CF0DF252EC00F0C74BC82BC52B75
:10227A00EBD7400E02010D6F80EC00F0C6C10DF2E3
:10228A0065EC00F0400E0D6F6DEC00F0400E0101A0
:10229A00C56FC5517F0812E3C751C225F66EC851F2
:1022AA00C321F76E000EC421F86E0900F5CF0DF2B6
:1022BA0052EC00F0C74BC82BC52BEBD7C62BB4D7B3
:0222CA00120000
:1022CC00010E0101C66F000EC76FACDC71EC0BF098
:1022DC0000C07EF101C07FF102C080F103C081F12A
:1022EC00000E046EC00E056E7F0E066E880E076E15
:1022FC0031EC03F0000E046E000E056E480E066EF7
:10230C00850E076EEBEC03F000C082F101C083F187
:10231C0002C084F103C085F100C0D1F101C0D2F13B
:10232C0002C0D3F103C0D4F1860E0101D56F010EAA
:10233C00D66F040ED76F93EC0BF0860ED16F010E97
:10234C00D26FC9DDC6C100F0C7C101F0FCDDC2C14E
:10235C0004F0C3C105F0C4C106F0C5C107F07CECA4
:10236C0004F000C004F001C005F002C006F003C088
:10237C0007F07EC100F07FC101F080C102F081C185
:10238C0003F047EC07F0000ED8B0010E006E0052BF
:10239C0027E1C6C100F0C7C101F0D5DD00C004F0D3
:1023AC0001C005F002C006F003C007F0C2C100F086
:1023BC00C3C101F0C4C102F0C5C103F055DD7EC13B
:1023CC0004F07FC105F080C106F081C107F047EC35
:1023DC0007F0000ED8B0010E006E005201E143D0A0
:1023EC00460ED16F0F0ED26F5C0ED36F1E0ED46FD4
:1023FC00D56BE1DC8D0EE36F010EE46F860EE56F9D
:10240C00010EE66F47EC08F0EA0ED16F000ED26FAA
:10241C000A0ED36F000ED46F0F0ED56F000ED66F51
:10242C00DFDC860ED16F010ED26F480ED36F000E1B
:10243C00D46F0F0ED56F000ED66FD2DCE70ED16FB6
:10244C00000ED26F5D0ED36F000ED46F0F0ED56FD2
:10245C00000ED66FC5DC7EC1C2F17FC1C3F180C155
:08246C00C4F181C1C5F11200A9
:1024740084B216D084A014D08482010E0101A36F0B
:10248400000EA46F020EA96F000EAA6F820E0C6ECE
:10249400DD0E0D6E0D2EFED70C2EFCD700000000B5
:0224A400120024
:1024A60084928480010E0101A36F000EA46FA96BB4
:1024B600AA6B820E0C6EDD0E0D6E0D2EFED70C2E47
:0824C600FCD700000000120029
:1024CE000F0E0101C66F000EC76F3BDC71EC0BF0F7
:1024DE0000C0A5F101C0A6F102C0A7F103C0A8F18A
:1024EE00000E046E000E056E700E066E830E076EE5
:1024FE00EBEC03F0000E046EC00E056E7F0E066E42
:10250E00880E076E31EC03F000C09BF101C09CF108
:10251E0002C09DF103C09EF100C0D1F101C0D2F105
:10252E0002C0D3F103C0D4F1940E0101D56F010E98
:10253E00D66F040ED76F93EC0BF0940ED16F010E85
:10254E00D26FC8DCC6C100F0C7C101F0FBDCC2C14E
:10255E0004F0C3C105F0C4C106F0C5C107F07CECA0
:10256E0004F000C004F001C005F002C006F003C084
:10257E0007F0A5C100F0A6C101F0A7C102F0A8C1E5
:10258E0003F047EC07F0000ED8B0010E006E0052BB
:10259E0027E1C6C100F0C7C101F0D4DC00C004F0D1
:1025AE0001C005F002C006F003C007F0C2C100F082
:1025BE00C3C101F0C4C102F0C5C103F054DCA5C112
:1025CE0004F0A6C105F0A7C106F0A8C107F047ECBC
:1025DE0007F0000ED8B0010E006E005201E13DD0A2
:1025EE00460ED16F0F0ED26F590ED36F1E0ED46FD3
:1025FE00D56BE1EC0EF0F80ED16F000ED26F0A0E15
:10260E00D36F000ED46F0F0ED56F000ED66FF6EC93
:10261E000EF0940ED16F010ED26F460ED36F000ED8
:10262E00D46F0F0ED56F000ED66FF6EC0EF0020EB5
:10263E00D16F010ED26F5A0ED36F000ED46F0F0EE4
:10264E00D56F000ED66FF6EC0EF0A5C1C2F1A6C185
:0C265E00C3F1A7C1C4F1A8C1C5F112006E
:10266A000101C86BC96BC2C1CAF1C3C1CBF1800EEB
:10267A00C319006E800E005C02E1000EC25D0BE21F
:10268A00010EC86F000EC96FC2510008CA6FC3C1DC
:10269A00CBF1000ECB57CAC1D1F1CBC1D2F1C4C123
:1026AA00D3F1C5C1D4F15AEC0EF0060EC66F000E76
:1026BA00C76F000E006EC751005C02E1C6510008E8
:1026CA0019E2C651C425E16EC751C521E26E010E59
:1026DA00C65D006E000EC759016E0050C425E96E32
:1026EA000150C521EA6EEECFE6FF010EC65F000E6D
:1026FA00C75BDFD7C4C1E1FFC5C1E2FF200EE66EAA
:10270A00C851C9111AE0C66BC76BC651C425E96E18
:10271A00C751C521EA6EEE50200A03E1C64BC72B0A
:10272A00F4D7010EC65F000EC75BC651C425E16E21
:0C273A00C751C521E26E2D0EE66E1200A4
:1027460084B216D084A014D08490010E0101A36F28
:10275600000EA46F010EA96F000EAA6F820E0C6EFA
:10276600DD0E0D6E0D2EFED70C2EFCD700000000E0
:0227760012004F
:0627780016EC0EF0120049
:0A277E00F4EC0EF0A5EC0EF01200D2
:10278800000E0101A21902E1010EA1190DE1010ECD
:10279800D16F0D0ED26F7E0ED36F3E0ED46FD56BF8
:0C27A800E1EC0EF0A16BA26B8EDE1200C3
:1027B400000E0101581902E1010E5719D8A479D06D
:1027C400C26BC36B7F0EC46F3F0EC56F010EC66F25
:1027D40003DDD16BD26B7F0ED36F0C0ED46F010E61
:1027E400D56FE1EC0EF0F00E0201016F320E026FB4
:1027F400000E036F046B056B86EC01F0B6C1D1F1DA
:10280400B7C1D2F11E0ED36F000ED46F010ED56F77
:10281400000ED66FF6EC0EF0760EC26F000EC36F8C
:10282400060EC46F000EC56F060EC66F000EC76F8E
:10283400020EC86FFAEC0FF0000E0001941902E1C9
:10284400010E93190FE1830E0101D16F000ED26FB7
:10285400730ED36F000ED46F010ED56F000ED66FBA
:10286400F6EC0EF00101000E2F1902E1010E2E19F3
:102874000EE16E0ED16F000ED26F730ED36F000E89
:10288400D46F010ED56F000ED66FF6EC0EF0F00E7D
:102894000201016F320E026F000E036F010E046F0E
:1028A400056B86EC01F0576B586B010EA16F000E9F
:0428B400A26F1200FD
:1028B8000101766B646B656B939A939893949396E6
:1028C80093929390819A120E006E000E016E830E01
:1028D8000024E16E0F0E0120E26EE66A8194819673
:1028E80081928180818A3F0E836E1AEC00F0C00EBF
:1028F800836E1AEC00F0818281903F0E836E1AEC91
:0C29080000F0C00E836E1AEC00F012000C
:102914000900F5CFE6FF0006FBE10106F9E112002C
:102924000101C26BCAEC0FF082A408D0A30EC26FDF
:10293400380EC36F000EC46F76DCF6D7C26BCAECD8
:0C2944000FF0010E576F000E586F1200CC
:10295000000E0101BA6F000EBB6F700EBC6F840ECB
:10296000BD6F000EBE6F000EBF6F340EC06F840EC1
:10297000C16F18EC0EF071EC0BF0000E046EC00E7F
:10298000056E7F0E066E880E076E31EC03F0000EAA
:10299000046E000E056E480E066E850E076EEBEC9B
:1029A00003F000C0B6F101C0B7F102C0B8F103C036
:1029B000B9F100C004F001C005F002C006F003C088
:1029C00007F0BEC100F0BFC101F0C0C102F0C1C13B
:1029D00003F047EC07F0000ED8B0010E006E005275
:1029E000D8A48086BAC104F0BBC105F0BCC106F012
:1029F000BDC107F0B6C100F0B7C101F0B8C102F027
:102A0000B9C103F047EC07F0000ED8B0010E006E1C
:082A10000052D8A480961200C8
:102A1800000E0101A21902E1010EA1190DE1010E3A
:102A2800D16F0D0ED26F7E0ED36F3E0ED46FD56B65
:0C2A3800E1EC0EF0A16BA26B45DC12007B
:102A4400010E0101E36F8FEC06F000C09FF101C09D
:102A5400A0F1800E026E800E0118025C02E10050AB
:102A64000A080CE2050E0101D16F1E0ED26F500E42
:102A7400D36F280ED46FD56BE1EC0EF00101000E7C
:102A8400B51902E1010EB4194EE1A051B31902E1E6
:102A9400B2519F190FE0050ED16F320ED26F640E42
:102AA400D36F3C0ED46FD56BE1EC0EF09FC1B2F145
:102AB400A0C1B3F19FC1C2F1A0C1C3F1AB0EC46FF9
:102AC400010EC56FD0DDAB0ED16F010ED26F71EC6C
:102AD4000FF0AB0ED16F010ED26F280ED36F000E24
:102AE400D46F320ED56F000ED66FF6EC0EF0420E98
:102AF400D16F010ED26F050ED36F000ED46F320E5C
:102B0400D56F000ED66FF6EC0EF0020E0B6E450E6E
:102B14000C6EA90E0D6E0D2EFED70C2EFCD70B2EAF
:102B2400FAD700000000800EA019006E800E005C31
:102B340002E1500E9F5D19E3800E006E800EA01915
:102B4400005C02E19F51640810E392DC3A0E01013B
:102B5400D16F010ED26F050ED36F000ED46F1E0E0F
:102B6400D56F000ED66FF6EC0EF0800EA019006E35
:102B7400800E005C02E1780E9F5D18E3800E006E0B
:102B8400800EA019005C02E19F518C080FE389DCE0
:102B9400150ED16F010ED26F050ED36F000ED46FD8
:102BA4001E0ED56F000ED66FF6EC0EF0800EA01937
:102BB400006E800E005C02E1AA0E9F5D19E3800E98
:102BC400006E800EA019005C02E19F51BE0810E364
:102BD400B8DD100E0101D16F010ED26F050ED36F57
:102BE400000ED46F1E0ED56F000ED66FF6EC0EF0ED
:102BF400800EA019006E800E005C02E1C80E9F5D7D
:102C04001EE3800E006E800EA019005C02E19F514D
:102C1400DC0815E3300ED16F010ED26F050ED36FB1
:102C2400000ED46F1E0ED56F000ED66FF6EC0EF0AC
:102C3400000E2F1902E1010E2E1901E19BDD800E19
:102C4400A019006E800E005C02E1E60E9F5D1EE39B
:102C5400800E006E800EA019005C02E19F51F00806
:102C640015E3230ED16F010ED26F050ED36F000E44
:102C7400D46F1E0ED56F000ED66FF6EC0EF0000E5C
:102C84002F1902E1010E2E1901E177DD800EA01942
:102C9400006E800E010A005C02E1360E9F5D2AE39D
:102CA400800E010A006E800EA019005C02E19F51A3
:102CB4004A0820E3000E2F1902E1010E2E191AE131
:102CC400050ED16F010ED26F050ED36F000ED46FB7
:102CD4001E0ED56F000ED66FF6EC0EF02E6B2F6B1A
:102CE400010E0001936F000E946F010E0101576FE6
:102CF400000E586F800EA019006E800E020A005C50
:102D040002E14E0E9F5D2CE3800E020A006E800EDF
:102D1400A019005C02E19F51620822E3000E000149
:102D2400941902E1010E93191BE1950E0101D16F73
:102D3400000ED26F050ED36F000ED46F1E0ED56F2A
:102D4400000ED66FF6EC0EF0010E2E6F000E2F6FF4
:102D54000001936B946B010E0101576F000E586FC5
:102D64000101800EA019006E800E020A005C02E1CF
:102D7400A80E9F5D19E3800E020A006E800EA01952
:102D8400005C02E19F51BC080FE38D0ED16F000E71
:102D9400D26F050ED36F000ED46F1E0ED56F000ECA
:102DA400D66FF6EC0EF08078800EA019006E800EBF
:102DB400030A005C02E13E0E9F5D31E3800E030ACC
:102DC400006E800EA019005C02E19F51520827E3B7
:102DD400850ED16F000ED26F050ED36F000ED46F27
:102DE4001E0ED56F000ED66FF6EC0EF0000EB51960
:102DF40002E1000EB41913E1800E5419006E800E26
:102E04005619005C02E15551535D03E2534B542BB8
:102E140002D0536B546B010E576F000E586F800E27
:102E2400A019006E800E030A005C02E1700E9F5D23
:102E34003FE3800E030A006E800EA019005C02E1DD
:102E44009F51840835E3AF0ED16F000ED26F050E8B
:102E5400D36F000ED46F1E0ED56F000ED66FF6EC36
:102E64000EF0060E0B6E130E0C6EAD0E0D6E0D2EC7
:102E7400FED70C2EFCD70B2EFAD700000000B4515D
:102E8400B511010ED8A4000EB46F000EB56F000E7C
:102E9400B51902E1000EB4190BE1050ED16F320E23
:102EA400D26F640ED36F3C0ED46FD56BE1EC0EF091
:102EB400800EA019006E800E030A005C02E1D40E9D
:102EC4009F5D34E3800E030A006E800EA019005C3F
:102ED40002E19F51E8082AE3B80ED16F000ED26FC9
:102EE400050ED36F000ED46F1E0ED56F000ED66F75
:102EF400F6EC0EF0000EB51902E1000EB41916E15D
:102F0400800E006E800E5419005C02E153510008DB
:102F140005E2010E535F000E545B04D055C153F11A
:0E2F240056C154F1010E576F000E586F120087
:102F3200000E0101A21902E1010EA11911E1010E17
:102F4200D16F0D0ED26F7E0ED36F3E0ED46FD56B46
:102F5200E1EC0EF0010EA36F000EA46FA16BA26B49
:102F6200000EA41902E1010EA319D8A41BD1C26B51
:102F7200330EC36F7F0EC46F3F0EC56F010EC66F57
:102F8200EEEC10F0010ED16F340ED26F7E0ED36FC5
:102F92003E0ED46FD56BE1EC0EF0F0D0610ED16F26
:102FA200000ED26F060ED36F000ED46F340ED56FA3
:102FB200000ED66FF6EC0EF02B0ED16F330ED26FE1
:102FC200550ED36F3E0ED46F010ED56FE1EC0EF0AD
:102FD200F00E0201016F320E026F000E036F046BDE
:102FE200056B86EC01F0660ED16F000ED26F370EC4
:102FF200D36F000ED46F340ED56F000ED66FF6EC81
:103002000EF0F00E0201016F320E026F000E036F1E
:10301200010E046F056B86EC01F06A0ED16F000E93
:10302200D26F600ED36F000ED46F340ED56F000EC8
:10303200D66FF6EC0EF0A36BA46BB4D0010ED16F79
:10304200330ED26F2A0ED36F3E0ED46F010ED56FA0
:10305200E1EC0EF0F00E0201016F320E026F000E73
:10306200036F046B056B86EC01F0C10ED16F000E8D
:10307200D26F060ED36F000ED46F340ED56F000ED2
:10308200D66FF6EC0EF0F00E0201016F320E026FF7
:10309200000E036F010E046F056B86EC01F0D30E78
:1030A200D16F000ED26F370ED36F000ED46F340E75
:1030B200D56F000ED66FF6EC0EF0D70ED16F000E64
:1030C200D26F600ED36F000ED46F340ED56F000E28
:1030D200D66FF6EC0EF0A36BA46B64D0DB0ED16F4F
:1030E200000ED26F060ED36F000ED46F340ED56F62
:1030F200000ED66FF6EC0EF0CF0ED16F000ED26F2F
:10310200370ED36F000ED46F340ED56F000ED66F0C
:10311200F6EC0EF0550ED16F330ED26F7E0ED36FDA
:103122003E0ED46F010ED56FE1EC0EF0F00E0201EF
:10313200016F320E026F000E036F046B056B86EC9B
:1031420001F0CB0ED16F000ED26F600ED36F000E66
:10315200D46F340ED56F000ED66FF6EC0EF0F00E73
:103162000201016F320E026F000E036F010E046F37
:10317200056B86EC01F0A36BA46B14D0000EAA19A8
:1031820002E1000EA919D8B409D7000EAA1902E16A
:10319200010EA919D8B452D7000EAA1902E1020EE3
:0631A200A9199CE01200D7
:1031A800ECEC1EF09C0E0101596F000E5A6F3B0E9D
:1031B800516F000E526F4E0E4D6F000E4E6F150E72
:1031C8004B6F000E4C6F280E496F000E4A6F700E41
:1031D8004F6F000E506F060E556F000E566F0C0E97
:1031E800C112070EB412070E926E800E946EF00E86
:1031F800956E966A816A826A836A846A5CEC14F0C6
:10320800C26BCAEC0FF0040E536F000E546F010E20
:10321800576F000E586FB46BB56B010EA96F000E97
:10322800AA6F80968098809A2FD059C1B6F15AC15A
:10323800B7F1DAEC13F079DE4CD051C1B6F152C1D6
:10324800B7F1DAEC13F045D04DC1B6F14EC1B7F184
:10325800DAEC13F03ED04BC1B6F14CC1B7F1DAEC61
:1032680013F037D049C1B6F14AC1B7F1DAEC13F01F
:103278000CEC15F02ED04FC1B6F150C1B7F1DAEC15
:1032880013F0C4EC13F025D00101000E541902E12B
:10329800000E5319CAE0000E541902E1010E531929
:1032A800CCE0000E541902E1020E5319CDE0000ED5
:1032B800541902E1030E5319CEE0000E541902E12D
:1032C800040E5319CFE0000E541902E1050E5319EC
:1032D800D2E022EC15F0A8EC14F082A403D092EC12
:0832E80014F0FBD7A1D7FFD7BA
:103DD80010EE15F0340E006E020E016EA30EF66E94
:0E3DE8003C0EF76E000EF86E8AEC14F012001E
:1032F000000020007F000B00018801000193010005
:10330000039E010007A9010005B4010009BF0100E7
:1033100006D5010001E0010003EB010002F6010007
:1033200005010200060C0200021702000222020040
:10333000022D02000338020004430200044E020082
:103340000459020004640200056F0200047A0200BE
:103350000485020004900200049B020004A60200FF
:1033600002B1020002BC020006C7020006D202003F
:1033700006DD020004E8020007F3020006FE020078
:103380000509030006140300061F0300052A0300B5
:103390000535030006400300064B030003560300F7
:1033A00003610300056C0300047703000782030038
:1033B000068D03000798030005A3030007AE030072
:1033C00005B9030005C4030005CF030006DA0300B6
:1033D00006E5030007F0030004FB030005060400F4
:1033E00004110400021C040003270400023204003C
:1033F000053D04000548040003530400045E040076
:103400000469040003740400047F0400048A0400B7
:103410000395040004A0040004AB040001B60400FA
:1034200002C1040004CC040001D7040007E2040038
:1034300004ED040004F8040004030500040E050074
:103440000319050003240500022F0500043A0500B6
:103450000545050007500500035B050005660500EE
:1034600003710500037C0500028705000392050037
:10347000069D050002A805000000000000000000F5
:103480000000000000010101010100010000000531
:10349000050500000000000000000024247E143F09
:1034A000121200000000041E05060C140F04040094
:1034B000000000460029002900D60028012801C488
:1034C0000000000000000006090916091926000086
:1034D00000010101000000000000000004020101E1
:1034E00001010101020400000102020202020201C4
:1034F0000004150E15040000000000000000000884
:10350000083E080800000000000000000000020261
:1035100001000000000000000300000000000000A7
:103520000000000002020000000404020202020285
:103530000101000000060909090909060000000050
:103540000406040404040E00000000070808040236
:10355000010F000000000708080608080700000027
:1035600000080C0A091F0808000000000F010107ED
:10357000080807000000000601010709090600000D
:1035800000000F08040402020100000000060909FF
:1035900006090906000000000609090E08080600D1
:1035A0000000000000020200020200000000000013
:1035B0000202000202010000000000201C021C2088
:1035C000000000000000003F003F0000000000007D
:1035D00000021C201C020000000007080804020072
:1035E00002000000001C2259555539021C00000041
:1035F0000C0C12123F2121000000000709090F11D5
:10360000110F000000001C22010101221C0000001B
:10361000000F11212121110F000000001F01010FD7
:1036200001011F000000001F01010F010101000046
:1036300000001C22013921223C0000000021212130
:103640003F212121000000000702020202020700C0
:103650000000000604040404040300000000110933
:103660000503050911000000000101010101010F1E
:1036700000000000636355554949410000000021E6
:10368000232529312121000000001C224141412233
:103690001C000000000F1111110F010100000000BB
:1036A0001C22414141221C106000000F11110F0526
:1036B0000911000000001E01010E10100F00000093
:1036C000001F04040404040400000000212121213F
:1036D00021211E0000000021212112120C0C0000EB
:1036E00000004949555555222200000000090906ED
:1036F0000606090900000000110A0A040404040077
:103700000000000F08040202010F00000003010185
:103710000101010101010300010102020202020490
:10372000040000030202020202020202030000047B
:103730000A1100000000000000000000000000006E
:1037400000001F0002040000000000000000000054
:10375000000006080E090E0000000101010709091A
:10376000090700000000000006010101060000003A
:103770000808080E0909090E0000000000000609EB
:103780000F010E0000000601010701010101000008
:10379000000000000E0909090E08060001010107DA
:1037A00009090909000000000100010101010100EF
:1037B00000000002000302020202020100010101F6
:1037C00009050305090000000101010101010101D2
:1037D000000000000000374949494900000000008E
:1037E000000709090909000000000000060909098D
:1037F0000600000000000007090909070101000098
:1038000000000E0909090E08080000000005030168
:103810000101000000000000070102040700000091
:10382000000001030101010200000000000009097D
:1038300009090E000000000000110A0A0A04000035
:103840000000000049495536220000000000000534
:1038500002020205000000000000110A0A0A040426
:103860000200000000070402010700000004020239
:103870000202010202020400020202020202020229
:103880000202000102020202040202020100000020
:1038900000002619000000000000000303030303DA
:0338A00000000025
:1038A3000000000000000000000000000000000015
:1038B3000000000000000000000000000000000005
:1038C30000000000000000000000000000000000F5
:1038D30000000000000000000000000000000000E5
:1038E30000000000000000000000000000000000D5
:1038F30000000000000000000000000000000000C5
:1039030000000000000000000000000000000000B4
:1039130000000000000000000000000000000000A4
:103923000000000000000000000000000000000094
:103933000000000000000000000000000000000084
:103943000000000000000000000000000000000074
:103953000000000000000000000000000000000064
:103963000000000000000000000000000000000054
:103973000000000000000000000000000000000044
:103983000000000000000000000000000000000034
:103993000000000000000000000000000000000024
:1039A3000000000000808080808080808000000014
:1039B3008080800000000080808000000080808084
:1039C3008080808080000000008080808080800074
:1039D30000000000000000808080808080000000E4
:1039E3000080A0B89898B0A080000000808080007C
:1039F30000000000808000000000000080808080C4
:103A030000000000008080808080808080000000B3
:103A130000000080808080000000000000000000A3
:103A23000000000000FFFFFF3131313131000000A1
:103A3300FFFF073FF0F01F07FFFF000000FFFFFF3E
:103A4300313131313100000000FFFF6161E1F3BF2B
:103A53001F000000FCFE070301313131F1F30000C8
:103A630000FFFFFF3131313131000000FFFF0F1F35
:103A73007CF0C080FFFF0000F8FEFF03030101019B
:103A83000100000000010101FFFF0101010000002E
:103A930000E0FC9F8387BFFCE00000000000000003
:103AA30000000000000F0F0F0C0C0C0C0C000000AA
:103AB3000F0F0000000000000F0F0000000F0F0F9A
:103AC3000C0C0C0C0C000000000F0F000000030F87
:103AD3000E0800000107070E0C0C0C0C0F0700006A
:103AE300000F0F0F0C0C0C0C0C0000000F0F00004C
:103AF3000001070F0F0F00000103070E0C0C0C0C45
:103B030006000000000C0C0C0F0F0C0C0C0000083E
:103B13000F0F0101010101030F0F0000000000005E
:103B23000000000000000000000000000000000092
:103B33000000000000000000000000000000000082
:103B43000000000000000000000000000000000072
:103B53000000000000000000000000000000000062
:103B63000000000000000000000000000000000052
:103B73000000000000000000000000000000000042
:103B83000000000000000000000000000000000032
:103B93000000000000000000000000000000000022
:103BA3000000000000000000000000000000000012
:103BB3000000000000000000000000000000000002
:103BC30000000000000000000000000000000000F2
:103BD30000000000000000000000000000000000E2
:103BE30000000000000000000000000000000000D2
:103BF30000000000000000000000000000000000C2
:103C030000000000000000000000000000000000B1
:103C130000000000000000000000000000000000A1
:103C23000000000000000000000000000000000091
:103C33000000000000000000000000000000000081
:103C43000000000000000000000000000000000071
:103C53000000000000000000000000000000000061
:103C63000000000000000000000000000000000051
:103C73000000000000000000000000000000000041
:103C83000000000000000000000000000000000031
:103C93000000000000000000000000000000000021
:103CA300202033202D204672657175656E6369612E
:033CB300202000CE
:103CB6002034202D2054656D7065726174757261B3
:033CC600202000BB
:103CC9002031202D2054656E73616F205265646523
:033CD900202000A8
:103CDC002032202D20436F7272656E746520526500
:033CEC006465000C
:053CEF005245444500B0
:043CF4004F464600F1
:043CF800474D4700ED
:023CFC004D0079
:103CFE0035202D2054656E73616F2042617465729C
:033D0E00696100E8
:023D110041006F
:083D13004469726569746100E6
:063D1B005265736574009F
:023D21000000A0
:073D23004D616E75616C003B
:103D2A0020202030202D205072696E636970616CEA
:033D3A0020200046
:093D3D0043616C6962726172005D
:093D46004573717565726461003A
:053D4F0052454445004F
:013D5400006E
:043D5500494E46008D
:043D5900474D47008B
:043D5D004F46460087
:043D61004F46460083
:043D6500474D47007F
:053D6900524544450035
:013D6E003024
:043D6F004E614E0053
:023D730030001E
:033D7500432000E8
:0E3D780054656D70657261747572613A200059
:0A3D8600426174657269613A200021
:033D9000562000BA
:0B3D93004175746F6D617469636F000F
:053D9E005265646500A0
:0E3DA3004465736C696761204361726761005B
:0B3DB10050617274697220474D47009A
:023DBC00010004
:0A3DBE00506172617220474D47000A
:083DC80047657261646F72002F
:073DD000426F74616F3A00BD
:020000040030CA
:0E000000044C191EFF0380FF0FC00FE00F40DD
:00000001FF
