:100000006FEF1AF00000000000EF00F000000000A9
:0A0010000000000000000000F3D71C
:0C001C00100E0D6E0D2EFED7000012001D
:0A002800F9DF8188F7DF81981200EC
:0C003200000000000000000000001200B0
:10003E00120E006E000E016E830E0024E16E0F0E86
:10004E000120E26EFF0EE66EEDDFECDF818481981B
:10005E0081868188DCDF83CF58F481988196E2DF38
:10006E00E1DF120E006E000E016E830E0024E16EB3
:0E007E000F0E0120E26EE66A58C400F0120078
:10008C007F0E04015815006E00C058F481948196BF
:10009C00BF0E001600C058F4008C00C058F400C00D
:0600AC0083FFBCDF12001F
:0E00B200026A016A006A086A036A000E120000
:1000C000F250026EF29E0500FF6A0150FE6E005073
:0800D000FD6E02BEF28E12006B
:0E00D80081988184819658C483FFA2DF1200B4
:1000E6007F0E04015815016E01C058F401AC03D00F
:0C00F6008182819002D0819281801200F2
:100102000B820BAE8BEF00F0036802680168006897
:080112000A360232FF0E120052
:10011A0081948196B80E04015811836E80DF120013
:10012A000B840BAEA0EF00F0010E036E026A016AA7
:0A013A00006A0A360232FF0E1200BE
:080144000AAE029E000E12003B
:08014C000B6A0B86FF0E120086
:100154000CB0ECEF00F00CA292EF01F00E6A000E6E
:10016400026403EF01F0F00E0214D8A4CEEF00F005
:10017400023A01380F0B02260138F00B016E0038E9
:100184000F0B01260038F00B006E08380F0B002609
:100194000838F00B086E0E84D89002BEE7EF00F02A
:1001A40008360036013602360E2A02BEE7EF00F0AA
:1001B40008360036013602360E2A02BEE7EF00F09A
:1001C40008360036013602360E2A0E50036488EFD4
:1001D40001F0035E0BBC08AE8DEF01F0D880800EF9
:1001E40008640030000E002201220222D8A08DEF04
:1001F40001F0023201320032034A92EF01F08DEF36
:1002040001F001C002F000C001F008C000F0086A6B
:10021400000E0E8602643AEF01F0F00E0214D8A428
:1002240022EF01F0023A01380F0B02260138F00BDD
:10023400016E00380F0B01260038F00B006E0E849F
:10024400D89002BEE7EF00F00036013602360E2ADF
:1002540002BEE7EF00F00036013602360E2A02BE77
:10026400E7EF00F00036013602360E2AE7EF00F021
:1002740001C002F000C001F0006A000E0E960E8864
:10028400026467EF01F0F00E0214D8A452EF01F0FB
:10029400023A01380F0B02260138F00B016E0E846E
:1002A400D89002BEE7EF00F0013602360E2A02BEF5
:1002B400E7EF00F0013602360E2A02BEE7EF00F047
:1002C400013602360E2AE7EF00F001C002F0016A9F
:1002D400000E0E86026497EF01F0F00E0214D8A40B
:1002E40076EF01F0023A0E84D89002BEE7EF00F0F8
:1002F40002360E2A02BEE7EF00F002360E2A02BED4
:10030400E7EF00F002360E2AE7EF00F0010E0C6E64
:100314000ADF9AEF01F0020E0C6E12DF9AEF01F081
:10032400040E0C6EECDE9AEF01F0080E0C6EBFDECC
:020334001200B5
:100336000B800BAEA7EF01F0026A0AAEFF0E026E4B
:0C034600016E006E0A360232FF0E12003B
:10035200E20E0401566F030E576F000E006E4F51EE
:10036200005C02E14E51000843E2E0C3E1FFE1C359
:10037200E2FF4AC4E6FF4BC4E6FF4CC4E6FF4DC4AD
:10038200E6FF4EC4E6FF4FC4E6FF520EE66E040ED1
:10039200E66EDEC300F0DFC301F091DE00C054F46C
:1003A20001C055F40401506B516B5351515D02E190
:1003B2005251505D11E254C4E9FF55C4EAFF56C4DC
:1003C200E1FF57C4E2FFEECFE6FF564B572B544BEB
:1003D200552B504B512BE9D752514E5F53514F5B26
:1003E20052514A2753514B23000E4C234D23B5D76C
:0203F2001200F7
:1003F4004AC4BEF34BC4BFF34CC4C0F3020E0401A1
:100404004A25F66E000E4B21F76E000E4C21F86E55
:100414000900F5CF04F0030E4A25F66E000E4B21B9
:10042400F76E000E4C21F86E0900F5CF03F003C0FF
:1004340001F0006A045000240301C56F000E01207E
:10044400C66F040E04014A25F66E000E4B21F76EAA
:10045400000E4C21F86E0900F5CF04F0050E4A2574
:10046400F66E000E4B21F76E000E4C21F86E09005B
:10047400F5CF03F003C001F0006A04500024030127
:10048400C36F000E0120C46F060E04014A25F66EE8
:10049400000E4B21F76E000E4C21F86E0900F5CFCB
:1004A400BCF3000E0301BD6F4DC4DCF3000EDD6F21
:1004B4004EC4B9F3010E01016F6F0301C16BC26B2E
:0204C400120024
:0C04C600240E0D6E0D2EFED7000012005B
:1004D2000B6A0A6A096A00500402F4CF09F0F3CFEA
:1004E20008F001500502F4CF0BF0F3CF0AF00050F0
:1004F2000502F3500926F4500A22E86A0B22015041
:100502000402F3500926F4500A22E86A0B2208C0BA
:1005120000F009C001F00AC002F00BC003F01200A3
:10052200000E04014A5D0AE34A517F0807E3000E08
:100532004B5D04E34B513F0801E301D04AD04AC46A
:1005420058F4D0DD4BC458F45833589F5833589F51
:100552005833589FE1DD4AC458F497DD6FDD00C07F
:100562004FF46CDD00C04FF44BC458F45833589F1D
:100572005833589F5833589FCFDD4AC458F485DD0D
:10058200070E4B15006E00C04DF400C001F0010EC5
:10059200006E015004E000360090FF0FFBD700C050
:1005A2004DF4001C4E6F09D04E514F170FD04D51D4
:1005B2004F130CD04D514F1B09D04C51000AF4E09F
:1005C2004C51010AF4E04C51020AF4E04FC458F4D1
:0405D20082DD1200B4
:1005D6000C6A0E6A0250D8A404EF03F001C002F0C0
:1005E60000C001F0006A0E860250D8A404EF03F0A2
:1005F60001C002F0016A0E960E880250D8B416EFBA
:1006060003F00E50035ED8A4D8A01BEF03F0D890D9
:1006160002BE20EF03F0003601360236032E0BEF42
:1006260003F01BEF03F0010E0C6E40DD23EF03F029
:10063600020E0C6E77DD23EF03F0040E0C6E7FDDE9
:020646001200A0
:10064800086A096A000E07620364A9EF03F0025002
:1006580006180A6E075003267E0ED8A03AEF03F05C
:10066800035ED8B0ADEF03F03EEF03F0035ED8A011
:10067800B1EF03F0028E068E02C00EF001C00BF03F
:1006880000C00DF000500402F4CF0CF00150050238
:10069800F4CF00F0F3CF08F00402F3500C26F45026
:1006A8000822000E00220D500502F3500C26F450CB
:1006B8000822000E002202500402F3500826F450CB
:1006C800002202500502016A000E0122F3500026A2
:1006D800F45001220D500602F3500826F45000226F
:1006E800026A000E012202220B500602F350002675
:1006F800F4500122000E02220E500602F350012689
:10070800F450022202BE91EF03F00836003601369B
:1007180002360306D8B4B1EF03F0A4EF03F0D88093
:10072800800E08640030000E002201220222D8A0A8
:10073800A4EF03F0023201320032034AADEF03F0B6
:100748000AAE029E000EB3EF03F0010EAEDCB3EF6B
:1007580003F0020ED2DCB3EF03F0040EE2DC120069
:0E076800ACB202D00000FCD730C4ADFF1200CE
:10077600000E0401325D04E332513F0801E301D06B
:1007860027D0000E305DD8A0306B30517F0802E2D2
:100796007F0E306F000E315DD8A0316B31517F086E
:1007A60002E27F0E316F3051315D06E230C434F41F
:1007B60031C430F434C431F43051315D09E330C40E
:1007C6004AF432C44BF433C44CF4A8DE302BF4D7CD
:0207D60012000F
:1007D8000D6A086A0050D8B4000C04180A6E0ABEE4
:1007E8000D1E0B6A04AE02D0041E042A00AE02D00D
:1007F800001E002A005004100A6E0ABE1FD00450C2
:10080800085E003600340836045008260036060E06
:100818000C6E00340836045000B0085E00A00826AC
:1008280000360C2EF6D700A008260BB015D00DAE5A
:10083800000C001E002A081E082A000C04AE09D06D
:1008480000BE04D00050086E006AF1D7006A002A82
:10085800000C001E0B2AD3D7082A0450085CD8A421
:0E086800E6D7086A002A00AEE2D7FF0C1200A5
:10087600025006180E6E086A096A0B6A035007646E
:100886002EEF05F006500A6E068E028E03500B6E92
:100896000750036E000E0B647EEF04F00B50075EEC
:1008A600D8B41FEF05F0070E0764EDEF04F0075EFE
:1008B60000C008F001C000F002C001F0026A074E55
:1008C6001FEF05F00764C2EF04F0075E00C008F0F2
:1008D60001C000F0016A074E1FEF05F00764A0EFA4
:1008E60004F0075E00C008F0006A074E1FEF05F02F
:1008F600076487EF04F00AC002F005C001F004C0E7
:1009060000F0086A4BEF06F0030E076492EF04F05E
:10091600075E08380F0B086E074E1FEF05F0D890DC
:100926000832074E1FEF05F0D8900832074E1FEF2A
:1009360005F0D89008321FEF05F0030E0764B1EFFB
:1009460004F0075E08380F0B086E0038F00B082617
:1009560000380F0B006E074E1FEF05F0D8900032DF
:100966000832074E1FEF05F0D89000320832074EC6
:100976001FEF05F0D890003208321FEF05F0030E86
:100986000764D9EF04F0075E08380F0B086E0038CD
:10099600F00B082600380F0B006E0138F00B00260E
:1009A60001380F0B016E074E1FEF05F0D89001328C
:1009B60000320832074E1FEF05F0D89001320032A0
:1009C6000832074E1FEF05F0D89001320032083288
:1009D6001FEF05F0030E07640AEF05F0075E0838FF
:1009E6000F0B086E0038F00B082600380F0B006E50
:1009F6000138F00B002601380F0B016E0238F00BA0
:100A0600012602380F0B026E074E1FEF05F0D89035
:100A16000232013200320832074E1FEF05F0D8903D
:100A26000232013200320832074E1FEF05F0D8902D
:100A36000232013200320832096A000E0EAE13EF9E
:100A460006F0081E001E011E021E082A00220122B0
:100A5600022213EF06F00750D8A434EF05F04BEF4F
:100A660006F0096A02C00AF0028E068E0750035C81
:100A7600076ED8B406EF06F0070E0764D4EF05F04C
:100A8600075E0450096E0550046E0650056E066A30
:100A9600074E06EF06F0070E0764A9EF05F0075E9E
:100AA6000450096E0550046E056A074E06EF06F0FF
:100AB600070E076487EF05F0075E0450096E046AA7
:100AC600074E06EF06F0070E07646EEF05F00AC044
:100AD60002F04BEF06F0030E076479EF05F0075EB0
:100AE60009380F0B096E074E06EF06F0D89009324B
:100AF600074E06EF06F0D8900932074E06EF06F0CD
:100B0600D890093206EF06F0030E076498EF05F059
:100B1600075E09380F0B096E0438F00B09260438F6
:100B26000F0B046E074E06EF06F0D890043209321A
:100B3600074E06EF06F0D89004320932074E06EF4C
:100B460006F0D8900432093206EF06F0030E076469
:100B5600C0EF05F0075E09380F0B096E0438F00B7D
:100B6600092604380F0B046E0538F00B04260538E9
:100B76000F0B056E074E06EF06F0D89005320432CD
:100B86000932074E06EF06F0D890053204320932D4
:100B9600074E06EF06F0D89005320432093206EF0A
:100BA60006F0030E0764F1EF05F0075E09380F0B38
:100BB600096E0438F00B092604380F0B046E05384D
:100BC600F00B042605380F0B056E0638F00B0526CC
:100BD60006380F0B066E074E06EF06F0D890063263
:100BE600053204320932074E06EF06F0D890063277
:100BF600053204320932074E06EF06F0D890063267
:100C0600053204320932086A000E0EAE13EF06F002
:100C1600091E041E051E061E092A04220522062296
:100C260009500826045000220550012206500222CF
:100C36000EBE2AEF06F0D8A039EF06F002320132D6
:100C460000320832033E39EF06F045EF06F0D8B021
:100C56003FEF06F0000E081E001E011E021E082AA7
:100C66000022012202220A7E3FEF06F0010E0C6EE0
:100C7600AAEC00F04DEF06F0020E0C6EAAEC00F0A6
:100C86004DEF06F0040E0C6E81EC00F04DEF06F011
:060C9600000E0C6E1200BE
:100C9C000050086E0150006E016A026A036A0B6A0A
:100CAC000C6A960E036E0A6A00C001F008C000F0D0
:080CBC00086A026A8ADC1200DA
:100CC400C26A0101971D006E0050C116070EC012C2
:100CD400C08E30C400F00036009000360090005002
:100CE400C212C28063EC02F0C282C2A201D0FDD75C
:100CF400C4CF01F0006AC3500012000E0112C2906A
:020D04001200DB
:100D06000450000A12E10550000A0FE10650000ADD
:100D16000CE10750000A09E1FF0E006EFF0E016E9E
:100D26007F0E026EFF0E036EA8D0086A096A07508E
:100D3600D8B42EEF07F00350D8B433EF07F00250C3
:100D460006180A6E028E068E0E6A02C008F001C0F0
:100D56000CF000C00DF004500D5E0550D8A0053C07
:100D66000C5E0650D8A0063C085E086A0C6A0D6A3E
:100D7600D8A0C5EF06F0D890023201320032083210
:100D8600010E0E6E0750035ED8A0D2EF06F07E0E5F
:100D96000E240326D8B038EF07F0D8EF06F07E0E03
:100DA6000E240326D8A03DEF07F0180E0B6E0D3665
:100DB6000C3608360036013602360E360450005E12
:100DC6000550D8A0053C015E0650D8A0063C025E40
:100DD60006340E120EA0F3EF06F00D80FEEF06F0BD
:100DE600045000260550D8B0053C01260650D8B060
:100DF600062802260D900B2EDAEF06F024EF07F0F8
:100E0600D8900036013602360E360450005E055084
:100E1600D8A0053C015E0650D8A0063C025E06340A
:100E26000E10010B0D26D8B00C2AD8B4082AD8A467
:100E360024EF07F008320C320D32032AD8B438EF0B
:100E460007F00AAE089E0850026E0C50016E0D5057
:100E5600006E40EF07F0010EA6EC00F040EF07F041
:100E6600020E59EC00F040EF07F0040E81EC00F0A2
:0C0E760040EF07F0080E95EC00F01200B1
:100E82000A6A0350D8A40A800750D8A40A820A50DA
:100E9200D8B4A4EF07F0030AD8B45DEF07F00AB0A4
:100EA20058EF07F006AEA2EF07F0A0EF07F002AE90
:100EB200A0EF07F0A2EF07F00250800B0A6E029E2D
:100EC2000650800B069E0A18D8B46EEF07F00A503F
:100ED200D8B4A0EF07F0A2EF07F00750035CD8B434
:100EE20078EF07F0D8A094EF07F09AEF07F00650DA
:100EF200025CD8B482EF07F0D8A094EF07F09AEF23
:100F020007F00550015CD8B48CEF07F0D8A094EF3D
:100F120007F09AEF07F00450005CD8B4A4EF07F092
:100F2200D8B09AEF07F00A52D8B4A2EF07F0A0EFB8
:100F320007F00A52D8B4A0EF07F0A2EF07F0D8806A
:0E0F42001200D8901200D880D884120012003D
:100F500030C404F031C405F004C002F005C003F051
:100F6000044A052A32C400F033C401F00401324BB4
:100F7000332B00C0E9FF01C0EAFF02C0E1FF03C05C
:100F8000E2FFEECFE6FF02C0E9FF03C0EAFFEE5248
:0E0F900001E0E2D730C400F031C401F01200DD
:100F9E000B6A0C6A086A0350D8B453EF08F002C00B
:100FAE000AF0028E9E0E035E03AE43EF08F0036C52
:100FBE00080E035CD8A010EF08F0036E083600C0D0
:100FCE0008F001C000F002C001F0026A080E035CD6
:100FDE00D8A010EF08F0036E083600C008F001C06C
:100FEE0000F0016A080E035CD8A010EF08F0036E43
:100FFE00083600C008F0006A080E035CD8A010EF97
:10100E0008F0036E0836086A0350D8A4D8901CEF77
:10101E0008F00350D8B41CEF08F0D8900232013219
:10102E0000320832032E14EF08F00BBC08A02DEF8F
:10103E0008F0D8A02DEF08F0082AD8B4002AD8B4AA
:10104E00012AD8B4022A02BE57EF08F00AAE53EFB7
:10105E0008F0021E011E001E081E082AD8B4002A1F
:10106E00D8B4012AD8B4022A53EF08F0026A016AF2
:10107E00006A086A53EF08F00B800BAE5EEF08F0C3
:10108E00026A0AAE5EEF08F0026E016E006E086E26
:10109E000A3602325EEF08F00C6A000E5FEF08F0BF
:1010AE00010E0C6E000E9BEC01F05FEF08F0FF0ED0
:1010BE000250036E0150026E0050016E0850006E19
:0210CE0012000E
:1010D000086A096A100E0C6E01340836093604508D
:1010E000085E0550D8A0053C095ED8B007D0045072
:1010F00008260550D8B0053C0926D89000360136A0
:061100000C2EEAD71200DC
:1011060030C4BAF331C4BBF332C4B7F333C4B8F353
:021116001200C5
:101118000401386B396B3A6B01016F51000A0FE11A
:10112800C80E04014A6F360E4B6F000E4C6F010E4D
:101138004D6F4E6BFAEC01F0010E01016F6F000E5E
:10114800006E0301C651005C03E1C5510401305D26
:1011580001E2FFD0000E0301C45D04E10401305137
:101168000301C35D01E2F5D0C5510401305D016E94
:10117800C6C302F0000E025601C003F002C004F01C
:10118800033603900436033603900436080E030131
:10119800BE25006E000EBF21016E000EC021026E3A
:1011A800000E056E0050032601500422025005224D
:1011B80003C0F6FF04C0F7FF05C0F8FF0900F5CF2C
:1011C80038F4010E0324F66E000E0420F76E000EAC
:1011D8000520F86E0900F5CF00F000C006F0000EFB
:1011E800076E086E096E020E0324F66E000E0420C8
:1011F800F76E000E0520F86E0900F5CF03F003C066
:1012080001F0006A000E026E036E065000260750B9
:1012180001220850022209500322BE510024040171
:10122800356F0301BF5101200401366F0301C0511E
:1012380002200401376F0301B951000A46E1B7C320
:1012480033F40401326B000E006E0301BD51005CE3
:1012580003E1BC510401325D2FE20401BAC339F441
:10126800346B316B3851315D24E23451000A10E19E
:1012780035C4F6FF36C4F7FF37C4F8FF0900F5CFC9
:101288003AF4010E3527000E36233723010E346F4A
:1012980034513A15006E08E039C44AF433C44BF4AB
:1012A800DCC34CF491EC02F0392B34373491312BF8
:1012B800D9D7332B322BC7D704013951010F03017A
:1012C800BA6FBB6B000EBB2344D0BAC333F404011E
:1012D800326B000E006E0301BD51005C03E1BC518E
:1012E8000401325D2FE20401B7C339F4346B316B6A
:1012F8003851315D24E23451000A10E135C4F6FF5B
:1013080036C4F7FF37C4F8FF0900F5CF3AF4010EE9
:101318003527000E36233723010E346F34513A1522
:10132800006E08E033C44AF439C44BF4DCC34CF40F
:1013380091EC02F0390734373491312BD9D7332B5C
:10134800322BC7D7040139050301B76FB86B000EFC
:04135800B85B12006C
:10135C000401456B466B476B486B0301C651040196
:10136C00315D04E10301C5510401305D01E2E7D1B7
:10137C0031510301C45D04E1040130510301C35D2B
:10138C0001E2DDD1C5510401305D036E0301C6518C
:10139C0004013159046E03C000F004C001F00036A2
:1013AC0000900136003600900136080E0301D82556
:1013BC0004014A6F000E0301D92104014B6F000E8A
:1013CC000301DA2104014C6F000E0301DB2104013F
:1013DC004D6F00504A2701504B23000E4C234D23D8
:1013EC00040E4E6F000E4F6FA9EC01F0E20E436F2E
:1013FC00030E446F43C4E9FF44C4EAFFEECF49F443
:10140C0049C445F4010E4325E96E000E4421EA6EF1
:10141C00EECF04F0000E056E066E076E020E43252D
:10142C00E96E000E4421EA6EEECF03F003C001F02A
:10143C00006A000E026E036E045000260550012255
:10144C00065002220750032200500301D825040144
:10145C00376F01500301D9210401386F0250030189
:10146C00DA210401396F03500301DB2104013A6FC7
:10147C0049C400F00032009E0032009E0032009EF3
:10148C00000E016EBCC304F0BDC305F069EC02F0A4
:10149C0000C03DF401C03EF4070E4915006E08E093
:1014AC000301BC5104013D270301BD5104013E233E
:1014BC003DC441F43EC442F4E0C3E1FFE1C3E2FFAA
:1014CC0037C4E6FF38C4E6FF39C4E6FF3AC4E6FF8A
:1014DC003DC4E6FF3EC4E6FF3B0EE66E040EE66E30
:1014EC00DEC300F0DFC301F060EC00F000C043F499
:1014FC0001C044F404013B5137273C513823000E02
:10150C0039233A233B513D5F3C513E5B3F6B406B73
:10151C000301B951000AD8A488D0B7C334F4B8C3B6
:10152C0035F40401336B000E006E0301BD51005CF9
:10153C0003E1BC510401335D6DE20401BAC346F40E
:10154C00BBC347F4366B326B4551325D5FE23651AB
:10155C00000A4AE13F4B402B42513C5D02E14151B4
:10156C003B5D38E240513C5D02E13F513B5D32E274
:10157C00010E3F6F000E406FE0C3E1FFE1C3E2FFDD
:10158C0037C4E6FF38C4E6FF39C4E6FF3AC4E6FFC9
:10159C003DC4E6FF3EC4E6FF3B0EE66E040EE66E6F
:1015AC00DEC300F0DFC301F060EC00F000C043F4D8
:1015BC0001C044F43DC441F43EC442F404013B5127
:1015CC0037273C513823000E39233A233B513D5FDA
:1015DC003C513E5B43C4E9FF44C4EAFFEECF48F400
:1015EC00434B442B010E366F36514815006E08E004
:1015FC0046C44AF434C44BF4DCC34CF491EC02F012
:10160C00464B472B36373691322B9ED7344B352BE6
:10161C00332B89D70401010E46250301BA6F000E46
:10162C00040147210301BB6F8AD0BAC334F4BBC396
:10163C0035F40401336B000E006E0301BD51005CE8
:10164C0003E1BC510401335DD8B06FD00401B7C3C2
:10165C0046F4B8C347F4366B326B4551325D61E2E8
:10166C003651000A4AE13F4B402B42513C5D02E1AE
:10167C0041513B5D38E240513C5D02E13F513B5DE5
:10168C0032E2010E3F6F000E406FE0C3E1FFE1C399
:10169C00E2FF37C4E6FF38C4E6FF39C4E6FF3AC4BC
:1016AC00E6FF3DC4E6FF3EC4E6FF3B0EE66E040ECD
:1016BC00E66EDEC300F0DFC301F060EC00F000C0AA
:1016CC0043F401C044F43DC441F43EC442F404016B
:1016DC003B5137273C513823000E39233A233B51D9
:1016EC003D5F3C513E5B43C4E9FF44C4EAFFEECF8F
:1016FC0048F4434B442B010E366F36514815006E9F
:10170C0008E034C44AF446C44BF4DCC34CF491EC0A
:10171C0002F0010E465F000E475B36373691322BD6
:10172C009CD7344B352B332B86D70401010E465DE9
:10173C000301B76F000E040147590301B86F120083
:10174C001FC423F404012351215D0CE31EC430F4A7
:10175C0020C431F423C432F422C433F4BBEC03F0C0
:06176C00232BF0D7120050
:10177200220E0C6E086A096A0A6A0B6A0C06D8B451
:101782001FD0D8900B320A320932083203320232A9
:1017920001320032D8A0F2D70C06D8B409D00450D6
:1017A20008260550092206500A2207500B22EAD7C2
:1017B200045008260550092206500A2207500B221F
:0217C200120013
:1017C40004012B6B2C6B2D6B2E6B2F6B1EC427F41B
:1017D4001FC428F420C429F421C42AF42A51FF0A7E
:1017E40008E12951FF0A05E12851FF0A02E12751C6
:1017F400FF0A0DE122C430F423C431F4930E326F96
:10180400010E336FA8EC07F0030E006E5ED2010EDA
:10181400256F29AF0FD0800E2919006E00C029F45E
:10182400252B2C2B22C4E1FF23C4E2FF2D0EE66EF0
:10183400224B232B000E006E2A1908E100502919AF
:1018440005E10050281902E12751000A0CE122C4E5
:1018540030F423C431F49C0E326F010E336FA8ECC4
:1018640007F0006A32D22A51FF0A08E12951000A1E
:1018740005E12851000A02E12751000A0DE122C4C2
:1018840030F423C431F4980E326F010E336FA8EC98
:1018940007F025C400F019D2000E046E000E056E88
:1018A400000E066E7F0E076E27C400F028C401F0F8
:1018B40029C402F02AC403F041EC07F0010ED8B0A9
:1018C400000E006E00521CE027C400F028C401F092
:1018D40029C402F02AC403F0000E046E000E056E43
:1018E400200E066E820E076E24EC03F000C027F46F
:1018F40001C028F402C029F403C02AF42F07CCD76E
:10190400000E046E000E056E200E066E820E076E2B
:1019140027C400F028C401F029C402F02AC403F04B
:1019240041EC07F0000ED8B0010E006E00521CE02E
:1019340027C400F028C401F029C402F02AC403F02B
:10194400CD0E046ECC0E056E4C0E066E7B0E076E2D
:1019540024EC03F000C027F401C028F402C029F4E9
:1019640003C02AF42F2BCCD7FF0E2715086EFF0EC9
:101974002815096E7F0E29150A6E000E2A150B6EA6
:1019840008C004F009C005F00AC006F00BC007F057
:1019940004360490053606360736000E2715006E09
:1019A400000E2815016E000E2915026EFF0E2A1571
:1019B400036E00C027F401C028F402C029F403C058
:1019C4002AF404502711006E05502811016E0650A8
:1019D4002911026E07502A11036E00C027F401C0BA
:1019E40028F402C029F403C02AF47F0E2A5D006E95
:1019F40000C026F4010E2A6F00C004F027C400F0D2
:101A040028C401F029C402F02AC403F0045007E0FA
:101A140000360090013602360336FF0FF8D700C0B7
:101A240027F401C028F402C029F403C02AF422C414
:101A3400E1FF23C4E2FF2A51300FE66E224B232B31
:101A44002C2B800E2F19006E800E010A005C08E317
:101A5400800E060A006E800E2F19005C01E30BD085
:101A640022C4E1FF23C4E2FF2E0EE66E224B232B99
:101A7400010E2B6F2C2B060E266F2651000A58E000
:101A84002A6B27C400F028C401F029C402F02AC438
:101A940003F000360090013602360336003600901B
:101AA40001360236033627510026285101222951D6
:101AB40002222A51032200C027F401C028F402C0E4
:101AC40029F403C02AF427C400F028C401F029C46F
:101AD40002F02AC403F000360090013602360336C1
:101AE40000C027F401C028F402C029F403C02AF47A
:101AF40022C4E1FF23C4E2FF2A51300FE66E224BD9
:101B0400232B2C2B2B51000A11E12F072F51000AF4
:101B14000DE1010E2E6F22C4E1FF23C4E2FF2E0E5D
:101B2400E66E224B232B010E2B6F2C2B2607A5D7F9
:101B34002E51010AD8B42C07FF0E2225E96EFF0EA0
:101B44002321EA6EEE502E0A05E1010E225F000EFB
:101B5400235B2C07800E000A006E800E2F19005C98
:101B640002E2010E2D6F800E2F19006E800E000A06
:101B7400005C02E2020E2D6F2FC426F4800E090AC7
:101B8400006E800E2F19005C02E32D2B02D0020E92
:101B94002D272D512C25016E026A000E0222800E83
:101BA4000218006E800E005C02E12451015C0AE21E
:101BB40022C4E1FF23C4E2FF300EE66E224B232B46
:101BC4002C2BE7D72F51000A43E022C4E1FF23C4A2
:101BD400E2FF650EE66E224B232B800E2F19006E5A
:101BE400800E000A005C0BE222C4E1FF23C4E2FF82
:101BF4002D0EE66E224B232B2F5100082F6F2FC47E
:101C040026F4800E090A006E800E2F19005C0FE284
:101C14000A0E046E26C400F0ECEC03F022C4E1FFCB
:101C240023C4E2FF0050300FE66E224B232B0A0E32
:101C3400046E26C400F0ECEC03F008C000F022C4EB
:101C4400E1FF23C4E2FF0050300FE66E224B232B4A
:101C54002D512C25006E00C02CF42451005C016E23
:101C640001C026F4800E000A006E800E0118005C8C
:101C74000EE2800E000A006E800E2619005C06E259
:101C84002607010E225F000E235BF3D718D0800EC7
:101C94002619006E800E000A005C11E2800E2619DF
:101CA400006E800E000A005C0AE2262B22C4E1FFCB
:101CB40023C4E2FF300EE66E224B232BEFD722C45F
:0C1CC400E1FF23C4E2FFE66A006A1200A0
:101CD0000050086E0150006E0250016E0350026EFB
:101CE000036A0B6A0C6A9E0E036E0A6A02AE85EFE7
:101CF0000EF0081E001E011E021E082AD8B4002A7B
:101D0000D8B4012AD8B4022A0A8E020E0C6EAAECAC
:041D100000F01200CD
:101D14000401226B050E225D0AE222512025E16EA8
:101D2400000E2121E26E200EE66E222BF3D7225103
:101D34002025E16E000E2121E26EE66A220722517F
:101D44002025236F000E2121246F0A0E046E000E3D
:101D5400056E1EC400F01FC401F068EC08F008C052
:101D640000F009C001F0300E002623C4E1FF24C4B2
:101D7400E2FF00C0E6FF0A0E046E000E056E1EC4EC
:101D840000F01FC401F068EC08F000C01EF401C0AC
:101D94001FF4000E011802E1000E001801E102D048
:061DA4002207CDD712005A
:101DAA0004011F6B206B216B226B1E6B640E1E5D80
:101DBA001AE2306B62EC06F04EEC06F01FC404F037
:101DCA0020C405F021C406F022C407F03BEC04F05D
:101DDA0000C01FF401C020F402C021F403C022F4A1
:101DEA0004011E2BE3D7000E046E000E056E480E8A
:101DFA00066E850E076E1FC400F020C401F021C4D0
:101E0A0002F022C403F083EC06F0CFEC07F01200D4
:101E1A00000E0401205D04E320517F0801E301D094
:101E2A0028D0000E1E5DD8A01E6B1E513F0802E28C
:101E3A003F0E1E6F000E1F5DD8A01F6B1F513F087B
:101E4A0002E23F0E1F6F1E511F5D06E21EC422F4FE
:101E5A001FC41EF422C41FF41E511F5D0AE320C4CE
:101E6A004AF41EC44BF421C44CF491EC02F01E2B2C
:041E7A00F3D7120088
:101E7E000401206B216B1EC403F01FC404F01EC4AA
:101E8E0005F01FC406F003C0E9FF04C0EAFFEE50E0
:101E9E00200A04E12051211101E110D0010E206F22
:101EAE00000E216F03C0E9FF04C0EAFF05C0E1FF89
:101EBE0006C0E2FFEECFE6FF054A062A03C001F098
:101ECE0004C002F0034A042A01C0E9FF02C0EAFF7F
:101EDE00EE50000AD8E11EC400F01FC401F012003B
:101EEE0000C008F00150006E016A026A036A0B6AB4
:101EFE000C6A016A026A036A960E036E0A6A00AEE3
:101F0E008FEF0FF0081E001E082AD8B4002A0A8E82
:101F1E0000C001F008C000F0086A026AEBEC02F0A3
:021F2E0012009F
:081F3000067E3BEC04F01200F8
:101F380004011F6B206B216B226B1E6B640E1E5DF0
:101F48001BE2020E306F62EC06F04EEC06F01FC486
:101F580004F020C405F021C406F022C407F03BECCD
:101F680004F000C01FF401C020F402C021F403C033
:101F780022F404011E2BE2D7000E046E000E056E3B
:101F8800480E066E850E076E1FC400F020C401F0CF
:101F980021C402F022C403F083EC06F0CFEC07F072
:021FA800120025
:101FAA00000E0401215D02E1800E205D01E341D0B3
:101FBA00000E235D02E1400E225D01E33AD0246B5C
:101FCA00256B20C430F421C431F422C432F423C472
:101FDA0033F483EC08F024511E25E96E25511F21A4
:101FEA00EA6EEE5226E00301C151C21113E0040168
:101FFA0024511E25E96E25511F21EA6EEECF30F4D9
:10200A00000E316F000E316FAEEC09F00401244B63
:10201A00252B0ED0040124511E25E96E25511F21BE
:10202A00EA6EEECF30F48CEC08F00401244B252B39
:04203A00D2D71200E7
:10203E000401216B1EC4E9FF1FC4EAFFEECF20F49A
:10204E002051000A0FE020C430F4B4EC03F0040178
:10205E00212B21511E25E96E000E1F21EA6EEECFB7
:06206E0020F4EED7120081
:1020740030D0B30E04011E6F010E1F6FDEDF0A0E97
:10208400306FB4EC03F00D0E0401306FB4EC03F0C8
:1020940033D0C30E04011E6F010E1F6FCEDF0A0E74
:1020A400306FB4EC03F00D0E0401306FB4EC03F0A8
:1020B40023D0F40E04011E6F010E1F6FBEDF0A0E43
:1020C400306FB4EC03F00D0E0401306FB4EC03F088
:1020D40013D0000E0301FD1902E1000EFC19C9E042
:1020E400000EFD1902E1010EFC19D3E0000EFD19EA
:1020F40002E1020EFC19DDE0010E04011E6F020E66
:102104001F6F9BDF0A0E306FB4EC03F00D0E040159
:10211400306FB4EC03F0D10E04011E6F010E1F6F7B
:102124008CDF0A0E306FB4EC03F00D0E0401306F37
:10213400B4EC03F0E30E04011E6F010E1F6F7DDF8C
:102144000A0E306FB4EC03F00D0E0401306FB4ECE2
:0421540003F0120082
:1021580084B216D084A014D08482010E0301FE6FCD
:10216800000EFF6F020EFC6F000EFD6F820E0C6EEC
:10217800DD0E0D6E0D2EFED70C2EFCD700000000D4
:02218800120043
:10218A000401186B196B1A6B1851070845E3586B51
:10219A0073EC00F018C458F48DEC00F0586B46EC60
:1021AA0000F0176B17513F0812E319511425F66E08
:1021BA001A511521F76E000E1621F86E0900F5CF97
:1021CA0058F46CEC00F0194B1A2B172BEBD7400E76
:1021DA00586F73EC00F018C458F48DEC00F0400E00
:1021EA00586F46EC00F0400E176F17517F0812E344
:1021FA0019511425F66E1A511521F76E000E162183
:10220A00F86E0900F5CF58F46CEC00F0194B1A2B54
:0A221A00172BEBD7182BB8D71200D2
:1022240084B216D084A014D08490010E0301FE6FF2
:10223400000EFF6F010EFC6F000EFD6F820E0C6E20
:10224400DD0E0D6E0D2EFED70C2EFCD70000000007
:02225400120076
:1022560084928480010E0301FE6F000EFF6FFC6BFB
:10226600FD6B820E0C6EDD0E0D6E0D2EFED70C2E46
:08227600FCD70000000012007B
:0A227E00000E9EBA010E006E120061
:1022880014C430F416C431F415C432F418C433F449
:10229800BBEC03F014C430F416C431F417C432F4A0
:1022A80018C433F4BBEC03F015C41EF417C41FF4B0
:1022B80014C420F418C421F4ACDD15C41EF417C4EA
:0E22C8001FF416C420F418C421F4A3DD120084
:1022D600AECF01F0ABA202D0AB98AB8801C000F044
:0222E6001200E4
:1022E80060DD050E046E000E056E066E076EB9EC15
:1022F8000BF0EADC00C0B3F301C0B4F302C0B5F3DD
:1023080003C0B6F3000E046EC00E056E7F0E066E97
:10231800880E076E83EC06F0000E046E000E056E44
:10232800480E066E850E076E24EC03F000C0F1F32C
:1023380001C0F2F302C0F3F303C0F4F300C01EF4CB
:1023480001C01FF402C020F403C021F4EA0E040106
:10235800226F030E236F040E246FE2EC0BF0EA0EDB
:102368001E6F030E1F6F87DD14C404F015C405F03B
:1023780016C406F017C407F0B3C300F0B4C301F0E5
:10238800B5C302F0B6C303F041EC07F0000ED8B0B5
:10239800010E006E005219E1B3C304F0B4C305F096
:1023A800B5C306F0B6C307F014C400F015C401F0B5
:1023B80016C402F017C403F041EC07F0000ED8B0C1
:1023C800010E006E005201E144D0460E1E6F0F0E42
:1023D8001F6F590E206F1E0E216F226BA6EC0BF09B
:1023E800F50E306F030E316FEA0E326F030E336F46
:1023F800A8EC07F0850E1E6F010E1F6F0A0E206FE6
:10240800000E216F0F0E226F000E236FCADDEA0E39
:102418001E6F030E1F6F460E206F000E216F0F0EEA
:10242800226F000E236FBDDD820E1E6F010E1F6F1F
:102438005A0E206F000E216F0F0E226F000E236FB1
:10244800B0DDB3C314F4B4C315F4B5C316F4B6C3FE
:0424580017F4120063
:10245C00819281800401166B1651070810E316C493
:10246C0058F48DEC00F0156B15513F0806E314C4BD
:10247C0058F46CEC00F0152BF7D7162BEDD7819098
:10248C008182166B1651070810E316C458F48DECB4
:10249C0000F0156B15513F0806E314C458F46CECAE
:0C24AC0000F0152BF7D7162BEDD712000F
:1024B8000C0E0401306FB4EC03F06C0E04011E6FB7
:1024C800030E1F6FB8DD0A0E306FB4EC03F00D0E6B
:1024D8000401306FB4EC03F0580E04011E6F030EB4
:1024E8001F6FA9DD0A0E306FB4EC03F00D0E040166
:1024F800306FB4EC03F0450E04011E6F030E1F6F1E
:102508009ADD0A0E306FB4EC03F00D0E0401306F43
:10251800B4EC03F0360E04011E6F030E1F6F8BDD43
:102528000A0E306FB4EC03F00D0E0401306FB4ECFA
:0425380003F012009A
:10253C000C0E0401306FB4EC03F07E0E04011E6F20
:10254C00000E1F6F76DD0A0E306FB4EC03F00D0E2B
:10255C000401306FB4EC03F0B10E04011E6F000ED9
:10256C001F6F67DD0A0E306FB4EC03F00D0E040123
:10257C00306FB4EC03F0A60E04011E6F000E1F6F3B
:10258C0058DD0A0E306FB4EC03F00D0E0401306F01
:06259C00B4EC03F0120094
:1025A2000F0E0401186F000E196FC5DC68EC0EF0F7
:1025B20000C095F301C096F302C097F303C098F3ED
:1025C200000E046E000E056E200E066E830E076E60
:1025D20024EC03F0000E046EC00E056E7F0E066E34
:1025E200880E076E83EC06F000C091F301C092F3EF
:1025F20002C093F303C094F300C01EF401C01FF4A1
:1026020002C020F403C021F4990E0401226F030ECC
:10261200236F040E246FE2EC0BF0990E1E6F030E73
:102622001F6F2CDC18C400F019C401F05FDC14C465
:1026320004F015C405F016C406F017C407F03BEC0D
:1026420004F000C004F001C005F002C006F003C0AF
:1026520007F095C300F096C301F097C302F098C348
:1026620003F041EC07F0000ED8B0010E006E0052EC
:1026720027E118C400F019C401F038DC00C004F0EE
:1026820001C005F002C006F003C007F014C400F058
:1026920015C401F016C402F017C403F048DC95C358
:1026A20004F096C305F097C306F098C307F041EC17
:1026B20007F0000ED8B0010E006E005201E13AD0D0
:1026C200460E1E6F0F0E1F6F590E206F1E0E216FCA
:1026D200226BA6EC0BF01D0E1E6F010E1F6F0A0E71
:1026E200206F000E216F0F0E226F000E236F5CDC35
:1026F200990E1E6F030E1F6F460E206F000E216F84
:102702000F0E226F000E236F4FDC5F0E1E6F010E45
:102712001F6F5A0E206F000E216F0F0E226F000ED8
:10272200236F42DC95C314F496C315F497C316F4D1
:0627320098C317F4120029
:102738000F0E0401186F000E196F9CEC0FF068EC77
:102748000EF000C095F301C096F302C097F303C0E2
:1027580098F3000E046E000E056E200E066E830EB2
:10276800076E24EC03F0000E046EC00E056E7F0E9B
:10277800066E880E076E83EC06F000C091F301C068
:1027880092F302C093F303C094F300C01EF401C097
:102798001FF402C020F403C021F4990E0401226F33
:1027A800030E236F040E246FE2EC0BF0990E1E6FDC
:1027B800030E1F6F3FEC0FF018C400F019C401F0AE
:1027C80077EC0FF014C404F015C405F016C406F035
:1027D80017C407F03BEC04F000C004F001C005F09A
:1027E80002C006F003C007F095C300F096C301F0DD
:1027F80097C302F098C303F041EC07F0000ED8B07D
:10280800010E006E005229E118C400F019C401F04D
:1028180077EC0FF000C004F001C005F002C006F02C
:1028280003C007F014C400F015C401F016C402F088
:1028380017C403F098EC0FF095C304F096C305F0A5
:1028480097C306F098C307F041EC07F0000ED8B024
:10285800010E006E005201E112D0AC0E306F030E73
:10286800316F990E326F030E336FA8EC07F095C3E2
:1028780014F496C315F497C316F498C317F4650EA9
:102888001E6F010E1F6F1FEC10F0990E1E6F030EC6
:102898001F6F1FEC10F0620E1E6F010E1F6F1FECF2
:1028A80010F00D0E306FB4EC03F00A0E0401306F17
:0628B800B4EC03F0120075
:1028BE0004011A6B1B6B14C41CF415C41DF4800E9A
:1028CE001519006E800E005C02E1000E145D0BE225
:1028DE00010E1A6F000E1B6F145100081C6F15C4E9
:1028EE001DF4000E1D571CC41EF41DC41FF416C487
:1028FE0020F417C421F48AEC0EF0060E186F000EA9
:10290E00196F000E006E1951005C02E1185100089B
:10291E0019E218511625E16E19511721E26E010EBA
:10292E00185D006E000E1959016E00501625E96EE5
:10293E0001501721EA6EEECFE6FF010E185F000E72
:10294E00195BDFD716C4E1FF17C4E2FF200EE66E57
:10295E001A511B111AE0186B196B18511625E96ED6
:10296E0019511721EA6EEE50200A03E1184B192B6C
:10297E00F4D7010E185F000E195B18511625E16E83
:0C298E0019511721E26E2D0EE66E1200AA
:10299A00000E0401041902E1010E03190DE1010EF2
:1029AA001E6F0D0E1F6F7E0E206F3E0E216F226B63
:0C29BA00A6EC0BF0036B046BEFDD1200C9
:1029C6000900F5CFE6FF0006FBE10106F9E112007A
:1029D600000E0301A51902E1010EA4193FE104014D
:1029E600146B156B7F0E166F3F0E176F010E186F67
:1029F60048DC1E6B1F6B7F0E206F0C0E216F010EC5
:102A0600226FA6EC0BF0C80E4A6F360E4B6F000E07
:102A16004C6F4D6B4E6BFAEC01F012C41EF413C4EE
:102A26001FF41E0E0401206F000E216F010E226F8F
:102A3600000E236FD5EC0FF0C80E4A6F360E4B6FA3
:102A4600000E4C6F010E4D6F4E6BFAEC01F0A46B4D
:0E2A5600A56B010E0401036F000E046F120049
:102A64000301D76BC16BC26B939A9398939493961B
:102A740093929390819A120E006E000E016E830E53
:102A84000024E16E0F0E0120E26EE66A81948196C5
:102A940081928180818A3F0E836E14EC00F0C00E17
:102AA400836E14EC00F0818281903F0E836E14ECEF
:0C2AB40000F0C00E836E14EC00F0120065
:102AC000680E0301CB6F070ECC6F300ECD6F040E76
:102AD000CE6FD60EC76F220EC86F000EC96F000EE4
:102AE000CA6F7E0ED36F220ED46F000ED56F000E0C
:102AF000D66FFF0ECF6FFF0ED06F000ED16F000E9E
:102B0000D26FAC8A900EAB6E948E949C9EAA03D02A
:082B1000AECF00F0FBD712006C
:102B1800010E0401306F62EC06F000C010F401C031
:102B280011F4800E026E800E0118025C02E1005062
:102B38000A080CE2050E04011E6F1E0E1F6F500ED0
:102B4800206F280E216F226BA6EC0BF00401000EFB
:102B58000F1902E1010E0E194EE11151061902E199
:102B6800055110190FE0050E1E6F320E1F6F640E0F
:102B7800206F3C0E216F226BA6EC0BF010C405F4FD
:102B880011C406F410C414F411C415F4070E166F1A
:102B9800040E176F90DE070E1E6F040E1F6F3FECBA
:102BA8000FF0070E1E6F040E1F6F280E206F000E09
:102BB800216F320E226F000E236FD5EC0FF0FA0E44
:102BC8001E6F020E1F6F050E206F000E216F320E52
:102BD800226F000E236FD5EC0FF0020E0B6E450E20
:102BE8000C6EA90E0D6E0D2EFED70C2EFCD70B2EDB
:102BF800FAD700000000800E1119006E800E005CEC
:102C080002E1500E105D1AE3800E006E800E11195D
:102C1800005C02E11051640811E3ACEC10F0DF0E27
:102C280004011E6F020E1F6F050E206F000E216F2C
:102C38001E0E226F000E236FD5EC0FF0800E1119B7
:102C4800006E800E005C02E1780E105D1AE3800EC3
:102C5800006E800E1119005C02E110518C0811E31E
:102C68002BEC11F0E70E04011E6F020E1F6F050E0C
:102C7800206F000E216F1E0E226F000E236FD5EC01
:102C88000FF0800E1119006E800E005C02E1AA0E92
:102C9800105D1AE3800E006E800E1119005C02E1CF
:102CA8001051BE0811E312EC11F0F50E04011E6F6D
:102CB800020E1F6F050E206F000E216F1E0E226F71
:102CC800000E236FD5EC0FF0800E1119006E800EE8
:102CD800005C02E1C80E105D17E3800E006E800EE6
:102CE8001119005C02E11051DC080EE3160E1E6F8C
:102CF800030E1F6F050E206F000E216F1E0E226F30
:102D0800000E236FD5EC0FF0800E1119006E800EA7
:102D1800005C02E1E60E105D17E3800E006E800E87
:102D28001119005C02E11051F0080EE3200E1E6F2D
:102D3800030E1F6F050E206F000E216F1E0E226FEF
:102D4800000E236FD5EC0FF0800E1119006E800E67
:102D5800010A005C02E1360E105D18E3800E010ADC
:102D6800006E800E1119005C02E110514A080EE352
:102D78002B0E1E6F030E1F6F050E206F000E216FA6
:102D88001E0E226F000E236FD5EC0FF0800E111966
:102D9800006E800E020A005C02E14E0E105D18E320
:102DA800800E020A006E800E1119005C02E11051BB
:102DB80062080EE3010E1E6F030E1F6F050E206FD3
:102DC800000E216F1E0E226F000E236FD5EC0FF040
:102DD800800E1119006E800E020A005C02E1A80E36
:102DE800105D18E3800E020A006E800E1119005C57
:102DF80002E11051BC080EE3080E1E6F030E1F6F90
:102E0800050E206F000E216F1E0E226F000E236F1D
:102E1800D5EC0FF0800E1119006E800E030A005CCD
:102E280002E13E0E105D32E3800E030A006E800E52
:102E38001119005C02E11051520828E30E0E1E6FB2
:102E4800030E1F6F050E206F000E216F1E0E226FDE
:102E5800000E236FD5EC0FF0000E0F1902E1000EE3
:102E68000E1914E1800E0301A319006E800EA1193A
:102E7800005C02E1A051A25D03E2A24BA32B02D0A9
:102E8800A26BA36B010EA46F000EA56F800E040148
:102E98001119006E800E030A005C02E1700E105DCD
:102EA8003FE3800E030A006E800E1119005C02E1F8
:102EB8001051840835E3300E1E6F010E1F6F050E8A
:102EC800206F000E216F1E0E226F000E236FD5ECAF
:102ED8000FF0060E0B6E130E0C6EAD0E0D6E0D2E52
:102EE800FED70C2EFCD70B2EFAD7000000000E518F
:102EF8000F11010ED8A4000E0E6F000E0F6F000EFA
:102F08000F1902E1000E0E190BE1050E1E6F320EAD
:102F18001F6F640E206F3C0E216F226BA6EC0BF026
:102F2800800E1119006E800E030A005C02E1D40EB7
:102F3800105D35E3800E030A006E800E1119005CE7
:102F480002E11051E8082BE3270E1E6F010E1F6FD8
:102F5800050E206F000E216F1E0E226F000E236FCC
:102F6800D5EC0FF0000E0F1902E1000E0E1917E153
:102F7800800E006E800E0301A319005C02E1A251CD
:102F8800000805E2010EA25F000EA35B04D0A0C3F7
:102F9800A2F3A1C3A3F3010EA46F000EA56F120044
:102FA8000401146B2EEC12F00151021119E07B0E92
:102FB800146F3C0E156F000E166FC5EC10F082A44E
:102FC8000ED0000E021902E1010E011908E1016B91
:102FD800026BD90E1E6F000E1F6F1FEC10F0E4D7A6
:102FE80082A411D07B0E146F3C0E156F000E166F65
:102FF800C5EC10F0000E021902E1010E011902E100
:10300800016B026BEDD70A0E306FB4EC03F00D0EB6
:103018000401306FB4EC03F0930E04011E6F000E30
:103028001F6F1FEC10F00D0E306FB4EC03F00A0E9A
:103038000401306FB4EC03F00401146B2EEC12F0B1
:0C304800010E0301A46F000EA56F120022
:103054003FEC11F00052D8B4E4D06BEC11F000C096
:1030640000F400504C0A05E10C0E0401306FB4EC7E
:1030740003F004010051780A1DE10C0E306FB4EC2A
:1030840003F02A0E04011E6F020E1F6F1FEC10F0D6
:103094000A0E306FB4EC03F00D0E0401306FB4EC83
:1030A40003F00D0E0401306FB4EC03F02BEC11F0BF
:1030B4003AEC10F0040100517A0A1DE10C0E306F55
:1030C400B4EC03F00F0E04011E6F020E1F6F1FEC11
:1030D40010F00A0E306FB4EC03F00D0E0401306FE3
:1030E400B4EC03F00D0E0401306FB4EC03F012ECF9
:1030F40011F03AEC10F004010051630A1DE10C0ECA
:10310400306FB4EC03F01B0E04011E6F020E1F6F30
:103114001FEC10F00A0E306FB4EC03F00D0E040136
:10312400306FB4EC03F00D0E0401306FB4EC03F017
:10313400ACEC10F03AEC10F004010051610A3DE1EE
:103144000C0E306FB4EC03F03A0E04011E6F020E45
:103154001F6F1FEC10F00A0E306FB4EC03F00D0E6D
:103164000401306FB4EC03F08B0E04011E6F020EE9
:103174001F6F1FEC10F00A0E306FB4EC03F00D0E4D
:103184000401306FB4EC03F0BF0E04011E6F020E95
:103194001F6F1FEC10F00A0E306FB4EC03F00D0E2D
:1031A4000401306FB4EC03F0010E0401016F000E52
:1031B400026F010E306FB4EC03F004010051730A86
:1031C40014E10C0E306FB4EC03F0590E04011E6FC1
:1031D400020E1F6F1FEC10F00A0E306FB4EC03F0F8
:1031E4000D0E0401306FB4EC03F004010051480AE1
:1031F40002E15CEC12F004010051770A06E10C0EC6
:10320400306FB4EC03F03AEC10F004010051650A9D
:1032140002E19EEC12F004010051720A02E19CECFE
:0432240013F0120091
:10322800000E0401041902E1010E031913E1010E55
:103238001E6F0D0E1F6F7E0E206F3E0E216F226BCC
:10324800A6EC0BF0010E0301FE6F000EFF6F0401E8
:10325800036B046B000E0301FF1902E1010EFE1956
:10326800D8A421D10401146B330E156F7F0E166F8D
:103278003F0E176F010E186F44EC11F0010E1E6F10
:10328800340E1F6F7E0E206F3E0E216F226BA6EC50
:103298000BF0F4D00401740E1E6F010E1F6F060EA2
:1032A800206F000E216F340E226F000E236FD5ECB5
:1032B8000FF02B0E1E6F330E1F6F550E206F3E0E34
:1032C800216F010E226FA6EC0BF0C80E4A6F360E66
:1032D8004B6F000E4C6F4D6B4E6BFAEC01F0700E9D
:1032E80004011E6F010E1F6F370E206F000E216F35
:1032F800340E226F000E236FD5EC0FF0C80E4A6F04
:10330800360E4B6F000E4C6F010E4D6F4E6BFAEC84
:1033180001F07E0E04011E6F010E1F6F600E206FFC
:10332800000E216F340E226F000E236FD5EC0FF0C4
:103338000301FE6BFF6BB7D0010E04011E6F330E45
:103348001F6F2A0E206F3E0E216F010E226FA6EC12
:103358000BF0C80E4A6F360E4B6F000E4C6F4D6B5C
:103368004E6BFAEC01F0790E04011E6F010E1F6F0F
:10337800060E206F000E216F340E226F000E236F91
:10338800D5EC0FF0C80E4A6F360E4B6F000E4C6F1F
:10339800010E4D6F4E6BFAEC01F0A60E04011E6F84
:1033A800010E1F6F370E206F000E216F340E226F33
:1033B800000E236FD5EC0FF0A20E1E6F010E1F6FCB
:1033C800600E206F000E216F340E226F000E236FE7
:1033D800D5EC0FF00301FE6BFF6B65D0AE0E040158
:1033E8001E6F010E1F6F060E206F000E216F340E28
:1033F800226F000E236FD5EC0FF0AA0E1E6F010E80
:103408001F6F370E206F000E216F340E226F000ED3
:10341800236FD5EC0FF0550E1E6F330E1F6F7E0E07
:10342800206F3E0E216F010E226FA6EC0BF0C80E26
:103438004A6F360E4B6F000E4C6F4D6B4E6BFAECAD
:1034480001F09E0E04011E6F010E1F6F600E206FAB
:10345800000E216F340E226F000E236FD5EC0FF093
:10346800C80E4A6F360E4B6F000E4C6F010E4D6F33
:103478004E6BFAEC01F0FE6BFF6B15D00301000EEA
:10348800FD1902E1000EFC19D8B404D7000EFD198D
:1034980002E1010EFC19D8B44FD7000EFD1902E164
:0834A800020EFC199BE012006A
:1034B000000E0401041902E1010E03190DE1010ED1
:1034C0001E6F0D0E1F6F7E0E206F3E0E216F226B42
:0E34D000A6EC0BF0036B046B74EC11F0120011
:1034DE00F5EC21F0390E0301AA6F010EAB6F4C0E05
:1034EE00A66F010EA76F580EA86F000EA96F6B0E78
:1034FE00856F000E866F450E876F000E886F150E56
:10350E00836F000E846F060EA06F000EA16FB8863B
:10351E00020EB06E080EAF6EAC8460EC15F0030EAA
:10352E000B6E8A0E0C6E550E0D6E0D2EFED70C2EDA
:10353E00FCD70B2EFAD7000000003F0E04011E6FC1
:10354E00000E1F6F1FEC10F00A0E306FB4EC03F07C
:10355E000D0E0401306FB4EC03F0280E04011E6F43
:10356E00000E1F6F1FEC10F00A0E306FB4EC03F05C
:10357E000D0E0401306FB4EC03F003018D6B8E6BF6
:10358E008F6B906B896B8A6B8B6B8C6B0B0EC11276
:10359E00070EB4127F0E926E800E946EF00E956E24
:1035AE00966A816A826A836A846A32EC15F0040133
:1035BE00146B2EEC12F0040E0301A26F000EA36F1B
:1035CE00010EA46F000EA56F04010E6B0F6B016B45
:1035DE00026B010E0301FC6F000EFD6F2ED0AAC30D
:1035EE0012F4ABC313F4EBEC14F017DE4BD0A6C3FE
:1035FE0012F4A7C313F4EBEC14F044D0A8C312F4E6
:10360E00A9C313F4EBEC14F03DD085C312F486C3BA
:10361E0013F4EBEC14F036D087C312F488C313F412
:10362E00EBEC14F03EDF2ED083C312F484C313F4FC
:10363E00EBEC14F0CDEC14F025D0000E0301A31921
:10364E0002E1000EA219CBE0000EA31902E1010E59
:10365E00A219CDE0000EA31902E1020EA219CEE0CE
:10366E00000EA31902E1030EA219CFE0000EA3195A
:10367E0002E1040EA219D0E0000EA31902E1050E1C
:10368E00A219D2E08CEC15F0DEDC82A40ED00C0E6A
:10369E000401306FB4EC03F0020E04011E6F010E34
:1036AE001F6F1FEC10F079DCF0D7040101510211ED
:0A36BE0002E073DCFAD792D7FFD7C1
:1043EA0010EE15F06E0E006E040E016E7B0EF66E68
:0E43FA00400EF76E000EF86EE3EC14F01200A9
:1036C800000020007F000B00018801000193010029
:1036D800039E010007A9010005B4010009BF01000C
:1036E80006D5010001E0010003EB010002F601002C
:1036F80005010200060C0200021702000222020065
:10370800022D02000338020004430200044E0200A6
:103718000459020004640200056F0200047A0200E2
:103728000485020004900200049B020004A6020023
:1037380002B1020002BC020006C7020006D2020063
:1037480006DD020004E8020007F3020006FE02009C
:103758000509030006140300061F0300052A0300D9
:103768000535030006400300064B0300035603001B
:1037780003610300056C030004770300078203005C
:10378800068D03000798030005A3030007AE030096
:1037980005B9030005C4030005CF030006DA0300DA
:1037A80006E5030007F0030004FB03000506040018
:1037B80004110400021C0400032704000232040060
:1037C800053D04000548040003530400045E04009A
:1037D8000469040003740400047F0400048A0400DC
:1037E8000395040004A0040004AB040001B604001F
:1037F80002C1040004CC040001D7040007E204005D
:1038080004ED040004F8040004030500040E050098
:103818000319050003240500022F0500043A0500DA
:103828000545050007500500035B05000566050012
:1038380003710500037C050002870500039205005B
:10384800069D050002A80500000000000000000019
:103858000000000000010101010100010000000555
:10386800050500000000000000000024247E143F2D
:10387800121200000000041E05060C140F040400B8
:10388800000000460029002900D60028012801C4AC
:1038980000000000000000060909160919260000AA
:1038A8000001010100000000000000000402010105
:1038B80001010101020400000102020202020201E8
:1038C8000004150E150400000000000000000008A8
:1038D800083E080800000000000000000000020286
:1038E80001000000000000000300000000000000CC
:1038F80000000000020200000004040202020202AA
:103908000101000000060909090909060000000074
:103918000406040404040E0000000007080804025A
:10392800010F00000000070808060808070000004B
:1039380000080C0A091F0808000000000F01010711
:103948000808070000000006010107090906000031
:1039580000000F0804040202010000000006090923
:1039680006090906000000000609090E08080600F5
:103978000000000000020200020200000000000037
:103988000202000202010000000000201C021C20AC
:10399800000000000000003F003F000000000000A1
:1039A80000021C201C020000000007080804020096
:1039B80002000000001C2259555539021C00000065
:1039C8000C0C12123F2121000000000709090F11F9
:1039D800110F000000001C22010101221C00000040
:1039E800000F11212121110F000000001F01010FFC
:1039F80001011F000000001F01010F01010100006B
:103A080000001C22013921223C0000000021212154
:103A18003F212121000000000702020202020700E4
:103A28000000000604040404040300000000110957
:103A38000503050911000000000101010101010F42
:103A4800000000006363555549494100000000210A
:103A5800232529312121000000001C224141412257
:103A68001C000000000F1111110F010100000000DF
:103A78001C22414141221C106000000F11110F054A
:103A88000911000000001E01010E10100F000000B7
:103A9800001F040404040404000000002121212163
:103AA80021211E0000000021212112120C0C00000F
:103AB8000000494955555522220000000009090611
:103AC8000606090900000000110A0A04040404009B
:103AD8000000000F08040202010F000000030101AA
:103AE80001010101010103000101020202020204B5
:103AF80004000003020202020202020203000004A0
:103B08000A11000000000000000000000000000092
:103B180000001F0002040000000000000000000078
:103B2800000006080E090E0000000101010709093E
:103B3800090700000000000006010101060000005E
:103B48000808080E0909090E00000000000006090F
:103B58000F010E000000060101070101010100002C
:103B6800000000000E0909090E08060001010107FE
:103B78000909090900000000010001010101010013
:103B8800000000020003020202020201000101011A
:103B980009050305090000000101010101010101F6
:103BA80000000000000037494949490000000000B2
:103BB80000070909090900000000000006090909B1
:103BC80006000000000000070909090701010000BC
:103BD80000000E0909090E0808000000000503018D
:103BE80001010000000000000701020407000000B6
:103BF80000000103010101020000000000000909A2
:103C080009090E000000000000110A0A0A04000059
:103C18000000000049495536220000000000000558
:103C280002020205000000000000110A0A0A04044A
:103C3800020000000007040201070000000402025D
:103C4800020201020202040002020202020202024D
:103C58000202000102020202040202020100000044
:103C680000002619000000000000000303030303FE
:033C780000000049
:103C7B000000000000000000000000000000000039
:103C8B000000000000000000000000000000000029
:103C9B000000000000000000000000000000000019
:103CAB000000000000000000000000000000000009
:103CBB0000000000000000000000000000000000F9
:103CCB0000000000000000000000000000000000E9
:103CDB0000000000000000000000000000000000D9
:103CEB0000000000000000000000000000000000C9
:103CFB0000000000000000000000000000000000B9
:103D0B0000000000000000000000000000000000A8
:103D1B000000000000000000000000000000000098
:103D2B000000000000000000000000000000000088
:103D3B000000000000000000000000000000000078
:103D4B000000000000000000000000000000000068
:103D5B000000000000000000000000000000000058
:103D6B000000000000000000000000000000000048
:103D7B000000000000808080808080808000000038
:103D8B0080808000000000808080000000808080A8
:103D9B008080808080000000008080808080800098
:103DAB000000000000000080808080808000000008
:103DBB000080A0B89898B0A08000000080808000A0
:103DCB0000000000808000000000000080808080E8
:103DDB0000000000008080808080808080000000D8
:103DEB0000000080808080000000000000000000C8
:103DFB000000000000FFFFFF3131313131000000C6
:103E0B00FFFF073FF0F01F07FFFF000000FFFFFF62
:103E1B00313131313100000000FFFF6161E1F3BF4F
:103E2B001F000000FCFE070301313131F1F30000EC
:103E3B0000FFFFFF3131313131000000FFFF0F1F59
:103E4B007CF0C080FFFF0000F8FEFF0303010101BF
:103E5B000100000000010101FFFF01010100000052
:103E6B0000E0FC9F8387BFFCE00000000000000027
:103E7B0000000000000F0F0F0C0C0C0C0C000000CE
:103E8B000F0F0000000000000F0F0000000F0F0FBE
:103E9B000C0C0C0C0C000000000F0F000000030FAB
:103EAB000E0800000107070E0C0C0C0C0F0700008E
:103EBB00000F0F0F0C0C0C0C0C0000000F0F000070
:103ECB000001070F0F0F00000103070E0C0C0C0C69
:103EDB0006000000000C0C0C0F0F0C0C0C00000863
:103EEB000F0F0101010101030F0F00000000000083
:103EFB0000000000000000000000000000000000B7
:103F0B0000000000000000000000000000000000A6
:103F1B000000000000000000000000000000000096
:103F2B000000000000000000000000000000000086
:103F3B000000000000000000000000000000000076
:103F4B000000000000000000000000000000000066
:103F5B000000000000000000000000000000000056
:103F6B000000000000000000000000000000000046
:103F7B000000000000000000000000000000000036
:103F8B000000000000000000000000000000000026
:103F9B000000000000000000000000000000000016
:103FAB000000000000000000000000000000000006
:103FBB0000000000000000000000000000000000F6
:103FCB0000000000000000000000000000000000E6
:103FDB0000000000000000000000000000000000D6
:103FEB0000000000000000000000000000000000C6
:103FFB0000000000000000000000000000000000B6
:10400B0000000000000000000000000000000000A5
:10401B000000000000000000000000000000000095
:10402B000000000000000000000000000000000085
:10403B000000000000000000000000000000000075
:10404B000000000000000000000000000000000065
:10405B000000000000000000000000000000000055
:10406B000000000000000000000000000000000045
:10407B0035202D2054656E73616F2042617465721B
:03408B0069610068
:10408E005072657373696F6E65204820706172613E
:07409E0020616A75646100F6
:0640A50053746172740007
:1040AB002034202D2054656D7065726174757261BA
:0340BB00202000C2
:1040BE002032202D20436F7272656E74652052651A
:0340CE0064650026
:1040D100202033202D204672657175656E636961FC
:0340E1002020009C
:1040E40061202D20417469766120456D6572676594
:0540F4006E636961002C
:1040F90050726F6E746F2070617261206F7065729B
:03410900617200E0
:0B410C0048202D20566F6C746172007B
:1041170073202D2044657361746976617220456D43
:10412700657267656E6369612028536F6D656E748C
:084137006520496E666F290046
:10413F00536F6C7465206F20626F74616F206465BC
:10414F0020656D657267656E63696120706172616C
:09415F0020726573657461720041
:104168004D4F444F20444520454D455247454E4309
:0B4178004941204154495641444F008A
:0A418300426174657269613A200020
:09418D00457371756572646100EF
:0941960043616C69627261720000
:10419F0020202030202D205072696E636970616C71
:0341AF00202000CD
:1041B2002031202D2054656E73616F205265646535
:0341C200202000BA
:0341C50056200081
:0341C8002056007E
:0A41CB00426174657269613A2000D8
:0141D50000E9
:0441D6004F4646000A
:0541DA005245444500C0
:0541DF005245444500BB
:0441E400474D4700FC
:0341E80043200071
:0E41EB0054656D70657261747572613A2000E2
:0441F9004E614E00C5
:0141FD003091
:0441FE00494E4600E0
:0242020030008A
:04420400474D4700DB
:04420800474D4700D7
:04420C004F464600D3
:044210004F464600CF
:05421400524544450085
:104219004361726761204465736C69676164610019
:0E4229005265646520656D20636172676100F7
:1042370078202D204465736C69676120636172671C
:02424700610014
:1042490063202D204C6967612047657261646F7234
:014259000064
:0D425A00474D4720656D206361726761006C
:0E4267007A202D204C69676120526564650045
:0C42750052656465204C6967616461005B
:0F42810047657261646F72204C696761646F00FA
:104290004361726761204465736C696761646100A2
:1042A0004551554950414D454E544F20454D204DA7
:0F42B0004F444F20454D455247454E434941002D
:1042BF004D4F444F20454D455247454E43494120B0
:1042CF0053D320504F44452053455220444553412A
:1042DF0054495641444F204C4F43414C4D454E5449
:0242EF00450088
:1042F1005061726120726573657461722C207072F5
:10430100657373696F6E65206F20626F74616F20D2
:10431100646520656D657267656E636961206C6FA8
:0443210063616C0068
:1043250065207369676120617320696E74727563B6
:104335006F657320646F207465726D696E616C00C2
:0843450047657261646F7200AC
:0E434D004465736C69676120436172676100AB
:05435B005265646500DD
:07436000426F74616F3A0027
:074367004D616E75616C00F1
:06436E0052657365740046
:0843740044697265697461007F
:0A437C00506172617220474D470046
:0B43860050617274697220474D4700BF
:0B4391004175746F6D617469636F000B
:0F439C004C202D204C696D70612074656C6100A0
:1043AB0072202D2054656E73616F204261746572AB
:0343BB0069610035
:1043BE0065202D204D656E7520456D657267656EA5
:0443CE0063696100BE
:1043D20077202D204D656E75205472616E7366656F
:0743E20072656E6369610062
:020000040030CA
:0E000000044C191EFF0380FF0FC00FE00F40DD
:00000001FF
