:100000004BEF17F00000000000EF00F000000000D0
:0A0010000000000000000000F3D71C
:0C001C00100E0D6E0D2EFED7000012001D
:0C002800000000000000000000001200BA
:0A003400F3DF8188F1DF81981200EC
:10003E0081948196B80E02010011836EF4DF1200D6
:08004E000AAE029E000E120032
:100056007F0E02010015016E01C000F201AC03D053
:0C0066008182819002D081928180120082
:10007200F250026EF29E0500FF6A0150FE6E0050C1
:08008200FD6E02BEF28E1200B9
:10008A000B820BAE4FEF00F003680268016800684C
:08009A000A360232FF0E1200CB
:1000A2000B840BAE5CEF00F0010E036E026A016A74
:0A00B200006A0A360232FF0E120047
:1000BC00120E006E000E016E830E0024E16E0F0E08
:1000CC000120E26EFF0EE66EA9DFA8DF8184819825
:1000DC00818681889DDF83CF00F2819881969EDF97
:1000EC009DDF120E006E000E016E830E0024E16E79
:0E00FC000F0E0120E26EE66A00C200F0120054
:10010A007F0E02010015006E00C000F281948196F4
:10011A00BF0E001600C000F2008C00C000F200C042
:06012A0083FF83DF1200D9
:0E01300081988184819600C283FF7CDF1200DB
:0E013E00026A016A006A086A036A000E120073
:10014C000B6A0A6A096A00500402F4CF09F0F3CF73
:10015C0008F001500502F4CF0BF0F3CF0AF0005079
:10016C000502F3500926F4500A22E86A0B220150CA
:10017C000402F3500926F4500A22E86A0B2208C044
:10018C0000F009C001F00AC002F00BC003F012002D
:08019C000B6A0B86FF0E120036
:1001A400550E0201056F010E066F000E006E01016F
:1001B400FD51005C02E1FC51000851E26FC1E1FF16
:1001C40070C1E2FFF8C1E6FFF9C1E6FFFAC1E6FF3C
:1001D400FBC1E6FFFCC1E6FFFDC1E6FF010EE66ED2
:1001E400020EE66E6DC100F06EC101F040DF00C08A
:1001F40003F201C004F20101FE6BFF6B0201025124
:100204000101FF5D04E1020101510101FE5D13E200
:1002140003C2E9FF04C2EAFF05C2E1FF06C2E2FF2E
:10022400EECFE6FF0201054B062B034B042B010125
:10023400FE4BFF2BE3D7020101510101FC5F0201D8
:1002440002510101FD5B020101510101F827020184
:1002540002510101F923000EFA23FB23A6D7120051
:100264000C6A0E6A0250D8A44BEF01F001C002F0F0
:1002740000C001F0006A0E860250D8A44BEF01F0D2
:1002840001C002F0016A0E960E880250D8B45DEFE8
:1002940001F00E50035ED8A4D8A062EF01F0D8900C
:1002A40002BE67EF01F0003601360236032E52EF2C
:1002B40001F062EF01F0010E0C6E3FDF6AEF01F016
:1002C400020E0C6EECDE6AEF01F0040E0C6EBDDE65
:0202D400120016
:1002D6000B800BAE77EF01F0026A0AAEFF0E026EDC
:0C02E600016E006E0A360232FF0E12009C
:0C02F200240E0D6E0D2EFED70000120031
:1002FE000CB0C1EF01F00CA267EF02F00E6A000E17
:10030E000264D8EF01F0F00E0214D8A4A3EF01F0AE
:10031E00023A01380F0B02260138F00B016E00383D
:10032E000F0B01260038F00B006E08380F0B00265D
:10033E000838F00B086E0E84D89002BEBCEF01F0A8
:10034E0008360036013602360E2A02BEBCEF01F028
:10035E0008360036013602360E2A02BEBCEF01F018
:10036E0008360036013602360E2A0E5003645DEF53
:10037E0002F0035E0BBC08AE62EF02F0D880800E76
:10038E0008640030000E002201220222D8A062EF83
:10039E0002F0023201320032034A67EF02F062EFDE
:1003AE0002F001C002F000C001F008C000F0086ABF
:1003BE00000E0E8602640FEF02F0F00E0214D8A4A7
:1003CE00F7EF01F0023A01380F0B02260138F00B5D
:1003DE00016E00380F0B01260038F00B006E0E84F4
:1003EE00D89002BEBCEF01F00036013602360E2A5E
:1003FE0002BEBCEF01F00036013602360E2A02BEF6
:10040E00BCEF01F00036013602360E2ABCEF01F0C9
:10041E0001C002F000C001F0006A000E0E960E88B8
:10042E0002643CEF02F0F00E0214D8A427EF02F0A3
:10043E00023A01380F0B02260138F00B016E0E84C2
:10044E00D89002BEBCEF01F0013602360E2A02BE73
:10045E00BCEF01F0013602360E2A02BEBCEF01F0EF
:10046E00013602360E2ABCEF01F001C002F0016A1D
:10047E00000E0E8602646CEF02F0F00E0214D8A489
:10048E004BEF02F0023A0E84D89002BEBCEF01F0A0
:10049E0002360E2A02BEBCEF01F002360E2A02BE52
:1004AE00BCEF01F002360E2ABCEF01F0010E0C6E0D
:1004BE00F1DD6FEF02F0020E0C6EC2DD6FEF02F097
:1004CE00040E0C6EDBDD6FEF02F0080E0C6E30DEEC
:0204DE0012000A
:1004E000F8C166F1F9C167F1FAC168F1020E0101C4
:1004F000F825F66E000EF921F76E000EFA21F86E5F
:100500000900F5CF04F0030EF825F66E000EF92170
:10051000F76E000EFA21F86E0900F5CF03F003C064
:1005200001F0006A045000245D6F000E01205E6F30
:10053000040EF825F66E000EF921F76E000EFA2172
:10054000F86E0900F5CF04F0050EF825F66E000EE2
:10055000F921F76E000EFA21F86E0900F5CF03F0CD
:1005600003C001F0006A045000244F6F000E012008
:10057000506F060EF825F66E000EF921F76E000E8C
:10058000FA21F86E0900F5CF6BF1000E6C6FFBC11C
:1005900069F1000E6A6FFCC171F1010E0001C56FB7
:0805A00001015F6B606B1200AA
:1005A800000E0101F85D0AE3F8517F0807E3000E29
:1005B800F95D04E3F9513F0801E301D04BD0F8C1DC
:1005C80000F245DDF9C100F20033009F0033009FBF
:1005D8000033009F30DDF8C100F293DD6BDD00C011
:1005E800FDF168DD00C0FDF1F9C100F20033009FA4
:1005F8000033009F0033009F1EDDF8C100F281DD4B
:10060800070E0101F915006E00C0FBF100C001F0F2
:10061800010E006E015004E000360090FF0FFBD77A
:1006280000C0FBF1001CFC6F09D0FC51FD170FD076
:10063800FB51FD130CD0FB51FD1B09D0FA51000AE8
:10064800F4E0FA51010AF4E0FA51020AF4E0FDC1BB
:0606580000F26ADD120051
:10065E00DEC104F0DFC105F004C002F005C003F0F6
:10066E00044A052AE0C100F0E1C101F00101E04BAE
:10067E00E12B00C0E9FF01C0EAFF02C0E1FF03C0A9
:10068E00E2FFEECFE6FF02C0E9FF03C0EAFFEE5243
:0E069E0001E0E2D7DEC100F0DFC101F0120082
:1006AC00DEC161F1DFC162F1E0C163F1E1C164F16E
:0206BC0012002A
:1006BE000A6A0350D8A40A800750D8A40A820A50A6
:1006CE00D8B4C2EF03F0030AD8B47BEF03F00AB03C
:1006DE0076EF03F006AEC0EF03F0BEEF03F002AE0E
:1006EE00BEEF03F0C0EF03F00250800B0A6E029EC5
:1006FE000650800B069E0A18D8B48CEF03F00A50F1
:10070E00D8B4BEEF03F0C0EF03F00750035CD8B4CB
:10071E0096EF03F0D8A0B2EF03F0B8EF03F0065057
:10072E00025CD8B4A0EF03F0D8A0B2EF03F0B8EF9C
:10073E0003F00550015CD8B4AAEF03F0D8A0B2EFD5
:10074E0003F0B8EF03F00450005CD8B4C2EF03F02E
:10075E00D8B0B8EF03F00A52D8B4C0EF03F0BEEF32
:10076E0003F00A52D8B4BEEF03F0C0EF03F0D88006
:0E077E001200D8901200D880D8841200120009
:10078C00000E0101E05D04E3E0513F0801E301D0FC
:10079C0027D0000EDE5DD8A0DE6BDE517F0802E2B2
:1007AC007F0EDE6F000EDF5DD8A0DF6BDF517F08A0
:1007BC0002E27F0EDF6FDE51DF5D06E2DEC1E2F1A9
:1007CC00DFC1DEF1E2C1DFF1DE51DF5D09E3DEC145
:1007DC00F8F1E0C1F9F1E1C1FAF1E0DEDE2BF4D77A
:0207EC001200F9
:1007EE000D6A086A0050D8B4000C04180A6E0ABECE
:1007FE000D1E0B6A04AE02D0041E042A00AE02D0F7
:10080E00001E002A005004100A6E0ABE1FD00450AB
:10081E00085E003600340836045008260036060EF0
:10082E000C6E00340836045000B0085E00A0082696
:10083E0000360C2EF6D700A008260BB015D00DAE44
:10084E00000C001E002A081E082A000C04AE09D057
:10085E0000BE04D00050086E006AF1D7006A002A6C
:10086E00000C001E0B2AD3D7082A0450085CD8A40B
:0E087E00E6D7086A002A00AEE2D7FF0C12008F
:10088C000450000A12E10550000A0FE10650000A5C
:10089C000CE10750000A09E1FF0E006EFF0E016E1D
:1008AC007F0E026EFF0E036EA8D0086A096A07500D
:1008BC00D8B4F1EF04F00350D8B4F6EF04F00250C2
:1008CC0006180A6E028E068E0E6A02C008F001C06F
:1008DC000CF000C00DF004500D5E0550D8A0053C86
:1008EC000C5E0650D8A0063C085E086A0C6A0D6ABD
:1008FC00D8A088EF04F0D8900232013200320832CE
:10090C00010E0E6E0750035ED8A095EF04F07E0E1C
:10091C000E240326D8B0FBEF04F09BEF04F07E0E00
:10092C000E240326D8A000EF05F0180E0B6E0D3622
:10093C000C3608360036013602360E360450005E90
:10094C000550D8A0053C015E0650D8A0063C025EBE
:10095C0006340E120EA0B6EF04F00D80C1EF04F0B9
:10096C00045000260550D8B0053C01260650D8B0DE
:10097C00062802260D900B2E9DEF04F0E7EF04F0F5
:10098C00D8900036013602360E360450005E055003
:10099C00D8A0053C015E0650D8A0063C025E063489
:1009AC000E10010B0D26D8B00C2AD8B4082AD8A4E6
:1009BC00E7EF04F008320C320D32032AD8B4FBEF07
:1009CC0004F00AAE089E0850026E0C50016E0D50D9
:1009DC00006E03EF05F0010ECEEC00F003EF05F016
:1009EC00020E9FEC00F003EF05F0040E45EC00F056
:0C09FC0003EF05F0080E51EC00F01200B3
:100A0800C26A0001F01D006E0050C116070EC01228
:100A1800C08EDEC100F00036009000360090005015
:100A2800C212C28062DCC282C2A201D0FDD7C4CF8A
:100A380001F0006AC3500012000E0112C2901200A9
:100A48000050086E0150006E016A026A036A0B6A60
:100A58000C6A960E036E0A6A00C001F008C000F026
:0A0A6800086A026A32EC01F0120085
:100A7200025006180E6E086A096A0B6A0350076470
:100A82002CEF06F006500A6E068E028E03500B6E95
:100A92000750036E000E0B647CEF05F00B50075EEF
:100AA200D8B41DEF06F0070E0764EBEF05F0075E02
:100AB20000C008F001C000F002C001F0026A074E57
:100AC2001DEF06F00764C0EF05F0075E00C008F0F6
:100AD20001C000F0016A074E1DEF06F007649EEFA9
:100AE20005F0075E00C008F0006A074E1DEF06F031
:100AF200076485EF05F00AC002F005C001F004C0EA
:100B020000F0086A49EF07F0030E076490EF05F062
:100B1200075E08380F0B086E074E1DEF06F0D890DF
:100B22000832074E1DEF06F0D8900832074E1DEF2F
:100B320006F0D89008321DEF06F0030E0764AFEFFF
:100B420005F0075E08380F0B086E0038F00B082618
:100B520000380F0B006E074E1DEF06F0D8900032E2
:100B62000832074E1DEF06F0D89000320832074EC9
:100B72001DEF06F0D890003208321DEF06F0030E8A
:100B82000764D7EF05F0075E08380F0B086E0038D0
:100B9200F00B082600380F0B006E0138F00B002610
:100BA20001380F0B016E074E1DEF06F0D89001328F
:100BB20000320832074E1DEF06F0D89001320032A3
:100BC2000832074E1DEF06F0D8900132003208328B
:100BD2001DEF06F0030E076408EF06F0075E083803
:100BE2000F0B086E0038F00B082600380F0B006E52
:100BF2000138F00B002601380F0B016E0238F00BA2
:100C0200012602380F0B026E074E1DEF06F0D89038
:100C12000232013200320832074E1DEF06F0D89040
:100C22000232013200320832074E1DEF06F0D89030
:100C32000232013200320832096A000E0EAE11EFA2
:100C420007F0081E001E011E021E082A00220122B1
:100C5200022211EF07F00750D8A432EF06F049EF55
:100C620007F0096A02C00AF0028E068E0750035C82
:100C7200076ED8B404EF07F0070E0764D2EF06F050
:100C8200075E0450096E0550046E0650056E066A32
:100C9200074E04EF07F0070E0764A7EF06F0075EA2
:100CA2000450096E0550046E056A074E04EF07F002
:100CB200070E076485EF06F0075E0450096E046AAA
:100CC200074E04EF07F0070E07646CEF06F00AC048
:100CD20002F049EF07F0030E076477EF06F0075EB4
:100CE20009380F0B096E074E04EF07F0D89009324E
:100CF200074E04EF07F0D8900932074E04EF07F0D1
:100D0200D890093204EF07F0030E076496EF06F05D
:100D1200075E09380F0B096E0438F00B09260438F8
:100D22000F0B046E074E04EF07F0D890043209321D
:100D3200074E04EF07F0D89004320932074E04EF51
:100D420007F0D8900432093204EF07F0030E07646B
:100D5200BEEF06F0075E09380F0B096E0438F00B80
:100D6200092604380F0B046E0538F00B04260538EB
:100D72000F0B056E074E04EF07F0D89005320432D0
:100D82000932074E04EF07F0D890053204320932D7
:100D9200074E04EF07F0D89005320432093204EF0F
:100DA20007F0030E0764EFEF06F0075E09380F0B3A
:100DB200096E0438F00B092604380F0B046E05384F
:100DC200F00B042605380F0B056E0638F00B0526CE
:100DD20006380F0B066E074E04EF07F0D890063266
:100DE200053204320932074E04EF07F0D89006327A
:100DF200053204320932074E04EF07F0D89006326A
:100E0200053204320932086A000E0EAE11EF07F005
:100E1200091E041E051E061E092A04220522062298
:100E220009500826045000220550012206500222D1
:100E32000EBE28EF07F0D8A037EF07F002320132DA
:100E420000320832033E37EF07F043EF07F0D8B025
:100E52003DEF07F0000E081E001E011E021E082AAA
:100E62000022012202220A7E3DEF07F0010E0C6EE3
:100E72007FEC01F04BEF07F0020E0C6E7FEC01F0FD
:100E82004BEF07F0040E0C6E45EC00F04BEF07F051
:060E9200000E0C6E1200C0
:100E98000101E66BE76BE86B0001C551000A0FE141
:100EA800EC0E0101F86F2F0EF96F000EFA6F010EAC
:100EB800FB6FFC6B70EC02F0010E0001C56F000EB9
:100EC800006E01015E51005C02E15D51DE5D01E2F0
:100ED800E8D0000E505D02E1DE514F5D01E2E1D045
:100EE8005D51DE5D016E5EC102F0000E025601C06A
:100EF80003F002C004F0033603900436033603906F
:100F08000436080E6625006E000E6721016E000E7D
:100F18006821026E000E056E00500326015004225F
:100F28000250052203C0F6FF04C0F7FF05C0F8FF12
:100F38000900F5CFE6F1010E0324F66E000E042039
:100F4800F76E000E0520F86E0900F5CF00F000C01E
:100F580006F0000E076E086E096E020E0324F66E88
:100F6800000E0420F76E000E0520F86E0900F5CF7C
:100F780003F003C001F0006A000E026E036E065013
:100F88000026075001220850022209500322665108
:100F98000024E36F67510120E46F68510220E56F78
:100FA8007151000A40E163C1E1F1E06B000E006E8F
:100FB8006C51005C02E16B51E05D2EE261C1E7F12A
:100FC800E26BDF6BE651DF5D24E2E251000A10E1DB
:100FD800E3C1F6FFE4C1F7FFE5C1F8FF0900F5CF6B
:100FE800E8F1010EE327000EE423E523010EE26F8A
:100FF800E251E815006E08E0E7C1F8F1E1C1F9F146
:1010080069C1FAF1D4EC02F0E72BE237E291DF2B69
:10101800D9D7E12BE02BCAD7E751010F616F626B7B
:10102800000E62233ED061C1E1F1E06B000E006E5C
:101038006C51005C02E16B51E05D2EE263C1E7F1A7
:10104800E26BDF6BE651DF5D24E2E251000A10E15A
:10105800E3C1F6FFE4C1F7FFE5C1F8FF0900F5CFEA
:10106800E8F1010EE327000EE423E523010EE26F09
:10107800E251E815006E08E0E1C1F8F1E7C1F9F1C5
:1010880069C1FAF1D4EC02F0E707E237E291DF2B0D
:10109800D9D7E12BE02BCAD7E705636F646B000E45
:0410A800645B120073
:1010AC000101F36BF46BF56BF66B5E51DF5D02E1E6
:1010BC005D51DE5D01E2BBD1DF51505D02E1DE51DD
:1010CC004F5D01E2B4D15D51DE5D036E5E51DF59BF
:1010DC00046E03C000F004C001F00036009001362D
:1010EC00003600900136080E5125F86F000E522183
:1010FC00F96F000E5321FA6F000E5421FB6F005054
:10110C00F8270150F923000EFA23FB23040EFC6F81
:10111C00000EFD6FD2EC00F0550EF16F010EF26F68
:10112C00F1C1E9FFF2C1EAFFEECFF7F1F7C1F3F13C
:10113C00010EF125E96E000EF221EA6EEECF04F0FD
:10114C00000E056E066E076E020EF125E96E000E9E
:10115C00F221EA6EEECF03F003C001F0006A000E3C
:10116C00026E036E04500026055001220650022226
:10117C000750032200505125E56F01505221E66FB4
:10118C0002505321E76F03505421E86FF7C100F070
:10119C000032009E0032009E0032009E000E016E56
:1011AC006BC104F06CC105F0A6EC00F000C0EBF1D3
:1011BC0001C0ECF1070EF715006E04E06B51EB2744
:1011CC006C51EC23EBC1EFF1ECC1F0F16FC1E1FF1D
:1011DC0070C1E2FFE5C1E6FFE6C1E6FFE7C1E6FF4D
:1011EC00E8C1E6FFEBC1E6FFECC1E6FFE90EE66EF7
:1011FC00010EE66E6DC100F06EC101F039EC00F02D
:10120C0000C0F1F101C0F2F10101E951E527EA5109
:10121C00E623000EE723E823E951EB5FEA51EC5B90
:10122C00ED6BEE6B7151000AD8A480D063C1E2F172
:10123C0064C1E3F1E16B000E006E6C51005C02E1E5
:10124C006B51E15D6CE261C1F4F162C1F5F1E46BEB
:10125C00E06BF351E05D5FE2E451000A4AE1ED4BD3
:10126C00EE2BF051EA5D02E1EF51E95D38E2EE510F
:10127C00EA5D02E1ED51E95D32E2010EED6F000E27
:10128C00EE6F6FC1E1FF70C1E2FFE5C1E6FFE6C1A1
:10129C00E6FFE7C1E6FFE8C1E6FFEBC1E6FFECC104
:1012AC00E6FFE90EE66E010EE66E6DC100F06EC152
:1012BC0001F039EC00F000C0F1F101C0F2F1EBC12A
:1012CC00EFF1ECC1F0F10101E951E527EA51E62318
:1012DC00000EE723E823E951EB5FEA51EC5BF1C127
:1012EC00E9FFF2C1EAFFEECFF6F1F14BF22B010E62
:1012FC00E46FE451F615006E08E0F4C1F8F1E2C1B8
:10130C00F9F169C1FAF1D4EC02F0F44BF52BE437A6
:10131C00E491E02B9ED7E24BE32BE12B8CD7010E13
:10132C00F425616F000EF521626F81D061C1E2F18D
:10133C0062C1E3F1E16B000E006E6C51005C02E1E6
:10134C006B51E15D6EE263C1F4F164C1F5F1E46BE4
:10135C00E06BF351E05D61E2E451000A4AE1ED4BD0
:10136C00EE2BF051EA5D02E1EF51E95D38E2EE510E
:10137C00EA5D02E1ED51E95D32E2010EED6F000E26
:10138C00EE6F6FC1E1FF70C1E2FFE5C1E6FFE6C1A0
:10139C00E6FFE7C1E6FFE8C1E6FFEBC1E6FFECC103
:1013AC00E6FFE90EE66E010EE66E6DC100F06EC151
:1013BC0001F039EC00F000C0F1F101C0F2F1EBC129
:1013CC00EFF1ECC1F0F10101E951E527EA51E62317
:1013DC00000EE723E823E951EB5FEA51EC5BF1C126
:1013EC00E9FFF2C1EAFFEECFF6F1F14BF22B010E61
:1013FC00E46FE451F615006E08E0E2C1F8F1F4C1B7
:10140C00F9F169C1FAF1D4EC02F0010EF45F000EAF
:10141C00F55BE437E491E02B9CD7E24BE32BE12B1B
:10142C008AD7010EF45D636F000EF559646F1200DC
:10143C000B6A0C6A086A0350D8B4A2EF0AF002C017
:10144C000AF0028E9E0E035E03AE92EF0AF0036C5E
:10145C00080E035CD8A05FEF0AF0036E083600C0DC
:10146C0008F001C000F002C001F0026A080E035C33
:10147C00D8A05FEF0AF0036E083600C008F001C078
:10148C0000F0016A080E035CD8A05FEF0AF0036E4F
:10149C00083600C008F0006A080E035CD8A05FEFA5
:1014AC000AF0036E0836086A0350D8A4D8906BEF84
:1014BC000AF00350D8B46BEF0AF0D8900232013224
:1014CC0000320832032E63EF0AF00BBC08A07CEF4D
:1014DC000AF0D8A07CEF0AF0082AD8B4002AD8B4B5
:1014EC00012AD8B4022A02BEA6EF0AF00AAEA2EF75
:1014FC000AF0021E011E001E081E082AD8B4002A7B
:10150C00D8B4012AD8B4022AA2EF0AF0026A016AFE
:10151C00006A086AA2EF0AF00B800BAEADEF0AF07E
:10152C00026A0AAEADEF0AF0026E016E006E086E32
:10153C000A360232ADEF0AF00C6A000EAEEF0AF07A
:10154C00010E0C6E000E6BEC01F0AEEF0AF0FF0E0C
:10155C000250036E0150026E0050016E0850006E76
:02156C0012006B
:10156E00086A096A000E076203643CEF0BF0025032
:10157E0006180A6E075003267E0ED8A0CDEF0AF08D
:10158E00035ED8B041EF0BF0D1EF0AF0035ED8A0A6
:10159E0046EF0BF0028E068E02C00EF001C00BF06D
:1015AE0000C00DF000500402F4CF0CF00150050203
:1015BE00F4CF00F0F3CF08F00402F3500C26F450F1
:1015CE000822000E00220D500502F3500C26F45096
:1015DE000822000E002202500402F3500826F45096
:1015EE00002202500502016A000E0122F35000266D
:1015FE00F45001220D500602F3500826F45000223A
:10160E00026A000E012202220B500602F35000263F
:10161E00F4500122000E02220E500602F350012653
:10162E00F450022202BE24EF0BF0083600360136CB
:10163E0002360306D8B446EF0BF037EF0BF0D88026
:10164E00800E08640030000E002201220222D8A073
:10165E0037EF0BF0023201320032034A41EF0BF04A
:10166E000AAE029E000E49EF0BF0010E9FEC00F049
:10167E0049EF0BF0020E45EC00F049EF0BF0040EB3
:06168E0051EC00F0120017
:10169400086A096A100E0C6E0134083609360450C3
:1016A400085E0550D8A0053C095ED8B007D00450A8
:1016B40008260550D8B0053C0926D89000360136D6
:0616C4000C2EEAD7120013
:1016CA00000E0101CE5D04E3CE517F0801E301D093
:1016DA0028D0000ECC5DD8A0CC6BCC513F0802E2DA
:1016EA003F0ECC6F000ECD5DD8A0CD6BCD513F081B
:1016FA0002E23F0ECD6FCC51CD5D06E2CCC1D0F1F6
:10170A00CDC1CCF1D0C1CDF1CC51CD5D0AE3CEC172
:10171A00F8F1CCC1F9F1CFC1FAF1D4EC02F0CC2B3B
:04172A00F3D71200DF
:10172E000101CD6BCE6BCF6BD06BCC6B640ECC5DF1
:10173E001AE2DE6B04EC05F024EC05F0CDC104F0EA
:10174E00CEC105F0CFC106F0D0C107F039EC05F0DF
:10175E0000C0CDF101C0CEF102C0CFF103C0D0F177
:10176E000101CC2BE3D7000E046E000E056E480E61
:10177E00066E850E076ECDC100F0CEC101F0CFC151
:10178E0002F0D0C103F046EC04F0000E046E000E21
:10179E00056E200E066E810E076EE2DE48DE12002A
:1017AE000050086E0150006E0250016E0350026E22
:1017BE00036A0B6A0C6A9E0E036E0A6A02AEF4EF9F
:1017CE000BF0081E001E011E021E082AD8B4002AA5
:1017DE00D8B4012AD8B4022A0A8E020E0C6E7FECFF
:0417EE0001F01200F4
:1017F2000101D96BDA6BDB6BDC6BDD6BCCC1D5F134
:10180200CDC1D6F1CEC1D7F1CFC1D8F1D851FF0A9F
:1018120008E1D751FF0A05E1D651FF0A02E1D5518D
:10182200FF0A0DE1D0C1DEF1D1C1DFF1F10EE06FAF
:10183200000EE16F2FEC03F0030E006E5CD2010E7E
:10184200D36FD7AF0FD0800ED719006E00C0D7F17B
:10185200D32BDA2BD0C1E1FFD1C1E2FF2D0EE66E10
:10186200D04BD12B000E006ED81908E10050D719C9
:1018720005E10050D61902E1D551000A0CE1D0C1B0
:10188200DEF1D1C1DFF1F50EE06F000EE16F2FEC5A
:1018920003F0006A30D2D851FF0A08E1D751000A9A
:1018A20005E1D651000A02E1D551000A0DE1D0C18D
:1018B200DEF1D1C1DFF1C60EE06F000EE16F2FEC59
:1018C20003F0D3C100F017D2000E046E000E056EB5
:1018D200000E066E7F0E076ED5C100F0D6C101F074
:1018E200D7C102F0D8C103F05FEC03F0010ED8B00B
:1018F200000E006E00521BE0D5C100F0D6C101F00F
:10190200D7C102F0D8C103F0000E046E000E056EBE
:10191200200E066E820E076E29DE00C0D5F101C0D0
:10192200D6F102C0D7F103C0D8F1DD07CDD7000E42
:10193200046E000E056E200E066E820E076ED5C175
:1019420000F0D6C101F0D7C102F0D8C103F05FECBC
:1019520003F0000ED8B0010E006E00521BE0D5C19C
:1019620000F0D6C101F0D7C102F0D8C103F0CD0E0C
:10197200046ECC0E056E4C0E066E7B0E076EF6DD07
:1019820000C0D5F101C0D6F102C0D7F103C0D8F131
:10199200DD2BCDD7FF0ED515086EFF0ED615096EBD
:1019A2007F0ED7150A6E000ED8150B6E08C004F014
:1019B20009C005F00AC006F00BC007F00436049017
:1019C200053606360736000ED515006E000ED61502
:1019D200016E000ED715026EFF0ED815036E00C001
:1019E200D5F101C0D6F102C0D7F103C0D8F104503D
:1019F200D511006E0550D611016E0650D711026E38
:101A02000750D811036E00C0D5F101C0D6F102C053
:101A1200D7F103C0D8F17F0ED85D006E00C0D4F1BB
:101A2200010ED86F00C004F0D5C100F0D6C101F09C
:101A3200D7C102F0D8C103F0045007E0003600908D
:101A4200013602360336FF0FF8D700C0D5F101C0C8
:101A5200D6F102C0D7F103C0D8F1D0C1E1FFD1C1A4
:101A6200E2FFD851300FE66ED04BD12BDA2B800E2D
:101A7200DD19006E800E010A005C08E3800E060A82
:101A8200006E800EDD19005C01E30BD0D0C1E1FFD6
:101A9200D1C1E2FF2E0EE66ED04BD12B010ED96FD3
:101AA200DA2B060ED46FD451000A58E0D86BD5C198
:101AB20000F0D6C101F0D7C102F0D8C103F0003660
:101AC20000900136023603360036009001360236A7
:101AD2000336D5510026D6510122D7510222D851C0
:101AE200032200C0D5F101C0D6F102C0D7F103C074
:101AF200D8F1D5C100F0D6C101F0D7C102F0D8C1EA
:101B020003F00036009001360236033600C0D5F1EC
:101B120001C0D6F102C0D7F103C0D8F1D0C1E1FFB4
:101B2200D1C1E2FFD851300FE66ED04BD12BDA2B68
:101B3200D951000A11E1DD07DD51000A0DE1010E64
:101B4200DC6FD0C1E1FFD1C1E2FF2E0EE66ED04BB9
:101B5200D12B010ED96FDA2BD407A5D7DC51010A9C
:101B6200D8B4DA07FF0ED025E96EFF0ED121EA6E56
:101B7200EE502E0A05E1010ED05F000ED15BDA07AE
:101B8200800E000A006E800EDD19005C02E2010E7A
:101B9200DB6F800EDD19006E800E000A005C02E22F
:101BA200020EDB6FDDC1D4F1800E090A006E800ED9
:101BB200DD19005C02E3DB2B02D0020EDB27DB51D6
:101BC200DA25016E026A000E0222800E0218006EF1
:101BD200800E005C02E1D251015C0AE2D0C1E1FF59
:101BE200D1C1E2FF300EE66ED04BD12BDA2BE7D714
:101BF200DD51000A43E0D0C1E1FFD1C1E2FF650E31
:101C0200E66ED04BD12B800EDD19006E800E000ADD
:101C1200005C0BE2D0C1E1FFD1C1E2FF2D0EE66E06
:101C2200D04BD12BDD510008DD6FDDC1D4F1800E28
:101C3200090A006E800EDD19005C0FE20A0E046EC6
:101C4200D4C100F0F7EC03F0D0C1E1FFD1C1E2FF53
:101C52000050300FE66ED04BD12B0A0E046ED4C169
:101C620000F0F7EC03F008C000F0D0C1E1FFD1C1F1
:101C7200E2FF0050300FE66ED04BD12BDB51DA255C
:101C8200006E00C0DAF1D251005C016E01C0D4F1E5
:101C9200800E000A006E800E0118005C0EE2800EBB
:101CA200000A006E800ED419005C06E2D407010E11
:101CB200D05F000ED15BF3D718D0800ED419006E1E
:101CC200800E000A005C11E2800ED419006E800EB4
:101CD200000A005C0AE2D42BD0C1E1FFD1C1E2FFCD
:101CE200300EE66ED04BD12BEFD7D0C1E1FFD1C180
:081CF200E2FFE66A006A12003D
:101CFA00000E0101CF5D02E1800ECE5D01E33CD012
:101D0A00000ED15D02E1400ED05D01E335D0D26B09
:101D1A00D36BCEC1DEF1CFC1DFF1D0C1E0F1D1C1C9
:101D2A00E1F156EC03F0D251CC25E96ED351CD2125
:101D3A00EA6EEE5221E05F51601111E0D251CC25DA
:101D4A00E96ED351CD21EA6EEECFDEF1000EDF6FE0
:101D5A00000EDF6F56EC08F0D24BD32B0CD0D251C9
:101D6A00CC25E96ED351CD21EA6EEECFDEF14CECF3
:0A1D7A0007F0D24BD32BD7D712008D
:101D84000101D06B050ED05D0AE2D051CE25E16E83
:101D9400000ECF21E26E200EE66ED02BF3D7D05189
:101DA400CE25E16E000ECF21E26EE66AD007D05157
:101DB400CE25D16F000ECF21D26F0A0E046E000E15
:101DC400056ECCC100F0CDC101F062DC08C000F0AA
:101DD40009C001F0300E0026D1C1E1FFD2C1E2FFFB
:101DE40000C0E6FF0A0E046E000E056ECCC100F0C2
:101DF400CDC101F04DDC00C0CCF101C0CDF1000E2D
:101E0400011802E1000E001801E102D0D007CFD77B
:021E14001200BA
:101E16000101CD6BCE6BCF6BD06BCC6B640ECC5D02
:101E26001BE2020EDE6F04EC05F024EC05F0CDC1DA
:101E360004F0CEC105F0CFC106F0D0C107F039ECF1
:101E460005F000C0CDF101C0CEF102C0CFF103C054
:101E5600D0F10101CC2BE2D7000E046E000E056E08
:101E6600480E066E850E076ECDC100F0CEC101F09C
:101E7600CFC102F0D0C103F046EC04F01EEC0AF02C
:021E8600120048
:101E8800CDC1D1F10101D151CF5D0CE3CCC1DEF15F
:101E9800CEC1DFF1D1C1E0F1D0C1E1F1C6EC03F070
:061EA800D12BF0D712005F
:101EAE0000C008F00150006E016A026A036A0B6AF4
:101EBE000C6A016A026A036A960E036E0A6A00AE23
:101ECE006FEF0FF0081E001E082AD8B4002A0A8EE3
:101EDE0000C001F008C000F0086A026A32EC01F09E
:021EEE001200E0
:101EF0000101CE6BCF6BCCC103F0CDC104F0CCC1DE
:101F000005F0CDC106F003C0E9FF04C0EAFFEE50C2
:101F1000200A04E1CE51CF1101E110D0010ECE6FA5
:101F2000000ECF6F03C0E9FF04C0EAFF05C0E1FF68
:101F300006C0E2FFEECFE6FF054A062A03C001F025
:101F400004C002F0034A042A01C0E9FF02C0EAFF0C
:101F5000EE50000AD8E1CCC100F0CDC101F0120072
:081F6000067E39EC05F01200C9
:101F6800819281800101C46BC451070811E3C4C187
:101F780000F21FEC00F00101C36BC3513F0806E3F8
:101F8800C2C100F298EC00F0C32BF7D7C42BECD7F2
:101F980081908182C46BC451070811E3C4C100F267
:101FA8001FEC00F00101C36BC3513F0806E3C2C137
:101FB80000F298EC00F0C32BF7D7C42BECD7120033
:101FC80084B216D084A014D08490010E0101A36FAE
:101FD800000EA46F010EA56F000EA66F820E0C6E88
:101FE800DD0E0D6E0D2EFED70C2EFCD70000000066
:021FF8001200D5
:101FFA00C2C1DEF1C4C1DFF1C3C1E0F1C6C1E1F182
:10200A00C6EC03F0C2C1DEF1C4C1DFF1C5C1E0F123
:10201A00C6C1E1F1C6EC03F0C3C1CCF1C5C1CDF133
:10202A00C2C1CEF1C6C1CFF165EC0BF0C3C1CCF190
:10203A00C5C1CDF1C4C1CEF1C6C1CFF165EC0BF07B
:02204A00120082
:10204C000101C66BC76BC86BC651070849E3020197
:10205C00006B2BEC00F0C6C100F21FEC00F0006B23
:10206C0085EC00F00101C56BC5513F0812E3C75167
:10207C00C225F66EC851C321F76E000EC421F86E4E
:10208C000900F5CF00F298EC00F0C74BC82BC52B1C
:10209C00EBD7400E0201006F2BEC00F0C6C100F232
:1020AC001FEC00F0400E006F85EC00F0400E0101BB
:1020BC00C56FC5517F0812E3C751C225F66EC851D2
:1020CC00C321F76E000EC421F86E0900F5CF00F2A3
:1020DC0098EC00F0C74BC82BC52BEBD7C62BB4D74D
:0220EC001200E0
:1020EE00010E0101C66F000EC76F97EC0BF0D7EC17
:1020FE000BF000C076F101C077F102C078F103C099
:10210E0079F1000E046EC00E056E7F0E066E880EFF
:10211E00076E46EC04F0000E046E000E056E480EBF
:10212E00066E850E076EB7EC0AF000C07AF101C09C
:10213E007BF102C07CF103C07DF100C0CCF101C087
:10214E00CDF102C0CEF103C0CFF1840E0101D06FEC
:10215E00010ED16F040ED26FF9EC0BF0840ECC6F22
:10216E00010ECD6FBEDEC6C100F0C7C101F098DE14
:10217E00C2C104F0C3C105F0C4C106F0C5C107F069
:10218E0039EC05F000C004F001C005F002C006F005
:10219E0003C007F076C100F077C101F078C102F0FC
:1021AE0079C103F05FEC03F0000ED8B0010E006EA3
:1021BE00005227E1C6C100F0C7C101F071DE00C0B8
:1021CE0004F001C005F002C006F003C007F0C2C162
:1021DE0000F0C3C101F0C4C102F0C5C103F0B9DE05
:1021EE0076C104F077C105F078C106F079C107F029
:1021FE005FEC03F0000ED8B0010E006E005201E14C
:10220E0043D0460ECC6F0F0ECD6F5C0ECE6F1E0EF2
:10221E00CF6FD06B32DE8B0EDE6F010EDF6F840E52
:10222E00E06F010EE16F2FEC03F0FA0ECC6F000E93
:10223E00CD6F0A0ECE6F000ECF6F0F0ED06F000E49
:10224E00D16F54DD840ECC6F010ECD6F480ECE6F64
:10225E00000ECF6F0F0ED06F000ED16F47DDF70E51
:10226E00CC6F000ECD6F5D0ECE6F000ECF6F0F0ECA
:10227E00D06F000ED16F3ADD76C1C2F177C1C3F1D6
:0A228E0078C1C4F179C1C5F1120056
:1022980084928480010E0101A36F000EA46FA56BC8
:1022A800A66B820E0C6EDD0E0D6E0D2EFED70C2E5B
:0822B800FCD700000000120039
:1022C0000101C86BC96BC2C1CAF1C3C1CBF1800E99
:1022D000C319006E800E005C02E1000EC25D0BE2CD
:1022E000010EC86F000EC96FC2510008CA6FC3C18A
:1022F000CBF1000ECB57CAC1CCF1CBC1CDF1C4C1DB
:10230000CEF1C5C1CFF13EDD060EC66F000EC76F20
:10231000000E006EC751005C02E1C651000819E2D0
:10232000C651C425E16EC751C521E26E010EC65DDE
:10233000006E000EC759016E0050C425E96E0150B1
:10234000C521EA6EEECFE6FF010EC65F000EC75B49
:10235000DFD7C4C1E1FFC5C1E2FF200EE66EC85160
:10236000C9111AE0C66BC76BC651C425E96EC751C7
:10237000C521EA6EEE50200A03E1C64BC72BF4D705
:10238000010EC65F000EC75BC651C425E16EC75182
:0A239000C521E26E2D0EE66E12006C
:10239A000F0E0101C66F000EC76F38DDD7EC0BF0C8
:1023AA0000C092F101C093F102C094F103C095F10B
:1023BA00000E046E000E056E700E066E830E076E1A
:1023CA00B7EC0AF0000E046EC00E056E7F0E066EA4
:1023DA00880E076E46EC04F000C096F101C097F132
:1023EA0002C098F103C099F100C0CCF101C0CDF14F
:1023FA0002C0CEF103C0CFF19A0E0101D06F010ED7
:10240A00D16F040ED26FF9EC0BF09A0ECC6F010E5D
:10241A00CD6F69DDC6C100F0C7C101F043DDC2C19D
:10242A0004F0C3C105F0C4C106F0C5C107F039EC18
:10243A0005F000C004F001C005F002C006F003C0B8
:10244A0007F092C100F093C101F094C102F095C166
:10245A0003F05FEC03F0000ED8B0010E006E0052DC
:10246A0027E1C6C100F0C7C101F01CDD00C004F0BD
:10247A0001C005F002C006F003C007F0C2C100F0B7
:10248A00C3C101F0C4C102F0C5C103F064DD92C149
:10249A0004F093C105F094C106F095C107F05FEC12
:1024AA0003F0000ED8B0010E006E005201E13BD0DD
:1024BA00460ECC6F0F0ECD6F590ECE6F1E0ECF6F1C
:1024CA00D06BDDDC120ECC6F010ECD6F0A0ECE6F13
:1024DA00000ECF6F0F0ED06F000ED16F09DC9A0E6F
:1024EA00CC6F010ECD6F460ECE6F000ECF6F0F0E62
:1024FA00D06F000ED16F7DEC0EF03E0ECC6F010E48
:10250A00CD6F5A0ECE6F000ECF6F0F0ED06F000E2A
:10251A00D16F7DEC0EF092C1C2F193C1C3F194C1A7
:08252A00C4F195C1C5F11200D6
:1025320084B216D084A014D08482010E0101A36F4C
:10254200000EA46F020EA56F000EA66F820E0C6E17
:10255200DD0E0D6E0D2EFED70C2EFCD700000000F6
:02256200120065
:10256400000E0101B31902E1010EB2190CE1010ED2
:10257400CC6F0D0ECD6F7E0ECE6F3E0ECF6FD06B37
:0A25840081DCB26BB36B07DF1200BD
:10258E00000E0101A21902E1010EA1193BE1C26B7D
:10259E00C36B7F0EC46F3F0EC56F010EC66F26DD77
:1025AE00CC6BCD6B7F0ECE6F0C0ECF6F010ED06F3E
:1025BE0064DCEC0EF86F2F0EF96F000EFA6FFB6BEA
:1025CE00FC6B70EC02F0B6C1CCF1B7C1CDF11E0EB2
:1025DE00CE6F000ECF6F010ED06F000ED16F7DEC5F
:1025EE000EF0EC0EF86F2F0EF96F000EFA6F010E53
:1025FE00FB6FFC6B70EC02F0A16BA26B010EB26F65
:06260E00000EB36F120084
:102614000101656B5F6B606B939A939893949396A7
:1026240093929390819A120E006E000E016E830EA7
:102634000024E16E0F0E0120E26EE66A8194819619
:1026440081928180818A3F0E836E1AEC00F0C00E65
:10265400836E1AEC00F0818281903F0E836E1AEC37
:0C26640000F0C00E836E1AEC00F01200B3
:102670000900F5CFE6FF0006FBE10106F9E11200D3
:102680000101C26B71DC82A408D09F0EC26F350EAF
:10269000C36F000EC46FDADCF6D7C26B65DC010EC7
:0826A000A16F000EA26F1200F1
:1026A800000E0101BA6F000EBB6F700EBC6F840E76
:1026B800BD6F000EBE6F000EBF6F340EC06F840E6C
:1026C800C16F97EC0BF0D7EC0BF0000E046EC00E48
:1026D800056E7F0E066E880E076E46EC04F0000E3F
:1026E800046E000E056E480E066E850E076EB7EC7A
:1026F8000AF000C0B6F101C0B7F102C0B8F103C0DA
:10270800B9F100C004F001C005F002C006F003C032
:1027180007F0BEC100F0BFC101F0C0C102F0C1C1E5
:1027280003F05FEC03F0000ED8B0010E006E00520B
:10273800D8A48086BAC104F0BBC105F0BCC106F0BC
:10274800BDC107F0B6C100F0B7C101F0B8C102F0D1
:10275800B9C103F05FEC03F0000ED8B0010E006EB3
:082768000052D8A48096120073
:10277000010E0101DE6F04EC05F000C0B0F101C0F4
:10278000B1F1800E026E800E0118025C02E1005071
:102790000A080CE2050E0101CC6F1E0ECD6F500E23
:1027A000CE6F280ECF6FD06B44EC0FF00101000EFE
:1027B000B51902E1010EB4194EE1B151AF1902E1B0
:1027C000AE51B0190FE0050ECC6F320ECD6F640E16
:1027D000CE6F3C0ECF6FD06B44EC0FF0B0C1AEF1BA
:1027E000B1C1AFF1B0C1C2F1B1C1C3F1A70EC46FA5
:1027F000010EC56F65DDA70ECC6F010ECD6F78ECB5
:102800000FF0A70ECC6F010ECD6F280ECE6F000E0D
:10281000CF6F320ED06F000ED16F7DEC0EF01C0E1C
:10282000CC6F010ECD6F050ECE6F000ECF6F320E46
:10283000D06F000ED16F7DEC0EF0020E0B6E450EC8
:102840000C6EA90E0D6E0D2EFED70C2EFCD70B2E86
:10285000FAD700000000800EB119006E800E005CF7
:1028600002E1500EB05D19E3800E006E800EB119CA
:10287000005C02E1B051640810E35BDE280E010148
:10288000CC6F010ECD6F050ECE6F000ECF6F1E0EFA
:10289000D06F000ED16F7DEC0EF0800EB119006E7E
:1028A000800E005C02E1780EB05D18E3800E006ED1
:1028B000800EB119005C02E1B0518C080FE3ECDC32
:1028C000300ECC6F010ECD6F050ECE6F000ECF6FA8
:1028D0001E0ED06F000ED16F7DEC0EF0800EB11980
:1028E000006E800E005C02E1AA0EB05D1AE3800E5D
:1028F000006E800EB119005C02E1B051BE0811E318
:10290000E4EC0FF0230E0101CC6F010ECD6F050E2C
:10291000CE6F000ECF6F1E0ED06F000ED16F7DEC0C
:102920000EF0800EB119006E800E005C02E1C80E40
:10293000B05D18E3800E006E800EB119005C02E1FC
:10294000B051DC080FE3080ECC6F010ECD6F050E01
:10295000CE6F000ECF6F1E0ED06F000ED16F7DECCC
:102960000EF08086800EB119006E800E005C02E1D0
:10297000E60EB05D18E3800E006E800EB119005CAB
:1029800002E1B051F0080FE3900ECC6F000ECD6F56
:10299000050ECE6F000ECF6F1E0ED06F000ED16FE2
:1029A0007DEC0EF08096800EB119006E800E010A4B
:1029B000005C02E1360EB05D19E3800E010A006E84
:1029C000800EB119005C02E1B0514A080FE39B0E82
:1029D000CC6F000ECD6F050ECE6F000ECF6F1E0EAA
:1029E000D06F000ED16F7DEC0EF0807A800EB119A1
:1029F000006E800E020A005C02E14E0EB05D19E32B
:102A0000800E020A006E800EB119005C02E1B05126
:102A100062080FE3890ECC6F000ECD6F050ECE6FEE
:102A2000000ECF6F1E0ED06F000ED16F7DEC0EF03A
:102A30008076800EB119006E800E020A005C02E101
:102A4000A80EB05D19E3800E020A006E800EB11967
:102A5000005C02E1B051BC080FE37B0ECC6F000EAE
:102A6000CD6F050ECE6F000ECF6F1E0ED06F000E15
:102A7000D16F7DEC0EF08078800EB119006E800E63
:102A8000030A005C02E13E0EB05D31E3800E030AF2
:102A9000006E800EB119005C02E1B051520827E3CC
:102AA000810ECC6F000ECD6F050ECE6F000ECF6F76
:102AB0001E0ED06F000ED16F7DEC0EF0000EB5191A
:102AC00002E1000EB41913E1800E4C19006E800E65
:102AD0004E19005C02E14D514B5D03E24B4B4C2B18
:102AE00002D04B6B4C6B010EA16F000EA26F800EDB
:102AF000B119006E800E030A005C02E1700EB05D39
:102B00003FE3800E030A006E800EB119005C02E103
:102B1000B051840835E3BC0ECC6F000ECD6F050EAE
:102B2000CE6F000ECF6F1E0ED06F000ED16F7DECFA
:102B30000EF0060E0B6E130E0C6EAD0E0D6E0D2EFE
:102B4000FED70C2EFCD70B2EFAD700000000B45194
:102B5000B511010ED8A4000EB46F000EB56F000EB3
:102B6000B51902E1000EB4190BE1050ECC6F320E5F
:102B7000CD6F640ECE6F3C0ECF6FD06B44EC0FF078
:102B8000800EB119006E800E030A005C02E1D40EC3
:102B9000B05D34E3800E030A006E800EB119005C54
:102BA00002E1B051E8082AE3B30ECC6F000ECD6FFE
:102BB000050ECE6F000ECF6F1E0ED06F000ED16FC0
:102BC0007DEC0EF0000EB51902E1000EB41916E10D
:102BD000800E006E800E4C19005C02E14B51000823
:102BE00005E2010E4B5F000E4C5B04D04DC14BF172
:0E2BF0004EC14CF1010EA16F000EA26F12003B
:102BFE00000E0101B31902E1010EB21911E1010E2D
:102C0E00CC6F0D0ECD6F7E0ECE6F3E0ECF6FD06B96
:102C1E0044EC0FF0010EA36F000EA46FB26BB36BFA
:102C2E00000EA41902E1010EA319D8A415D1C26B8E
:102C3E00330EC36F7F0EC46F3F0EC56F010EC66F8E
:102C4E00FDEC0FF0010ECC6F340ECD6F7E0ECE6FFD
:102C5E003E0ECF6FD06B44EC0FF0EAD0A60ECC6FC9
:102C6E00000ECD6F060ECE6F000ECF6F340ED06FEE
:102C7E00000ED16F7DEC0EF02B0ECC6F330ECD6FA0
:102C8E00550ECE6F3E0ECF6F010ED06F44EC0FF08F
:102C9E00EC0EF86F2F0EF96F000EFA6FFB6BFC6BDC
:102CAE0070EC02F0AB0ECC6F000ECD6F370ECE6F08
:102CBE00000ECF6F340ED06F000ED16F7DEC0EF084
:102CCE00EC0EF86F2F0EF96F000EFA6F010EFB6F00
:102CDE00FC6B70EC02F0AF0ECC6F000ECD6F600E81
:102CEE00CE6F000ECF6F340ED06F000ED16F7DEC15
:102CFE000EF0A36BA46BB0D0010ECC6F330ECD6F64
:102D0E002A0ECE6F3E0ECF6F010ED06F44EC0FF039
:102D1E00EC0EF86F2F0EF96F000EFA6FFB6BFC6B5B
:102D2E0070EC02F0760ECC6F000ECD6F060ECE6FED
:102D3E00000ECF6F340ED06F000ED16F7DEC0EF003
:102D4E00EC0EF86F2F0EF96F000EFA6F010EFB6F7F
:102D5E00FC6B70EC02F0300ECC6F000ECD6F370EA8
:102D6E00CE6F000ECF6F340ED06F000ED16F7DEC94
:102D7E000EF0340ECC6F000ECD6F600ECE6F000EC7
:102D8E00CF6F340ED06F000ED16F7DEC0EF0A36BB3
:102D9E00A46B62D0380ECC6F000ECD6F060ECE6FC8
:102DAE00000ECF6F340ED06F000ED16F7DEC0EF093
:102DBE002C0ECC6F000ECD6F370ECE6F000ECF6F78
:102DCE00340ED06F000ED16F7DEC0EF0550ECC6F21
:102DDE00330ECD6F7E0ECE6F3E0ECF6F010ED06FC7
:102DEE0044EC0FF0EC0EF86F2F0EF96F000EFA6F29
:102DFE00FB6BFC6B70EC02F0150ECC6F000ECD6F02
:102E0E00600ECE6F000ECF6F340ED06F000ED16FEE
:102E1E007DEC0EF0EC0EF86F2F0EF96F000EFA6FC0
:102E2E00010EFB6FFC6B70EC02F0A36BA46B14D065
:102E3E00000EA61902E1000EA519D8B40FD7000E88
:102E4E00A61902E1010EA519D8B456D7000EA6197F
:0A2E5E0002E1020EA5199EE0120029
:102E6800000E0101B31902E1010EB2190DE1010EC4
:102E7800CC6F0D0ECD6F7E0ECE6F3E0ECF6FD06B2A
:0E2E880044EC0FF0B26BB36B77EC10F012005D
:102E960066EC1DF0190E0101416F000E426F630EC4
:102EA600476F000E486F500E496F000E4A6F3D0E79
:102EB600436F000E446FCA0E456F000E466FDD0E5F
:102EC600826F000E836F060E4D6F000E4E6F7E6B87
:102ED6007F6B806B816B726B736B746B756B0C0E97
:102EE600C112070EB412070E926E800E946EF00E8B
:102EF600956E966A816A826A836A846A0AEC13F01E
:102F0600C26BB4EC0FF0040E4B6F000E4C6F010E4B
:102F1600A16F000EA26FB46BB56B010EA56F000E0C
:102F2600A66F80968098809A2ED041C1B6F142C194
:102F3600B7F1C7EC12F060DE4BD047C1B6F148C11D
:102F4600B7F1C7EC12F044D049C1B6F14AC1B7F1A6
:102F5600C7EC12F03DD043C1B6F144C1B7F1C7EC9E
:102F660012F036D045C1B6F146C1B7F1C7EC12F042
:102F760078DF2ED082C1B6F183C1B7F1C7EC12F06B
:102F8600B2EC12F025D00101000E4C1902E1000E40
:102F96004B19CBE0000E4C1902E1010E4B19CDE0A6
:102FA600000E4C1902E1020E4B19CEE0000E4C1930
:102FB60002E1030E4B19CFE0000E4C1902E1040E9C
:102FC6004B19D0E0000E4C1902E1050E4B19D2E068
:102FD600B8EC13F054EC13F082A403D040EC13F0D9
:062FE600FBD7A2D7FFD7C4
:103ACC0010EE15F02C0E006E020E016E9F0EF66EAF
:0E3ADC00390EF76E000EF86E38EC13F0120083
:102FEC00000020007F000B0001880100019301000C
:102FFC00039E010007A9010005B4010009BF0100EF
:10300C0006D5010001E0010003EB010002F601000E
:10301C0005010200060C0200021702000222020047
:10302C00022D02000338020004430200044E020089
:10303C000459020004640200056F0200047A0200C5
:10304C000485020004900200049B020004A6020006
:10305C0002B1020002BC020006C7020006D2020046
:10306C0006DD020004E8020007F3020006FE02007F
:10307C000509030006140300061F0300052A0300BC
:10308C000535030006400300064B030003560300FE
:10309C0003610300056C030004770300078203003F
:1030AC00068D03000798030005A3030007AE030079
:1030BC0005B9030005C4030005CF030006DA0300BD
:1030CC0006E5030007F0030004FB030005060400FB
:1030DC0004110400021C0400032704000232040043
:1030EC00053D04000548040003530400045E04007D
:1030FC000469040003740400047F0400048A0400BF
:10310C000395040004A0040004AB040001B6040001
:10311C0002C1040004CC040001D7040007E204003F
:10312C0004ED040004F8040004030500040E05007B
:10313C000319050003240500022F0500043A0500BD
:10314C000545050007500500035B050005660500F5
:10315C0003710500037C050002870500039205003E
:10316C00069D050002A805000000000000000000FC
:10317C000000000000010101010100010000000538
:10318C00050500000000000000000024247E143F10
:10319C00121200000000041E05060C140F0404009B
:1031AC00000000460029002900D60028012801C48F
:1031BC00000000000000000609091609192600008D
:1031CC0000010101000000000000000004020101E8
:1031DC0001010101020400000102020202020201CB
:1031EC000004150E1504000000000000000000088B
:1031FC00083E080800000000000000000000020269
:10320C0001000000000000000300000000000000AE
:10321C00000000000202000000040402020202028C
:10322C000101000000060909090909060000000057
:10323C000406040404040E0000000007080804023D
:10324C00010F00000000070808060808070000002E
:10325C0000080C0A091F0808000000000F010107F4
:10326C000808070000000006010107090906000014
:10327C0000000F0804040202010000000006090906
:10328C0006090906000000000609090E08080600D8
:10329C00000000000002020002020000000000001A
:1032AC000202000202010000000000201C021C208F
:1032BC00000000000000003F003F00000000000084
:1032CC0000021C201C020000000007080804020079
:1032DC0002000000001C2259555539021C00000048
:1032EC000C0C12123F2121000000000709090F11DC
:1032FC00110F000000001C22010101221C00000023
:10330C00000F11212121110F000000001F01010FDE
:10331C0001011F000000001F01010F01010100004D
:10332C0000001C22013921223C0000000021212137
:10333C003F212121000000000702020202020700C7
:10334C00000000060404040404030000000011093A
:10335C000503050911000000000101010101010F25
:10336C0000000000636355554949410000000021ED
:10337C00232529312121000000001C22414141223A
:10338C001C000000000F1111110F010100000000C2
:10339C001C22414141221C106000000F11110F052D
:1033AC000911000000001E01010E10100F0000009A
:1033BC00001F040404040404000000002121212146
:1033CC0021211E0000000021212112120C0C0000F2
:1033DC0000004949555555222200000000090906F4
:1033EC000606090900000000110A0A04040404007E
:1033FC000000000F08040202010F0000000301018D
:10340C000101010101010300010102020202020497
:10341C000400000302020202020202020300000482
:10342C000A11000000000000000000000000000075
:10343C0000001F000204000000000000000000005B
:10344C00000006080E090E00000001010107090921
:10345C000907000000000000060101010600000041
:10346C000808080E0909090E0000000000000609F2
:10347C000F010E000000060101070101010100000F
:10348C00000000000E0909090E08060001010107E1
:10349C0009090909000000000100010101010100F6
:1034AC0000000002000302020202020100010101FD
:1034BC0009050305090000000101010101010101D9
:1034CC000000000000003749494949000000000095
:1034DC000007090909090000000000000609090994
:1034EC00060000000000000709090907010100009F
:1034FC0000000E0909090E08080000000005030170
:10350C000101000000000000070102040700000098
:10351C000000010301010102000000000000090984
:10352C0009090E000000000000110A0A0A0400003C
:10353C00000000004949553622000000000000053B
:10354C0002020205000000000000110A0A0A04042D
:10355C000200000000070402010700000004020240
:10356C000202010202020400020202020202020230
:10357C000202000102020202040202020100000027
:10358C0000002619000000000000000303030303E1
:03359C000000002C
:10359F00000000000000000000000000000000001C
:1035AF00000000000000000000000000000000000C
:1035BF0000000000000000000000000000000000FC
:1035CF0000000000000000000000000000000000EC
:1035DF0000000000000000000000000000000000DC
:1035EF0000000000000000000000000000000000CC
:1035FF0000000000000000000000000000000000BC
:10360F0000000000000000000000000000000000AB
:10361F00000000000000000000000000000000009B
:10362F00000000000000000000000000000000008B
:10363F00000000000000000000000000000000007B
:10364F00000000000000000000000000000000006B
:10365F00000000000000000000000000000000005B
:10366F00000000000000000000000000000000004B
:10367F00000000000000000000000000000000003B
:10368F00000000000000000000000000000000002B
:10369F00000000000080808080808080800000001B
:1036AF00808080000000008080800000008080808B
:1036BF00808080808000000000808080808080007B
:1036CF0000000000000000808080808080000000EB
:1036DF000080A0B89898B0A0800000008080800083
:1036EF0000000000808000000000000080808080CB
:1036FF0000000000008080808080808080000000BB
:10370F0000000080808080000000000000000000AA
:10371F000000000000FFFFFF3131313131000000A8
:10372F00FFFF073FF0F01F07FFFF000000FFFFFF45
:10373F00313131313100000000FFFF6161E1F3BF32
:10374F001F000000FCFE070301313131F1F30000CF
:10375F0000FFFFFF3131313131000000FFFF0F1F3C
:10376F007CF0C080FFFF0000F8FEFF0303010101A2
:10377F000100000000010101FFFF01010100000035
:10378F0000E0FC9F8387BFFCE0000000000000000A
:10379F0000000000000F0F0F0C0C0C0C0C000000B1
:1037AF000F0F0000000000000F0F0000000F0F0FA1
:1037BF000C0C0C0C0C000000000F0F000000030F8E
:1037CF000E0800000107070E0C0C0C0C0F07000071
:1037DF00000F0F0F0C0C0C0C0C0000000F0F000053
:1037EF000001070F0F0F00000103070E0C0C0C0C4C
:1037FF0006000000000C0C0C0F0F0C0C0C00000846
:10380F000F0F0101010101030F0F00000000000065
:10381F000000000000000000000000000000000099
:10382F000000000000000000000000000000000089
:10383F000000000000000000000000000000000079
:10384F000000000000000000000000000000000069
:10385F000000000000000000000000000000000059
:10386F000000000000000000000000000000000049
:10387F000000000000000000000000000000000039
:10388F000000000000000000000000000000000029
:10389F000000000000000000000000000000000019
:1038AF000000000000000000000000000000000009
:1038BF0000000000000000000000000000000000F9
:1038CF0000000000000000000000000000000000E9
:1038DF0000000000000000000000000000000000D9
:1038EF0000000000000000000000000000000000C9
:1038FF0000000000000000000000000000000000B9
:10390F0000000000000000000000000000000000A8
:10391F000000000000000000000000000000000098
:10392F000000000000000000000000000000000088
:10393F000000000000000000000000000000000078
:10394F000000000000000000000000000000000068
:10395F000000000000000000000000000000000058
:10396F000000000000000000000000000000000048
:10397F000000000000000000000000000000000038
:10398F000000000000000000000000000000000028
:04399F00474D470049
:1039A30020202030202D205072696E636970616C75
:0339B300202000D1
:0439B6004F46460032
:0439BA004F4646002E
:0439BE00474D47002A
:0539C2005245444500E0
:1039C700202033202D204672657175656E6369610D
:0339D700202000AD
:1039DA002032202D20436F7272656E746520526505
:0339EA0064650011
:1039ED002031202D2054656E73616F205265646502
:0339FD0020200087
:053A00005245444500A1
:063A0500526573657400B8
:083A0B004469726569746100F1
:073A13004D616E75616C004E
:0B3A1A0050617274697220474D470034
:0B3A25004175746F6D617469636F0080
:053A3000524544450071
:043A35004F464600B2
:043A3900474D4700AE
:093A3D0045737175657264610046
:093A460043616C69627261720057
:013A4F000076
:043A5000494E460095
:103A54002034202D2054656D706572617475726117
:033A64002020001F
:103A670035202D2054656E73616F20426174657235
:033A770069610082
:013A7A00301B
:043A7B004E614E004A
:023A7F00300015
:033A8100432000DF
:0E3A840054656D70657261747572613A200050
:0A3A9200506172617220474D470039
:0A3A9C00426174657269613A20000E
:073AA600426F74616F3A00EA
:053AAD00526564650094
:083AB20047657261646F720048
:0E3ABA004465736C6967612043617267610047
:033AC80056200085
:020000040030CA
:0E000000044C191EFF0380FF0FC00FE00F40DD
:00000001FF
