:1000000012EF19F00000000000EF00F00000000007
:0A0010000000000000000000F3D71C
:0C001C00100E0D6E0D2EFED7000012001D
:0C002800000000000000000000001200BA
:0A003400F3DF8188F1DF81981200EC
:10003E000B820BAE29EF00F00368026801680068BE
:08004E000A360232FF0E120017
:10005600120E006E000E016E830E0024E16E0F0E6E
:100066000120E26EFF0EE66EDCDFDBDF8184819825
:1000760081868188D0DF83CF0FF281988196D1DF88
:10008600D0DF120E006E000E016E830E0024E16EAC
:0E0096000F0E0120E26EE66A0FC200F01200AB
:0E00A4008198818481960FC283FFC2DF120013
:1000B200F250026EF29E0500FF6A0150FE6E005081
:0800C200FD6E02BEF28E120079
:1000CA0081948196B80E02010F11836EAEDF120081
:1000DA007F0E02010F15006E00C00FF28194819607
:1000EA00BF0E001600C00FF2008C00C00FF200C055
:0600FA0083FF9BDF1200F2
:100100007F0E02010F15016E01C00FF201AC03D08A
:0C0110008182819002D0819281801200D7
:0E011C00026A016A006A086A036A000E120095
:08012A000AAE029E000E120055
:100132000B840BAEA4EF00F0010E036E026A016A9B
:0A014200006A0A360232FF0E1200B6
:10014C006C0E02010D6F010E0E6F000E006E06514B
:10015C00005C02E10551000843E276C1E1FF77C182
:10016C00E2FF01C2E6FF02C2E6FF03C2E6FF04C2E1
:10017C00E6FF05C2E6FF06C2E6FF090EE66E020EBA
:10018C00E66E74C100F075C101F08DDF00C00BF29A
:10019C0001C00CF20201076B086B0A51085D02E109
:1001AC000951075D11E20BC2E9FF0CC2EAFF0DC257
:1001BC00E1FF0EC2E2FFEECFE6FF0D4B0E2B0B4B19
:1001CC000C2B074B082BE9D70951055F0A51065B2D
:1001DC00095101270A510223000E03230423B5D72A
:0201EC001200FF
:1001EE000B6A0A6A096A00500402F4CF09F0F3CFD1
:1001FE0008F001500502F4CF0BF0F3CF0AF00050D7
:10020E000502F3500926F4500A22E86A0B22015027
:10021E000402F3500926F4500A22E86A0B2208C0A1
:10022E0000F009C001F00AC002F00BC003F012008A
:10023E00000E0201015D0AE301517F0807E3000E83
:10024E00025D04E302513F0801E301D04ED001C22A
:10025E000FF24FDF02C20FF20F330F9F0F330F9FBC
:10026E000F330F9F2BDF01C20FF230DFEDDE00C028
:10027E0004F2EADE00C004F202C20FF20F330F9F47
:10028E000F330F9F0F330F9F19DF01C20FF21EDFC7
:10029E00070E0215006E00C0FFF100C001F0010E46
:1002AE00006E015004E000360090FF0FFBD700C037
:1002BE00FFF1001C006F0DD00051041713D0010187
:1002CE00FF51020104130ED00101FF510201041B64
:1002DE0009D00351000AF0E00351010AF0E0035186
:0C02EE00020AF2E004C20FF2D6DE120099
:1002FA0001C263F102C264F103C265F1020E020196
:10030A000125F66E000E0221F76E000E0321F86E2B
:10031A000900F5CF04F0030E0125F66E000E022146
:10032A00F76E000E0321F86E0900F5CF03F003C043
:10033A0001F0006A0450002401015D6F000E0120E3
:10034A005E6F040E02010125F66E000E0221F76EA1
:10035A00000E0321F86E0900F5CF04F0050E012501
:10036A00F66E000E0221F76E000E0321F86E0900E8
:10037A00F5CF03F003C001F0006A04500024010124
:10038A005F6F000E0120606F060E02010125F66EF6
:10039A00000E0221F76E000E0321F86E0900F5CF58
:1003AA0061F1000E0101626F04C27DF1000E7E6FE1
:1003BA0005C27FF1010E0001C66F0101666B676B12
:0203CA0012001F
:1003CC000C6A0E6A0250D8A4FFEF01F001C002F0D3
:1003DC0000C001F0006A0E860250D8A4FFEF01F0B5
:1003EC0001C002F0016A0E960E880250D8B411EFCB
:1003FC0002F00E50035ED8A4D8A016EF02F0D890ED
:10040C0002BE1BEF02F0003601360236032E06EF59
:10041C0002F016EF02F0010E0C6E7ADE1EEF02F007
:10042C00020E0C6E80DE1EEF02F0040E0C6E77DEF8
:02043C001200AC
:0C043E00240E0D6E0D2EFED700001200E3
:10044A000CB067EF02F00CA20DEF03F00E6A000E7B
:10045A0002647EEF02F0F00E0214D8A449EF02F013
:10046A00023A01380F0B02260138F00B016E0038F0
:10047A000F0B01260038F00B006E08380F0B002610
:10048A000838F00B086E0E84D89002BE62EF02F0B4
:10049A0008360036013602360E2A02BE62EF02F034
:1004AA0008360036013602360E2A02BE62EF02F024
:1004BA0008360036013602360E2A0E50036403EF60
:1004CA0003F0035E0BBC08AE08EF03F0D880800E81
:1004DA0008640030000E002201220222D8A008EF90
:1004EA0003F0023201320032034A0DEF03F008EF43
:1004FA0003F001C002F000C001F008C000F0086A71
:10050A00000E0E860264B5EF02F0F00E0214D8A4B3
:10051A009DEF02F0023A01380F0B02260138F00B68
:10052A00016E00380F0B01260038F00B006E0E84A6
:10053A00D89002BE62EF02F00036013602360E2A69
:10054A0002BE62EF02F00036013602360E2A02BE01
:10055A0062EF02F00036013602360E2A62EF02F02E
:10056A0001C002F000C001F0006A000E0E960E886B
:10057A000264E2EF02F0F00E0214D8A4CDEF02F00A
:10058A00023A01380F0B02260138F00B016E0E8475
:10059A00D89002BE62EF02F0013602360E2A02BE7F
:1005AA0062EF02F0013602360E2A02BE62EF02F054
:1005BA00013602360E2A62EF02F001C002F0016A29
:1005CA00000E0E86026412EF03F0F00E0214D8A495
:1005DA00F1EF02F0023A0E84D89002BE62EF02F006
:1005EA0002360E2A02BE62EF02F002360E2A02BE5E
:1005FA0062EF02F002360E2A62EF02F0010E0C6E72
:10060A0093DD15EF03F0020E0C6E8ADD15EF03F091
:10061A00040E0C6E0FDD15EF03F0080E0C6E79DD7B
:02062A001200BC
:10062C000B800BAE22EF03F0026A0AAEFF0E026ED5
:0C063C00016E006E0A360232FF0E120042
:080648000B6A0B86FF0E120085
:100650000450000A12E10550000A0FE10650000A9A
:100660000CE10750000A09E1FF0E006EFF0E016E5B
:100670007F0E026EFF0E036EA4D0086A096A07504F
:10068000D8B4D3EF03F00350D8B4D7EF03F002503F
:1006900006180A6E028E068E0E6A02C008F001C0AD
:1006A0000CF000C00DF004500D5E0550D8A0053CC4
:1006B0000C5E0650D8A0063C085E086A0C6A0D6AFB
:1006C000D8A06AEF03F0D89002320132003208322B
:1006D000010E0E6E0750035ED8A077EF03F07E0E7A
:1006E0000E240326D8B0DBEF03F07DEF03F07E0E7F
:1006F0000E240326D8A0DFEF03F0180E0B6E0D3684
:100700000C3608360036013602360E360450005ECE
:100710000550D8A0053C015E0650D8A0063C025EFC
:1007200006340E120EA098EF03F00D80A3EF03F035
:10073000045000260550D8B0053C01260650D8B01C
:10074000062802260D900B2E7FEF03F0C9EF03F071
:10075000D8900036013602360E360450005E055041
:10076000D8A0053C015E0650D8A0063C025E0634C7
:100770000E10010B0D26D8B00C2AD8B4082AD8A424
:10078000C9EF03F008320C320D32032AD8B4DBEF84
:1007900003F00AAE089E0850026E0C50016E0D5018
:1007A000006EE1EF03F0010E4FDFE1EF03F0020E08
:1007B000B5DCE1EF03F0040E42DCE1EF03F0080EDC
:0407C000B8DC12008F
:1007C400086A096A000E0762036467EF04F00250C6
:1007D40006180A6E075003267E0ED8A0F8EF03F021
:1007E400035ED8B06BEF04F0FCEF03F0035ED8A017
:1007F40070EF04F0028E068E02C00EF001C00BF002
:1008040000C00DF000500402F4CF0CF001500502BA
:10081400F4CF00F0F3CF08F00402F3500C26F450A8
:100824000822000E00220D500502F3500C26F4504D
:100834000822000E002202500402F3500826F4504D
:10084400002202500502016A000E0122F350002624
:10085400F45001220D500602F3500826F4500022F1
:10086400026A000E012202220B500602F3500026F7
:10087400F4500122000E02220E500602F35001260B
:10088400F450022202BE4FEF04F00836003601365F
:1008940002360306D8B470EF04F062EF04F0D88097
:1008A400800E08640030000E002201220222D8A02B
:1008B40062EF04F0023201320032034A6BEF04F0BB
:1008C4000AAE029E000E72EF04F0010E25DC72EFF8
:1008D40004F0020E1FEC00F072EF04F0040E27DCAB
:0208E400120000
:1008E600025006180E6E086A096A0B6A03500764FE
:1008F60066EF05F006500A6E068E028E03500B6EEA
:100906000750036E000E0B64B6EF04F00B50075E43
:10091600D8B457EF05F0070E076425EF05F0075E1C
:1009260000C008F001C000F002C001F0026A074EE4
:1009360057EF05F00764FAEF04F0075E00C008F011
:1009460001C000F0016A074E57EF05F00764D8EFC3
:1009560004F0075E00C008F0006A074E57EF05F086
:100966000764BFEF04F00AC002F005C001F004C03E
:1009760000F0086A83EF06F0030E0764CAEF04F07E
:10098600075E08380F0B086E074E57EF05F0D89034
:100996000832074E57EF05F0D8900832074E57EF4A
:1009A60005F0D890083257EF05F0030E0764E9EF1B
:1009B60004F0075E08380F0B086E0038F00B0826A7
:1009C60000380F0B006E074E57EF05F0D890003237
:1009D6000832074E57EF05F0D89000320832074E1E
:1009E60057EF05F0D8900032083257EF05F0030EA6
:1009F600076411EF05F0075E08380F0B086E003824
:100A0600F00B082600380F0B006E0138F00B00269D
:100A160001380F0B016E074E57EF05F0D8900132E3
:100A260000320832074E57EF05F0D89001320032F7
:100A36000832074E57EF05F0D890013200320832DF
:100A460057EF05F0030E076442EF05F0075E08381E
:100A56000F0B086E0038F00B082600380F0B006EDF
:100A66000138F00B002601380F0B016E0238F00B2F
:100A7600012602380F0B026E074E57EF05F0D8908D
:100A86000232013200320832074E57EF05F0D89095
:100A96000232013200320832074E57EF05F0D89085
:100AA6000232013200320832096A000E0EAE4BEFF6
:100AB60006F0081E001E011E021E082A0022012240
:100AC60002224BEF06F00750D8A46CEF05F083EF37
:100AD60006F0096A02C00AF0028E068E0750035C11
:100AE600076ED8B43EEF06F0070E07640CEF06F06B
:100AF600075E0450096E0550046E0650056E066AC0
:100B0600074E3EEF06F0070E0764E1EF05F0075EBD
:100B16000450096E0550046E056A074E3EEF06F056
:100B2600070E0764BFEF05F0075E0450096E046AFE
:100B3600074E3EEF06F0070E0764A6EF05F00AC063
:100B460002F083EF06F0030E0764B1EF05F0075ECF
:100B560009380F0B096E074E3EEF06F0D8900932A2
:100B6600074E3EEF06F0D8900932074E3EEF06F0EC
:100B7600D89009323EEF06F0030E0764D0EF05F079
:100B8600075E09380F0B096E0438F00B0926043886
:100B96000F0B046E074E3EEF06F0D8900432093272
:100BA600074E3EEF06F0D89004320932074E3EEF6C
:100BB60006F0D890043209323EEF06F0030E0764C1
:100BC600F8EF05F0075E09380F0B096E0438F00BD5
:100BD600092604380F0B046E0538F00B0426053879
:100BE6000F0B056E074E3EEF06F0D8900532043225
:100BF6000932074E3EEF06F0D8900532043209322C
:100C0600074E3EEF06F0D8900532043209323EEF29
:100C160006F0030E076429EF06F0075E09380F0B8E
:100C2600096E0438F00B092604380F0B046E0538DC
:100C3600F00B042605380F0B056E0638F00B05265B
:100C460006380F0B066E074E3EEF06F0D8900632BA
:100C5600053204320932074E3EEF06F0D8900632CE
:100C6600053204320932074E3EEF06F0D8900632BE
:100C7600053204320932086A000E0EAE4BEF06F05A
:100C8600091E041E051E061E092A04220522062226
:100C9600095008260450002205500122065002225F
:100CA6000EBE62EF06F0D8A071EF06F002320132F6
:100CB60000320832033E71EF06F07DEF06F0D8B041
:100CC60077EF06F0000E081E001E011E021E082AFF
:100CD6000022012202220A7E77EF06F0010E0C6E38
:100CE60025EC02F085EF06F0020E0C6E25EC02F004
:100CF60085EF06F0040E0C6E1FEC00F085EF06F093
:060D0600000E0C6E12004D
:100D0C00C26A0001E01D006E0050C116070EC01231
:100D1C00C08EE5C100F00036009000360090005007
:100D2C00C212C2801FEC02F0C282C2A201D0FDD757
:100D3C00C4CF01F0006AC3500012000E0112C29021
:020D4C00120093
:100D4E000050086E0150006E016A026A036A0B6A57
:100D5E000C6A960E036E0A6A00C001F008C000F01D
:0A0D6E00086A026AE6EC01F01200C8
:100D78000D6A086A0050D8B4000C04180A6E0ABE3E
:100D88000D1E0B6A04AE02D0041E042A00AE02D067
:100D9800001E002A005004100A6E0ABE1FD004501C
:100DA800085E003600340836045008260036060E61
:100DB8000C6E00340836045000B0085E00A0082607
:100DC80000360C2EF6D700A008260BB015D00DAEB5
:100DD800000C001E002A081E082A000C04AE09D0C8
:100DE80000BE04D00050086E006AF1D7006A002ADD
:100DF800000C001E0B2AD3D7082A0450085CD8A47C
:0E0E0800E6D7086A002A00AEE2D7FF0C1200FF
:100E1600000E0101E75D04E3E7513F0801E301D05D
:100E260029D0000EE55DD8A0E56BE5517F0802E20A
:100E36007F0EE56F000EE65DD8A0E66BE6517F08F3
:100E460002E27F0EE66FE551E65D06E2E5C1E9F1F5
:100E5600E6C1E5F1E9C1E6F1E551E65D0BE3E5C181
:100E660001F2E7C102F2E8C103F21FEC01F0010151
:060E7600E52BF2D712008B
:100E7C000A6A0350D8A40A800750D8A40A820A50E0
:100E8C00D8B4A1EF07F0030AD8B45AEF07F00AB0B0
:100E9C0055EF07F006AE9FEF07F09DEF07F002AE9F
:100EAC009DEF07F09FEF07F00250800B0A6E029E39
:100EBC000650800B069E0A18D8B46BEF07F00A5048
:100ECC00D8B49DEF07F09FEF07F00750035CD8B440
:100EDC0075EF07F0D8A091EF07F097EF07F00650E9
:100EEC00025CD8B47FEF07F0D8A091EF07F097EF32
:100EFC0007F00550015CD8B489EF07F0D8A091EF4A
:100F0C0007F097EF07F00450005CD8B4A1EF07F09E
:100F1C00D8B097EF07F00A52D8B49FEF07F09DEFC7
:100F2C0007F00A52D8B49DEF07F09FEF07F0D88076
:0E0F3C001200D8901200D880D8841200120043
:100F4A000B6A0C6A086A0350D8B429EF08F002C089
:100F5A000AF0028E9E0E035E03AE19EF08F0036CD0
:100F6A00080E035CD8A0E6EF07F0036E083600C04F
:100F7A0008F001C000F002C001F0026A080E035C2A
:100F8A00D8A0E6EF07F0036E083600C008F001C0EB
:100F9A0000F0016A080E035CD8A0E6EF07F0036EC2
:100FAA00083600C008F0006A080E035CD8A0E6EF15
:100FBA0007F0036E0836086A0350D8A4D890F2EFF7
:100FCA0007F00350D8B4F2EF07F0D890023201329A
:100FDA0000320832032EEAEF07F00BBC08A003EF39
:100FEA0008F0D8A003EF08F0082AD8B4002AD8B429
:100FFA00012AD8B4022A02BE2DEF08F00AAE29EF60
:10100A0008F0021E011E001E081E082AD8B4002A73
:10101A00D8B4012AD8B4022A29EF08F0026A016A70
:10102A00006A086A29EF08F00B800BAE34EF08F06B
:10103A00026A0AAE34EF08F0026E016E006E086EA4
:10104A000A36023234EF08F00C6A000E35EF08F067
:10105A00010E0C6E000E16EC03F035EF08F0FF0ED1
:10106A000250036E0150026E0050016E0850006E6D
:02107A00120062
:10107C00E5C104F0E6C105F004C002F005C003F0C0
:10108C00044A052AE7C100F0E8C101F00101E74B71
:10109C00E82B00C0E9FF01C0EAFF02C0E1FF03C07A
:1010AC00E2FFEECFE6FF02C0E9FF03C0EAFFEE521B
:0E10BC0001E0E2D7E5C100F0E6C101F012004C
:1010CA000101ED6BEE6BEF6B0001C651000A0FE1F7
:1010DA00780E0201016F330E026F000E036F010ECC
:1010EA00046F056B7DEC01F0010E0001C66F000E66
:1010FA00006E01015E51005C02E15D51E55D01E2B5
:10110A00EAD0000E605D02E1E5515F5D01E2E3D0E5
:10111A005D51E55D016E5EC102F0000E025601C02E
:10112A0003F002C004F0033603900436033603903A
:10113A000436080E6325006E000E6421016E000E4F
:10114A006521026E000E056E00500326015004222E
:10115A000250052203C0F6FF04C0F7FF05C0F8FFDE
:10116A000900F5CFEDF1010E0324F66E000E0420FE
:10117A00F76E000E0520F86E0900F5CF00F000C0EA
:10118A0006F0000E076E086E096E020E0324F66E54
:10119A00000E0420F76E000E0520F86E0900F5CF48
:1011AA0003F003C001F0006A000E026E036E0650DF
:1011BA0000260750012208500222095003226351D7
:1011CA000024EA6F64510120EB6F65510220EC6F35
:1011DA007F51000A41E16AC1E8F1E76B000E006E37
:1011EA006251005C02E16151E75D2FE268C1EEF1F4
:1011FA00E96BE66BED51E65D25E2E951000A10E183
:10120A00EAC1F6FFEBC1F7FFECC1F8FF0900F5CF21
:10121A00EFF1010EEA27000EEB23EC23010EE96F32
:10122A00E951EF15006E08E0EEC101F2E8C102F2E1
:10123A007DC103F21FEC01F00101EE2BE937E991C0
:10124A00E62BD8D7E82BE72BC9D7EE51010F686FE9
:10125A00696B000E69233FD068C1E8F1E76B000EA5
:10126A00006E6251005C02E16151E75D2FE26AC1E2
:10127A00EEF1E96BE66BED51E65D25E2E951000A14
:10128A0010E1EAC1F6FFEBC1F7FFECC1F8FF090074
:10129A00F5CFEFF1010EEA27000EEB23EC23010E46
:1012AA00E96FE951EF15006E08E0E8C101F2EEC1FD
:1012BA0002F27DC103F21FEC01F00101EE07E937EA
:1012CA00E991E62BD8D7E82BE72BC9D7EE056A6F49
:0812DA006B6B000E6B5B120050
:1012E200086A096A100E0C6E013408360936045079
:1012F200085E0550D8A0053C095ED8B007D004505E
:1013020008260550D8B0053C0926D890003601368B
:061312000C2EEAD71200C8
:101318000101FA6BFB6BFC6BFD6B5E51E65D02E154
:101328005D51E55D01E2C6D1E651605D02E1E5513E
:101338005F5D01E2BFD15D51E55D036E5E51E65927
:10134800046E03C000F004C001F0003600900136BE
:10135800003600900136080E79250201016F000E53
:1013680001017A210201026F000E01017B210201B5
:10137800036F000E01017C210201046F0050012758
:1013880001500223000E03230423040E056F000EF0
:10139800066FA6EC00F06C0E0101F86F010EF96FF4
:1013A800F8C1E9FFF9C1EAFFEECFFEF1FEC1FAF19B
:1013B800010EF825E96E000EF921EA6EEECF04F071
:1013C800000E056E066E076E020EF825E96E000E19
:1013D800F921EA6EEECF03F003C001F0006A000EB7
:1013E800026E036E045000260550012206500222A8
:1013F8000750032200507925EC6F01507A21ED6FD8
:1014080002507B21EE6F03507C21EF6FFEC100F08C
:101418000032009E0032009E0032009E000E016ED7
:1014280061C104F062C105F0F7EC00F000C0F2F110
:1014380001C0F3F1070EFE15006E04E06151F227BA
:101448006251F323F2C1F6F1F3C1F7F176C1E1FF7E
:1014580077C1E2FFECC1E6FFEDC1E6FFEEC1E6FFB2
:10146800EFC1E6FFF2C1E6FFF3C1E6FFF00EE66E5C
:10147800010EE66E74C100F075C101F059EC00F080
:1014880000C0F8F101C0F9F10101F051EC27F15168
:10149800ED23000EEE23EF23F051F25FF151F35BE1
:1014A800F46BF56B7F51000AD8A481D06AC1E9F1C9
:1014B8006BC1EAF1E86B000E006E6251005C02E15C
:1014C8006151E85D6DE268C1FBF169C1FCF1EB6B4C
:1014D800E76BFA51E75D60E2EB51000A4AE1F44B31
:1014E800F52BF751F15D02E1F651F05D38E2F55167
:1014F800F15D02E1F451F05D32E2010EF46F000E8D
:10150800F56F76C1E1FF77C1E2FFECC1E6FFEDC1FF
:10151800E6FFEEC1E6FFEFC1E6FFF2C1E6FFF3C169
:10152800E6FFF00EE66E010EE66E74C100F075C1BE
:1015380001F059EC00F000C0F8F101C0F9F1F2C176
:10154800F6F1F3C1F7F10101F051EC27F151ED2368
:10155800000EEE23EF23F051F25FF151F35BF8C177
:10156800E9FFF9C1EAFFEECFFDF1F84BF92B010EC7
:10157800EB6FEB51FD15006E08E0FBC101F2E9C10C
:1015880002F27DC103F21FEC01F00101FB4BFC2BC1
:10159800EB37EB91E72B9DD7E94BEA2BE82B8BD761
:1015A800010EFB25686F000EFC21696F83D068C1AE
:1015B800E9F169C1EAF1E86B000E006E6251005C66
:1015C80002E16151E85DD8B06FD06AC1FBF16BC12F
:1015D800FCF1EB6BE76BFA51E75D62E2EB51000A55
:1015E8004AE1F44BF52BF751F15D02E1F651F05D5C
:1015F80038E2F551F15D02E1F451F05D32E2010E9D
:10160800F46F000EF56F76C1E1FF77C1E2FFECC120
:10161800E6FFEDC1E6FFEEC1E6FFEFC1E6FFF2C16E
:10162800E6FFF3C1E6FFF00EE66E010EE66E74C14A
:1016380000F075C101F059EC00F000C0F8F101C0EC
:10164800F9F1F2C1F6F1F3C1F7F10101F051EC271C
:10165800F151ED23000EEE23EF23F051F25FF1512B
:10166800F35BF8C1E9FFF9C1EAFFEECFFDF1F84BF2
:10167800F92B010EEB6FEB51FD15006E08E0E9C187
:1016880001F2FBC102F27DC103F21FEC01F0010E71
:101698000101FB5F000EFC5BEB37EB91E72B9BD75F
:1016A800E94BEA2BE82B88D7010EFB5D6A6F000E29
:0616B800FC596B6F1200EB
:1016BE00E5C168F1E6C169F1E7C16AF1E8C16BF114
:0216CE00120008
:1016D0000050086E0150006E0250016E0350026E01
:1016E000036A0B6A0C6A9E0E036E0A6A02AE85EFED
:1016F0000BF0081E001E011E021E082AD8B4002A84
:10170000D8B4012AD8B4022A0A8E020E0C6E25EC37
:0417100002F01200D1
:101714000101E06BE16BE26BE36BE46BD3C1DCF1E1
:10172400D4C1DDF1D5C1DEF1D6C1DFF1DF51FF0A4D
:1017340008E1DE51FF0A05E1DD51FF0A02E1DC5157
:10174400FF0A0CE1D7C1E5F1D8C1E6F1E10EE76F7C
:10175400000EE86F91DC030E006E5CD2010EDA6FAE
:10176400DEAF0FD0800EDE19006E00C0DEF1DA2B82
:10177400E12BD7C1E1FFD8C1E2FF2D0EE66ED74BB6
:10178400D82B000E006EDF1908E10050DE1905E1C8
:101794000050DD1902E1DC51000A0BE1D7C1E5F18B
:1017A400D8C1E6F1E50EE76F000EE86F65DC006A6C
:1017B40031D2DF51FF0A08E1DE51000A05E1DD51B3
:1017C400000A02E1DC51000A0CE1D7C1E5F1D8C1FD
:1017D400E6F1C70EE76F000EE86F4EDCDAC100F0E9
:1017E40019D2000E046E000E056E000E066E7F0EFA
:1017F400076EDCC100F0DDC101F0DEC102F0DFC123
:1018040003F03EEC07F0010ED8B0000E006E00525B
:101814001CE0DCC100F0DDC101F0DEC102F0DFC17B
:1018240003F0000E046E000E056E200E066E820E8E
:10183400076EE2EC03F000C0DCF101C0DDF102C090
:10184400DEF103C0DFF1E407CCD7000E046E000E16
:10185400056E200E066E820E076EDCC100F0DDC13F
:1018640001F0DEC102F0DFC103F03EEC07F0000E30
:10187400D8B0010E006E00521CE0DCC100F0DDC1E6
:1018840001F0DEC102F0DFC103F0CD0E046ECC0E18
:10189400056E4C0E066E7B0E076EE2EC03F000C084
:1018A400DCF101C0DDF102C0DEF103C0DFF1E42BA5
:1018B400CCD7FF0EDC15086EFF0EDD15096E7F0E0A
:1018C400DE150A6E000EDF150B6E08C004F009C0A9
:1018D40005F00AC006F00BC007F004360490053684
:1018E40006360736000EDC15006E000EDD15016E9F
:1018F400000EDE15026EFF0EDF15036E00C0DCF174
:1019040001C0DDF102C0DEF103C0DFF10450DC11DF
:10191400006E0550DD11016E0650DE11026E075097
:10192400DF11036E00C0DCF101C0DDF102C0DEF1A5
:1019340003C0DFF17F0EDF5D006E00C0DBF1010E3E
:10194400DF6F00C004F0DCC100F0DDC101F0DEC1D6
:1019540002F0DFC103F0045007E0003600900136C6
:1019640002360336FF0FF8D700C0DCF101C0DDF109
:1019740002C0DEF103C0DFF1D7C1E1FFD8C1E2FF4D
:10198400DF51300FE66ED74BD82BE12B800EE419D4
:10199400006E800E010A005C08E3800E060A006EE9
:1019A400800EE419005C01E30BD0D7C1E1FFD8C17C
:1019B400E2FF2E0EE66ED74BD82B010EE06FE12B23
:1019C400060EDB6FDB51000A58E0DF6BDCC100F070
:1019D400DDC101F0DEC102F0DFC103F0003600908A
:1019E40001360236033600360090013602360336DD
:1019F400DC510026DD510122DE510222DF51032297
:101A040000C0DCF101C0DDF102C0DEF103C0DFF192
:101A1400DCC100F0DDC101F0DEC102F0DFC103F082
:101A24000036009001360236033600C0DCF101C0F6
:101A3400DDF102C0DEF103C0DFF1D7C1E1FFD8C19F
:101A4400E2FFDF51300FE66ED74BD82BE12BE0518C
:101A5400000A11E1E407E451000A0DE1010EE36F0D
:101A6400D7C1E1FFD8C1E2FF2E0EE66ED74BD82BCB
:101A7400010EE06FE12BDB07A5D7E351010AD8B4CF
:101A8400E107FF0ED725E96EFF0ED821EA6EEE506E
:101A94002E0A05E1010ED75F000ED85BE107800E28
:101AA400000A006E800EE419005C02E2010EE26F8F
:101AB400800EE419006E800E000A005C02E2020E41
:101AC400E26FE4C1DBF1800E090A006E800EE419B6
:101AD400005C02E3E22B02D0020EE227E251E12590
:101AE400016E026A000E0222800E0218006E800E41
:101AF400005C02E1D951015C0AE2D7C1E1FFD8C11F
:101B0400E2FF300EE66ED74BD82BE12BE7D7E4513A
:101B1400000A43E0D7C1E1FFD8C1E2FF650EE66EDB
:101B2400D74BD82B800EE419006E800E000A005C9F
:101B34000BE2D7C1E1FFD8C1E2FF2D0EE66ED74B11
:101B4400D82BE4510008E46FE4C1DBF1800E090AEC
:101B5400006E800EE419005C0FE20A0E046EDBC115
:101B640000F0BCEC06F0D7C1E1FFD8C1E2FF0050A1
:101B7400300FE66ED74BD82B0A0E046EDBC100F093
:101B8400BCEC06F008C000F0D7C1E1FFD8C1E2FF09
:101B94000050300FE66ED74BD82BE251E125006E92
:101BA40000C0E1F1D951005C016E01C0DBF1800E8F
:101BB400000A006E800E0118005C0EE2800E000A1E
:101BC400006E800EDB19005C06E2DB07010ED75FB6
:101BD400000ED85BF3D718D0800EDB19006E800E90
:101BE400000A005C11E2800EDB19006E800E000A10
:101BF400005C0AE2DB2BD7C1E1FFD8C1E2FF300E63
:101C0400E66ED74BD82BEFD7D7C1E1FFD8C1E2FF9F
:061C1400E66A006A1200FE
:041C1A00809812009C
:101C1E000101D46BD56BD66BD76BD36B640ED35DD2
:101C2E001AE2E56B86EC06F0A7EC06F0D4C104F0E0
:101C3E00D5C105F0D6C106F0D7C107F073EC04F09C
:101C4E0000C0D4F101C0D5F102C0D6F103C0D7F166
:101C5E000101D32BE3D7000E046E000E056E480E65
:101C6E00066E850E076ED4C100F0D5C101F0D6C147
:101C7E0002F0D7C103F028EC03F0000E046E000E44
:101C8E00056E200E066E810E076EE2EC03F0A5ECDB
:041C9E0007F0120039
:101CA2000101D76B050ED75D0AE2D751D525E16E4A
:101CB200000ED621E26E200EE66ED72BF3D7D75157
:101CC200D525E16E000ED621E26EE66AD707D7511E
:101CD200D525D86F000ED621D96F0A0E046E000EDC
:101CE200056ED3C100F0D4C101F071EC09F008C057
:101CF20000F009C001F0300E0026D8C1E1FFD9C1C1
:101D0200E2FF00C0E6FF0A0E046E000E056ED3C1AC
:101D120000F0D4C101F071EC09F000C0D3F101C0B0
:101D2200D4F1000E011802E1000E001801E102D008
:061D3200D707CDD7120017
:101D3800808A4D0E0B6E190E0C6E4F0E0D6E0D2E09
:101D4800FED70C2EFCD70B2EFAD700000000809A85
:021D5800120077
:101D5A000101D46BD56BD66BD76BD36B640ED35D95
:101D6A001BE2020EE56F86EC06F0A7EC06F0D4C182
:101D7A0004F0D5C105F0D6C106F0D7C107F073EC5F
:101D8A0004F000C0D4F101C0D5F102C0D6F103C0FD
:101D9A00D7F10101D32BE2D7000E046E000E056EB7
:101DAA00480E066E850E076ED4C100F0D5C101F04B
:101DBA00D6C102F0D7C103F028EC03F0A5EC07F076
:021DCA00120005
:101DCC00D4C1D8F10101D851D65D0CE3D3C1E5F1F2
:101DDC00D5C1E6F1D8C1E7F1D7C1E8F10BEC07F0BA
:061DEC00D82BF0D7120015
:041DF20080881200D3
:101DF600000E0101D65D02E1800ED55D01E33BD008
:101E0600000ED85D02E1400ED75D01E334D0D96BF8
:101E1600DA6BD5C1E5F1D6C1E6F1D7C1E7F1D8C194
:101E2600E8F14ADCD951D325E96EDA51D421EA6EBC
:101E3600EE5221E06651671111E0D951D325E96EC2
:101E4600DA51D421EA6EEECFE5F1000EE66F000E10
:101E5600E66F8CEC09F0D94BDA2B0CD0D951D3258F
:101E6600E96EDA51D421EA6EEECFE5F165EC08F0C1
:081E7600D94BDA2BD7D712007B
:081E7E00067E73EC04F0120073
:101E8600000E0101D55D04E3D5517F0801E301D0C1
:101E960029D0000ED35DD8A0D36BD3513F0802E200
:101EA6003F0ED36F000ED45DD8A0D46BD4513F083B
:101EB60002E23F0ED46FD351D45D06E2D3C1D7F10F
:101EC600D4C1D3F1D7C1D4F1D351D45D0BE3D5C17D
:101ED60001F2D3C102F2D6C103F21FEC01F00101F7
:061EE600D32BF2D712001D
:101EEC000101D56BD66BD3C103F0D4C104F0D3C1BF
:101EFC0005F0D4C106F003C0E9FF04C0EAFFEE50C0
:101F0C00200A04E1D551D61101E110D0010ED56F94
:101F1C00000ED66F03C0E9FF04C0EAFF05C0E1FF65
:101F2C0006C0E2FFEECFE6FF054A062A03C001F029
:101F3C0004C002F0034A042A01C0E9FF02C0EAFF10
:101F4C00EE50000AD8E1D3C100F0D4C101F0120068
:101F5C0000C008F00150006E016A026A036A0B6A45
:101F6C000C6A016A026A036A960E036E0A6A00AE74
:101F7C00C6EF0FF0081E001E082AD8B4002A0A8EDD
:101F8C0000C001F008C000F0086A026AE6EC01F03B
:021F9C00120031
:101F9E00819281800101C66BC651070811E3C6C14B
:101FAE000FF265EC00F00101C56BC5513F0806E369
:101FBE00C4C10FF252EC00F0C52BF7D7C62BECD7ED
:101FCE0081908182C66BC651070811E3C6C10FF21C
:101FDE0065EC00F00101C56BC5513F0806E3C4C1B5
:101FEE000FF252EC00F0C52BF7D7C62BECD7120030
:101FFE00000E0101C91902E1000EC81909E1C4C1A0
:10200E0001F2C6C102F2CAC103F21FEC01F003D104
:10201E000101CF6BD06BC451C65DD16FC551C7598D
:10202E00D26FC8C1CDF1C9C1CEF1C8C100F0C9C1CE
:10203E0001F000360090013600C0CBF101C0CCF1AA
:10204E0000500308CB6F01C0CCF1000ECC57010E2F
:10205E00CD25016E000ECE21026E800ED019006EBF
:10206E00800E0218005C02E10150CF5DD8B0D3D0D3
:10207E00CF51C4250201016F0101CD51C6250201C8
:10208E00026FCAC103F21FEC01F00101CF51C4254A
:10209E000201016F0101CD51C65D0201026FCAC17D
:1020AE0003F21FEC01F0800E006E800E0101D019BC
:1020BE00005C02E1CF5100081BE2CF51C45D02016A
:1020CE00016F0101CD51C6250201026FCAC103F293
:1020DE001FEC01F00101CF51C45D0201016F01013E
:1020EE00CD51C65D0201026FCAC103F21FEC01F0B1
:1020FE000101D051CE1902E1CD51CF1950E0CD5191
:10210E00C6250201016F0101D1510201015F0101DA
:10211E00CF51C6250201026FCAC103F21FEC01F0B6
:10212E000101CD51C65D0201016F0101D1510201C4
:10213E00015F0101CF51C6250201026FCAC103F230
:10214E001FEC01F0800E006E800E0101D019005CB4
:10215E0002E1CF51000823E2CD51C6250201016FE5
:10216E000101D1510201015F0101CF51C65D020192
:10217E00026FCAC103F21FEC01F00101CD51C65D21
:10218E000201016F0101D1510201015F0101CF5125
:10219E00C65D0201026FCAC103F21FEC01F0800E90
:1021AE000101CC19006E800E005C02E1000ECB5DC9
:1021BE0013E2CFC100F0D0C101F00036009001361D
:1021CE00003600900136060E0026000E0122005049
:1021DE00CB270150CC231CD0CD51CF5D036ECE51F9
:1021EE00D059046E03C000F004C001F00036009018
:1021FE0001360036009001360A0E0026000E01222E
:10220E000050CB270150CC23010ECD5F000ECE5BCC
:08221E00CF4BD02B1CD712009E
:10222600C4C1E5F1C6C1E6F1C5C1E7F1C8C1E8F12F
:102236000BEC07F0C4C1E5F1C6C1E6F1C7C1E7F191
:10224600C8C1E8F10BEC07F0C5C1D3F1C7C1D4F1A1
:10225600C4C1D5F1C8C1D6F113DEC5C1D3F1C7C11A
:0E226600D4F1C6C1D5F1C8C1D6F10ADE12000E
:102274000101C86BC96BCA6BC851070849E3020165
:102284000F6B80EC00F0C8C10FF265EC00F00F6B2F
:102294006DEC00F00101C76BC7513F0812E3C9514F
:1022A400C425F66ECA51C521F76E000EC621F86E1C
:1022B4000900F5CF0FF252EC00F0C94BCA2BC72B23
:1022C400EBD7400E02010F6F80EC00F0C8C10FF293
:1022D40065EC00F0400E0F6F6DEC00F0400E010154
:1022E400C76FC7517F0812E3C951C425F66ECA519E
:1022F400C521F76E000EC621F86E0900F5CF0FF266
:1023040052EC00F0C94BCA2BC72BEBD7C82BB4D760
:022314001200B5
:10231600010E0101C86F000EC96F7EDC68EC0BF080
:1023260000C080F101C081F102C082F103C083F1D7
:10233600000E046EC00E056E7F0E066E880E076ECA
:1023460028EC03F0000E046E000E056E480E066EB5
:10235600850E076EE2EC03F000C084F101C085F142
:1023660002C086F103C087F100C0D3F101C0D4F1E9
:1023760002C0D5F103C0D6F1880E0101D76F010E58
:10238600D86F040ED96F8AEC0BF0880ED36F010E4E
:10239600D46FA9DDC8C100F0C9C101F0DCDDC4C13C
:1023A60004F0C5C105F0C6C106F0C7C107F073EC5D
:1023B60004F000C004F001C005F002C006F003C03E
:1023C60007F080C100F081C101F082C102F083C133
:1023D60003F03EEC07F0000ED8B0010E006E00527E
:1023E60027E1C8C100F0C9C101F0B5DD00C004F0A5
:1023F60001C005F002C006F003C007F0C4C100F03A
:10240600C5C101F0C6C102F0C7C103F035DD80C108
:1024160004F081C105F082C106F083C107F03EECED
:1024260007F0000ED8B0010E006E005201E143D055
:10243600460ED36F0F0ED46F5C0ED56F1E0ED66F81
:10244600D76BC1DC8F0EE56F010EE66F880EE76F66
:10245600010EE86F3EEC08F0EA0ED36F000ED46F63
:102466000A0ED56F000ED66F0F0ED76F000ED86FFF
:10247600BFDC880ED36F010ED46F480ED56F000EE9
:10248600D66F0F0ED76F000ED86FB2DCE70ED36F84
:10249600000ED46F5D0ED56F000ED66F0F0ED76F80
:1024A600000ED86FA5DC80C1C4F181C1C5F182C11F
:0824B600C6F183C1C7F1120059
:1024BE0084B216D084A014D08482010E0101A56FBF
:1024CE00000EA66F020EAB6F000EAC6F820E0C6E7E
:1024DE00DD0E0D6E0D2EFED70C2EFCD7000000006B
:0224EE001200DA
:1024F00084928480010E0101A56F000EA66FAB6B64
:10250000AC6B820E0C6EDD0E0D6E0D2EFED70C2EFA
:08251000FCD7000000001200DE
:102518000F0E0101C86F000EC96F1BDC68EC0BF0D1
:1025280000C0A7F101C0A8F102C0A9F103C0AAF137
:10253800000E046E000E056E700E066E830E076E9A
:10254800E2EC03F0000E046EC00E056E7F0E066E00
:10255800880E076E28EC03F000C09DF101C09EF1C3
:1025680002C09FF103C0A0F100C0D3F101C0D4F1B3
:1025780002C0D5F103C0D6F1960E0101D76F010E46
:10258800D86F040ED96F8AEC0BF0960ED36F010E3C
:10259800D46FA8DCC8C100F0C9C101F0DBDCC4C13C
:1025A80004F0C5C105F0C6C106F0C7C107F073EC59
:1025B80004F000C004F001C005F002C006F003C03A
:1025C80007F0A7C100F0A8C101F0A9C102F0AAC193
:1025D80003F03EEC07F0000ED8B0010E006E00527A
:1025E80027E1C8C100F0C9C101F0B4DC00C004F0A3
:1025F80001C005F002C006F003C007F0C4C100F036
:10260800C5C101F0C6C102F0C7C103F034DCA7C1DF
:1026180004F0A8C105F0A9C106F0AAC107F03EEC74
:1026280007F0000ED8B0010E006E005201E13DD057
:10263800460ED36F0F0ED46F590ED56F1E0ED66F80
:10264800D76BE6EC0EF0030ED36F010ED46F0A0EB3
:10265800D56F000ED66F0F0ED76F000ED86FFBEC3C
:102668000EF0960ED36F010ED46F460ED56F000E86
:10267800D66F0F0ED76F000ED86FFBEC0EF00D0E55
:10268800D36F010ED46F5A0ED56F000ED66F0F0E92
:10269800D76F000ED86FFBEC0EF0A7C1C4F1A8C12C
:0C26A800C5F1A9C1C6F1AAC1C7F112001A
:1026B4000101CA6BCB6BC4C1CCF1C5C1CDF1800E95
:1026C400C519006E800E005C02E1000EC45D0BE2D1
:1026D400010ECA6F000ECB6FC4510008CC6FC5C188
:1026E400CDF1000ECD57CCC1D3F1CDC1D4F1C6C1CB
:1026F400D5F1C7C1D6F151EC0EF0060EC86F000E2D
:10270400C96F000E006EC951005C02E1C851000897
:1027140019E2C851C625E16EC951C721E26E010E06
:10272400C85D006E000EC959016E0050C625E96EE1
:102734000150C721EA6EEECFE6FF010EC85F000E1E
:10274400C95BDFD7C6C1E1FFC7C1E2FF200EE66E59
:10275400CA51CB111AE0C86BC96BC851C625E96EC2
:10276400C951C721EA6EEE50200A03E1C84BC92BB8
:10277400F4D7010EC85F000EC95BC851C625E16ECF
:0C278400C951C721E26E2D0EE66E120056
:1027900084B216D084A014D08490010E0101A56FDC
:1027A000000EA66F010EAB6F000EAC6F820E0C6EAA
:1027B000DD0E0D6E0D2EFED70C2EFCD70000000096
:0227C000120005
:0627C2000DEC0EF0120008
:0A27C800F9EC0EF09CEC0EF012008C
:1027D200000E0101A41902E1010EA3190DE1010E7F
:1027E200D36F0D0ED46F7E0ED56F3E0ED66FD76BA4
:0C27F200E6EC0EF0A36BA46B8EDE120070
:1027FE00000E01015A1902E1010E5919D8A479D01F
:10280E00C46BC56B7F0EC66F3F0EC76F010EC86FD0
:10281E0003DDD36BD46B7F0ED56F0C0ED66F010E0E
:10282E00D76FE6EC0EF0780E0201016F330E026FD9
:10283E00000E036F046B056B7DEC01F0B8C1D3F194
:10284E00B9C1D4F11E0ED56F000ED66F010ED76F23
:10285E00000ED86FFBEC0EF0760EC46F000EC56F37
:10286E00060EC66F000EC76F060EC86F000EC96F3C
:10287E00020ECA6FFFEC0FF0000E0001941902E178
:10288E00010E93190FE1830E0101D36F000ED46F69
:10289E00730ED56F000ED66F010ED76F000ED86F68
:1028AE00FBEC0EF00101000E311902E1010E3019A0
:1028BE000EE16E0ED36F000ED46F730ED56F000E39
:1028CE00D66F010ED76F000ED86FFBEC0EF0780EA0
:1028DE000201016F330E026F000E036F010E046FC3
:1028EE00056B7DEC01F0596B5A6B010EA36F000E58
:0428FE00A46F1200B1
:102902000101786B666B676B939A93989394939695
:1029120093929390819A120E006E000E016E830EB6
:102922000024E16E0F0E0120E26EE66A8194819628
:1029320081928180818A3F0E836E1AEC00F0C00E74
:10294200836E1AEC00F0818281903F0E836E1AEC46
:0C29520000F0C00E836E1AEC00F01200C2
:10295E000900F5CFE6FF0006FBE10106F9E11200E2
:10296E000101C46BCFEC0FF082A408D02B0EC46F04
:10297E00390EC56F000EC66F76DCF6D7C46BCFEC82
:0C298E000FF0010E596F000E5A6F12007E
:10299A00000E0101BC6F000EBD6F700EBE6F840E7B
:1029AA00BF6F000EC06F000EC16F340EC26F840E6F
:1029BA00C36F0FEC0EF068EC0BF0000E046EC00E45
:1029CA00056E7F0E066E880E076E28EC03F0000E69
:1029DA00046E000E056E480E066E850E076EE2EC5A
:1029EA0003F000C0B8F101C0B9F102C0BAF103C0E6
:1029FA00BBF100C004F001C005F002C006F003C03C
:102A0A0007F0C0C100F0C1C101F0C2C102F0C3C1E8
:102A1A0003F03EEC07F0000ED8B0010E006E005233
:102A2A00D8A48086BCC104F0BDC105F0BEC106F0C1
:102A3A00BFC107F0B8C100F0B9C101F0BAC102F0D4
:102A4A00BBC103F03EEC07F0000ED8B0010E006ED9
:082A5A000052D8A4809612007E
:102A6200000E0101A41902E1010EA3190DE1010EEC
:102A7200D36F0D0ED46F7E0ED56F3E0ED66FD76B11
:0C2A8200E6EC0EF0A36BA46B45DC120028
:102A8E00010E0101E56F86EC06F000C0A1F101C058
:102A9E00A2F1800E026E800E0118025C02E100505F
:102AAE000A080CE2050E0101D36F1E0ED46F500EF4
:102ABE00D56F280ED66FD76BE6EC0EF00101000E27
:102ACE00B71902E1010EB6194EE1A251B51902E194
:102ADE00B451A1190FE0050ED36F320ED46F640EF0
:102AEE00D56F3C0ED66FD76BE6EC0EF0A1C1B4F1EC
:102AFE00A2C1B5F1A1C1C4F1A2C1C5F1AD0EC66F9F
:102B0E00010EC76FD0DDAD0ED36F010ED46F76EC14
:102B1E000FF0AD0ED36F010ED46F280ED56F000ED1
:102B2E00D66F320ED76F000ED86FFBEC0EF0440E40
:102B3E00D36F010ED46F050ED56F000ED66F320E09
:102B4E00D76F000ED86FFBEC0EF0020E0B6E450E1B
:102B5E000C6EA90E0D6E0D2EFED70C2EFCD70B2E65
:102B6E00FAD700000000800EA219006E800E005CE5
:102B7E0002E1500EA15D19E3800E006E800EA219C7
:102B8E00005C02E1A151640810E392DC3C0E0101ED
:102B9E00D36F010ED46F050ED56F000ED66F1E0EBD
:102BAE00D76F000ED86FFBEC0EF0800EA219006EE0
:102BBE00800E005C02E1780EA15D18E3800E006EBF
:102BCE00800EA219005C02E1A1518C080FE389DC92
:102BDE00200ED36F010ED46F050ED56F000ED66F7B
:102BEE001E0ED76F000ED86FFBEC0EF0800EA219E2
:102BFE00006E800E005C02E1AA0EA15D19E3800E4C
:102C0E00006E800EA219005C02E1A151BE0810E315
:102C1E00B8DD1B0E0101D36F010ED46F050ED56FFB
:102C2E00000ED66F1E0ED76F000ED86FFBEC0EF097
:102C3E00800EA219006E800E005C02E1C80EA15D2E
:102C4E002DE3800E006E800EA219005C02E1A151F0
:102C5E00DC0824E3320ED36F010ED46F050ED56F50
:102C6E00000ED66F1E0ED76F000ED86FFBEC0EF057
:102C7E00000E311902E1010E301910E1000E2F196C
:102C8E0002E1010E2E1907E0000E2F1902E1020ECD
:102C9E002E1901E003D08EDD2E6B2F6B800EA21944
:102CAE00006E800E005C02E1E60EA15D28E3800E50
:102CBE00006E800EA219005C02E1A151F0081FE324
:102CCE00100ED36F010ED46F050ED56F000ED66F9A
:102CDE001E0ED76F000ED86FFBEC0EF0000E3119E2
:102CEE0002E1010E30190BE1000E2F1902E1000E68
:102CFE002E1905E162DD010E2E6F000E2F6F800E74
:102D0E00A219006E800E010A005C02E1360EA15D72
:102D1E002AE3800E010A006E800EA219005C02E109
:102D2E00A1514A0820E3000E311902E1010E3019BB
:102D3E001AE1F80ED36F000ED46F050ED56F000E8C
:102D4E00D66F1E0ED76F000ED86FFBEC0EF0306BE9
:102D5E00316B010E0001936F000E946F010E010195
:102D6E00596F000E5A6F800EA219006E800E020A65
:102D7E00005C02E14E0EA15D2CE3800E020A006E95
:102D8E00800EA219005C02E1A151620822E3000E3E
:102D9E000001941902E1010E93191BE1950E010138
:102DAE00D36F000ED46F050ED56F000ED66F1E0EAC
:102DBE00D76F000ED86FFBEC0EF0010E306F000EC9
:102DCE00316F0001936B946B010E0101596F000E70
:102DDE005A6F0101800EA219006E800E020A005C6D
:102DEE0002E1A80EA15D19E3800E020A006E800EAC
:102DFE00A219005C02E1A151BC080FE38D0ED36F46
:102E0E00000ED46F050ED56F000ED66F1E0ED76F47
:102E1E00000ED86FFBEC0EF08078800EA219006EBB
:102E2E00800E030A005C02E13E0EA15D31E3800ECE
:102E3E00030A006E800EA219005C02E1A151520835
:102E4E0027E3850ED36F000ED46F050ED56F000EDF
:102E5E00D66F1E0ED76F000ED86FFBEC0EF0000E65
:102E6E00B71902E1000EB61913E1800E5619006E65
:102E7E00800E5819005C02E15751555D03E2554B27
:102E8E00562B02D0556B566B010E596F000E5A6FB2
:102E9E00800EA219006E800E030A005C02E1700E15
:102EAE00A15D3FE3800E030A006E800EA219005C46
:102EBE0002E1A151840835E3AF0ED36F000ED46F3B
:102ECE00050ED56F000ED66F1E0ED76F000ED86F83
:102EDE00FBEC0EF0060E0B6E130E0C6EAD0E0D6EA1
:102EEE000D2EFED70C2EFCD70B2EFAD700000000AD
:102EFE00B651B711010ED8A4000EB66F000EB76F03
:102F0E00000EB71902E1000EB6190BE1050ED36FD4
:102F1E00320ED46F640ED56F3C0ED66FD76BE6ECC7
:102F2E000EF0800EA219006E800E030A005C02E104
:102F3E00D40EA15D34E3800E030A006E800EA2193A
:102F4E00005C02E1A151E8082AE3B80ED36F000E2F
:102F5E00D46F050ED56F000ED66F1E0ED76F000EF6
:102F6E00D86FFBEC0EF0000EB71902E1000EB61989
:102F7E0016E1800E006E800E5619005C02E155516E
:102F8E00000805E2010E555F000E565B04D057C1D6
:102F9E0055F158C156F1010E596F000E5A6F1200BD
:102FAE00000E0101A41902E1010EA31911E1010E97
:102FBE00D36F0D0ED46F7E0ED56F3E0ED66FD76BC0
:102FCE00E6EC0EF0010EA56F000EA66FA36BA46BC0
:102FDE00000EA61902E1010EA519D8A41BD1C46BCF
:102FEE00330EC56F7F0EC66F3F0EC76F010EC86FD3
:102FFE0013EC11F0010ED36F340ED46F7E0ED56F1D
:10300E003E0ED66FD76BE6EC0EF0F0D0610ED36F9E
:10301E00000ED46F060ED56F000ED66F340ED76F1E
:10302E00000ED86FFBEC0EF02B0ED36F330ED46F59
:10303E00550ED56F3E0ED66F010ED76FE6EC0EF025
:10304E00780E0201016F330E026F000E036F046BD8
:10305E00056B7DEC01F0660ED36F000ED46F370E4C
:10306E00D56F000ED66F340ED76F000ED86FFBECF7
:10307E000EF0780E0201016F330E026F000E036F19
:10308E00010E046F056B7DEC01F06A0ED36F000E1E
:10309E00D46F600ED56F000ED66F340ED76F000E44
:1030AE00D86FFBEC0EF0A56BA66BB4D0010ED36FF0
:1030BE00330ED46F2A0ED56F3E0ED66F010ED76F1C
:1030CE00E6EC0EF0780E0201016F330E026F000E69
:1030DE00036F046B056B7DEC01F0C10ED36F000E18
:1030EE00D46F060ED56F000ED66F340ED76F000E4E
:1030FE00D86FFBEC0EF0780E0201016F330E026FEB
:10310E00000E036F010E046F056B7DEC01F0D30E04
:10311E00D36F000ED46F370ED56F000ED66F340EF0
:10312E00D76F000ED86FFBEC0EF0D70ED36F000EDC
:10313E00D46F600ED56F000ED66F340ED76F000EA3
:10314E00D86FFBEC0EF0A56BA66B64D0DB0ED36FC5
:10315E00000ED46F060ED56F000ED66F340ED76FDD
:10316E00000ED86FFBEC0EF0CF0ED36F000ED46FA7
:10317E00370ED56F000ED66F340ED76F000ED86F88
:10318E00FBEC0EF0550ED36F330ED46F7E0ED56F53
:10319E003E0ED66F010ED76FE6EC0EF0780E0201E2
:1031AE00016F330E026F000E036F046B056B7DEC27
:1031BE0001F0CB0ED36F000ED46F600ED56F000EE4
:1031CE00D66F340ED76F000ED86FFBEC0EF0780E64
:1031DE000201016F330E026F000E036F010E046FBA
:1031EE00056B7DEC01F0A56BA66B14D0000EAC192F
:1031FE0002E1000EAB19D8B409D7000EAC1902E1EA
:10320E00010EAB19D8B452D7000EAC1902E1020E62
:06321E00AB199CE0120058
:1032240031EC1FF09C0E01015B6F000E5C6F3B0ED6
:10323400536F000E546F4E0E4F6F000E506F150EED
:103244004D6F000E4E6F280E4B6F000E4C6F700EBC
:10325400516F000E526F060E576F000E586F0C0E12
:10326400C112070EB412070E926E800E946EF00E09
:10327400956E966A816A826A836A846A81EC14F024
:10328400C46BCFEC0FF0040E556F000E566F010E99
:10329400596F000E5A6FB66BB76B010EAB6F000E11
:1032A400AC6F80968098809A2FD05BC1B8F15CC1D6
:1032B400B9F1FFEC13F079DE4CD053C1B8F154C12D
:1032C400B9F1FFEC13F045D04FC1B8F150C1B9F1D9
:1032D400FFEC13F03ED04DC1B8F14EC1B9F1FFEC93
:1032E40013F037D04BC1B8F14CC1B9F1FFEC13F076
:1032F40031EC15F02ED051C1B8F152C1B9F1FFEC47
:1033040013F0E9EC13F025D00101000E561902E187
:10331400000E5519CAE0000E561902E1010E5519A6
:10332400CCE0000E561902E1020E5519CDE0000E54
:10333400561902E1030E5519CEE0000E561902E1AA
:10334400040E5519CFE0000E561902E1050E551969
:10335400D2E047EC15F0000E2F1902E1000E2E19F1
:1033640002E1CDEC14F082A403D0B7EC14F0FBD747
:043374009BD7FFD70D
:103E620010EE15F0360E006E020E016E2B0EF66E7F
:0E3E72003D0EF76E000EF86EAFEC14F012006D
:10337800000020007F000B0001880100019301007C
:10338800039E010007A9010005B4010009BF01005F
:1033980006D5010001E0010003EB010002F601007F
:1033A80005010200060C02000217020002220200B8
:1033B800022D02000338020004430200044E0200FA
:1033C8000459020004640200056F0200047A020036
:1033D8000485020004900200049B020004A6020077
:1033E80002B1020002BC020006C7020006D20200B7
:1033F80006DD020004E8020007F3020006FE0200F0
:103408000509030006140300061F0300052A03002C
:103418000535030006400300064B0300035603006E
:1034280003610300056C03000477030007820300AF
:10343800068D03000798030005A3030007AE0300E9
:1034480005B9030005C4030005CF030006DA03002D
:1034580006E5030007F0030004FB0300050604006B
:1034680004110400021C04000327040002320400B3
:10347800053D04000548040003530400045E0400ED
:103488000469040003740400047F0400048A04002F
:103498000395040004A0040004AB040001B6040072
:1034A80002C1040004CC040001D7040007E20400B0
:1034B80004ED040004F8040004030500040E0500EC
:1034C8000319050003240500022F0500043A05002E
:1034D8000545050007500500035B05000566050066
:1034E80003710500037C05000287050003920500AF
:1034F800069D050002A8050000000000000000006D
:1035080000000000000101010101000100000005A8
:10351800050500000000000000000024247E143F80
:10352800121200000000041E05060C140F0404000B
:10353800000000460029002900D60028012801C4FF
:1035480000000000000000060909160919260000FD
:103558000001010100000000000000000402010158
:10356800010101010204000001020202020202013B
:103578000004150E150400000000000000000008FB
:10358800083E0808000000000000000000000202D9
:10359800010000000000000003000000000000001F
:1035A80000000000020200000004040202020202FD
:1035B80001010000000609090909090600000000C8
:1035C8000406040404040E000000000708080402AE
:1035D800010F00000000070808060808070000009F
:1035E80000080C0A091F0808000000000F01010765
:1035F8000808070000000006010107090906000085
:1036080000000F0804040202010000000006090976
:1036180006090906000000000609090E0808060048
:10362800000000000002020002020000000000008A
:103638000202000202010000000000201C021C20FF
:10364800000000000000003F003F000000000000F4
:1036580000021C201C0200000000070808040200E9
:1036680002000000001C2259555539021C000000B8
:103678000C0C12123F2121000000000709090F114C
:10368800110F000000001C22010101221C00000093
:10369800000F11212121110F000000001F01010F4F
:1036A80001011F000000001F01010F0101010000BE
:1036B80000001C22013921223C00000000212121A8
:1036C8003F21212100000000070202020202070038
:1036D80000000006040404040403000000001109AB
:1036E8000503050911000000000101010101010F96
:1036F800000000006363555549494100000000215E
:10370800232529312121000000001C2241414122AA
:103718001C000000000F1111110F01010000000032
:103728001C22414141221C106000000F11110F059D
:103738000911000000001E01010E10100F0000000A
:10374800001F0404040404040000000021212121B6
:1037580021211E0000000021212112120C0C000062
:103768000000494955555522220000000009090664
:103778000606090900000000110A0A0404040400EE
:103788000000000F08040202010F000000030101FD
:103798000101010101010300010102020202020408
:1037A80004000003020202020202020203000004F3
:1037B8000A110000000000000000000000000000E6
:1037C80000001F00020400000000000000000000CC
:1037D800000006080E090E00000001010107090992
:1037E80009070000000000000601010106000000B2
:1037F8000808080E0909090E000000000000060963
:103808000F010E000000060101070101010100007F
:10381800000000000E0909090E0806000101010751
:103828000909090900000000010001010101010066
:10383800000000020003020202020201000101016D
:103848000905030509000000010101010101010149
:103858000000000000003749494949000000000005
:103868000007090909090000000000000609090904
:10387800060000000000000709090907010100000F
:1038880000000E0909090E080800000000050301E0
:103898000101000000000000070102040700000009
:1038A80000000103010101020000000000000909F5
:1038B80009090E000000000000110A0A0A040000AD
:1038C80000000000494955362200000000000005AC
:1038D80002020205000000000000110A0A0A04049E
:1038E80002000000000704020107000000040202B1
:1038F80002020102020204000202020202020202A1
:103908000202000102020202040202020100000097
:103918000000261900000000000000030303030351
:033928000000009C
:10392B00000000000000000000000000000000008C
:10393B00000000000000000000000000000000007C
:10394B00000000000000000000000000000000006C
:10395B00000000000000000000000000000000005C
:10396B00000000000000000000000000000000004C
:10397B00000000000000000000000000000000003C
:10398B00000000000000000000000000000000002C
:10399B00000000000000000000000000000000001C
:1039AB00000000000000000000000000000000000C
:1039BB0000000000000000000000000000000000FC
:1039CB0000000000000000000000000000000000EC
:1039DB0000000000000000000000000000000000DC
:1039EB0000000000000000000000000000000000CC
:1039FB0000000000000000000000000000000000BC
:103A0B0000000000000000000000000000000000AB
:103A1B00000000000000000000000000000000009B
:103A2B00000000000080808080808080800000008B
:103A3B0080808000000000808080000000808080FB
:103A4B0080808080800000000080808080808000EB
:103A5B00000000000000008080808080800000005B
:103A6B000080A0B89898B0A08000000080808000F3
:103A7B00000000008080000000000000808080803B
:103A8B00000000000080808080808080800000002B
:103A9B00000000808080800000000000000000001B
:103AAB000000000000FFFFFF313131313100000019
:103ABB00FFFF073FF0F01F07FFFF000000FFFFFFB6
:103ACB00313131313100000000FFFF6161E1F3BFA3
:103ADB001F000000FCFE070301313131F1F3000040
:103AEB0000FFFFFF3131313131000000FFFF0F1FAD
:103AFB007CF0C080FFFF0000F8FEFF030301010113
:103B0B000100000000010101FFFF010101000000A5
:103B1B0000E0FC9F8387BFFCE0000000000000007A
:103B2B0000000000000F0F0F0C0C0C0C0C00000021
:103B3B000F0F0000000000000F0F0000000F0F0F11
:103B4B000C0C0C0C0C000000000F0F000000030FFE
:103B5B000E0800000107070E0C0C0C0C0F070000E1
:103B6B00000F0F0F0C0C0C0C0C0000000F0F0000C3
:103B7B000001070F0F0F00000103070E0C0C0C0CBC
:103B8B0006000000000C0C0C0F0F0C0C0C000008B6
:103B9B000F0F0101010101030F0F000000000000D6
:103BAB00000000000000000000000000000000000A
:103BBB0000000000000000000000000000000000FA
:103BCB0000000000000000000000000000000000EA
:103BDB0000000000000000000000000000000000DA
:103BEB0000000000000000000000000000000000CA
:103BFB0000000000000000000000000000000000BA
:103C0B0000000000000000000000000000000000A9
:103C1B000000000000000000000000000000000099
:103C2B000000000000000000000000000000000089
:103C3B000000000000000000000000000000000079
:103C4B000000000000000000000000000000000069
:103C5B000000000000000000000000000000000059
:103C6B000000000000000000000000000000000049
:103C7B000000000000000000000000000000000039
:103C8B000000000000000000000000000000000029
:103C9B000000000000000000000000000000000019
:103CAB000000000000000000000000000000000009
:103CBB0000000000000000000000000000000000F9
:103CCB0000000000000000000000000000000000E9
:103CDB0000000000000000000000000000000000D9
:103CEB0000000000000000000000000000000000C9
:103CFB0000000000000000000000000000000000B9
:103D0B0000000000000000000000000000000000A8
:103D1B000000000000000000000000000000000098
:103D2B00202033202D204672657175656E636961A5
:033D3B0020200045
:103D3E002034202D2054656D70657261747572612A
:033D4E0020200032
:103D51002031202D2054656E73616F20526564659A
:033D61002020001F
:103D64002032202D20436F7272656E746520526577
:033D740064650083
:053D7700524544450027
:043D7C004F46460068
:043D8000474D470064
:023D84004D00F0
:103D860035202D2054656E73616F20426174657213
:033D960069610060
:023D99004100E7
:083D9B0044697265697461005E
:063DA30052657365740017
:023DA900000018
:073DAB004D616E75616C00B3
:103DB20020202030202D205072696E636970616C62
:033DC200202000BE
:093DC50043616C696272617200D5
:093DCE00457371756572646100B2
:053DD7005245444500C7
:013DDC0000E6
:043DDD00494E460005
:043DE100474D470003
:043DE5004F464600FF
:043DE9004F464600FB
:043DED00474D4700F7
:053DF1005245444500AD
:013DF600309C
:043DF7004E614E00CB
:023DFB00300096
:033DFD0043200060
:0E3E000054656D70657261747572613A2000D0
:0B3E0E004175746F6D617469636F0093
:0A3E1900426174657269613A20008D
:033E230056200026
:0B3E260050617274697220474D470024
:053E310052656465000C
:0E3E36004465736C69676120436172676100C7
:023E440000007C
:023E4600010079
:0A3E4800506172617220474D47007F
:083E520047657261646F7200A4
:073E5A00426F74616F3A0032
:020000040030CA
:0E000000044C191EFF0380FF0FC00FE00F40DD
:00000001FF
