:10000000FCEF16F00000000000EF00F00000000020
:0A0010000000000000000000F3D71C
:0C001C00100E0D6E0D2EFED7000012001D
:0C002800000000000000000000001200BA
:0A003400F3DF8188F1DF81981200EC
:08003E000AAE029E000E120042
:100046000B840BAE2EEF00F0010E036E026A016AFE
:0A005600006A0A360232FF0E1200A3
:10006000F250026EF29E0500FF6A0150FE6E0050D3
:08007000FD6E02BEF28E1200CB
:100078000B820BAE46EF00F0036802680168006867
:080088000A360232FF0E1200DD
:100090007F0E0101FE15016E01C0FEF101AC03D01F
:0C00A0008182819002D081928180120048
:1000AC0081948196B80E0101FE11836EBDDF1200A2
:1000BC007F0E0101FE15006E00C0FEF18194819649
:1000CC00BF0E001600C0FEF1008C00C0FEF100C097
:0600DC0083FFAADF120001
:1000E200120E006E000E016E830E0024E16E0F0EE2
:1000F2000120E26EFF0EE66E96DF95DF8184819825
:10010200818681888ADF83CFFEF1819881968BDF99
:100112008ADF120E006E000E016E830E0024E16E65
:0E0122000F0E0120E26EE66AFEC100F0120030
:0E013000026A016A006A086A036A000E120081
:0E013E00819881848196FEC183FF75DF1200D7
:10014C00640E0101FC6F010EFD6F000E006EF55187
:10015C00005C02E1F451000843E26EC1E1FF6FC1A3
:10016C00E2FFF0C1E6FFF1C1E6FFF2C1E6FFF3C129
:10017C00E6FFF4C1E6FFF5C1E6FFF80EE66E010EF0
:10018C00E66E6CC100F06DC101F064DF00C0FAF1E5
:10019C0001C0FBF10101F66BF76BF951F75D02E160
:1001AC00F851F65D11E2FAC1E9FFFBC1EAFFFCC1AF
:1001BC00E1FFFDC1E2FFEECFE6FFFC4BFD2BFA4B5E
:1001CC00FB2BF64BF72BE9D7F851F45FF951F55BA4
:1001DC00F851F027F951F123000EF223F323B5D790
:0201EC001200FF
:1001EE00000E0101F05D0AE3F0517F0807E3000EF7
:1001FE00F15D04E3F1513F0801E301D04AD0F0C1B3
:10020E00FEF13FDFF1C1FEF1FE33FE9FFE33FE9F96
:10021E00FE33FE9F44DFF0C1FEF149DF5BDF00C01D
:10022E00F5F158DF00C0F5F1F1C1FEF1FE33FE9F8E
:10023E00FE33FE9FFE33FE9F32DFF0C1FEF137DF4D
:10024E00070EF115006E00C0F3F100C001F0010EB3
:10025E00006E015004E000360090FF0FFBD700C087
:10026E00F3F1001CF46F09D0F451F5170FD0F351D0
:10027E00F5130CD0F351F51B09D0F251000AF4E03E
:10028E00F251010AF4E0F251020AF4E0F5C1FEF176
:04029E004FDF12001C
:1002A2000B6A0A6A096A00500402F4CF09F0F3CF1C
:1002B20008F001500502F4CF0BF0F3CF0AF0005022
:1002C2000502F3500926F4500A22E86A0B22015073
:1002D2000402F3500926F4500A22E86A0B2208C0ED
:1002E20000F009C001F00AC002F00BC003F01200D6
:1002F2000B800BAE85EF01F0026A0AAEFF0E026EB2
:0C030200016E006E0A360232FF0E12007F
:10030E000C6A0E6A0250D8A4A0EF01F001C002F0F0
:10031E0000C001F0006A0E860250D8A4A0EF01F0D2
:10032E0001C002F0016A0E960E880250D8B4B2EFE8
:10033E0001F00E50035ED8A4D8A0B7EF01F0D8900C
:10034E0002BEBCEF01F0003601360236032EA7EFD7
:10035E0001F0B7EF01F0010E0C6EE3DEBFEF01F01E
:10036E00020E0C6E69DEBFEF01F0040E0C6E60DE45
:02037E0012006B
:0C038000240E0D6E0D2EFED700001200A2
:10038C000CB008EF02F00CA2AEEF02F00E6A000EF9
:10039C0002641FEF02F0F00E0214D8A4EAEF01F091
:1003AC00023A01380F0B02260138F00B016E0038AF
:1003BC000F0B01260038F00B006E08380F0B0026CF
:1003CC000838F00B086E0E84D89002BE03EF02F0D2
:1003DC0008360036013602360E2A02BE03EF02F052
:1003EC0008360036013602360E2A02BE03EF02F042
:1003FC0008360036013602360E2A0E500364A4EF7E
:10040C0002F0035E0BBC08AEA9EF02F0D880800EA0
:10041C0008640030000E002201220222D8A0A9EFAD
:10042C0002F0023201320032034AAEEF02F0A9EFC1
:10043C0002F001C002F000C001F008C000F0086A30
:10044C00000E0E86026456EF02F0F00E0214D8A4D1
:10045C003EEF02F0023A01380F0B02260138F00B86
:10046C00016E00380F0B01260038F00B006E0E8465
:10047C00D89002BE03EF02F00036013602360E2A87
:10048C0002BE03EF02F00036013602360E2A02BE1F
:10049C0003EF02F00036013602360E2A03EF02F0AB
:1004AC0001C002F000C001F0006A000E0E960E882A
:1004BC00026483EF02F0F00E0214D8A46EEF02F087
:1004CC00023A01380F0B02260138F00B016E0E8434
:1004DC00D89002BE03EF02F0013602360E2A02BE9D
:1004EC0003EF02F0013602360E2A02BE03EF02F0D1
:1004FC00013602360E2A03EF02F001C002F0016A47
:10050C00000E0E860264B3EF02F0F00E0214D8A4B3
:10051C0092EF02F0023A0E84D89002BE03EF02F082
:10052C0002360E2A02BE03EF02F002360E2A02BE7B
:10053C0003EF02F002360E2A03EF02F0010E0C6EEE
:10054C007CDDB6EF02F0020E0C6E73DDB6EF02F03E
:10055C00040E0C6E8BDDB6EF02F0080E0C6EE2DDB5
:02056C0012007B
:10056E00F0C157F1F1C158F1F2C159F1020E01017A
:10057E00F025F66E000EF121F76E000EF221F86EE8
:10058E000900F5CF04F0030EF025F66E000EF121F2
:10059E00F76E000EF221F86E0900F5CF03F003C0DE
:1005AE0001F0006A04500024516F000E0120526FBA
:1005BE00040EF025F66E000EF121F76E000EF221FC
:1005CE00F86E0900F5CF04F0050EF025F66E000E5C
:1005DE00F121F76E000EF221F86E0900F5CF03F04F
:1005EE0003C001F0006A04500024536F000E012076
:1005FE00546F060EF025F66E000EF121F76E000E0A
:10060E00F221F86E0900F5CF55F1000E566FF3C1C9
:10061E0071F1000E726FF4C173F1010E0001D86F0B
:08062E0001015E6B5F6B12001D
:080636000B6A0B86FF0E120097
:10063E00D6C104F0D7C105F004C002F005C003F026
:10064E00044A052AD8C100F0D9C101F00101D84BE6
:10065E00D92B00C0E9FF01C0EAFF02C0E1FF03C0D1
:10066E00E2FFEECFE6FF02C0E9FF03C0EAFFEE5263
:0E067E0001E0E2D7D6C100F0D7C101F01200B2
:10068C000450000A12E10550000A0FE10650000A5E
:10069C000CE10750000A09E1FF0E006EFF0E016E1F
:1006AC007F0E026EFF0E036EA4D0086A096A075013
:1006BC00D8B4F1EF03F00350D8B4F5EF03F00250C7
:1006CC0006180A6E028E068E0E6A02C008F001C071
:1006DC000CF000C00DF004500D5E0550D8A0053C88
:1006EC000C5E0650D8A0063C085E086A0C6A0D6ABF
:1006FC00D8A088EF03F0D8900232013200320832D1
:10070C00010E0E6E0750035ED8A095EF03F07E0E1F
:10071C000E240326D8B0F9EF03F09BEF03F07E0E06
:10072C000E240326D8A0FDEF03F0180E0B6E0D3629
:10073C000C3608360036013602360E360450005E92
:10074C000550D8A0053C015E0650D8A0063C025EC0
:10075C0006340E120EA0B6EF03F00D80C1EF03F0BD
:10076C00045000260550D8B0053C01260650D8B0E0
:10077C00062802260D900B2E9DEF03F0E7EF03F0F9
:10078C00D8900036013602360E360450005E055005
:10079C00D8A0053C015E0650D8A0063C025E06348B
:1007AC000E10010B0D26D8B00C2AD8B4082AD8A4E8
:1007BC00E7EF03F008320C320D32032AD8B4F9EF0C
:1007CC0003F00AAE089E0850026E0C50016E0D50DC
:1007DC00006EFFEF03F0010E28DFFFEF03F0020EB7
:1007EC00A1DCFFEF03F0040E41DCFFEF03F0080E79
:0407FC0024DC1200E7
:100800000A6A0350D8A40A800750D8A40A820A5062
:10081000D8B463EF04F0030AD8B41CEF04F00AB0B4
:1008200017EF04F006AE61EF04F05FEF04F002AEE4
:100830005FEF04F061EF04F00250800B0A6E029E3D
:100840000650800B069E0A18D8B42DEF04F00A500B
:10085000D8B45FEF04F061EF04F00750035CD8B444
:1008600037EF04F0D8A053EF04F059EF04F006502E
:10087000025CD8B441EF04F0D8A053EF04F059EF74
:1008800004F00550015CD8B44BEF04F0D8A053EF4E
:1008900004F059EF04F00450005CD8B463EF04F0A6
:1008A000D8B059EF04F00A52D8B461EF04F05FEF0A
:1008B00004F00A52D8B45FEF04F061EF04F0D8807E
:0E08C0001200D8901200D880D88412001200C6
:1008CE00000E0101D85D04E3D8513F0801E301D0C9
:1008DE0027D0000ED65DD8A0D66BD6517F0802E287
:1008EE007F0ED66F000ED75DD8A0D76BD7517F087D
:1008FE0002E27F0ED76FD651D75D06E2D6C1DAF18E
:10090E00D7C1D6F1DAC1D7F1D651D75D09E3D6C139
:10091E00F0F1D8C1F1F1D9C1F2F162DCD62BF4D7E6
:02092E001200B5
:10093000086A096A000E076203641DEF05F00250A1
:1009400006180A6E075003267E0ED8A0AEEF04F0FC
:10095000035ED8B022EF05F0B2EF04F0035ED8A03A
:1009600027EF05F0028E068E02C00EF001C00BF0DC
:1009700000C00DF000500402F4CF0CF0015005024D
:10098000F4CF00F0F3CF08F00402F3500C26F4503B
:100990000822000E00220D500502F3500C26F450E0
:1009A0000822000E002202500402F3500826F450E0
:1009B000002202500502016A000E0122F3500026B7
:1009C000F45001220D500602F3500826F450002284
:1009D000026A000E012202220B500602F35000268A
:1009E000F4500122000E02220E500602F35001269E
:1009F000F450022202BE05EF05F00836003601363B
:100A000002360306D8B427EF05F018EF05F0D880BA
:100A1000800E08640030000E002201220222D8A0BD
:100A200018EF05F0023201320032034A22EF05F0DE
:100A30000AAE029E000E2AEF05F0010E98EC00F0BF
:100A40002AEF05F0020E3CEC00F02AEF05F0040E50
:060A500023EC00F012008F
:100A56000101DE6BDF6BE06B0001D851000A0EE18D
:100A6600440E0101F06F2F0EF16F000EF26F010EB2
:100A7600F36FF46B79DD010E0001D86F000E006E86
:100A860001015251005C02E15151D65D01E2E8D00C
:100A9600000E545D02E1D651535D01E2E1D05151A1
:100AA600D65D016E52C102F0000E025601C003F07F
:100AB60002C004F00336039004360336039004366E
:100AC600080E5725006E000E5821016E000E5921A2
:100AD600026E000E056E00500326015004220250DD
:100AE600052203C0F6FF04C0F7FF05C0F8FF0900A2
:100AF600F5CFDEF1010E0324F66E000E0420F76E2C
:100B0600000E0520F86E0900F5CF00F000C006F0D3
:100B1600000E076E086E096E020E0324F66E000EB6
:100B26000420F76E000E0520F86E0900F5CF03F0DD
:100B360003C001F0006A000E026E036E0650002626
:100B4600075001220850022209500322575100245F
:100B5600DB6F58510120DC6F59510220DD6F735154
:100B6600000A40E15CC1D9F1D86B000E006E565107
:100B7600005C02E15551D85D2EE25AC1DFF1DA6B15
:100B8600D76BDE51D75D24E2DA51000A10E1DBC1F2
:100B9600F6FFDCC1F7FFDDC1F8FF0900F5CFE0F194
:100BA600010EDB27000EDC23DD23010EDA6FDA519E
:100BB600E015006E08E0DFC1F0F1D9C1F1F171C1B5
:100BC600F2F1F7EC00F0DF2BDA37DA91D72BD9D731
:100BD600D92BD82BCAD7DF51010F5A6F5B6B000E8A
:100BE6005B233ED05AC1D9F1D86B000E006E565128
:100BF600005C02E15551D85D2EE25CC1DFF1DA6B93
:100C0600D76BDE51D75D24E2DA51000A10E1DBC171
:100C1600F6FFDCC1F7FFDDC1F8FF0900F5CFE0F113
:100C2600010EDB27000EDC23DD23010EDA6FDA511D
:100C3600E015006E08E0D9C1F0F1DFC1F1F171C134
:100C4600F2F1F7EC00F0DF07DA37DA91D72BD9D7D4
:100C5600D92BD82BCAD7DF055C6F5D6B000E5D5BA9
:020C660012007A
:100C6800C26A0001F61D006E0050C116070EC012C0
:100C7800C08ED6C100F000360090003600900050BB
:100C8800C212C280C0EC01F0C282C2A201D0FDD75C
:100C9800C4CF01F0006AC3500012000E0112C290C6
:020CA800120038
:100CAA000050086E0150006E016A026A036A0B6AFC
:100CBA000C6A960E036E0A6A00C001F008C000F0C2
:0A0CCA00086A026A87EC01F01200CC
:100CD400025006180E6E086A096A0B6A035007640C
:100CE4005DEF07F006500A6E068E028E03500B6EFF
:100CF4000750036E000E0B64ADEF06F00B50075E59
:100D0400D8B44EEF07F0070E07641CEF07F0075E38
:100D140000C008F001C000F002C001F0026A074EF2
:100D24004EEF07F00764F1EF06F0075E00C008F02D
:100D340001C000F0016A074E4EEF07F00764CFEFE1
:100D440006F0075E00C008F0006A074E4EEF07F099
:100D54000764B6EF06F00AC002F005C001F004C053
:100D640000F0086A7AEF08F0030E0764C1EF06F09A
:100D7400075E08380F0B086E074E4EEF07F0D89049
:100D84000832074E4EEF07F0D8900832074E4EEF68
:100D940007F0D89008324EEF07F0030E0764E0EF37
:100DA40006F0075E08380F0B086E0038F00B0826B3
:100DB40000380F0B006E074E4EEF07F0D89000324C
:100DC4000832074E4EEF07F0D89000320832074E33
:100DD4004EEF07F0D890003208324EEF07F0030EC2
:100DE400076408EF07F0075E08380F0B086E003839
:100DF400F00B082600380F0B006E0138F00B0026AC
:100E040001380F0B016E074E4EEF07F0D8900132F8
:100E140000320832074E4EEF07F0D890013200320C
:100E24000832074E4EEF07F0D890013200320832F4
:100E34004EEF07F0030E076439EF07F0075E08383A
:100E44000F0B086E0038F00B082600380F0B006EED
:100E54000138F00B002601380F0B016E0238F00B3D
:100E6400012602380F0B026E074E4EEF07F0D890A2
:100E74000232013200320832074E4EEF07F0D890AA
:100E84000232013200320832074E4EEF07F0D8909A
:100E94000232013200320832096A000E0EAE42EF0D
:100EA40008F0081E001E011E021E082A002201224C
:100EB400022242EF08F00750D8A463EF07F07AEF5C
:100EC40008F0096A02C00AF0028E068E0750035C1D
:100ED400076ED8B435EF08F0070E076403EF08F087
:100EE400075E0450096E0550046E0650056E066ACE
:100EF400074E35EF08F0070E0764D8EF07F0075EDA
:100F04000450096E0550046E056A074E35EF08F06B
:100F1400070E0764B6EF07F0075E0450096E046A13
:100F2400074E35EF08F0070E07649DEF07F00AC07F
:100F340002F07AEF08F0030E0764A8EF07F0075EEB
:100F440009380F0B096E074E35EF08F0D8900932B7
:100F5400074E35EF08F0D8900932074E35EF08F008
:100F6400D890093235EF08F0030E0764C7EF07F095
:100F7400075E09380F0B096E0438F00B0926043894
:100F84000F0B046E074E35EF08F0D8900432093287
:100F9400074E35EF08F0D89004320932074E35EF8A
:100FA40008F0D8900432093235EF08F0030E0764D4
:100FB400EFEF07F0075E09380F0B096E0438F00BEA
:100FC400092604380F0B046E0538F00B0426053887
:100FD4000F0B056E074E35EF08F0D890053204323A
:100FE4000932074E35EF08F0D89005320432093241
:100FF400074E35EF08F0D89005320432093235EF48
:1010040008F0030E076420EF08F0075E09380F0BA1
:10101400096E0438F00B092604380F0B046E0538EA
:10102400F00B042605380F0B056E0638F00B052669
:1010340006380F0B066E074E35EF08F0D8900632CF
:10104400053204320932074E35EF08F0D8900632E3
:10105400053204320932074E35EF08F0D8900632D3
:10106400053204320932086A000E0EAE42EF08F06F
:10107400091E041E051E061E092A04220522062234
:10108400095008260450002205500122065002226D
:101094000EBE59EF08F0D8A068EF08F00232013212
:1010A40000320832033E68EF08F074EF08F0D8B05D
:1010B4006EEF08F0000E081E001E011E021E082A14
:1010C4000022012202220A7E6EEF08F0010E0C6E4D
:1010D400C6EC01F07CEF08F0020E0C6EC6EC01F0D9
:1010E4007CEF08F0040E0C6E3CEC00F07CEF08F092
:0610F400000E0C6E12005C
:1010FA000101EB6BEC6BED6BEE6B5251D75D02E1CC
:10110A005151D65D01E2BBD1D751545D02E1D651AE
:10111A00535D01E2B4D15151D65D036E5251D75994
:10112A00046E03C000F004C001F0003600900136DE
:10113A00003600900136080E6025F06F000E61211E
:10114A00F16F000E6221F26F000E6321F36F0050FF
:10115A00F0270150F123000EF223F323040EF46F5B
:10116A00000EF56FA6EC00F0640EE96F010EEA6F4F
:10117A00E9C1E9FFEAC1EAFFEECFEFF1EFC1EBF116
:10118A00010EE925E96E000EEA21EA6EEECF04F0BF
:10119A00000E056E066E076E020EE925E96E000E58
:1011AA00EA21EA6EEECF03F003C001F0006A000EF6
:1011BA00026E036E045000260550012206500222D8
:1011CA000750032200506025DD6F01506121DE6F58
:1011DA0002506221DF6F03506321E06FEFC100F01C
:1011EA000032009E0032009E0032009E000E016E08
:1011FA0055C104F056C105F051EC01F000C0E3F10D
:10120A0001C0E4F1070EEF15006E04E05551E32723
:10121A005651E423E3C1E7F1E4C1E8F16EC1E1FF0D
:10122A006FC1E2FFDDC1E6FFDEC1E6FFDFC1E6FF17
:10123A00E0C1E6FFE3C1E6FFE4C1E6FFE10EE66EC8
:10124A00010EE66E6CC100F06DC101F030EC00F0E9
:10125A0000C0E9F101C0EAF10101E151DD27E251E3
:10126A00DE23000EDF23E023E151E35FE251E45B7A
:10127A00E56BE66B7351000AD8A480D05CC1DAF141
:10128A005DC1DBF1D96B000E006E5651005C02E1C4
:10129A005551D95D6CE25AC1ECF15BC1EDF1DC6BE1
:1012AA00D86BEB51D85D5FE2DC51000A4AE1E54BAD
:1012BA00E62BE851E25D02E1E751E15D38E2E651F1
:1012CA00E25D02E1E551E15D32E2010EE56F000EF9
:1012DA00E66F6EC1E1FF6FC1E2FFDDC1E6FFDEC16D
:1012EA00E6FFDFC1E6FFE0C1E6FFE3C1E6FFE4C1D6
:1012FA00E6FFE10EE66E010EE66E6CC100F06DC10E
:10130A0001F030EC00F000C0E9F101C0EAF1E3C1FC
:10131A00E7F1E4C1E8F10101E151DD27E251DE2301
:10132A00000EDF23E023E151E35FE251E45BE9C110
:10133A00E9FFEAC1EAFFEECFEEF1E94BEA2B010E33
:10134A00DC6FDC51EE15006E08E0ECC1F0F1DAC199
:10135A00F1F171C1F2F1F7EC00F0EC4BED2BDC3757
:10136A00DC91D82B9ED7DA4BDB2BD92B8CD7010EED
:10137A00EC255A6F000EED215B6F81D05AC1DAF16C
:10138A005BC1DBF1D96B000E006E5651005C02E1C5
:10139A005551D95D6EE25CC1ECF15DC1EDF1DC6BDA
:1013AA00D86BEB51D85D61E2DC51000A4AE1E54BAA
:1013BA00E62BE851E25D02E1E751E15D38E2E651F0
:1013CA00E25D02E1E551E15D32E2010EE56F000EF8
:1013DA00E66F6EC1E1FF6FC1E2FFDDC1E6FFDEC16C
:1013EA00E6FFDFC1E6FFE0C1E6FFE3C1E6FFE4C1D5
:1013FA00E6FFE10EE66E010EE66E6CC100F06DC10D
:10140A0001F030EC00F000C0E9F101C0EAF1E3C1FB
:10141A00E7F1E4C1E8F10101E151DD27E251DE2300
:10142A00000EDF23E023E151E35FE251E45BE9C10F
:10143A00E9FFEAC1EAFFEECFEEF1E94BEA2B010E32
:10144A00DC6FDC51EE15006E08E0DAC1F0F1ECC198
:10145A00F1F171C1F2F1F7EC00F0010EEC5F000E50
:10146A00ED5BDC37DC91D82B9CD7DA4BDB2BD92B05
:10147A008AD7010EEC5D5C6F000EED595D6F1200AC
:10148A00D6C15AF1D7C15BF1D8C15CF1D9C15DF1BE
:02149A0012003E
:10149C000D6A086A0050D8B4000C04180A6E0ABE13
:1014AC000D1E0B6A04AE02D0041E042A00AE02D03C
:1014BC00001E002A005004100A6E0ABE1FD00450F1
:1014CC00085E003600340836045008260036060E36
:1014DC000C6E00340836045000B0085E00A00826DC
:1014EC0000360C2EF6D700A008260BB015D00DAE8A
:1014FC00000C001E002A081E082A000C04AE09D09D
:10150C0000BE04D00050086E006AF1D7006A002AB1
:10151C00000C001E0B2AD3D7082A0450085CD8A450
:0E152C00E6D7086A002A00AEE2D7FF0C1200D4
:10153A000B6A0C6A086A0350D8B421EF0BF002C098
:10154A000AF0028E9E0E035E03AE11EF0BF0036CDF
:10155A00080E035CD8A0DEEF0AF0036E083600C05E
:10156A0008F001C000F002C001F0026A080E035C34
:10157A00D8A0DEEF0AF0036E083600C008F001C0FA
:10158A0000F0016A080E035CD8A0DEEF0AF0036ED1
:10159A00083600C008F0006A080E035CD8A0DEEF27
:1015AA000AF0036E0836086A0350D8A4D890EAEF06
:1015BA000AF00350D8B4EAEF0AF0D89002320132A6
:1015CA0000320832032EE2EF0AF00BBC08A0FBEF50
:1015DA000AF0D8A0FBEF0AF0082AD8B4002AD8B437
:1015EA00012AD8B4022A02BE25EF0BF00AAE21EF77
:1015FA000BF0021E011E001E081E082AD8B4002A7B
:10160A00D8B4012AD8B4022A21EF0BF0026A016A7F
:10161A00006A086A21EF0BF00B800BAE2CEF0BF07F
:10162A00026A0AAE2CEF0BF0026E016E006E086EB3
:10163A000A3602322CEF0BF00C6A000E2DEF0BF07B
:10164A00010E0C6E000E79EC01F02DEF0BF0FF0E7F
:10165A000250036E0150026E0050016E0850006E77
:02166A0012006C
:10166C00086A096A100E0C6E0134083609360450EB
:10167C00085E0550D8A0053C095ED8B007D00450D0
:10168C0008260550D8B0053C0926D89000360136FE
:06169C000C2EEAD712003B
:1016A200000E0101C65D04E3C6517F0801E301D0CB
:1016B20028D0000EC45DD8A0C46BC4513F0802E21A
:1016C2003F0EC46F000EC55DD8A0C56BC5513F0863
:1016D20002E23F0EC56FC451C55D06E2C4C1C8F146
:1016E200C5C1C4F1C8C1C5F1C451C55D0AE3C6C1D3
:1016F200F0F1C4C1F1F1C7C1F2F1F7EC00F0C42B73
:04170200F3D7120007
:101706000050086E0150006E0250016E0350026ECA
:10171600036A0B6A0C6A9E0E036E0A6A02AEA0EF9B
:101726000BF0081E001E011E021E082AD8B4002A4D
:10173600D8B4012AD8B4022A0A8E020E0C6EC6EC60
:0417460001F012009C
:10174A00220E0C6E086A096A0A6A0B6A0C06D8B479
:10175A001FD0D8900B320A320932083203320232D1
:10176A0001320032D8A0F2D70C06D8B409D00450FE
:10177A0008260550092206500A2207500B22EAD7EA
:10178A00045008260550092206500A2207500B2247
:02179A0012003B
:10179C000101C56BC66BC76BC86BC46B640EC45DB3
:1017AC001AE2D66B34EC06F055EC06F0C5C104F029
:1017BC00C6C105F0C7C106F0C8C107F06AEC06F057
:1017CC0000C0C5F101C0C6F102C0C7F103C0C8F129
:1017DC000101C42BE3D7000E046E000E056E480EFB
:1017EC00066E850E076EC5C100F0C6C101F0C7C1FB
:0E17FC0002F0C8C103F046EC03F099DE1200C3
:10180A00000E0101C75D02E1800EC65D01E33AD018
:10181A00000EC95D02E1400EC85D01E333D0CA6B18
:10182A00CB6BC6C1D6F1C7C1D7F1C8C1D8F1C9C1FE
:10183A00D9F126DECA51C425E96ECB51C521EA6E1B
:10184A00EE5220E05E515F1110E0CA51C425E96EE4
:10185A00CB51C521EA6EEECFD6F1000ED76F000E3E
:10186A00D76F46DCCA4BCB2B0CD0CA51C425E96EC4
:10187A00CB51C521EA6EEECFD6F12BEC05F0CA4B5F
:06188A00CB2BD8D71200A1
:10189000C5C1C9F10101C951C75D0CE3C4C1D6F18D
:1018A000C6C1D7F1C9C1D8F1C8C1D9F167EC04F0FC
:0618B000C92BF0D7120065
:1018B6000101C56BC66BC76BC86BC46B640EC45D98
:1018C6001BE2020ED66F34EC06F055EC06F0C5C1ED
:1018D60004F0C6C105F0C7C106F0C8C107F06AEC3E
:1018E60006F000C0C5F101C0C6F102C0C7F103C0D1
:1018F600C8F10101C42BE2D7000E046E000E056E7E
:10190600480E066E850E076EC5C100F0C6C101F011
:10191600C7C102F0C8C103F046EC03F00BDE1200AB
:101926000101C86B050EC85D0AE2C851C625E16E05
:10193600000EC721E26E200EE66EC82BF3D7C85103
:10194600C625E16E000EC721E26EE66AC807C851D9
:10195600C625C96F000EC721CA6F0A0E046E000E97
:10196600056EC4C100F0C5C101F07DDE08C000F0FF
:1019760009C001F0300E0026C9C1E1FFCAC1E2FF6D
:1019860000C0E6FF0A0E046E000E056EC4C100F02C
:10199600C5C101F068DE00C0C4F101C0C5F1000E8A
:1019A600011802E1000E001801E102D0C807CFD7E6
:0219B60012001D
:1019B8000101C66BC76BC4C103F0C5C104F0C4C143
:1019C80005F0C5C106F003C0E9FF04C0EAFFEE5008
:1019D800200A04E1C651C71101E110D0010EC66FFB
:1019E800000EC76F03C0E9FF04C0EAFF05C0E1FFAE
:1019F80006C0E2FFEECFE6FF054A062A03C001F063
:101A080004C002F0034A042A01C0E9FF02C0EAFF49
:101A1800EE50000AD8E1C4C100F0C5C101F01200BF
:101A28000101D16BD26BD36BD46BD56BC4C1CDF133
:101A3800C5C1CEF1C6C1CFF1C7C1D0F1D051FF0A9F
:101A480008E1CF51FF0A05E1CE51FF0A02E1CD516D
:101A5800FF0A0DE1C8C1D6F1C9C1D7F1EC0ED86FA4
:101A6800000ED96F1FEC03F0030E006E5ED2010E5C
:101A7800CB6FCFAF0FD0800ECF19006E00C0CFF163
:101A8800CB2BD22BC8C1E1FFC9C1E2FF2D0EE66EF8
:101A9800C84BC92B000E006ED01908E10050CF19B1
:101AA80005E10050CE1902E1CD51000A0CE1C8C190
:101AB800D6F1C9C1D7F1F00ED86F000ED96F1FEC5F
:101AC80003F0006A32D2D051FF0A08E1CF51000A70
:101AD80005E1CE51000A02E1CD51000A0DE1C8C16D
:101AE800D6F1C9C1D7F1F20ED86F000ED96F1FEC2D
:101AF80003F0CBC100F019D2000E046E000E056E83
:101B0800000E066E7F0E076ECDC100F0CEC101F04B
:101B1800CFC102F0D0C103F000EC04F0010ED8B040
:101B2800000E006E00521CE0CDC100F0CEC101F0E5
:101B3800CFC102F0D0C103F0000E046E000E056E96
:101B4800200E066E820E076E98EC04F000C0CDF1F0
:101B580001C0CEF102C0CFF103C0D0F1D507CCD778
:101B6800000E046E000E056E200E066E820E076EC5
:101B7800CDC100F0CEC101F0CFC102F0D0C103F059
:101B880000EC04F0000ED8B0010E006E00521CE00C
:101B9800CDC100F0CEC101F0CFC102F0D0C103F039
:101BA800CD0E046ECC0E056E4C0E066E7B0E076EC7
:101BB80098EC04F000C0CDF101C0CEF102C0CFF125
:101BC80003C0D0F1D52BCCD7FF0ECD15086EFF0E74
:101BD800CE15096E7F0ECF150A6E000ED0150B6E4E
:101BE80008C004F009C005F00AC006F00BC007F0F1
:101BF80004360490053606360736000ECD15006EFD
:101C0800000ECE15016E000ECF15026EFF0ED01518
:101C1800036E00C0CDF101C0CEF102C0CFF103C008
:101C2800D0F10450CD11006E0550CE11016E065052
:101C3800CF11026E0750D011036E00C0CDF101C064
:101C4800CEF102C0CFF103C0D0F17F0ED05D006E9F
:101C580000C0CCF1010ED06F00C004F0CDC100F07F
:101C6800CEC101F0CFC102F0D0C103F0045007E0AB
:101C780000360090013602360336FF0FF8D700C051
:101C8800CDF101C0CEF102C0CFF103C0D0F1C8C17F
:101C9800E1FFC9C1E2FFD051300FE66EC84BC92B36
:101CA800D22B800ED519006E800E010A005C08E365
:101CB800800E060A006E800ED519005C01E30BD079
:101CC800C8C1E1FFC9C1E2FF2E0EE66EC84BC92BA1
:101CD800010ED16FD22B060ECC6FCC51000A58E002
:101CE800D06BCDC100F0CEC101F0CFC102F0D0C1A0
:101CF80003F00036009001360236033600360090B5
:101D0800013602360336CD510026CE510122CF517D
:101D18000222D051032200C0CDF101C0CEF102C091
:101D2800CFF103C0D0F1CDC100F0CEC101F0CFC1D9
:101D380002F0D0C103F000360090013602360336B7
:101D480000C0CDF101C0CEF102C0CFF103C0D0F187
:101D5800C8C1E1FFC9C1E2FFD051300FE66EC84BE0
:101D6800C92BD22BD151000A11E1D507D551000A50
:101D78000DE1010ED46FC8C1E1FFC9C1E2FF2E0E0B
:101D8800E66EC84BC92B010ED16FD22BCC07A5D755
:101D9800D451010AD8B4D207FF0EC825E96EFF0E48
:101DA800C921EA6EEE502E0A05E1010EC85F000E49
:101DB800C95BD207800E000A006E800ED519005C40
:101DC80002E2010ED36F800ED519006E800E000A54
:101DD800005C02E2020ED36FD5C1CCF1800E090A75
:101DE800006E800ED519005C02E3D32B02D0020EE0
:101DF800D327D351D225016E026A000E0222800E2B
:101E08000218006E800E005C02E1CA51015C0AE211
:101E1800C8C1E1FFC9C1E2FF300EE66EC84BC92B4D
:101E2800D22BE7D7D551000A43E0C8C1E1FFC9C1A9
:101E3800E2FF650EE66EC84BC92B800ED519006E01
:101E4800800E000A005C0BE2C8C1E1FFC9C1E2FFD5
:101E58002D0EE66EC84BC92BD5510008D56FD5C1DC
:101E6800CCF1800E090A006E800ED519005C0FE2D5
:101E78000A0E046ECCC100F04EEC0AF0C8C1E1FFB6
:101E8800C9C1E2FF0050300FE66EC84BC92B0A0EDD
:101E9800046ECCC100F04EEC0AF008C000F0C8C1D6
:101EA800E1FFC9C1E2FF0050300FE66EC84BC92BF5
:101EB800D351D225006E00C0D2F1CA51005C016E28
:101EC80001C0CCF1800E000A006E800E0118005C83
:101ED8000EE2800E000A006E800ECC19005C06E24D
:101EE800CC07010EC85F000EC95BF3D718D0800E6F
:101EF800CC19006E800E000A005C11E2800ECC192D
:101F0800006E800E000A005C0AE2CC2BC8C1E1FF1B
:101F1800C9C1E2FF300EE66EC84BC92BEFD7C8C166
:0C1F2800E1FFC9C1E2FFE66A006A120096
:081F3400067E6AEC06F01200C3
:101F3C0000C008F00150006E016A026A036A0B6A65
:101F4C000C6A016A026A036A960E036E0A6A00AE94
:101F5C00B6EF0FF0081E001E082AD8B4002A0A8E0D
:101F6C0000C001F008C000F0086A026A87EC01F0BA
:021F7C00120051
:101F7E00819281800101BC6BBC51070810E3BCC18A
:101F8E00FEF156EC00F0BB6BBB513F0806E3BAC145
:101F9E00FEF19FEC00F0BB2BF7D7BC2BEDD7819059
:101FAE008182BC6BBC51070810E3BCC1FEF156EC3C
:101FBE0000F0BB6BBB513F0806E3BAC1FEF19FECCC
:0C1FCE0000F0BB2BF7D7BC2BEDD71200A6
:101FDA0084B216D084A014D08490010E0101A56F9A
:101FEA00000EA66F010EA76F000EA86F820E0C6E70
:101FFA00DD0E0D6E0D2EFED70C2EFCD70000000054
:02200A001200C2
:10200C00BAC1D6F1BCC1D7F1BBC1D8F1BEC1D9F1AF
:10201C0067EC04F0BAC1D6F1BCC1D7F1BDC1D8F19F
:10202C00BEC1D9F167EC04F0BBC1C4F1BDC1C5F1AF
:10203C00BAC1C6F1BEC1C7F151EC0BF0BBC1C4F1C2
:10204C00BDC1C5F1BCC1C6F1BEC1C7F151EC0BF0AD
:02205C00120070
:10205E000101BE6BBF6BC06BBE51070845E3FE6B43
:10206E0048EC00F0BEC1FEF156EC00F0FE6B5EECEB
:10207E0000F0BD6BBD513F0812E3BF51BA25F66E9D
:10208E00C051BB21F76E000EBC21F86E0900F5CFD2
:10209E00FEF19FEC00F0BF4BC02BBD2BEBD7400EDB
:1020AE00FE6F48EC00F0BEC1FEF156EC00F0400EA3
:1020BE00FE6F5EEC00F0400EBD6FBD517F0812E367
:1020CE00BF51BA25F66EC051BB21F76E000EBC2172
:1020DE00F86E0900F5CFFEF19FEC00F0BF4BC02B60
:0A20EE00BD2BEBD7BE2BB8D71200B4
:1020F800010E0101BE6F000EBF6FCEEC0BF0050E96
:10210800046E000E056E066E076EA5EC0BF083ECF0
:102118000BF000C074F101C075F102C076F103C084
:1021280077F1000E046EC00E056E7F0E066E880EE7
:10213800076E46EC03F0000E046E000E056E480EA6
:10214800066E850E076E98EC04F000C078F101C0A9
:1021580079F102C07AF103C07BF100C0C4F101C07B
:10216800C5F102C0C6F103C0C7F17C0E0101C86FFA
:10217800010EC96F040ECA6F53DC7C0EC46F010ECA
:10218800C56F16DCBEC100F0BFC101F0D3DEBAC115
:1021980004F0BBC105F0BCC106F0BDC107F06AEC94
:1021A80006F000C004F001C005F002C006F003C04C
:1021B80007F074C100F075C101F076C102F077C173
:1021C80003F000EC04F0000ED8B0010E006E0052CF
:1021D80027E1BEC100F0BFC101F0ACDE00C004F0D1
:1021E80001C005F002C006F003C007F0BAC100F054
:1021F800BBC101F0BCC102F0BDC103F097DE74C1E0
:1022080004F075C105F076C106F077C107F000EC5F
:1022180004F0000ED8B0010E006E005201E147D064
:10222800460EC46F0F0EC56F590EC66F1E0EC76FD0
:10223800C86B48EC0CF08D0ED66F010ED76F7C0E74
:10224800D86F010ED96F1FEC03F0F70EC46F000EA4
:10225800C56F0A0EC66F000EC76F0F0EC86F000E4F
:10226800C96F05EC0CF07C0EC46F010EC56F480EEB
:10227800C66F000EC76F0F0EC86F000EC96F05EC52
:102288000CF0050EC46F010EC56F5D0EC66F000E13
:10229800C76F0F0EC86F000EC96F05EC0CF074C144
:1022A800BAF175C1BBF176C1BCF177C1BDF11200BD
:1022B80084928480010E0101A56F000EA66FA76BA2
:1022C800A86B820E0C6EDD0E0D6E0D2EFED70C2E39
:0822D800FCD700000000120019
:1022E0000101C06BC16BBAC1C2F1BBC1C3F1800EA9
:1022F000BB19006E800E005C02E1000EBA5D0BE2BD
:10230000010EC06F000EC16FBA510008C26FBBC191
:10231000C3F1000EC357C2C1C4F1C3C1C5F1BCC1F2
:10232000C6F1BDC1C7F193EC0CF0060EBE6F000EF6
:10233000BF6F000E006EBF51005C02E1BE5100088D
:1023400019E2BE51BC25E16EBF51BD21E26E010E06
:10235000BE5D006E000EBF59016E0050BC25E96ED7
:102360000150BD21EA6EEECFE6FF010EBE5F000E0A
:10237000BF5BDFD7BCC1E1FFBDC1E2FF200EE66E4F
:10238000C051C1111AE0BE6BBF6BBE51BC25E96ED6
:10239000BF51BD21EA6EEE50200A03E1BE4BBF2BB8
:1023A000F4D7010EBE5F000EBF5BBE51BC25E16ECF
:0C23B000BF51BD21E26E2D0EE66E120042
:1023BC000F0E0101BE6F000EBF6F5BEC0CF083ECD7
:1023CC000BF000C098F101C099F102C09AF103C062
:1023DC009BF1000E046E000E056E700E066E830EE1
:1023EC00076E98EC04F0000E046EC00E056E7F0EA6
:1023FC00066E880E076E46EC03F000C094F101C027
:10240C0095F102C096F103C097F100C0C4F101C070
:10241C00C5F102C0C6F103C0C7F19C0E0101C86F23
:10242C00010EC96F040ECA6F14EC0DF09C0EC46F34
:10243C00010EC56FDCEC0CF0BEC100F0BFC101F0A9
:10244C0077DDBAC104F0BBC105F0BCC106F0BDC15B
:10245C0007F06AEC06F000C004F001C005F002C001
:10246C0006F003C007F098C100F099C101F09AC1C1
:10247C0002F09BC103F000EC04F0000ED8B0010E8A
:10248C00006E005227E1BEC100F0BFC101F050DD6B
:10249C0000C004F001C005F002C006F003C007F054
:1024AC00BAC100F0BBC101F0BCC102F0BDC103F068
:1024BC003BDD98C104F099C105F09AC106F09BC1AF
:1024CC0007F000EC04F0000ED8B0010E006E0052C4
:1024DC0001E13DD0460EC46F0F0EC56F590EC66F8D
:1024EC001E0EC76FC86B48EC0CF00B0EC46F010EC0
:1024FC00C56F0A0EC66F000EC76F0F0EC86F000EA9
:10250C00C96F05EC0CF09C0EC46F010EC56F460E26
:10251C00C66F000EC76F0F0EC86F000EC96F05ECAB
:10252C000CF0080EC46F010EC56F5A0EC66F000E6C
:10253C00C76F0F0EC86F000EC96F05EC0CF098C179
:10254C00BAF199C1BBF19AC1BCF19BC1BDF11200AA
:10255C0084B216D084A014D08482010E0101A56F20
:10256C00000EA66F020EA76F000EA86F820E0C6EE7
:10257C00DD0E0D6E0D2EFED70C2EFCD700000000CC
:02258C0012003B
:10258E00000E0101AE1902E1010EAD190DE1010EB1
:10259E00C46F0D0EC56F7E0EC66F3E0EC76FC86B35
:0C25AE0048EC0CF0AD6BAE6B02DF1200CD
:1025BA00000E0101A41902E1010EA3193CE1BA6B54
:1025CA00BB6B7F0EBC6F3F0EBD6F010EBE6F19DD78
:1025DA00C46BC56B7F0EC66F0C0EC76F010EC86F3A
:1025EA0048EC0CF0440EF06F2F0EF16F000EF26FF4
:1025FA00F36BF46BB7EC02F0B8C1C4F1B9C1C5F121
:10260A001E0EC66F000EC76F010EC86F000EC96F8F
:10261A0005EC0CF0440EF06F2F0EF16F000EF26F06
:10262A00010EF36FF46BB7EC02F0A36BA46B010E0F
:08263A00AD6F000EAE6F12003F
:102642000900F5CFE6FF0006FBE10106F9E1120001
:102652000101706B5E6B5F6B939A93989394939660
:1026620093929390819A120E006E000E016E830E69
:102672000024E16E0F0E0120E26EE66A81948196DB
:1026820081928180818A3F0E836E1AEC00F0C00E27
:10269200836E1AEC00F0818281903F0E836E1AECF9
:0C26A20000F0C00E836E1AEC00F0120075
:1026AE00010E0101D66F34EC06F000C0ABF101C093
:1026BE00ACF1800E026E800E0118025C02E1005039
:1026CE000A080CE2050E0101C46F1E0EC56F500EF6
:1026DE00C66F280EC76FC86B48EC0CF00101000ED8
:1026EE00AA1902E1010EA9194EE1AC51B01902E18D
:1026FE00AF51AB190FE0050EC46F320EC56F640EED
:10270E00C66F3C0EC76FC86B48EC0CF0ABC1AFF197
:10271E00ACC1B0F1ABC1BAF1ACC1BBF1B10EBC6F83
:10272E00010EBD6FD6DDB10EC46F010EC56FDCECB0
:10273E000CF0B10EC46F010EC56F280EC66F000EE1
:10274E00C76F320EC86F000EC96F05EC0CF01F0E6E
:10275E00C46F010EC56F050EC66F000EC76F320E29
:10276E00C86F000EC96F05EC0CF0020E0B6E450E15
:10277E000C6EA90E0D6E0D2EFED70C2EFCD70B2E49
:10278E00FAD700000000800EAC19006E800E005CBF
:10279E0002E1500EAB5D19E3800E006E800EAC1997
:1027AE00005C02E1AB51640810E3D1DE390E010189
:1027BE00C46F010EC56F050EC66F000EC76F1E0EDD
:1027CE00C86F000EC96F05EC0CF0800EAC19006ED0
:1027DE00800E005C02E1780EAB5D18E3800E006E99
:1027EE00800EAC19005C02E1AB518C080FE35DDD8D
:1027FE002B0EC46F010EC56F050EC66F000EC76F90
:10280E001E0EC86F000EC96F05EC0CF0800EAC19D1
:10281E00006E800E005C02E1AA0EAB5D1AE3800E24
:10282E00006E800EAC19005C02E1AB51BE0811E3E4
:10283E00EDEC0FF0260E0101C46F010EC56F050EF3
:10284E00C66F000EC76F1E0EC86F000EC96F05EC67
:10285E000CF0800EAC19006E800E005C02E1C80E0A
:10286E00AB5D17E3800E006E800EAC19005C02E1CA
:10287E00AB51DC080EE3150EC46F010EC56F050ECD
:10288E00C66F000EC76F1E0EC86F000EC96F05EC27
:10289E000CF0800EAC19006E800E005C02E1E60EAC
:1028AE00AB5D17E3800E006E800EAC19005C02E18A
:1028BE00AB51F0080EE3930EC46F000EC56F050EFC
:1028CE00C66F000EC76F1E0EC86F000EC96F05ECE7
:1028DE000CF0800EAC19006E800E010A005C02E155
:1028EE00360EAB5D18E3800E010A006E800EAC1939
:1028FE00005C02E1AB514A080EE39E0EC46F000E5F
:10290E00C56F050EC66F000EC76F1E0EC86F000E88
:10291E00C96F05EC0CF0800EAC19006E800E020A29
:10292E00005C02E14E0EAB5D18E3800E020A006EF3
:10293E00800EAC19005C02E1AB5162080EE3A90EE9
:10294E00C46F000EC56F050EC66F000EC76F1E0E4C
:10295E00C86F000EC96F05EC0CF0800EAC19006E3E
:10296E00800E020A005C02E1A80EAB5D18E3800E39
:10297E00020A006E800EAC19005C02E1AB51BC087D
:10298E000EE38D0EC46F000EC56F050EC66F000EE2
:10299E00C76F1E0EC86F000EC96F05EC0CF0800ECF
:1029AE00AC19006E800E030A005C02E13E0EAB5DB8
:1029BE0031E3800E030A006E800EAC19005C02E15A
:1029CE00AB51520827E3850EC46F000EC56F050E7E
:1029DE00C66F000EC76F1E0EC86F000EC96F05ECD6
:1029EE000CF0000EAA1902E1000EA91913E1800ED7
:1029FE004C19006E800E4E19005C02E14D514B5D7C
:102A0E0003E24B4B4C2B02D04B6B4C6B010EA36F66
:102A1E00000EA46F800EAC19006E800E030A005CCF
:102A2E0002E1700EAB5D3FE3800E030A006E800E76
:102A3E00AC19005C02E1AB51840835E3C10EC46FE2
:102A4E00000EC56F050EC66F000EC76F1E0EC86F47
:102A5E00000EC96F05EC0CF0060E0B6E130E0C6E0D
:102A6E00AD0E0D6E0D2EFED70C2EFCD70B2EFAD7FB
:102A7E0000000000A951AA11010ED8A4000EA96FE2
:102A8E00000EAA6F000EAA1902E1000EA9190BE1A1
:102A9E00050EC46F320EC56F640EC66F3C0EC76F47
:102AAE00C86B48EC0CF0800EAC19006E800E030A59
:102ABE00005C02E1D40EAB5D34E3800E030A006EBF
:102ACE00800EAC19005C02E1AB51E8082AE3CA0E95
:102ADE00C46F000EC56F050EC66F000EC76F1E0EBB
:102AEE00C86F000EC96F05EC0CF0000EAA1902E1BA
:102AFE00000EA91916E1800E006E800E4C19005CB6
:102B0E0002E14B51000805E2010E4B5F000E4C5BDB
:102B1E0004D04DC14BF14EC14CF1010EA36F000E0E
:042B2E00A46F12007E
:102B32000101BA6BBFEC0FF082A409D0F70EBA6F95
:102B4200340EBB6F000EBC6F2FEC10F0F5D7BA6BD2
:0E2B5200BFEC0FF0010EA36F000EA46F120077
:102B6000000E0101AE1902E1010EAD1911E1010ED5
:102B7000C46F0D0EC56F7E0EC66F3E0EC76FC86B5D
:102B800048EC0CF0010EA56F000EA66FAD6BAE6B9E
:102B9000000EA61902E1010EA519D8A415D1BA6B31
:102BA000330EBB6F7F0EBC6F3F0EBD6F010EBE6F4D
:102BB00006EC10F0010EC46F340EC56F7E0EC66FAA
:102BC0003E0EC76FC86B48EC0CF0EAD0D30EC46F52
:102BD000000EC56F060EC66F000EC76F340EC86FAD
:102BE000000EC96F05EC0CF02B0EC46F330EC56FD1
:102BF000550EC66F3E0EC76F010EC86F48EC0CF045
:102C0000440EF06F2F0EF16F000EF26FF36BF46B4A
:102C1000B7EC02F0BD0EC46F000EC56F370EC66F65
:102C2000000EC76F340EC86F000EC96F05EC0CF0B4
:102C3000440EF06F2F0EF16F000EF26F010EF36F66
:102C4000F46BB7EC02F0B00EC46F000EC56F600EEF
:102C5000C66F000EC76F340EC86F000EC96F05EC4B
:102C60000CF0A56BA66BB0D0010EC46F330EC56F10
:102C70002A0EC66F3E0EC76F010EC86F48EC0CF0EF
:102C8000440EF06F2F0EF16F000EF26FF36BF46BCA
:102C9000B7EC02F0B40EC46F000EC56F060EC66F1F
:102CA000000EC76F340EC86F000EC96F05EC0CF034
:102CB000440EF06F2F0EF16F000EF26F010EF36FE6
:102CC000F46BB7EC02F0B90EC46F000EC56F370E8F
:102CD000C66F000EC76F340EC86F000EC96F05ECCB
:102CE0000CF02C0EC46F000EC56F600EC66F000E88
:102CF000C76F340EC86F000EC96F05EC0CF0A56BE2
:102D0000A66B62D0300EC46F000EC56F060EC66F84
:102D1000000EC76F340EC86F000EC96F05EC0CF0C3
:102D2000350EC46F000EC56F370EC66F000EC76F2D
:102D3000340EC86F000EC96F05EC0CF0550EC46F51
:102D4000330EC56F7E0EC66F3E0EC76F010EC86F85
:102D500048EC0CF0440EF06F2F0EF16F000EF26F86
:102D6000F36BF46BB7EC02F0280EC46F000EC56F66
:102D7000600EC66F000EC76F340EC86F000EC96FAD
:102D800005EC0CF0440EF06F2F0EF16F000EF26F99
:102D9000010EF36FF46BB7EC02F0A56BA66B14D0C9
:102DA000000EA81902E1000EA719D8B40FD7000E23
:102DB000A81902E1010EA719D8B456D7000EA81918
:0A2DC00002E1020EA7199EE01200C6
:102DCA00000E0101AE1902E1010EAD190DE1010E6D
:102DDA00C46F0D0EC56F7E0EC66F3E0EC76FC86BF1
:0E2DEA0048EC0CF0AD6BAE6B7CEC10F0120000
:102DF80012EC1DF0150E0101416F000E426F5F0EBF
:102E0800436F000E446F720E496F000E4A6F390E01
:102E1800476F000E486F4C0E456F000E466FD90E77
:102E28004F6F000E506F060E4D6F000E4E6F856B84
:102E3800866B876B886B896B8A6B8B6B8C6B0B0EC5
:102E4800C112070EB4127F0E926E800E946EF00EB1
:102E5800956E966A816A826A836A846A29EC13F09D
:102E6800BA6BBFEC0FF0040E4B6F000E4C6F010EE7
:102E7800A36F000EA46FA96BAA6B836B846B010E02
:102E8800A76F000EA86F2ED041C1B8F142C1B9F1A9
:102E9800DDEC12F061DE4AD043C1B8F144C1B9F1AA
:102EA800DDEC12F043D049C1B8F14AC1B9F1DDEC0B
:102EB80012F03CD047C1B8F148C1B9F1DDEC12F0CD
:102EC80035D045C1B8F146C1B9F1DDEC12F079DF72
:102ED8002DD04FC1B8F150C1B9F1DDEC12F0C7ECFB
:102EE80012F024D0000E4C1902E1000E4B19CCE070
:102EF800000E4C1902E1010E4B19CEE0000E4C19E0
:102F080002E1020E4B19CFE0000E4C1902E1030E4C
:102F18004B19D0E0000E4C1902E1040E4B19D1E018
:102F2800000E4C1902E1050E4B19D3E057EC13F0D3
:0C2F380082A402D0FADDFCD7A6D7FFD798
:103A240010EE15F02C0E006E020E016EF70EF66EFF
:0E3A3400380EF76E000EF86E21EC13F0120043
:102F4400000020007F000B000188010001930100B4
:102F5400039E010007A9010005B4010009BF010097
:102F640006D5010001E0010003EB010002F60100B7
:102F740005010200060C02000217020002220200F0
:102F8400022D02000338020004430200044E020032
:102F94000459020004640200056F0200047A02006E
:102FA4000485020004900200049B020004A60200AF
:102FB40002B1020002BC020006C7020006D20200EF
:102FC40006DD020004E8020007F3020006FE020028
:102FD4000509030006140300061F0300052A030065
:102FE4000535030006400300064B030003560300A7
:102FF40003610300056C03000477030007820300E8
:10300400068D03000798030005A3030007AE030021
:1030140005B9030005C4030005CF030006DA030065
:1030240006E5030007F0030004FB030005060400A3
:1030340004110400021C04000327040002320400EB
:10304400053D04000548040003530400045E040025
:103054000469040003740400047F0400048A040067
:103064000395040004A0040004AB040001B60400AA
:1030740002C1040004CC040001D7040007E20400E8
:1030840004ED040004F8040004030500040E050024
:103094000319050003240500022F0500043A050066
:1030A4000545050007500500035B0500056605009E
:1030B40003710500037C05000287050003920500E7
:1030C400069D050002A805000000000000000000A5
:1030D40000000000000101010101000100000005E1
:1030E400050500000000000000000024247E143FB9
:1030F400121200000000041E05060C140F04040044
:10310400000000460029002900D60028012801C437
:103114000000000000000006090916091926000035
:103124000001010100000000000000000402010190
:103134000101010102040000010202020202020173
:103144000004150E15040000000000000000000833
:10315400083E080800000000000000000000020211
:103164000100000000000000030000000000000057
:103174000000000002020000000404020202020235
:103184000101000000060909090909060000000000
:103194000406040404040E000000000708080402E6
:1031A400010F0000000007080806080807000000D7
:1031B40000080C0A091F0808000000000F0101079D
:1031C40008080700000000060101070909060000BD
:1031D40000000F08040402020100000000060909AF
:1031E40006090906000000000609090E0808060081
:1031F40000000000000202000202000000000000C3
:103204000202000202010000000000201C021C2037
:10321400000000000000003F003F0000000000002C
:1032240000021C201C020000000007080804020021
:1032340002000000001C2259555539021C000000F0
:103244000C0C12123F2121000000000709090F1184
:10325400110F000000001C22010101221C000000CB
:10326400000F11212121110F000000001F01010F87
:1032740001011F000000001F01010F0101010000F6
:1032840000001C22013921223C00000000212121E0
:103294003F21212100000000070202020202070070
:1032A40000000006040404040403000000001109E3
:1032B4000503050911000000000101010101010FCE
:1032C4000000000063635555494941000000002196
:1032D400232529312121000000001C2241414122E3
:1032E4001C000000000F1111110F0101000000006B
:1032F4001C22414141221C106000000F11110F05D6
:103304000911000000001E01010E10100F00000042
:10331400001F0404040404040000000021212121EE
:1033240021211E0000000021212112120C0C00009A
:10333400000049495555552222000000000909069C
:103344000606090900000000110A0A040404040026
:103354000000000F08040202010F00000003010135
:103364000101010101010300010102020202020440
:10337400040000030202020202020202030000042B
:103384000A1100000000000000000000000000001E
:1033940000001F0002040000000000000000000004
:1033A400000006080E090E000000010101070909CA
:1033B40009070000000000000601010106000000EA
:1033C4000808080E0909090E00000000000006099B
:1033D4000F010E00000006010107010101010000B8
:1033E400000000000E0909090E080600010101078A
:1033F400090909090000000001000101010101009F
:1034040000000002000302020202020100010101A5
:103414000905030509000000010101010101010181
:10342400000000000000374949494900000000003D
:10343400000709090909000000000000060909093C
:103444000600000000000007090909070101000047
:1034540000000E0909090E08080000000005030118
:103464000101000000000000070102040700000041
:10347400000001030101010200000000000009092D
:1034840009090E000000000000110A0A0A040000E5
:1034940000000000494955362200000000000005E4
:1034A40002020205000000000000110A0A0A0404D6
:1034B40002000000000704020107000000040202E9
:1034C40002020102020204000202020202020202D9
:1034D40002020001020202020402020201000000D0
:1034E400000026190000000000000003030303038A
:0334F400000000D5
:1034F70000000000000000000000000000000000C5
:1035070000000000000000000000000000000000B4
:1035170000000000000000000000000000000000A4
:103527000000000000000000000000000000000094
:103537000000000000000000000000000000000084
:103547000000000000000000000000000000000074
:103557000000000000000000000000000000000064
:103567000000000000000000000000000000000054
:103577000000000000000000000000000000000044
:103587000000000000000000000000000000000034
:103597000000000000000000000000000000000024
:1035A7000000000000000000000000000000000014
:1035B7000000000000000000000000000000000004
:1035C70000000000000000000000000000000000F4
:1035D70000000000000000000000000000000000E4
:1035E70000000000000000000000000000000000D4
:1035F70000000000008080808080808080000000C4
:103607008080800000000080808000000080808033
:103617008080808080000000008080808080800023
:103627000000000000000080808080808000000093
:103637000080A0B89898B0A080000000808080002B
:103647000000000080800000000000008080808073
:103657000000000000808080808080808000000063
:103667000000008080808000000000000000000053
:103677000000000000FFFFFF313131313100000051
:10368700FFFF073FF0F01F07FFFF000000FFFFFFEE
:10369700313131313100000000FFFF6161E1F3BFDB
:1036A7001F000000FCFE070301313131F1F3000078
:1036B70000FFFFFF3131313131000000FFFF0F1FE5
:1036C7007CF0C080FFFF0000F8FEFF03030101014B
:1036D7000100000000010101FFFF010101000000DE
:1036E70000E0FC9F8387BFFCE000000000000000B3
:1036F70000000000000F0F0F0C0C0C0C0C0000005A
:103707000F0F0000000000000F0F0000000F0F0F49
:103717000C0C0C0C0C000000000F0F000000030F36
:103727000E0800000107070E0C0C0C0C0F07000019
:10373700000F0F0F0C0C0C0C0C0000000F0F0000FB
:103747000001070F0F0F00000103070E0C0C0C0CF4
:1037570006000000000C0C0C0F0F0C0C0C000008EE
:103767000F0F0101010101030F0F0000000000000E
:103777000000000000000000000000000000000042
:103787000000000000000000000000000000000032
:103797000000000000000000000000000000000022
:1037A7000000000000000000000000000000000012
:1037B7000000000000000000000000000000000002
:1037C70000000000000000000000000000000000F2
:1037D70000000000000000000000000000000000E2
:1037E70000000000000000000000000000000000D2
:1037F70000000000000000000000000000000000C2
:1038070000000000000000000000000000000000B1
:1038170000000000000000000000000000000000A1
:103827000000000000000000000000000000000091
:103837000000000000000000000000000000000081
:103847000000000000000000000000000000000071
:103857000000000000000000000000000000000061
:103867000000000000000000000000000000000051
:103877000000000000000000000000000000000041
:103887000000000000000000000000000000000031
:103897000000000000000000000000000000000021
:1038A7000000000000000000000000000000000011
:1038B7000000000000000000000000000000000001
:1038C70000000000000000000000000000000000F1
:1038D70000000000000000000000000000000000E1
:1038E70000000000000000000000000000000000D1
:1038F70020202030202D205072696E636970616C22
:033907002020007D
:04390A00474D4700DE
:04390E00474D4700DA
:05391200524544450090
:043917004F464600D1
:10391B00202033202D204672657175656E636961B9
:03392B0020200059
:10392E002034202D2054656D70657261747572613E
:03393E0020200046
:103941002031202D2054656E73616F2052656465AE
:0339510020200033
:103954002032202D20436F7272656E74652052658B
:0339640064650097
:08396700446972656974610096
:06396F005265736574004F
:0B39750050617274697220474D4700DA
:0B3980004175746F6D617469636F0026
:07398B004D616E75616C00D7
:04399200474D470056
:0539960052454445000C
:04399B004F4646004D
:04399F004F46460049
:0939A30043616C696272617200FB
:0939AC00457371756572646100D8
:0539B5005245444500ED
:0139BA00000C
:1039BB0035202D2054656E73616F204261746572E2
:0339CB006961002F
:0439CE004E614E00F8
:0239D2003000C3
:0439D400494E460012
:0139D80030BE
:0E39D90054656D70657261747572613A2000FC
:0339E7004320007A
:0339EA0056200064
:0A39ED00426174657269613A2000BE
:0A39F700506172617220474D4700D5
:073A0100426F74616F3A008F
:053A0800526564650039
:0E3A0D004465736C69676120436172676100F4
:083A1B0047657261646F7200DF
:020000040030CA
:0E000000044C191EFF0380FF0FC00FE00F40DD
:00000001FF
