:1000000064EF1AF00000000000EF00F000000000B4
:0A0010000000000000000000F3D71C
:0C001C00100E0D6E0D2EFED7000012001D
:0A002800F9DF8188F7DF81981200EC
:0C003200000000000000000000001200B0
:10003E0081948196B80E04015311836EEEDF120087
:10004E000B820BAE31EF00F00368026801680068A6
:08005E000A360232FF0E120007
:100066007F0E04015315016E01C053F401AC03D099
:0C0076008182819002D081928180120072
:10008200F250026EF29E0500FF6A0150FE6E0050B1
:08009200FD6E02BEF28E1200A9
:10009A00120E006E000E016E830E0024E16E0F0E2A
:1000AA000120E26EFF0EE66EBFDFBEDF818481981B
:1000BA0081868188AEDF83CF53F481988196B4DF3D
:1000CA00B3DF120E006E000E016E830E0024E16E85
:0E00DA000F0E0120E26EE66A53C400F0120021
:0E00E80081988184819653C483FF9ADF1200B1
:1000F6007F0E04015315006E00C053F4819481965F
:10010600BF0E001600C053F4008C00C053F400C0AC
:0601160083FF87DF1200E9
:10011C000B840BAE99EF00F0010E036E026A016ABC
:0A012C00006A0A360232FF0E1200CC
:0E013600026A016A006A086A036A000E12007B
:080144000AAE029E000E12003B
:10014C000C6A0E6A0250D8A4BFEF00F001C002F096
:10015C0000C001F0006A0E860250D8A4BFEF00F078
:10016C0001C002F0016A0E960E880250D8B4D1EF8D
:10017C0000F00E50035ED8A4D8A0D6EF00F0D890B3
:10018C0002BEDBEF00F0003601360236032EC6EF5E
:10019C0000F0D6EF00F0010E0C6EC7DFDEEF00F0C2
:1001AC00020E0C6EB5DFDEEF00F0040E0C6EC4DF39
:0201BC0012002F
:1001BE0045C49AF346C49BF347C49CF3020E040154
:1001CE004525F66E000E4621F76E000E4721F86E9D
:1001DE000900F5CF04F0030E4525F66E000E4621FC
:1001EE00F76E000E4721F86E0900F5CF03F003C03D
:1001FE0001F0006A045000240301AE6F000E0120CE
:10020E00AF6F040E04014525F66E000E4621F76E03
:10021E00000E4721F86E0900F5CF04F0050E4525B6
:10022E00F66E000E4621F76E000E4721F86E09009D
:10023E00F5CF03F003C001F0006A0450002403015F
:10024E00B86F000E0120B96F060E04014525F66E3B
:10025E00000E4621F76E000E4721F86E0900F5CF0D
:10026E00B6F3000E0301B76F48C4BBF3000EBC6FAC
:10027E0049C4BAF3010E0101F06F0301B06BB16B0B
:02028E0012005C
:10029000A20E0401516F030E526F000E006E4A5100
:1002A000005C02E14951000843E2ACC3E1FFADC389
:1002B000E2FF45C4E6FF46C4E6FF47C4E6FF48C484
:1002C000E6FF49C4E6FF4AC4E6FF4D0EE66E040EA3
:1002D000E66EAAC300F0ABC301F0D3DE00C04FF45A
:1002E00001C050F404014B6B4C6B4E514C5D02E16C
:1002F0004D514B5D11E24FC4E9FF50C4EAFF51C4B8
:10030000E1FF52C4E2FFEECFE6FF514B522B4F4BC1
:10031000502B4B4B4C2BE9D74D51495F4E514A5B0B
:100320004D5145274E514623000E47234823B5D74C
:020330001200B9
:0C033200240E0D6E0D2EFED700001200F0
:10033E000B6A0A6A096A00500402F4CF09F0F3CF7F
:10034E0008F001500502F4CF0BF0F3CF0AF0005085
:10035E000502F3500926F4500A22E86A0B220150D6
:10036E000402F3500926F4500A22E86A0B2208C050
:10037E0000F009C001F00AC002F00BC003F0120039
:08038E000B6A0B86FF0E120042
:100396000CB00DEF02F00CA2B3EF02F00E6A000EE5
:1003A600026424EF02F0F00E0214D8A4EFEF01F07D
:1003B600023A01380F0B02260138F00B016E0038A5
:1003C6000F0B01260038F00B006E08380F0B0026C5
:1003D6000838F00B086E0E84D89002BE08EF02F0C3
:1003E60008360036013602360E2A02BE08EF02F043
:1003F60008360036013602360E2A02BE08EF02F033
:1004060008360036013602360E2A0E500364A9EF6E
:1004160002F0035E0BBC08AEAEEF02F0D880800E91
:1004260008640030000E002201220222D8A0AEEF9E
:1004360002F0023201320032034AB3EF02F0AEEFAD
:1004460002F001C002F000C001F008C000F0086A26
:10045600000E0E8602645BEF02F0F00E0214D8A4C2
:1004660043EF02F0023A01380F0B02260138F00B77
:10047600016E00380F0B01260038F00B006E0E845B
:10048600D89002BE08EF02F00036013602360E2A78
:1004960002BE08EF02F00036013602360E2A02BE10
:1004A60008EF02F00036013602360E2A08EF02F097
:1004B60001C002F000C001F0006A000E0E960E8820
:1004C600026488EF02F0F00E0214D8A473EF02F073
:1004D600023A01380F0B02260138F00B016E0E842A
:1004E600D89002BE08EF02F0013602360E2A02BE8E
:1004F60008EF02F0013602360E2A02BE08EF02F0BD
:10050600013602360E2A08EF02F001C002F0016A37
:10051600000E0E860264B8EF02F0F00E0214D8A4A4
:1005260097EF02F0023A0E84D89002BE08EF02F06E
:1005360002360E2A02BE08EF02F002360E2A02BE6C
:1005460008EF02F002360E2A08EF02F0010E0C6EDA
:10055600E2DDBBEF02F0020E0C6EF1DDBBEF02F046
:10056600040E0C6E71DDBBEF02F0080E0C6EE0DDC2
:02057600120071
:10057800000E0401455D0AE345517F0807E3000EBC
:10058800465D04E346513F0801E301D04AD045C423
:1005980053F465DD46C453F45333539F5333539F89
:1005A8005333539F48DD45C453F4A1DD72DD00C0C9
:1005B8004AF46FDD00C04AF446C453F45333539FE2
:1005C8005333539F5333539F36DD45C453F48FDD64
:1005D800070E4615006E00C048F400C001F0010E79
:1005E800006E015004E000360090FF0FFBD700C0FA
:1005F80048F4001C496F09D049514A170FD0485197
:100608004A130CD048514A1B09D04751000AF4E05C
:100618004751010AF4E04751020AF4E04AC453F48E
:040628005FDD120080
:10062C000B800BAE22EF03F0026A0AAEFF0E026ED5
:0C063C00016E006E0A360232FF0E120042
:10064800086A096A000E07620364A9EF03F0025002
:1006580006180A6E075003267E0ED8A03AEF03F05C
:10066800035ED8B0ADEF03F03EEF03F0035ED8A011
:10067800B1EF03F0028E068E02C00EF001C00BF03F
:1006880000C00DF000500402F4CF0CF00150050238
:10069800F4CF00F0F3CF08F00402F3500C26F45026
:1006A8000822000E00220D500502F3500C26F450CB
:1006B8000822000E002202500402F3500826F450CB
:1006C800002202500502016A000E0122F3500026A2
:1006D800F45001220D500602F3500826F45000226F
:1006E800026A000E012202220B500602F350002675
:1006F800F4500122000E02220E500602F350012689
:10070800F450022202BE91EF03F00836003601369B
:1007180002360306D8B4B1EF03F0A4EF03F0D88093
:10072800800E08640030000E002201220222D8A0A8
:10073800A4EF03F0023201320032034AADEF03F0B6
:100748000AAE029E000EB3EF03F0010EF0DCB3EF29
:1007580003F0020E78DCB3EF03F0040EDBDC1200CA
:100768000D6A086A0050D8B4000C04180A6E0ABE54
:100778000D1E0B6A04AE02D0041E042A00AE02D07D
:10078800001E002A005004100A6E0ABE1FD0045032
:10079800085E003600340836045008260036060E77
:1007A8000C6E00340836045000B0085E00A008261D
:1007B80000360C2EF6D700A008260BB015D00DAECB
:1007C800000C001E002A081E082A000C04AE09D0DE
:1007D80000BE04D00050086E006AF1D7006A002AF3
:1007E800000C001E0B2AD3D7082A0450085CD8A492
:0E07F800E6D7086A002A00AEE2D7FF0C120016
:100806000A6A0350D8A40A800750D8A40A820A505C
:10081600D8B466EF04F0030AD8B41FEF04F00AB0A8
:100826001AEF04F006AE64EF04F062EF04F002AED5
:1008360062EF04F064EF04F00250800B0A6E029E31
:100846000650800B069E0A18D8B430EF04F00A5002
:10085600D8B462EF04F064EF04F00750035CD8B438
:100866003AEF04F0D8A056EF04F05CEF04F006501F
:10087600025CD8B444EF04F0D8A056EF04F05CEF65
:1008860004F00550015CD8B44EEF04F0D8A056EF42
:1008960004F05CEF04F00450005CD8B466EF04F09A
:1008A600D8B05CEF04F00A52D8B464EF04F062EFFB
:1008B60004F00A52D8B462EF04F064EF04F0D88072
:0E08C6001200D8901200D880D88412001200C0
:1008D4002BC404F02CC405F004C002F005C003F0DE
:1008E400044A052A2DC400F02EC401F004012D4B46
:1008F4002E2B00C0E9FF01C0EAFF02C0E1FF03C0E4
:10090400E2FFEECFE6FF02C0E9FF03C0EAFFEE52CA
:0E09140001E0E2D72BC400F02CC401F0120069
:10092200000E04012D5D04E32D513F0801E301D0C7
:1009320027D0000E2B5DD8A02B6B2B517F0802E233
:100942007F0E2B6F000E2C5DD8A02C6B2C517F08D4
:1009520002E27F0E2C6F2B512C5D06E22BC42FF48A
:100962002CC42BF42FC42CF42B512C5D09E32BC483
:1009720045F42DC446F42EC447F4FDDD2B2BF4D7E9
:02098200120061
:10098400025006180E6E086A096A0B6A035007645F
:10099400B5EF05F006500A6E068E028E03500B6EFC
:1009A4000750036E000E0B6405EF05F00B50075E55
:1009B400D8B4A6EF05F0070E076474EF05F0075EE0
:1009C40000C008F001C000F002C001F0026A074E46
:1009D400A6EF05F0076449EF05F0075E00C008F0D4
:1009E40001C000F0016A074EA6EF05F0076427EF87
:1009F40005F0075E00C008F0006A074EA6EF05F098
:100A040007640EEF05F00AC002F005C001F004C04F
:100A140000F0086AD2EF06F0030E076419EF05F040
:100A2400075E08380F0B086E074EA6EF05F0D89046
:100A34000832074EA6EF05F0D8900832074EA6EF0D
:100A440005F0D8900832A6EF05F0030E076438EFDE
:100A540005F0075E08380F0B086E0038F00B082607
:100A640000380F0B006E074EA6EF05F0D890003249
:100A74000832074EA6EF05F0D89000320832074E30
:100A8400A6EF05F0D89000320832A6EF05F0030E69
:100A9400076460EF05F0075E08380F0B086E003836
:100AA400F00B082600380F0B006E0138F00B0026FF
:100AB40001380F0B016E074EA6EF05F0D8900132F6
:100AC40000320832074EA6EF05F0D890013200320A
:100AD4000832074EA6EF05F0D890013200320832F2
:100AE400A6EF05F0030E076491EF05F0075E0838E2
:100AF4000F0B086E0038F00B082600380F0B006E41
:100B04000138F00B002601380F0B016E0238F00B90
:100B1400012602380F0B026E074EA6EF05F0D8909F
:100B24000232013200320832074EA6EF05F0D890A7
:100B34000232013200320832074EA6EF05F0D89097
:100B44000232013200320832096A000E0EAE9AEF08
:100B540006F0081E001E011E021E082A00220122A1
:100B640002229AEF06F00750D8A4BBEF05F0D2EFAB
:100B740006F0096A02C00AF0028E068E0750035C72
:100B8400076ED8B48DEF06F0070E07645BEF06F02E
:100B9400075E0450096E0550046E0650056E066A21
:100BA400074E8DEF06F0070E076430EF06F0075E80
:100BB4000450096E0550046E056A074E8DEF06F069
:100BC400070E07640EEF06F0075E0450096E046A10
:100BD400074E8DEF06F0070E0764F5EF05F00AC027
:100BE40002F0D2EF06F0030E076400EF06F0075E92
:100BF40009380F0B096E074E8DEF06F0D8900932B5
:100C0400074E8DEF06F0D8900932074E8DEF06F0AF
:100C1400D89009328DEF06F0030E07641FEF06F03B
:100C2400075E09380F0B096E0438F00B09260438E7
:100C34000F0B046E074E8DEF06F0D8900432093284
:100C4400074E8DEF06F0D89004320932074E8DEF2F
:100C540006F0D890043209328DEF06F0030E0764D3
:100C640047EF06F0075E09380F0B096E0438F00BE6
:100C7400092604380F0B046E0538F00B04260538DA
:100C84000F0B056E074E8DEF06F0D8900532043237
:100C94000932074E8DEF06F0D8900532043209323E
:100CA400074E8DEF06F0D8900532043209328DEFED
:100CB40006F0030E076478EF06F0075E09380F0BA1
:100CC400096E0438F00B092604380F0B046E05383E
:100CD400F00B042605380F0B056E0638F00B0526BD
:100CE40006380F0B066E074E8DEF06F0D8900632CD
:100CF400053204320932074E8DEF06F0D8900632E1
:100D0400053204320932074E8DEF06F0D8900632D0
:100D1400053204320932086A000E0EAE9AEF06F06C
:100D2400091E041E051E061E092A04220522062287
:100D340009500826045000220550012206500222C0
:100D44000EBEB1EF06F0D8A0C0EF06F002320132B9
:100D540000320832033EC0EF06F0CCEF06F0D8B004
:100D6400C6EF06F0000E081E001E011E021E082A11
:100D74000022012202220A7EC6EF06F0010E0C6E4A
:100D8400CBEC01F0D4EF06F0020E0C6ECBEC01F0CC
:100D9400D4EF06F0040E0C6E27EC00F0D4EF06F04E
:060DA400000E0C6E1200AF
:100DAA000450000A12E10550000A0FE10650000A39
:100DBA000CE10750000A09E1FF0E006EFF0E016EFA
:100DCA007F0E026EFF0E036EA8D0086A096A0750EA
:100DDA00D8B480EF07F00350D8B485EF07F002507B
:100DEA0006180A6E028E068E0E6A02C008F001C04C
:100DFA000CF000C00DF004500D5E0550D8A0053C63
:100E0A000C5E0650D8A0063C085E086A0C6A0D6A99
:100E1A00D8A017EF07F0D890023201320032083218
:100E2A00010E0E6E0750035ED8A024EF07F07E0E67
:100E3A000E240326D8B08AEF07F02AEF07F07E0EB9
:100E4A000E240326D8A08FEF07F0180E0B6E0D366E
:100E5A000C3608360036013602360E360450005E6D
:100E6A000550D8A0053C015E0650D8A0063C025E9B
:100E7A0006340E120EA045EF07F00D8050EF07F072
:100E8A00045000260550D8B0053C01260650D8B0BB
:100E9A00062802260D900B2E2CEF07F076EF07F0AE
:100EAA00D8900036013602360E360450005E0550E0
:100EBA00D8A0053C015E0650D8A0063C025E063466
:100ECA000E10010B0D26D8B00C2AD8B4082AD8A4C3
:100EDA0076EF07F008320C320D32032AD8B48AEFC3
:100EEA0007F00AAE089E0850026E0C50016E0D50B3
:100EFA00006E92EF07F0010EC7EC01F092EF07F0D7
:100F0A00020E9BEC00F092EF07F0040E27EC00F0C3
:0C0F1A0092EF07F0080E8EEC00F01200C1
:100F2600086A096A100E0C6E013408360936045038
:100F3600085E0550D8A0053C095ED8B007D004501D
:100F460008260550D8B0053C0926D890003601364B
:060F56000C2EEAD7120088
:100F5C00C26A0101F11D006E0050C116070EC012CD
:100F6C00C08E2BC400F0003600900036009000506C
:100F7C00C212C28099EC01F0C282C2A201D0FDD78C
:100F8C00C4CF01F0006AC3500012000E0112C290CF
:020F9C00120041
:100F9E000050086E0150006E016A026A036A0B6A05
:100FAE000C6A960E036E0A6A00C001F008C000F0CB
:0A0FBE00086A026AA6EC00F01200B7
:0E0FC800ACB202D00000FCD72BC4ADFF12006B
:100FD6000401406B416B426B436B0301AF5104014B
:100FE6002C5D04E10301AE5104012B5D01E2E7D162
:100FF6002C510301B95D04E104012B510301B85DD5
:1010060001E2DDD1AE5104012B5D036E0301AF5148
:1010160004012C59046E03C000F004C001F0003630
:1010260000900136003600900136080E03019D251A
:101036000401456F000E03019E210401466F000E58
:1010460003019F210401476F000E0301A021040143
:10105600486F0050452701504623000E472348237A
:10106600040E496F000E4A6F48EC01F0A20E3E6F67
:10107600030E3F6F3EC4E9FF3FC4EAFFEECF44F4E0
:1010860044C440F4010E3E25E96E000E3F21EA6E8F
:10109600EECF04F0000E056E066E076E020E3E25BC
:1010A600E96E000E3F21EA6EEECF03F003C001F0B9
:1010B600006A000E026E036E0450002605500122DF
:1010C6000650022207500322005003019D25040109
:1010D600326F015003019E210401336F0250030158
:1010E6009F210401346F03500301A0210401356FD1
:1010F60044C400F00032009E0032009E0032009E82
:10110600000E016EB6C304F0B7C305F09FEC01F004
:1011160000C038F401C039F4070E4415006E08E02B
:101126000301B651040138270301B75104013923DD
:1011360038C43CF439C43DF4ACC3E1FFADC3E2FFAF
:1011460032C4E6FF33C4E6FF34C4E6FF35C4E6FF27
:1011560038C4E6FF39C4E6FF360EE66E040EE66EC8
:10116600AAC300F0ABC301F041EC00F000C03EF4AE
:1011760001C03FF404013651322737513323000EA4
:10118600342335233651385F3751395B3A6B3B6B25
:101196000301BA51000AD8A488D0B4C32FF4B5C34A
:1011A60030F404012E6B000E006E0301B751005C93
:1011B60003E1B65104012E5D6DE20401B2C341F4B0
:1011C600B3C342F4316B2D6B40512D5D5FE231515B
:1011D600000A4AE13A4B3B2B3D51375D02E13C5157
:1011E600365D38E23B51375D02E13A51365D32E217
:1011F600010E3A6F000E3B6FACC3E1FFADC3E2FFD9
:1012060032C4E6FF33C4E6FF34C4E6FF35C4E6FF66
:1012160038C4E6FF39C4E6FF360EE66E040EE66E07
:10122600AAC300F0ABC301F041EC00F000C03EF4ED
:1012360001C03FF438C43CF439C43DF404013651CE
:10124600322737513323000E342335233651385F86
:101256003751395B3EC4E9FF3FC4EAFFEECF43F4A2
:101266003E4B3F2B010E316F31514315006E08E0A6
:1012760041C445F42FC446F4BBC347F4BCEC02F0AA
:10128600414B422B313731912D2B9ED72F4B302B93
:101296002E2B89D70401010E41250301B26F000EE2
:1012A600040142210301B36F8AD0B2C32FF4B3C342
:1012B60030F404012E6B000E006E0301B751005C82
:1012C60003E1B65104012E5DD8B06FD00401B4C35A
:1012D60041F4B5C342F4316B2D6B40512D5D61E293
:1012E6003151000A4AE13A4B3B2B3D51375D02E151
:1012F6003C51365D38E23B51375D02E13A51365D8D
:1013060032E2010E3A6F000E3B6FACC3E1FFADC394
:10131600E2FF32C4E6FF33C4E6FF34C4E6FF35C459
:10132600E6FF38C4E6FF39C4E6FF360EE66E040E65
:10133600E66EAAC300F0ABC301F041EC00F000C0BA
:101346003EF401C03FF438C43CF439C43DF4040112
:101356003651322737513323000E34233523365185
:10136600385F3751395B3EC4E9FF3FC4EAFFEECF31
:1013760043F43E4B3F2B010E316F31514315006E46
:1013860008E02FC445F441C446F4BBC347F4BCECA3
:1013960002F0010E415F000E425B313731912D2B79
:1013A6009CD72F4B302B2E2B86D70401010E415D87
:1013B6000301B46F000E040142590301B56F120018
:1013C6002BC4B2F32CC4B3F32DC4B4F32EC4B5F3BB
:0213D600120003
:1013D8000401336B346B356B0101F051000A0FE1E6
:1013E800AE0E0401456F360E466F000E476F010EB4
:1013F800486F496BDFEC00F0010E0101F06F000E41
:10140800006E0301AF51005C03E1AE5104012B5D96
:1014180001E2FFD0000E0301B95D04E104012B5184
:101428000301B85D01E2F5D0AE5104012B5D016EF8
:10143800AFC302F0000E025601C003F002C004F070
:10144800033603900436033603900436080E03016E
:101458009A25006E000E9B21016E000E9C21026EE3
:10146800000E056E0050032601500422025005228A
:1014780003C0F6FF04C0F7FF05C0F8FF0900F5CF69
:1014880033F4010E0324F66E000E0420F76E000EEE
:101498000520F86E0900F5CF00F000C006F0000E38
:1014A800076E086E096E020E0324F66E000E042005
:1014B800F76E000E0520F86E0900F5CF03F003C0A3
:1014C80001F0006A000E026E036E065000260750F7
:1014D800012208500222095003229A5100240401D3
:1014E800306F03019B5101200401316F03019C51AE
:1014F80002200401326F0301BA51000A46E1B4C365
:101508002EF404012D6B000E006E0301B751005C30
:1015180003E1B65104012D5D2FE20401B2C334F496
:101528002F6B2C6B33512C5D24E22F51000A10E1F4
:1015380030C4F6FF31C4F7FF32C4F8FF0900F5CF15
:1015480035F4010E3027000E31233223010E2F6FA0
:101558002F513515006E08E034C445F42EC446F406
:10156800BBC347F4BCEC02F0342B2F372F912C2B44
:10157800D9D72E2B2D2BC7D704013451010F0301C6
:10158800B26FB36B000EB32344D0B2C32EF4040180
:101598002D6B000E006E0301B751005C03E1B651DC
:1015A80004012D5D2FE20401B4C334F42F6B2C6BBE
:1015B80033512C5D24E22F51000A10E130C4F6FFAC
:1015C80031C4F7FF32C4F8FF0900F5CF35F4010E36
:1015D8003027000E31233223010E2F6F2F5135157E
:1015E800006E08E02EC445F434C446F4BBC347F487
:1015F800BCEC02F034072F372F912C2BD9D72E2B88
:101608002D2BC7D7040134050301B46FB56B000E49
:04161800B55B1200AC
:10161C000B6A0C6A086A0350D8B492EF0BF002C044
:10162C000AF0028E9E0E035E03AE82EF0BF0036C8B
:10163C00080E035CD8A04FEF0BF0036E083600C009
:10164C0008F001C000F002C001F0026A080E035C51
:10165C00D8A04FEF0BF0036E083600C008F001C0A5
:10166C0000F0016A080E035CD8A04FEF0BF0036E7C
:10167C00083600C008F0006A080E035CD8A04FEFD3
:10168C000BF0036E0836086A0350D8A4D8905BEFB1
:10169C000BF00350D8B45BEF0BF0D8900232013250
:1016AC0000320832032E53EF0BF00BBC08A06CEF8A
:1016BC000BF0D8A06CEF0BF0082AD8B4002AD8B4E1
:1016CC00012AD8B4022A02BE96EF0BF00AAE92EFB2
:1016DC000BF0021E011E001E081E082AD8B4002A98
:1016EC00D8B4012AD8B4022A92EF0BF0026A016A2C
:1016FC00006A086A92EF0BF00B800BAE9DEF0BF0BB
:10170C00026A0AAE9DEF0BF0026E016E006E086E5F
:10171C000A3602329DEF0BF00C6A000E9EEF0BF0B6
:10172C00010E0C6E000E16EC03F09EEF0BF0FF0E8C
:10173C000250036E0150026E0050016E0850006E94
:02174C00120089
:10174E001AC41EF404011E511C5D0CE319C42BF4C3
:10175E001BC42CF41EC42DF41DC42EF491EC04F005
:06176E001E2BF0D7120053
:1017740004011A6B1B6B1C6B1D6B196B640E195DDA
:101784001AE2030E2B6FAEEC07F007DC1AC404F068
:101794001BC405F01CC406F01DC407F0C2EC04F021
:1017A40000C01AF401C01BF402C01CF403C01DF4F1
:1017B4000401192BE3D7000E046E000E056E480ECB
:1017C400066E850E076E1AC400F01BC401F01CC41B
:0E17D40002F01DC403F0D5EC06F01EDF12007B
:1017E200000E04011B5D04E31B517F0801E301D0DD
:1017F20028D0000E195DD8A0196B19513F0802E2DA
:101802003F0E196F000E1A5DD8A01A6B1A513F08CD
:1018120002E23F0E1A6F19511A5D06E219C41DF455
:101822001AC419F41DC41AF419511A5D0AE31BC42F
:1018320045F419C446F41CC447F4BCEC02F0192B5D
:04184200F3D71200C6
:101846000050086E0150006E0250016E0350026E89
:10185600036A0B6A0C6A9E0E036E0A6A02AE40EFBA
:101866000CF0081E001E011E021E082AD8B4002A0B
:10187600D8B4012AD8B4022A0A8E020E0C6ECBEC1A
:0418860001F012005B
:10188A000401266B276B286B296B2A6B19C422F477
:10189A001AC423F41BC424F41CC425F42551FF0ADA
:1018AA0008E12451FF0A05E12351FF0A02E122510E
:1018BA00FF0A0DE11DC42BF41EC42CF4E80E2D6F93
:1018CA00010E2E6F6AEC04F0030E006E5ED2010E5A
:1018DA00206F24AF0FD0800E2419006E00C024F4AC
:1018EA00202B272B1DC4E1FF1EC4E2FF2D0EE66E3E
:1018FA001D4B1E2B000E006E251908E100502419FD
:10190A0005E10050231902E12251000A0CE11DC42D
:10191A002BF41EC42CF4E60E2D6F010E2E6F6AEC0A
:10192A0004F0006A32D22551FF0A08E12451000A64
:10193A0005E12351000A02E12251000A0DE11DC40A
:10194A002BF41EC42CF4EC0E2D6F010E2E6F6AECD4
:10195A0004F020C400F019D2000E046E000E056EC9
:10196A00000E066E7F0E076E22C400F023C401F03B
:10197A0024C402F025C403F003EC04F0010ED8B02D
:10198A00000E006E00521CE022C400F023C401F0D5
:10199A0024C402F025C403F0000E046E000E056E86
:1019AA00200E066E820E076E24EC03F000C022F4AD
:1019BA0001C023F402C024F403C025F42A07CCD7BB
:1019CA00000E046E000E056E200E066E820E076E65
:1019DA0022C400F023C401F024C402F025C403F099
:1019EA0003EC04F0000ED8B0010E006E00521CE0A9
:1019FA0022C400F023C401F024C402F025C403F079
:101A0A00CD0E046ECC0E056E4C0E066E7B0E076E66
:101A1A0024EC03F000C022F401C023F402C024F431
:101A2A0003C025F42A2BCCD7FF0E2215086EFF0E11
:101A3A002315096E7F0E24150A6E000E25150B6EEE
:101A4A0008C004F009C005F00AC006F00BC007F090
:101A5A0004360490053606360736000E2215006E47
:101A6A00000E2315016E000E2415026EFF0E2515B9
:101A7A00036E00C022F401C023F402C024F403C0A0
:101A8A0025F404502211006E05502311016E0650F0
:101A9A002411026E07502511036E00C022F401C002
:101AAA0023F402C024F403C025F47F0E255D006EE2
:101ABA0000C021F4010E256F00C004F022C400F01A
:101ACA0023C401F024C402F025C403F0045007E043
:101ADA0000360090013602360336FF0FF8D700C0F1
:101AEA0022F401C023F402C024F403C025F41DC467
:101AFA00E1FF1EC4E2FF2551300FE66E1D4B1E2B7F
:101B0A00272B800E2A19006E800E010A005C08E35A
:101B1A00800E060A006E800E2A19005C01E30BD0C3
:101B2A001DC4E1FF1EC4E2FF2E0EE66E1D4B1E2BE6
:101B3A00010E266F272B060E216F2151000A58E04D
:101B4A00256B22C400F023C401F024C402F025C48A
:101B5A0003F0003600900136023603360036009054
:101B6A00013602360336225100262351012224511E
:101B7A0002222551032200C022F401C023F402C02C
:101B8A0024F403C025F422C400F023C401F024C4C1
:101B9A0002F025C403F000360090013602360336FF
:101BAA0000C022F401C023F402C024F403C025F4C7
:101BBA001DC4E1FF1EC4E2FF2551300FE66E1D4B26
:101BCA001E2B272B2651000A11E12A072A51000A47
:101BDA000DE1010E296F1DC4E1FF1EC4E2FF2E0EA6
:101BEA00E66E1D4B1E2B010E266F272B2107A5D74C
:101BFA002951010AD8B42707FF0E1D25E96EFF0EE9
:101C0A001E21EA6EEE502E0A05E1010E1D5F000E3E
:101C1A001E5B2707800E000A006E800E2A19005CE0
:101C2A0002E2010E286F800E2A19006E800E000A49
:101C3A00005C02E2020E286F2AC421F4800E090A0F
:101C4A00006E800E2A19005C02E3282B02D0020ED5
:101C5A00282728512725016E026A000E0222800ECB
:101C6A000218006E800E005C02E11F51015C0AE25C
:101C7A001DC4E1FF1EC4E2FF300EE66E1D4B1E2B93
:101C8A00272BE7D72A51000A43E01DC4E1FF1EC4EF
:101C9A00E2FF650EE66E1D4B1E2B800E2A19006EA2
:101CAA00800E000A005C0BE21DC4E1FF1EC4E2FFC5
:101CBA002D0EE66E1D4B1E2B2A5100082A6F2AC4D0
:101CCA0021F4800E090A006E800E2A19005C0FE2C8
:101CDA000A0E046E21C400F0B4EC03F01DC4E1FF47
:101CEA001EC4E2FF0050300FE66E1D4B1E2B0A0E7B
:101CFA00046E21C400F0B4EC03F008C000F01DC467
:101D0A00E1FF1EC4E2FF0050300FE66E1D4B1E2B92
:101D1A0028512725006E00C027F41F51005C016E70
:101D2A0001C021F4800E000A006E800E0118005CCA
:101D3A000EE2800E000A006E800E2119005C06E297
:101D4A002107010E1D5F000E1E5BF3D718D0800E0F
:101D5A002119006E800E000A005C11E2800E211922
:101D6A00006E800E000A005C0AE2212B1DC4E1FF0E
:101D7A001EC4E2FF300EE66E1D4B1E2BEFD71DC4AC
:0C1D8A00E1FF1EC4E2FFE66A006A1200DE
:101D9600000E04011C5D02E1800E1B5D01E341D0D3
:101DA600000E1E5D02E1400E1D5D01E33AD01F6B81
:101DB600206B1BC42BF41CC42CF41DC42DF41EC4B0
:101DC6002EF4E3EC09F01F511925E96E20511A2172
:101DD600EA6EEE5226E00301B051B11113E00401A0
:101DE6001F511925E96E20511A21EA6EEECF2BF408
:101DF600000E2C6F000E2C6FEBEC07F004011F4B4E
:101E0600202B0ED004011F511925E96E20511A21ED
:101E1600EA6EEECF2BF4ECEC09F004011F4B202BFD
:041E2600D2D71200FD
:101E2A0004011B6B1C6B19C403F01AC404F019C417
:101E3A0005F01AC406F003C0E9FF04C0EAFFEE5039
:101E4A00200A04E11B511C1101E110D0010E1B6F85
:101E5A00000E1C6F03C0E9FF04C0EAFF05C0E1FFE2
:101E6A0006C0E2FFEECFE6FF054A062A03C001F0EC
:101E7A0004C002F0034A042A01C0E9FF02C0EAFFD3
:101E8A00EE50000AD8E119C400F01AC401F0120099
:101E9A0004011D6B050E1D5D0AE21D511B25E16E35
:101EAA00000E1C21E26E200EE66E1D2BF3D71D518B
:101EBA001B25E16E000E1C21E26EE66A1D071D510C
:101ECA001B251E6F000E1C211F6F0A0E046E000ECA
:101EDA00056E19C400F01AC401F093EC07F008C0AB
:101EEA0000F009C001F0300E00261EC4E1FF1FC435
:101EFA00E2FF00C0E6FF0A0E046E000E056E19C46A
:101F0A0000F01AC401F093EC07F000C019F401C004
:101F1A001AF4000E011802E1000E001801E102D0C5
:061F2A001D07CDD71200D7
:081F3000067EC2EC04F0120071
:101F380004011C6B19C4E9FF1AC4EAFFEECF1BF4B5
:101F48001B51000A0FE01BC42BF4E4EC07F004015A
:101F58001C2B1C511925E96E000E1A21EA6EEECFD2
:061F68001BF4EED712008D
:101F6E0000C008F00150006E016A026A036A0B6A33
:101F7E000C6A016A026A036A960E036E0A6A00AE62
:101F8E00CFEF0FF0081E001E082AD8B4002A0A8EC2
:101F9E0000C001F008C000F0086A026AA6EC00F06A
:021FAE0012001F
:101FB0000F0E0401136F000E146FBAEC0BF043DC2C
:101FC00000C0DCF301C0DDF302C0DEF303C0DFF3C9
:101FD000000E046E000E056E200E066E830E076E58
:101FE00024EC03F0000E046EC00E056E7F0E066E2C
:101FF000880E076ED5EC06F000C0E0F301C0E1F3F7
:1020000002C0E2F303C0E3F300C019F401C01AF404
:1020100002C01BF403C01CF4D50E04011D6F030E97
:102020001E6F040E1F6F31DCD50E196F030E1A6F71
:10203000FCDE13C400F014C401F099DF0FC404F0F7
:1020400010C405F011C406F012C407F0C2EC04F08D
:1020500000C004F001C005F002C006F003C007F0A4
:10206000DCC300F0DDC301F0DEC302F0DFC303F028
:1020700003EC04F0000ED8B0010E006E005227E110
:1020800013C400F014C401F072DF00C004F001C0FA
:1020900005F002C006F003C007F00FC400F010C442
:1020A00001F011C402F012C403F042DFDCC304F0FB
:1020B000DDC305F0DEC306F0DFC307F003EC04F078
:1020C000000ED8B0010E006E005201E112D0930E46
:1020D0002B6F030E2C6FD50E2D6F030E2E6F6AEC37
:1020E00004F0DCC30FF4DDC310F4DEC311F4DFC36E
:1020F00012F4DC0E196F010E1A6F1EDFD50E196F68
:10210000030E1A6F19DF940E196F010E1A6F14DF88
:102110000D0E2B6FE4EC07F00A0E04012B6FE4ECBC
:0421200007F01200B2
:10212400819281800401116B1151070810E311C4DD
:1021340053F41FEC00F0106B10513F0806E30FC47A
:1021440053F474EC00F0102BF7D7112BEDD78190DA
:102154008182116B1151070810E311C453F41FEC71
:1021640000F0106B10513F0806E30FC453F474ECF5
:0C21740000F0102BF7D7112BEDD7120054
:102180000C0E04012B6FE4EC07F09C0E0401196F98
:10219000020E1A6FD1DE0A0E2B6FE4EC07F00D0E63
:1021A00004012B6FE4EC07F0B30E0401196F020E6B
:1021B0001A6FC2DE0A0E2B6FE4EC07F00D0E04015D
:1021C0002B6FE4EC07F0890E0401196F020E1A6FF1
:1021D000B3DE0A0E2B6FE4EC07F00D0E04012B6F3B
:1021E000E4EC07F07A0E0401196F020E1A6FA4DEF8
:1021F0000A0E2B6FE4EC07F00D0E04012B6FE4ECDC
:0422000007F01200D1
:102204000C0E04012B6FE4EC07F0140E0401196F9B
:10221400020E1A6F8FDE0A0E2B6FE4EC07F00D0E20
:1022240004012B6FE4EC07F0370E0401196F020E62
:102234001A6F80DE0A0E2B6FE4EC07F00D0E04011A
:102244002B6FE4EC07F02C0E0401196F020E1A6FC9
:1022540071DE0A0E2B6FE4EC07F00D0E04012B6FF8
:06226400E4EC07F012009B
:10226A000401136B146B156B1351070845E3536B89
:10227A0033EC00F013C453F41FEC00F0536B7BEC07
:10228A0000F0126B12513F0812E314510F25F66E3B
:10229A0015511021F76E000E1121F86E0900F5CFC5
:1022AA0053F474EC00F0144B152B122BEBD7400EA1
:1022BA00536F33EC00F013C453F41FEC00F0400EDC
:1022CA00536F7BEC00F0400E126F12517F0812E33D
:1022DA0014510F25F66E15511021F76E000E1121BB
:1022EA00F86E0900F5CF53F474EC00F0144B152B7B
:0A22FA00122BEBD7132BB8D71200FC
:102304000FC42BF411C42CF410C42DF413C42EF4F4
:1023140091EC04F00FC42BF411C42CF412C42DF46A
:1023240013C42EF491EC04F010C419F412C41AF47A
:102334000FC41BF413C41CF4F1EC0BF010C419F417
:1023440012C41AF411C41BF413C41CF4F1EC0BF002
:02235400120075
:102356000401106B116B126B136B0F6B640E0F5D28
:102366001AE22B6BAEEC07F0CFEC07F010C404F0CA
:1023760011C405F012C406F013C407F0C2EC04F051
:1023860000C010F401C011F402C012F403C013F42B
:1023960004010F2BE3D7000E046E000E056E480EE7
:1023A600066E850E076E10C400F011C401F012C44B
:1023B60002F013C403F0D5EC06F00EEC0BF012009D
:1023C6000F0E0401136F000E146FBAEC0BF023EC22
:1023D6000CF000C0DCF301C0DDF302C0DEF303C085
:1023E600DFF3000E046E000E056E200E066E830EE1
:1023F600076E24EC03F0000E046EC00E056E7F0E11
:10240600066E880E076ED5EC06F000C0E0F301C03C
:10241600E1F302C0E2F303C0E3F300C019F401C024
:102426001AF402C01BF403C01CF4D50E04011D6F80
:10243600030E1E6F040E1F6F45EC0CF0D50E196FC0
:10244600030E1A6FEFDC13C400F014C401F08CDD28
:102456000FC404F010C405F011C406F012C407F04E
:10246600C2EC04F000C004F001C005F002C006F0A2
:1024760003C007F0DCC300F0DDC301F0DEC302F0E9
:10248600DFC303F003EC04F0000ED8B0010E006EBB
:10249600005227E113C400F014C401F065DD00C04A
:1024A60004F001C005F002C006F003C007F00FC437
:1024B60000F010C401F011C402F012C403F035DDBF
:1024C600DCC304F0DDC305F0DEC306F0DFC307F0AE
:1024D60003EC04F0000ED8B0010E006E005201E1CC
:1024E6003AD0460E196F0F0E1A6F590E1B6F1E0E3D
:1024F6001C6F1D6BA7EC0BF06D0E196F020E1A6F99
:102506000A0E1B6F000E1C6F0F0E1D6F000E1E6F46
:102516003FDCD50E196F030E1A6F460E1B6F000EA9
:102526001C6F0F0E1D6F000E1E6F32DC770E196FBB
:10253600020E1A6F5A0E1B6F000E1C6F0F0E1D6FC8
:10254600000E1E6F25DCDCC30FF4DDC310F4DEC302
:0825560011F4DFC312F41200BE
:10255E00220E0C6E086A096A0A6A0B6A0C06D8B457
:10256E001FD0D8900B320A320932083203320232AF
:10257E0001320032D8A0F2D70C06D8B409D00450DC
:10258E0008260550092206500A2207500B22EAD7C8
:10259E00045008260550092206500A2207500B2225
:0225AE00120019
:1025B00084B217D084A015D08482010E0401036F69
:1025C000000E046F020E0301EA6F000EEB6F820E25
:1025D0000C6EDD0E0D6E0D2EFED70C2EFCD70000FE
:0425E00000001200E5
:1025E40084B217D084A015D08490010E0401036F27
:1025F400000E046F010E0301EA6F000EEB6F820EF2
:102604000C6EDD0E0D6E0D2EFED70C2EFCD70000C9
:0426140000001200B0
:1026180084928480010E0401036F000E046F03018D
:10262800EA6BEB6B820E0C6EDD0E0D6E0D2EFED777
:0A2638000C2EFCD700000000120079
:102642000401156B166B0FC417F410C418F4800E36
:102652001019006E800E005C02E1000E0F5D0BE2AD
:10266200010E156F000E166F0F510008176F10C480
:1026720018F4000E185717C419F418C41AF411C428
:102682001BF412C41CF408DC060E136F000E146F48
:10269200000E006E1451005C02E11351000819E2B1
:1026A20013511125E16E14511221E26E010E135DD8
:1026B200006E000E1459016E00501125E96E015092
:1026C2001221EA6EEECFE6FF010E135F000E145BDD
:1026D200DFD711C4E1FF12C4E2FF200EE66E1551EE
:1026E20016111AE0136B146B13511125E96E145174
:1026F2001221EA6EEE50200A03E1134B142BF4D799
:10270200010E135F000E145B13511125E16E14517B
:0A2712001221E26E2D0EE66E120099
:10271C0032D0050E0401196F030E1A6F07DC0A0E76
:10272C002B6FE4EC07F00D0E04012B6FE4EC07F0BB
:10273C0035D0150E0401196F030E1A6F9CEC0FF0B7
:10274C000A0E2B6FE4EC07F00D0E04012B6FE4EC7A
:10275C0007F024D0F80E0401196F020E1A6F9CECCE
:10276C000FF00A0E2B6FE4EC07F00D0E04012B6F2B
:10277C00E4EC07F013D0000E0301EB1902E1000E9C
:10278C00EA19C7E0000EEB1902E1010EEA19D1E0DB
:10279C00000EEB1902E1020EEA19DCE0D80E04017E
:1027AC00196F020E1A6F9CEC0FF00A0E2B6FE4ECF3
:1027BC0007F00D0E04012B6FE4EC07F0E60E04019C
:1027CC00196F020E1A6F9CEC0FF00A0E2B6FE4ECD3
:1027DC0007F00D0E04012B6FE4EC07F0C70E04019B
:1027EC00196F020E1A6F9CEC0FF00A0E2B6FE4ECB3
:0E27FC0007F00D0E04012B6FE4EC07F0120045
:10280A00AECF01F0ABA202D0AB98AB8801C000F00A
:02281A001200AA
:0A281C00000E9EBA010E006E1200BD
:10282600010E04012B6FAEEC07F000C005F401C0E9
:1028360006F4800E026E800E0118025C02E1005062
:102846000A080CE2050E0401196F1E0E1A6F500ECF
:102856001B6F280E1C6F1D6BA7EC0BF0000E0301FF
:10286600F91902E1010EF81953E1040106510301B9
:10287600FB1903E1FA510401051910E00401050EE4
:10288600196F140E1A6F640E1B6F280E1C6F1D6BCA
:10289600A7EC0BF005C4FAF306C4FBF3040105C468
:1028A6000FF406C410F4FC0E116F030E126FC6DE91
:1028B600FC0E196F030E1A6F15EC0FF0FC0E196F54
:1028C600030E1A6F280E1B6F000E1C6F140E1D6F61
:1028D600000E1E6FCBEC0EF0530E196F030E1A6F1F
:1028E600050E1B6F000E1C6F140E1D6F000E1E6F63
:1028F600CBEC0EF0020E0B6E450E0C6EA90E0D6E95
:102906000D2EFED70C2EFCD70B2EFAD7000000009A
:102916000401800E0619006E800E005C02E1500E66
:10292600055D19E3800E006E800E0619005C02E15B
:102936000551640810E339DE4B0E0401196F030ECE
:102946001A6F050E1B6F000E1C6F1E0E1D6F000EFC
:102956001E6FCBEC0EF0800E0619006E800E005C2A
:1029660002E1780E055D19E3800E006E800E0619F1
:10297600005C02E105518C0810E34BDE230E0401D6
:10298600196F030E1A6F050E1B6F000E1C6F1E0EBD
:102996001D6F000E1E6FCBEC0EF0800E0619006E3A
:1029A600800E005C02E1AA0E055D19E3800E006E42
:1029B600800E0619005C02E10551BE0810E30FDE29
:1029C6003C0E0401196F030E1A6F050E1B6F000EE5
:1029D6001C6F1E0E1D6F000E1E6FCBEC0EF0800ED0
:1029E6000619006E800E005C02E1C80E055D17E355
:1029F600800E006E800E0619005C02E10551DC08AF
:102A06000EE3410E196F030E1A6F050E1B6F000EB3
:102A16001C6F1E0E1D6F000E1E6FCBEC0EF0800E8F
:102A26000619006E800E005C02E1E60E055D17E3F6
:102A3600800E006E800E0619005C02E10551F0085A
:102A46000EE35A0E196F030E1A6F050E1B6F000E5A
:102A56001C6F1E0E1D6F000E1E6FCBEC0EF0800E4F
:102A66000619006E800E010A005C02E1360E055D55
:102A760018E3800E010A006E800E0619005C02E162
:102A860005514A080EE3310E196F030E1A6F050E33
:102A96001B6F000E1C6F1E0E1D6F000E1E6FCBEC03
:102AA6000EF0800E0619006E800E020A005C02E12E
:102AB6004E0E055D18E3800E020A006E800E0619A2
:102AC600005C02E1055162080EE3730E196F030EF6
:102AD6001A6F050E1B6F000E1C6F1E0E1D6F000E6B
:102AE6001E6FCBEC0EF0800E0619006E800E020AE9
:102AF600005C02E1A80E055D18E3800E020A006E76
:102B0600800E0619005C02E10551BC080EE36D0E4D
:102B1600196F030E1A6F050E1B6F000E1C6F1E0E2B
:102B26001D6F000E1E6FCBEC0EF0800E0619006EA8
:102B3600800E030A005C02E13E0E055D30E3800E66
:102B4600030A006E800E0619005C02E10551520868
:102B560026E3650E196F030E1A6F050E1B6F000E26
:102B66001C6F1E0E1D6F000E1E6FCBEC0EF0800E3E
:102B76000819006E800E0301D419005C03E1D351DD
:102B86000401075D04E20401074B082B03D004018E
:102B9600076B086B010E03018A6F000E8B6F800EA8
:102BA60004010619006E800E030A005C02E1700E35
:102BB600055D1BE3800E030A006E800E0619005C9D
:102BC60002E10551840811E30301F81FF91F330ED2
:102BD6000B6EBB0E0C6EDF0E0D6E0D2EFED70C2E81
:102BE600FCD70B2EFAD700000000800E0401061950
:102BF600006E800E030A005C02E1D40E055D2FE331
:102C0600800E030A006E800E0619005C02E1055173
:102C1600E80825E35B0E196F010E1A6F050E1B6F90
:102C2600000E1C6F1E0E1D6F000E1E6FCBEC0EF0FD
:102C3600800E006E800E0819005C02E10751000844
:102C460005E2010E075F000E085B04D0D3C307F44C
:102C5600D4C308F4010E03018A6F000E8B6F1200B5
:102C6600000E03018B1902E1010E8A193FE10401EE
:102C76000F6B106B7F0E116F3F0E126F010E136FED
:102C860082EC11F0196B1A6B7F0E1B6F0C0E1C6F0A
:102C9600010E1D6FA7EC0BF0AE0E456F360E466F9C
:102CA600000E476F486B496BDFEC00F009C419F45E
:102CB6000AC41AF41E0E04011B6F000E1C6F010ECF
:102CC6001D6F000E1E6FCBEC0EF0AE0E456F360E6E
:102CD600466F000E476F010E486F496BDFEC00F040
:0E2CE6008A6B8B6B010EE46F000EE56F12001F
:102CF4000900F5CFE6FF0006FBE10106F9E1120049
:102D0400C80E0301E66F0F0EE76F2B0EE86F040E7B
:102D1400E96F0A0EEC6F280EED6F000EEE6F000ED9
:102D2400EF6F1C0EF46F280EF56F000EF66F000E99
:102D3400F76FFF0EF06FFF0EF16F000EF26F000ED3
:102D4400F36FAC8A900EAB6E948E949C9EAA03D0C3
:082D5400AECF00F0FBD7120026
:102D5C000301A16BB06BB16B939A93989394939678
:102D6C0093929390819A120E006E000E016E830E58
:102D7C000024E16E0F0E0120E26EE66A81948196CA
:102D8C0081928180818A3F0E836E14EC00F0C00E1C
:102D9C00836E14EC00F0818281903F0E836E14ECF4
:0C2DAC0000F0C00E836E14EC00F012006A
:102DB80031DD0052D8B4E6D024DD00C08CF30050D9
:102DC8004C0A05E10C0E04012B6FE4EC07F003013B
:102DD8008C51780A1CE10C0E04012B6FE4EC07F00F
:102DE800640E0401196F010E1A6F9CEC0FF00A0EA5
:102DF8002B6FE4EC07F00D0E04012B6FE4EC07F0E9
:102E08000D0E04012B6FE4EC07F002DC83DC0301F8
:102E18008C517A0A1DE10C0E04012B6FE4EC07F0CB
:102E2800FC0E0401196F000E1A6F9CEC0FF00A0ECD
:102E38002B6FE4EC07F00D0E04012B6FE4EC07F0A8
:102E48000D0E04012B6FE4EC07F0F2EC12F062DCDB
:102E580003018C51630A1DE10C0E04012B6FE4EC95
:102E680007F0ED0E0401196F000E1A6F9CEC0FF0BD
:102E78000A0E2B6FE4EC07F00D0E04012B6FE4EC47
:102E880007F00D0E04012B6FE4EC07F0D8EC12F0FC
:102E980041DC03018C51610A3FE10C0E04012B6FE8
:102EA800E4EC07F03C0E0401196F010E1A6F9CEC5C
:102EB8000FF00A0E2B6FE4EC07F00D0E04012B6FD8
:102EC800E4EC07F0080E0401196F010E1A6F9CEC70
:102ED8000FF00A0E2B6FE4EC07F00D0E04012B6FB8
:102EE800E4EC07F0740E0401196F010E1A6F9CECE4
:102EF8000FF00A0E2B6FE4EC07F00D0E04012B6F98
:102F0800E4EC07F0010E0301916F000E926F010EC1
:102F180004012B6FE4EC07F003018C51730A15E1EF
:102F28000C0E04012B6FE4EC07F0AA0E0401196FD4
:102F3800010E1A6F9CEC0FF00A0E2B6FE4EC07F0F1
:102F48000D0E04012B6FE4EC07F003018C51480AC5
:102F580002E1C0EC10F003018C51770A07E10C0E76
:102F680004012B6FE4EC07F08EEC13F003018C5195
:102F7800650A02E102EC11F003018C51720A02E1C8
:062F8800D8EC0FF012006E
:102F8E0004010F6B92EC10F00301915192111CE0B1
:102F9E00610E04010F6F3C0E106F000E116F35ECB9
:102FAE0011F082A410D0000E0301921902E1010E5D
:102FBE00911909E1916B926B670E0401196F000E66
:102FCE001A6F9CEC0FF0E0D782A413D00401610EAF
:102FDE000F6F3C0E106F000E116F35EC11F0000EDE
:102FEE000301921902E1010E911902E1916B926BAC
:102FFE00EBD70A0E04012B6FE4EC07F00D0E040163
:10300E002B6FE4EC07F0B00E0401196F000E1A6F6F
:10301E009CEC0FF00D0E2B6FE4EC07F00A0E040182
:10302E002B6FE4EC07F004010F6B92EC10F0010E25
:0A303E0003018A6F000E8B6F120071
:10304800000E0301E51902E1010EE4190FE1010E7A
:103058000401196F0D0E1A6F7E0E1B6F3E0E1C6F4A
:103068001D6BA7EC0BF00301E46BE56BE3EC11F0CF
:02307800120044
:10307A00000E0301E51902E1010EE41913E1010E44
:10308A000401196F0D0E1A6F7E0E1B6F3E0E1C6F18
:10309A001D6BA7EC0BF0010E036F000E046F03010A
:1030AA00E46BE56B000E0401041902E1010E031939
:1030BA00D8A41FD10F6B330E106F7F0E116F3F0E06
:1030CA00126F010E136F82EC11F0010E196F340E9C
:1030DA001A6F7E0E1B6F3E0E1C6F1D6BA7EC0BF05A
:1030EA00F3D00401AB0E196F000E1A6F060E1B6F98
:1030FA00000E1C6F340E1D6F000E1E6FCBEC0EF00F
:10310A002B0E196F330E1A6F550E1B6F3E0E1C6F66
:10311A00010E1D6FA7EC0BF0AE0E456F360E466F13
:10312A00000E476F486B496BDFEC00F0070E040195
:10313A00196F020E1A6F370E1B6F000E1C6F340EBA
:10314A001D6F000E1E6FCBEC0EF0AE0E456F360EE5
:10315A00466F000E476F010E486F496BDFEC00F0B7
:10316A00030E0401196F020E1A6F600E1B6F000E18
:10317A001C6F340E1D6F000E1E6FCBEC0EF0036B2E
:10318A00046BB7D00401010E196F330E1A6F2A0EA1
:10319A001B6F3E0E1C6F010E1D6FA7EC0BF0AE0EDF
:1031AA00456F360E466F000E476F486B496BDFEC72
:1031BA0000F00F0E0401196F020E1A6F060E1B6F34
:1031CA00000E1C6F340E1D6F000E1E6FCBEC0EF03E
:1031DA00AE0E456F360E466F000E476F010E486FF2
:1031EA00496BDFEC00F00B0E0401196F020E1A6F27
:1031FA00370E1B6F000E1C6F340E1D6F000E1E6FF4
:10320A00CBEC0EF0F70E196F010E1A6F600E1B6FE2
:10321A00000E1C6F340E1D6F000E1E6FCBEC0EF0ED
:10322A00036B046B66D00401F20E196F010E1A6F5C
:10323A00060E1B6F000E1C6F340E1D6F000E1E6FE4
:10324A00CBEC0EF0FF0E196F010E1A6F370E1B6FC3
:10325A00000E1C6F340E1D6F000E1E6FCBEC0EF0AD
:10326A00550E196F330E1A6F7E0E1B6F3E0E1C6FB2
:10327A00010E1D6FA7EC0BF0AE0E456F360E466FB2
:10328A00000E476F486B496BDFEC00F0FB0E040140
:10329A00196F010E1A6F600E1B6F000E1C6F340E31
:1032AA001D6F000E1E6FCBEC0EF0AE0E456F360E84
:1032BA00466F000E476F010E486F496BDFEC00F056
:1032CA000401036B046B15D0000E0301EB1902E134
:1032DA00000EEA19D8B405D7000EEB1902E1010E67
:1032EA00EA19D8B44FD7000EEB1902E1020EEA1917
:0432FA009AE0120044
:1032FE00050E04010D6F000E0E6FABEC11F0050EF6
:10330E00046E000E056E066E076EAFEC12F023EC27
:10331E000CF000C0BDF301C0BEF302C0BFF303C08A
:10332E00C0F3000E046EC00E056E7F0E066E880E84
:10333E00076ED5EC06F0000E046E000E056E480EFC
:10334E00066E850E076E24EC03F000C0C8F301C0B4
:10335E00C9F302C0CAF303C0CBF300C019F401C015
:10336E001AF402C01BF403C01CF4C10E04011D6F3D
:10337E00030E1E6F040E1F6F45EC0CF0C10E196F7D
:10338E00030E1A6F15EC0FF00DC400F00EC401F011
:10339E00B7EC0FF009C404F00AC405F00BC406F034
:1033AE000CC407F0C2EC04F000C004F001C005F03C
:1033BE0002C006F003C007F0BDC300F0BEC301F0AB
:1033CE00BFC302F0C0C303F003EC04F0000ED8B08C
:1033DE00010E006E005229E10DC400F00EC401F082
:1033EE00B7EC0FF000C004F001C005F002C006F00B
:1033FE0003C007F009C400F00AC401F00BC402F0C8
:10340E000CC403F098EC0FF0BDC304F0BEC305F07E
:10341E00BFC306F0C0C307F003EC04F0000ED8B033
:10342E00010E006E005201E147D0460E196F0F0ECD
:10343E001A6F590E1B6F1E0E1C6F1D6BA7EC0BF037
:10344E00CC0E2B6F030E2C6FC10E2D6F030E2E6F35
:10345E006AEC04F05F0E196F020E1A6F0A0E1B6FE4
:10346E00000E1C6F0F0E1D6F000E1E6FCBEC0EF0BC
:10347E00C10E196F030E1A6F460E1B6F000E1C6FD6
:10348E000F0E1D6F000E1E6FCBEC0EF0290E196F76
:10349E00020E1A6F5A0E1B6F000E1C6F0F0E1D6F51
:1034AE00000E1E6FCBEC0EF0BDC309F4BEC30AF4C2
:0A34BE00BFC30BF4C0C30CF41200EE
:1034C800E3EC21F0970E03018D6F010E8E6FDA0E7B
:1034D8008F6F000E906F3B0E7E6F000E7F6F4E0E4B
:1034E800806F000E816F150E7A6F000E7B6F280EAD
:1034F8007C6F000E7D6F060ED36F000ED46FB886FA
:10350800020EB06E080EAF6EAC8482EC16F0030E9D
:103518000B6E8A0E0C6E550E0D6E0D2EFED70C2EF0
:10352800FCD70B2EFAD700000000610E0401196FBA
:10353800000E1A6F9CEC0FF00A0E2B6FE4EC07F0EC
:103548000D0E04012B6FE4EC07F0C30E0401196F94
:10355800000E1A6F9CEC0FF00A0E2B6FE4EC07F0CC
:103568000D0E04012B6FE4EC07F00301826B836BF3
:10357800846B856B866B876B886B896B0B0EC112AE
:10358800070EB4127F0E926E800E946EF00E956E3A
:10359800966A816A826A836A846AAEEC16F00401CC
:1035A8000F6B92EC10F0040E076F000E086F010EFF
:1035B80003018A6F000E8B6FF86BF96B916B926B3E
:1035C800010EEA6F000EEB6F2DD08DC309F48EC388
:1035D8000AF433EC16F04DDD4AD08FC309F490C3DA
:1035E8000AF433EC16F043D07EC309F47FC30AF41F
:1035F80033EC16F03CD080C309F481C30AF433ECF1
:1036080016F035D07AC309F47BC30AF433EC16F00C
:1036180072DE2DD07CC309F47DC30AF433EC16F0B6
:103628000FDD25D00401000E081902E1000E07196C
:10363800CCE0000E081902E1010E0719CEE0000ED9
:10364800081902E1020E0719CFE0000E081902E17D
:10365800030E0719D0E0000E081902E1040E07193D
:10366800D1E0000E081902E1050E0719D3E013ECAA
:1036780014F0DCEC16F082A40ED00C0E04012B6FB3
:10368800E4EC07F0900E0401196F000E1A6F9CEC21
:103698000FF079DCF0D703019151921102E073DC4D
:0636A800FAD792D7FFD70C
:1043C60010EE15F0650E006E040E016E610EF66EAF
:0E43D600400EF76E000EF86E7AEC16F0120034
:1036AE00000020007F000B00018801000193010043
:1036BE00039E010007A9010005B4010009BF010026
:1036CE0006D5010001E0010003EB010002F6010046
:1036DE0005010200060C020002170200022202007F
:1036EE00022D02000338020004430200044E0200C1
:1036FE000459020004640200056F0200047A0200FD
:10370E000485020004900200049B020004A602003D
:10371E0002B1020002BC020006C7020006D202007D
:10372E0006DD020004E8020007F3020006FE0200B6
:10373E000509030006140300061F0300052A0300F3
:10374E000535030006400300064B03000356030035
:10375E0003610300056C0300047703000782030076
:10376E00068D03000798030005A3030007AE0300B0
:10377E0005B9030005C4030005CF030006DA0300F4
:10378E0006E5030007F0030004FB03000506040032
:10379E0004110400021C040003270400023204007A
:1037AE00053D04000548040003530400045E0400B4
:1037BE000469040003740400047F0400048A0400F6
:1037CE000395040004A0040004AB040001B6040039
:1037DE0002C1040004CC040001D7040007E2040077
:1037EE0004ED040004F8040004030500040E0500B3
:1037FE000319050003240500022F0500043A0500F5
:10380E000545050007500500035B0500056605002C
:10381E0003710500037C0500028705000392050075
:10382E00069D050002A80500000000000000000033
:10383E00000000000001010101010001000000056F
:10384E00050500000000000000000024247E143F47
:10385E00121200000000041E05060C140F040400D2
:10386E00000000460029002900D60028012801C4C6
:10387E0000000000000000060909160919260000C4
:10388E00000101010000000000000000040201011F
:10389E000101010102040000010202020202020102
:1038AE000004150E150400000000000000000008C2
:1038BE00083E0808000000000000000000000202A0
:1038CE0001000000000000000300000000000000E6
:1038DE0000000000020200000004040202020202C4
:1038EE00010100000006090909090906000000008F
:1038FE000406040404040E00000000070808040275
:10390E00010F000000000708080608080700000065
:10391E0000080C0A091F0808000000000F0101072B
:10392E00080807000000000601010709090600004B
:10393E0000000F080404020201000000000609093D
:10394E0006090906000000000609090E080806000F
:10395E000000000000020200020200000000000051
:10396E000202000202010000000000201C021C20C6
:10397E00000000000000003F003F000000000000BB
:10398E0000021C201C0200000000070808040200B0
:10399E0002000000001C2259555539021C0000007F
:1039AE000C0C12123F2121000000000709090F1113
:1039BE00110F000000001C22010101221C0000005A
:1039CE00000F11212121110F000000001F01010F16
:1039DE0001011F000000001F01010F010101000085
:1039EE0000001C22013921223C000000002121216F
:1039FE003F212121000000000702020202020700FF
:103A0E000000000604040404040300000000110971
:103A1E000503050911000000000101010101010F5C
:103A2E000000000063635555494941000000002124
:103A3E00232529312121000000001C224141412271
:103A4E001C000000000F1111110F010100000000F9
:103A5E001C22414141221C106000000F11110F0564
:103A6E000911000000001E01010E10100F000000D1
:103A7E00001F04040404040400000000212121217D
:103A8E0021211E0000000021212112120C0C000029
:103A9E00000049495555552222000000000909062B
:103AAE000606090900000000110A0A0404040400B5
:103ABE000000000F08040202010F000000030101C4
:103ACE0001010101010103000101020202020204CF
:103ADE0004000003020202020202020203000004BA
:103AEE000A110000000000000000000000000000AD
:103AFE0000001F0002040000000000000000000093
:103B0E00000006080E090E00000001010107090958
:103B1E000907000000000000060101010600000078
:103B2E000808080E0909090E000000000000060929
:103B3E000F010E0000000601010701010101000046
:103B4E00000000000E0909090E0806000101010718
:103B5E00090909090000000001000101010101002D
:103B6E000000000200030202020202010001010134
:103B7E000905030509000000010101010101010110
:103B8E0000000000000037494949490000000000CC
:103B9E0000070909090900000000000006090909CB
:103BAE0006000000000000070909090701010000D6
:103BBE0000000E0909090E080800000000050301A7
:103BCE0001010000000000000701020407000000D0
:103BDE0000000103010101020000000000000909BC
:103BEE0009090E000000000000110A0A0A04000074
:103BFE000000000049495536220000000000000573
:103C0E0002020205000000000000110A0A0A040464
:103C1E000200000000070402010700000004020277
:103C2E000202010202020400020202020202020267
:103C3E00020200010202020204020202010000005E
:103C4E000000261900000000000000030303030318
:033C5E0000000063
:103C61000000000000000000000000000000000053
:103C71000000000000000000000000000000000043
:103C81000000000000000000000000000000000033
:103C91000000000000000000000000000000000023
:103CA1000000000000000000000000000000000013
:103CB1000000000000000000000000000000000003
:103CC10000000000000000000000000000000000F3
:103CD10000000000000000000000000000000000E3
:103CE10000000000000000000000000000000000D3
:103CF10000000000000000000000000000000000C3
:103D010000000000000000000000000000000000B2
:103D110000000000000000000000000000000000A2
:103D21000000000000000000000000000000000092
:103D31000000000000000000000000000000000082
:103D41000000000000000000000000000000000072
:103D51000000000000000000000000000000000062
:103D61000000000000808080808080808000000052
:103D710080808000000000808080000000808080C2
:103D810080808080800000000080808080808000B2
:103D91000000000000000080808080808000000022
:103DA1000080A0B89898B0A08000000080808000BA
:103DB1000000000080800000000000008080808002
:103DC10000000000008080808080808080000000F2
:103DD10000000080808080000000000000000000E2
:103DE1000000000000FFFFFF3131313131000000E0
:103DF100FFFF073FF0F01F07FFFF000000FFFFFF7D
:103E0100313131313100000000FFFF6161E1F3BF69
:103E11001F000000FCFE070301313131F1F3000006
:103E210000FFFFFF3131313131000000FFFF0F1F73
:103E31007CF0C080FFFF0000F8FEFF0303010101D9
:103E41000100000000010101FFFF0101010000006C
:103E510000E0FC9F8387BFFCE00000000000000041
:103E610000000000000F0F0F0C0C0C0C0C000000E8
:103E71000F0F0000000000000F0F0000000F0F0FD8
:103E81000C0C0C0C0C000000000F0F000000030FC5
:103E91000E0800000107070E0C0C0C0C0F070000A8
:103EA100000F0F0F0C0C0C0C0C0000000F0F00008A
:103EB1000001070F0F0F00000103070E0C0C0C0C83
:103EC10006000000000C0C0C0F0F0C0C0C0000087D
:103ED1000F0F0101010101030F0F0000000000009D
:103EE10000000000000000000000000000000000D1
:103EF10000000000000000000000000000000000C1
:103F010000000000000000000000000000000000B0
:103F110000000000000000000000000000000000A0
:103F21000000000000000000000000000000000090
:103F31000000000000000000000000000000000080
:103F41000000000000000000000000000000000070
:103F51000000000000000000000000000000000060
:103F61000000000000000000000000000000000050
:103F71000000000000000000000000000000000040
:103F81000000000000000000000000000000000030
:103F91000000000000000000000000000000000020
:103FA1000000000000000000000000000000000010
:103FB1000000000000000000000000000000000000
:103FC10000000000000000000000000000000000F0
:103FD10000000000000000000000000000000000E0
:103FE10000000000000000000000000000000000D0
:103FF10000000000000000000000000000000000C0
:1040010000000000000000000000000000000000AF
:10401100000000000000000000000000000000009F
:10402100000000000000000000000000000000008F
:10403100000000000000000000000000000000007F
:10404100000000000000000000000000000000006F
:10405100000000000000000000000000000000005F
:104061002034202D2054656D706572617475726104
:034071002020000C
:1040740035202D2054656E73616F20426174657222
:034084006961006F
:104087002032202D20436F7272656E746520526551
:034097006465005D
:10409A00202033202D204672657175656E63696133
:0340AA00202000D3
:0640AD00537461727400FF
:1040B300536F6C7465206F20626F74616F20646549
:1040C30020656D657267656E6369612070617261F9
:0940D300207265736574617200CE
:1040DC004D4F444F20444520454D455247454E4396
:0B40EC004941204154495641444F0017
:0540F7005245444500A4
:1040FC0050726F6E746F2070617261206F70657298
:03410C00617200DD
:10410F005072657373696F6E6520482070617261BC
:07411F0020616A7564610074
:104126002031202D2054656E73616F2052656465C1
:0341360020200046
:0F41390047657261646F72204C696761646F0043
:0C41480052656465204C69676164610089
:104154005061726120726573657461722C20707293
:10416400657373696F6E65206F20626F74616F2071
:10417400646520656D657267656E636961206C6F47
:0441840063616C0007
:104188004551554950414D454E544F20454D204DC0
:0F4198004F444F20454D455247454E4349410046
:0941A700457371756572646100D5
:1041B0004361726761204465736C69676164610083
:1041C00065207369676120617320696E747275631D
:1041D0006F657320646F207465726D696E616C0029
:0341E00020560066
:1041E30020202030202D205072696E636970616C2D
:0341F30020200089
:1041F6004D4F444F20454D455247454E434941207A
:1042060053D320504F4445205345522044455341F3
:1042160054495641444F204C4F43414C4D454E5412
:02422600450051
:0A422800426174657269613A20007A
:0242320030005A
:044234004E614E0089
:04423800494E4600A5
:01423C000081
:01423D003050
:05423E0052454445005B
:04424300474D47009C
:04424700474D470098
:04424B004F46460094
:04424F00474D470090
:044253004F4646008C
:044257004F46460088
:05425B0052454445003E
:1042600061202D20417469766120456D6572676516
:054270006E63696100AE
:03427500432000E3
:0B42780048202D20566F6C746172000E
:1042830073202D2044657361746976617220456DD6
:10429300657267656E6369612028536F6D656E741F
:0842A3006520496E666F2900D9
:0E42AB0054656D70657261747572613A200021
:0A42B900426174657269613A2000E9
:0342C30056200082
:0F42C6004C202D204C696D70612074656C610077
:1042D50072202D2054656E73616F20426174657282
:0342E5006961000C
:1042E80077202D204D656E75205472616E7366655A
:0742F80072656E636961004D
:1042FF0065202D204D656E7520456D657267656E65
:04430F00636961007D
:1043130063202D204C6967612047657261646F7269
:014323000099
:0E4324007A202D204C69676120526564650087
:1043320078202D204465736C696761206361726720
:02434200610018
:0D434400474D4720656D2063617267610081
:104351004361726761204465736C696761646100E0
:0E4361005265646520656D20636172676100BE
:0E436F004465736C6967612043617267610089
:0B437D004175746F6D617469636F001F
:054388005265646500B0
:0A438D00506172617220474D470035
:0843970047657261646F72005A
:07439F00626F74616F3A00C8
:0B43A60050617274697220474D47009F
:0843B100446972656974610042
:0643B900526573657400FB
:0743BF004D616E75616C0099
:020000040030CA
:0E000000044C1F1EFF0380FF0FC00FE00F40D7
:00000001FF
