:1000000030EF17F00000000000EF00F000000000EB
:0A0010000000000000000000F3D71C
:0C001C00100E0D6E0D2EFED7000012001D
:0C002800000000000000000000001200BA
:0A003400F3DF8188F1DF81981200EC
:10003E0081948196B80E0101FE11836EF4DF1200D9
:08004E000AAE029E000E120032
:100056007F0E0101FE15016E01C0FEF101AC03D059
:0C0066008182819002D081928180120082
:10007200F250026EF29E0500FF6A0150FE6E0050C1
:08008200FD6E02BEF28E1200B9
:10008A000B820BAE4FEF00F003680268016800684C
:08009A000A360232FF0E1200CB
:1000A2000B840BAE5CEF00F0010E036E026A016A74
:0A00B200006A0A360232FF0E120047
:1000BC00120E006E000E016E830E0024E16E0F0E08
:1000CC000120E26EFF0EE66EA9DFA8DF8184819825
:1000DC00818681889DDF83CFFEF1819881969EDF9A
:1000EC009DDF120E006E000E016E830E0024E16E79
:0E00FC000F0E0120E26EE66AFEC100F0120057
:10010A007F0E0101FE15006E00C0FEF181948196FA
:10011A00BF0E001600C0FEF1008C00C0FEF100C048
:06012A0083FF83DF1200D9
:0E013000819881848196FEC183FF7CDF1200DE
:0E013E00026A016A006A086A036A000E120073
:10014C000B6A0A6A096A00500402F4CF09F0F3CF73
:10015C0008F001500502F4CF0BF0F3CF0AF0005079
:10016C000502F3500926F4500A22E86A0B220150CA
:10017C000402F3500926F4500A22E86A0B2208C044
:10018C0000F009C001F00AC002F00BC003F012002D
:08019C000B6A0B86FF0E120036
:1001A400530E0101FC6F010EFD6F000E006EF55140
:1001B400005C02E1F451000843E26DC1E1FF6EC14D
:1001C400E2FFF0C1E6FFF1C1E6FFF2C1E6FFF3C1D1
:1001D400E6FFF4C1E6FFF5C1E6FFF80EE66E010E98
:1001E400E66E6BC100F06CC101F041DF00C0FAF1B2
:1001F40001C0FBF10101F66BF76BF951F75D02E108
:10020400F851F65D11E2FAC1E9FFFBC1EAFFFCC156
:10021400E1FFFDC1E2FFEECFE6FFFC4BFD2BFA4B05
:10022400FB2BF64BF72BE9D7F851F45FF951F55B4B
:10023400F851F027F951F123000EF223F323B5D737
:020244001200A6
:100246000C6A0E6A0250D8A43CEF01F001C002F01D
:1002560000C001F0006A0E860250D8A43CEF01F0FF
:1002660001C002F0016A0E960E880250D8B44EEF15
:1002760001F00E50035ED8A4D8A053EF01F0D89039
:1002860002BE58EF01F0003601360236032E43EF68
:1002960001F053EF01F0010E0C6E4EDF5BEF01F043
:1002A600020E0C6EFBDE5BEF01F0040E0C6ECCDE74
:0202B600120034
:1002B8000B800BAE68EF01F0026A0AAEFF0E026E09
:0C02C800016E006E0A360232FF0E1200BA
:0C02D400240E0D6E0D2EFED7000012004F
:1002E0000CB0B2EF01F00CA258EF02F00E6A000E53
:1002F0000264C9EF01F0F00E0214D8A494EF01F0EB
:10030000023A01380F0B02260138F00B016E00385B
:100310000F0B01260038F00B006E08380F0B00267B
:100320000838F00B086E0E84D89002BEADEF01F0D5
:1003300008360036013602360E2A02BEADEF01F055
:1003400008360036013602360E2A02BEADEF01F045
:1003500008360036013602360E2A0E5003644EEF80
:1003600002F0035E0BBC08AE53EF02F0D880800EA3
:1003700008640030000E002201220222D8A053EFB0
:1003800002F0023201320032034A58EF02F053EF1A
:1003900002F001C002F000C001F008C000F0086ADD
:1003A000000E0E86026400EF02F0F00E0214D8A4D4
:1003B000E8EF01F0023A01380F0B02260138F00B8A
:1003C000016E00380F0B01260038F00B006E0E8412
:1003D000D89002BEADEF01F00036013602360E2A8B
:1003E00002BEADEF01F00036013602360E2A02BE23
:1003F000ADEF01F00036013602360E2AADEF01F006
:1004000001C002F000C001F0006A000E0E960E88D6
:1004100002642DEF02F0F00E0214D8A418EF02F0DF
:10042000023A01380F0B02260138F00B016E0E84E0
:10043000D89002BEADEF01F0013602360E2A02BEA0
:10044000ADEF01F0013602360E2A02BEADEF01F02B
:10045000013602360E2AADEF01F001C002F0016A4A
:10046000000E0E8602645DEF02F0F00E0214D8A4B6
:100470003CEF02F0023A0E84D89002BEADEF01F0DC
:1004800002360E2A02BEADEF01F002360E2A02BE7F
:10049000ADEF01F002360E2AADEF01F0010E0C6E49
:1004A00000DE60EF02F0020E0C6ED1DD60EF02F0B4
:1004B000040E0C6EEADD60EF02F0080E0C6E3FDEFB
:0204C000120028
:1004C200F0C164F1F1C165F1F2C166F1020E010100
:1004D200F025F66E000EF121F76E000EF221F86E95
:1004E2000900F5CF04F0030EF025F66E000EF1219F
:1004F200F76E000EF221F86E0900F5CF03F003C08B
:1005020001F0006A045000245B6F000E01205C6F52
:10051200040EF025F66E000EF121F76E000EF221A8
:10052200F86E0900F5CF04F0050EF025F66E000E08
:10053200F121F76E000EF221F86E0900F5CF03F0FB
:1005420003C001F0006A045000244D6F000E012028
:100552004E6F060EF025F66E000EF121F76E000EBC
:10056200F221F86E0900F5CF69F1000E6A6FF3C14E
:1005720067F1000E686FF4C16FF1010E0001CF6FD9
:0805820001015D6B5E6B1200CC
:10058A00000E0101F05D0AE3F0517F0807E3000E57
:10059A00F15D04E3F1513F0801E301D04AD0F0C113
:1005AA00FEF154DDF1C1FEF1FE33FE9FFE33FE9FE4
:1005BA00FE33FE9F3FDDF0C1FEF1A2DD7ADD00C011
:1005CA00F5F177DD00C0F5F1F1C1FEF1FE33FE9FD2
:1005DA00FE33FE9FFE33FE9F2DDDF0C1FEF190DD5E
:1005EA00070EF115006E00C0F3F100C001F0010E14
:1005FA00006E015004E000360090FF0FFBD700C0E8
:10060A00F3F1001CF46F09D0F451F5170FD0F35130
:10061A00F5130CD0F351F51B09D0F251000AF4E09E
:10062A00F251010AF4E0F251020AF4E0F5C1FEF1D6
:04063A007ADD120053
:10063E00D6C104F0D7C105F004C002F005C003F026
:10064E00044A052AD8C100F0D9C101F00101D84BE6
:10065E00D92B00C0E9FF01C0EAFF02C0E1FF03C0D1
:10066E00E2FFEECFE6FF02C0E9FF03C0EAFFEE5263
:0E067E0001E0E2D7D6C100F0D7C101F01200B2
:10068C00D6C15FF1D7C160F1D8C161F1D9C162F1B6
:02069C0012004A
:10069E000A6A0350D8A40A800750D8A40A820A50C6
:1006AE00D8B4B2EF03F0030AD8B46BEF03F00AB07C
:1006BE0066EF03F006AEB0EF03F0AEEF03F002AE5E
:1006CE00AEEF03F0B0EF03F00250800B0A6E029E05
:1006DE000650800B069E0A18D8B47CEF03F00A5021
:1006EE00D8B4AEEF03F0B0EF03F00750035CD8B40C
:1006FE0086EF03F0D8A0A2EF03F0A8EF03F00650A8
:10070E00025CD8B490EF03F0D8A0A2EF03F0A8EFEC
:10071E0003F00550015CD8B49AEF03F0D8A0A2EF15
:10072E0003F0A8EF03F00450005CD8B4B2EF03F06E
:10073E00D8B0A8EF03F00A52D8B4B0EF03F0AEEF82
:10074E0003F00A52D8B4AEEF03F0B0EF03F0D88046
:0E075E001200D8901200D880D8841200120029
:10076C00000E0101D85D04E3D8513F0801E301D02C
:10077C0027D0000ED65DD8A0D66BD6517F0802E2EA
:10078C007F0ED66F000ED75DD8A0D76BD7517F08E0
:10079C0002E27F0ED76FD651D75D06E2D6C1DAF1F1
:1007AC00D7C1D6F1DAC1D7F1D651D75D09E3D6C19D
:1007BC00F0F1D8C1F1F1D9C1F2F1E1DED62BF4D7C9
:0207CC00120019
:1007CE000D6A086A0050D8B4000C04180A6E0ABEEE
:1007DE000D1E0B6A04AE02D0041E042A00AE02D017
:1007EE00001E002A005004100A6E0ABE1FD00450CC
:1007FE00085E003600340836045008260036060E11
:10080E000C6E00340836045000B0085E00A00826B6
:10081E0000360C2EF6D700A008260BB015D00DAE64
:10082E00000C001E002A081E082A000C04AE09D077
:10083E0000BE04D00050086E006AF1D7006A002A8C
:10084E00000C001E0B2AD3D7082A0450085CD8A42B
:0E085E00E6D7086A002A00AEE2D7FF0C1200AF
:10086C000450000A12E10550000A0FE10650000A7C
:10087C000CE10750000A09E1FF0E006EFF0E016E3D
:10088C007F0E026EFF0E036EA8D0086A096A07502D
:10089C00D8B4E1EF04F00350D8B4E6EF04F0025002
:1008AC0006180A6E028E068E0E6A02C008F001C08F
:1008BC000CF000C00DF004500D5E0550D8A0053CA6
:1008CC000C5E0650D8A0063C085E086A0C6A0D6ADD
:1008DC00D8A078EF04F0D8900232013200320832FE
:1008EC00010E0E6E0750035ED8A085EF04F07E0E4D
:1008FC000E240326D8B0EBEF04F08BEF04F07E0E41
:10090C000E240326D8A0F0EF04F0180E0B6E0D3653
:10091C000C3608360036013602360E360450005EB0
:10092C000550D8A0053C015E0650D8A0063C025EDE
:10093C0006340E120EA0A6EF04F00D80B1EF04F0F9
:10094C00045000260550D8B0053C01260650D8B0FE
:10095C00062802260D900B2E8DEF04F0D7EF04F035
:10096C00D8900036013602360E360450005E055023
:10097C00D8A0053C015E0650D8A0063C025E0634A9
:10098C000E10010B0D26D8B00C2AD8B4082AD8A406
:10099C00D7EF04F008320C320D32032AD8B4EBEF47
:1009AC0004F00AAE089E0850026E0C50016E0D50F9
:1009BC00006EF3EF04F0010ECEEC00F0F3EF04F058
:1009CC00020E9FEC00F0F3EF04F0040E45EC00F087
:0C09DC00F3EF04F0080E51EC00F01200E4
:1009E800C26A0101001D006E0050C116070EC01238
:1009F800C08ED6C100F0003600900036009000503E
:100A0800C212C28063DCC282C2A201D0FDD7C4CFA9
:100A180001F0006AC3500012000E0112C2901200C9
:100A28000050086E0150006E016A026A036A0B6A80
:100A38000C6A960E036E0A6A00C001F008C000F046
:0A0A4800086A026A23EC01F01200B4
:100A5200025006180E6E086A096A0B6A0350076490
:100A62001CEF06F006500A6E068E028E03500B6EC5
:100A72000750036E000E0B646CEF05F00B50075E1F
:100A8200D8B40DEF06F0070E0764DBEF05F0075E42
:100A920000C008F001C000F002C001F0026A074E77
:100AA2000DEF06F00764B0EF05F0075E00C008F036
:100AB20001C000F0016A074E0DEF06F007648EEFE9
:100AC20005F0075E00C008F0006A074E0DEF06F061
:100AD200076475EF05F00AC002F005C001F004C01A
:100AE20000F0086A39EF07F0030E076480EF05F0A3
:100AF200075E08380F0B086E074E0DEF06F0D89010
:100B02000832074E0DEF06F0D8900832074E0DEF6F
:100B120006F0D89008320DEF06F0030E07649FEF3F
:100B220005F0075E08380F0B086E0038F00B082638
:100B320000380F0B006E074E0DEF06F0D890003212
:100B42000832074E0DEF06F0D89000320832074EF9
:100B52000DEF06F0D890003208320DEF06F0030ECA
:100B62000764C7EF05F0075E08380F0B086E003800
:100B7200F00B082600380F0B006E0138F00B002630
:100B820001380F0B016E074E0DEF06F0D8900132BF
:100B920000320832074E0DEF06F0D89001320032D3
:100BA2000832074E0DEF06F0D890013200320832BB
:100BB2000DEF06F0030E0764F8EF05F0075E083844
:100BC2000F0B086E0038F00B082600380F0B006E72
:100BD2000138F00B002601380F0B016E0238F00BC2
:100BE200012602380F0B026E074E0DEF06F0D89069
:100BF2000232013200320832074E0DEF06F0D89071
:100C02000232013200320832074E0DEF06F0D89060
:100C12000232013200320832096A000E0EAE01EFD2
:100C220007F0081E001E011E021E082A00220122D1
:100C3200022201EF07F00750D8A422EF06F039EFA5
:100C420007F0096A02C00AF0028E068E0750035CA2
:100C5200076ED8B4F4EF06F0070E0764C2EF06F091
:100C6200075E0450096E0550046E0650056E066A52
:100C7200074EF4EF06F0070E076497EF06F0075EE3
:100C82000450096E0550046E056A074EF4EF06F033
:100C9200070E076475EF06F0075E0450096E046ADA
:100CA200074EF4EF06F0070E07645CEF06F00AC089
:100CB20002F039EF07F0030E076467EF06F0075EF4
:100CC20009380F0B096E074EF4EF06F0D89009327F
:100CD200074EF4EF06F0D8900932074EF4EF06F013
:100CE200D8900932F4EF06F0030E076486EF06F09F
:100CF200075E09380F0B096E0438F00B0926043819
:100D02000F0B046E074EF4EF06F0D890043209324E
:100D1200074EF4EF06F0D89004320932074EF4EF92
:100D220006F0D89004320932F4EF06F0030E07649D
:100D3200AEEF06F0075E09380F0B096E0438F00BB0
:100D4200092604380F0B046E0538F00B042605380B
:100D52000F0B056E074EF4EF06F0D8900532043201
:100D62000932074EF4EF06F0D89005320432093208
:100D7200074EF4EF06F0D890053204320932F4EF50
:100D820006F0030E0764DFEF06F0075E09380F0B6B
:100D9200096E0438F00B092604380F0B046E05386F
:100DA200F00B042605380F0B056E0638F00B0526EE
:100DB20006380F0B066E074EF4EF06F0D890063297
:100DC200053204320932074EF4EF06F0D8900632AB
:100DD200053204320932074EF4EF06F0D89006329B
:100DE200053204320932086A000E0EAE01EF07F036
:100DF200091E041E051E061E092A042205220622B9
:100E020009500826045000220550012206500222F1
:100E12000EBE18EF07F0D8A027EF07F0023201321A
:100E220000320832033E27EF07F033EF07F0D8B065
:100E32002DEF07F0000E081E001E011E021E082ADA
:100E42000022012202220A7E2DEF07F0010E0C6E13
:100E520070EC01F03BEF07F0020E0C6E70EC01F04B
:100E62003BEF07F0040E0C6E45EC00F03BEF07F091
:060E7200000E0C6E1200E0
:100E78000101DE6BDF6BE06B0001CF51000A0FE16F
:100E8800A60E0101F06F2F0EF16F000EF26F010E2A
:100E9800F36FF46B61EC02F0010E0001CF6F000EEE
:100EA800006E01015C51005C02E15B51D65D01E21C
:100EB800E8D0000E4E5D02E1D6514D5D01E2E1D071
:100EC8005B51D65D016E5CC102F0000E025601C096
:100ED80003F002C004F0033603900436033603908F
:100EE8000436080E6425006E000E6521016E000EA2
:100EF8006621026E000E056E005003260150042282
:100F08000250052203C0F6FF04C0F7FF05C0F8FF32
:100F18000900F5CFDEF1010E0324F66E000E042061
:100F2800F76E000E0520F86E0900F5CF00F000C03E
:100F380006F0000E076E086E096E020E0324F66EA8
:100F4800000E0420F76E000E0520F86E0900F5CF9C
:100F580003F003C001F0006A000E026E036E065033
:100F6800002607500122085002220950032264512A
:100F78000024DB6F65510120DC6F66510220DD6FB4
:100F88006F51000A40E161C1D9F1D86B000E006EC3
:100F98006A51005C02E16951D85D2EE25FC1DFF160
:100FA800DA6BD76BDE51D75D24E2DA51000A10E123
:100FB800DBC1F6FFDCC1F7FFDDC1F8FF0900F5CFA3
:100FC800E0F1010EDB27000EDC23DD23010EDA6FD2
:100FD800DA51E015006E08E0DFC1F0F1D9C1F1F196
:100FE80067C1F2F1C5EC02F0DF2BDA37DA91D72BC3
:100FF800D9D7D92BD82BCAD7DF51010F5F6F606BB8
:10100800000E60233ED05FC1D9F1D86B000E006E90
:101018006A51005C02E16951D85D2EE261C1DFF1DD
:10102800DA6BD76BDE51D75D24E2DA51000A10E1A2
:10103800DBC1F6FFDCC1F7FFDDC1F8FF0900F5CF22
:10104800E0F1010EDB27000EDC23DD23010EDA6F51
:10105800DA51E015006E08E0D9C1F0F1DFC1F1F115
:1010680067C1F2F1C5EC02F0DF07DA37DA91D72B66
:10107800D9D7D92BD82BCAD7DF05616F626B000E81
:04108800625B120095
:10108C000101EB6BEC6BED6BEE6B5C51D75D02E130
:10109C005B51D65D01E2BBD1D7514E5D02E1D65119
:1010AC004D5D01E2B4D15B51D65D036E5C51D759F5
:1010BC00046E03C000F004C001F00036009001364D
:1010CC00003600900136080E4F25F06F000E5021AF
:1010DC00F16F000E5121F26F000E5221F36F005090
:1010EC00F0270150F123000EF223F323040EF46FCA
:1010FC00000EF56FD2EC00F0530EE96F010EEA6FA3
:10110C00E9C1E9FFEAC1EAFFEECFEFF1EFC1EBF184
:10111C00010EE925E96E000EEA21EA6EEECF04F02D
:10112C00000E056E066E076E020EE925E96E000EC6
:10113C00EA21EA6EEECF03F003C001F0006A000E64
:10114C00026E036E04500026055001220650022246
:10115C000750032200504F25DD6F01505021DE6FE8
:10116C0002505121DF6F03505221E06FEFC100F0AC
:10117C000032009E0032009E0032009E000E016E76
:10118C0069C104F06AC105F0A6EC00F000C0E3F1FF
:10119C0001C0E4F1070EEF15006E04E06951E3277E
:1011AC006A51E423E3C1E7F1E4C1E8F16DC1E1FF69
:1011BC006EC1E2FFDDC1E6FFDEC1E6FFDFC1E6FF87
:1011CC00E0C1E6FFE3C1E6FFE4C1E6FFE10EE66E37
:1011DC00010EE66E6BC100F06CC101F039EC00F051
:1011EC0000C0E9F101C0EAF10101E151DD27E25152
:1011FC00DE23000EDF23E023E151E35FE251E45BE9
:10120C00E56BE66B6F51000AD8A480D061C1DAF1AE
:10121C0062C1DBF1D96B000E006E6A51005C02E119
:10122C006951D95D6CE25FC1ECF160C1EDF1DC6B31
:10123C00D86BEB51D85D5FE2DC51000A4AE1E54B1B
:10124C00E62BE851E25D02E1E751E15D38E2E6515F
:10125C00E25D02E1E551E15D32E2010EE56F000E67
:10126C00E66F6DC1E1FF6EC1E2FFDDC1E6FFDEC1DD
:10127C00E6FFDFC1E6FFE0C1E6FFE3C1E6FFE4C144
:10128C00E6FFE10EE66E010EE66E6BC100F06CC17E
:10129C0001F039EC00F000C0E9F101C0EAF1E3C162
:1012AC00E7F1E4C1E8F10101E151DD27E251DE2370
:1012BC00000EDF23E023E151E35FE251E45BE9C17F
:1012CC00E9FFEAC1EAFFEECFEEF1E94BEA2B010EA2
:1012DC00DC6FDC51EE15006E08E0ECC1F0F1DAC108
:1012EC00F1F167C1F2F1C5EC02F0EC4BED2BDC3700
:1012FC00DC91D82B9ED7DA4BDB2BD92B8CD7010E5C
:10130C00EC255F6F000EED21606F81D05FC1DAF1CB
:10131C0060C1DBF1D96B000E006E6A51005C02E11A
:10132C006951D95D6EE261C1ECF162C1EDF1DC6B2A
:10133C00D86BEB51D85D61E2DC51000A4AE1E54B18
:10134C00E62BE851E25D02E1E751E15D38E2E6515E
:10135C00E25D02E1E551E15D32E2010EE56F000E66
:10136C00E66F6DC1E1FF6EC1E2FFDDC1E6FFDEC1DC
:10137C00E6FFDFC1E6FFE0C1E6FFE3C1E6FFE4C143
:10138C00E6FFE10EE66E010EE66E6BC100F06CC17D
:10139C0001F039EC00F000C0E9F101C0EAF1E3C161
:1013AC00E7F1E4C1E8F10101E151DD27E251DE236F
:1013BC00000EDF23E023E151E35FE251E45BE9C17E
:1013CC00E9FFEAC1EAFFEECFEEF1E94BEA2B010EA1
:1013DC00DC6FDC51EE15006E08E0DAC1F0F1ECC107
:1013EC00F1F167C1F2F1C5EC02F0010EEC5F000EF9
:1013FC00ED5BDC37DC91D82B9CD7DA4BDB2BD92B74
:10140C008AD7010EEC5D616F000EED59626F120010
:10141C000B6A0C6A086A0350D8B492EF0AF002C047
:10142C000AF0028E9E0E035E03AE82EF0AF0036C8E
:10143C00080E035CD8A04FEF0AF0036E083600C00C
:10144C0008F001C000F002C001F0026A080E035C53
:10145C00D8A04FEF0AF0036E083600C008F001C0A8
:10146C0000F0016A080E035CD8A04FEF0AF0036E7F
:10147C00083600C008F0006A080E035CD8A04FEFD5
:10148C000AF0036E0836086A0350D8A4D8905BEFB4
:10149C000AF00350D8B45BEF0AF0D8900232013254
:1014AC0000320832032E53EF0AF00BBC08A06CEF8D
:1014BC000AF0D8A06CEF0AF0082AD8B4002AD8B4E5
:1014CC00012AD8B4022A02BE96EF0AF00AAE92EFB5
:1014DC000AF0021E011E001E081E082AD8B4002A9B
:1014EC00D8B4012AD8B4022A92EF0AF0026A016A2F
:1014FC00006A086A92EF0AF00B800BAE9DEF0AF0BF
:10150C00026A0AAE9DEF0AF0026E016E006E086E62
:10151C000A3602329DEF0AF00C6A000E9EEF0AF0BA
:10152C00010E0C6E000E5CEC01F09EEF0AF0FF0E4B
:10153C000250036E0150026E0050016E0850006E96
:02154C0012008B
:10154E00086A096A000E076203642CEF0BF0025062
:10155E0006180A6E075003267E0ED8A0BDEF0AF0BD
:10156E00035ED8B031EF0BF0C1EF0AF0035ED8A0E6
:10157E0036EF0BF0028E068E02C00EF001C00BF09D
:10158E0000C00DF000500402F4CF0CF00150050223
:10159E00F4CF00F0F3CF08F00402F3500C26F45011
:1015AE000822000E00220D500502F3500C26F450B6
:1015BE000822000E002202500402F3500826F450B6
:1015CE00002202500502016A000E0122F35000268D
:1015DE00F45001220D500602F3500826F45000225A
:1015EE00026A000E012202220B500602F350002660
:1015FE00F4500122000E02220E500602F350012674
:10160E00F450022202BE14EF0BF0083600360136FB
:10161E0002360306D8B436EF0BF027EF0BF0D88066
:10162E00800E08640030000E002201220222D8A093
:10163E0027EF0BF0023201320032034A31EF0BF08A
:10164E000AAE029E000E39EF0BF0010E9FEC00F079
:10165E0039EF0BF0020E45EC00F039EF0BF0040EF3
:06166E0051EC00F0120037
:10167400086A096A100E0C6E0134083609360450E3
:10168400085E0550D8A0053C095ED8B007D00450C8
:1016940008260550D8B0053C0926D89000360136F6
:0616A4000C2EEAD7120033
:1016AA00000E0101C65D04E3C6517F0801E301D0C3
:1016BA0028D0000EC45DD8A0C46BC4513F0802E212
:1016CA003F0EC46F000EC55DD8A0C56BC5513F085B
:1016DA0002E23F0EC56FC451C55D06E2C4C1C8F13E
:1016EA00C5C1C4F1C8C1C5F1C451C55D0AE3C6C1CB
:1016FA00F0F1C4C1F1F1C7C1F2F1C5EC02F0C42B9B
:04170A00F3D71200FF
:10170E000101C56BC66BC76BC86BC46B640EC45D41
:10171E0019E2D66BF4EC04F014EC05F0C5C104F03C
:10172E00C6C105F0C7C106F0C8C107F029EC05F027
:10173E0000C0C5F101C0C6F102C0C7F103C0C8F1B7
:10174E00C42BE4D7000E046E000E056E480E066E16
:10175E00850E076EC5C100F0C6C101F0C7C102F00B
:10176E00C8C103F036EC04F0000E046E000E056ED8
:0E177E00200E066E810E076EE3DE49DE1200BD
:10178C000050086E0150006E0250016E0350026E44
:10179C00036A0B6A0C6A9E0E036E0A6A02AEE3EFD2
:1017AC000BF0081E001E011E021E082AD8B4002AC7
:1017BC00D8B4012AD8B4022A0A8E020E0C6E70EC30
:0417CC0001F0120016
:1017D0000101D16BD26BD36BD46BD56BC4C1CDF18E
:1017E000C5C1CEF1C6C1CFF1C7C1D0F1D051FF0AFA
:1017F00008E1CF51FF0A05E1CE51FF0A02E1CD51C8
:10180000FF0A0DE1C8C1D6F1C9C1D7F1F60ED86FF4
:10181000000ED96F1FEC03F0030E006E5CD2010EB8
:10182000CB6FCFAF0FD0800ECF19006E00C0CFF1BD
:10183000CB2BD22BC8C1E1FFC9C1E2FF2D0EE66E52
:10184000C84BC92B000E006ED01908E10050CF190B
:1018500005E10050CE1902E1CD51000A0CE1C8C1EA
:10186000D6F1C9C1D7F1FA0ED86F000ED96F1FECAF
:1018700003F0006A30D2D051FF0A08E1CF51000ACC
:1018800005E1CE51000A02E1CD51000A0DE1C8C1C7
:10189000D6F1C9C1D7F1FC0ED86F000ED96F1FEC7D
:1018A00003F0CBC100F017D2000E046E000E056EDF
:1018B000000E066E7F0E076ECDC100F0CEC101F0A6
:1018C000CFC102F0D0C103F04FEC03F0010ED8B04D
:1018D000000E006E00521BE0CDC100F0CEC101F041
:1018E000CFC102F0D0C103F0000E046E000E056EF1
:1018F000200E066E820E076E2ADE00C0CDF101C0FA
:10190000CEF102C0CFF103C0D0F1D507CDD7000E84
:10191000046E000E056E200E066E820E076ECDC19F
:1019200000F0CEC101F0CFC102F0D0C103F04FEC06
:1019300003F0000ED8B0010E006E00521BE0CDC1C6
:1019400000F0CEC101F0CFC102F0D0C103F0CD0E46
:10195000046ECC0E056E4C0E066E7B0E076EF7DD28
:1019600000C0CDF101C0CEF102C0CFF103C0D0F173
:10197000D52BCDD7FF0ECD15086EFF0ECE15096EF7
:101980007F0ECF150A6E000ED0150B6E08C004F046
:1019900009C005F00AC006F00BC007F00436049039
:1019A000053606360736000ECD15006E000ECE1534
:1019B000016E000ECF15026EFF0ED015036E00C033
:1019C000CDF101C0CEF102C0CFF103C0D0F104507F
:1019D000CD11006E0550CE11016E0650CF11026E72
:1019E0000750D011036E00C0CDF101C0CEF102C08E
:1019F000CFF103C0D0F17F0ED05D006E00C0CCF1FE
:101A0000010ED06F00C004F0CDC100F0CEC101F0D6
:101A1000CFC102F0D0C103F0045007E000360090BF
:101A2000013602360336FF0FF8D700C0CDF101C0F2
:101A3000CEF102C0CFF103C0D0F1C8C1E1FFC9C1EE
:101A4000E2FFD051300FE66EC84BC92BD22B800E6F
:101A5000D519006E800E010A005C08E3800E060AAC
:101A6000006E800ED519005C01E30BD0C8C1E1FF08
:101A7000C9C1E2FF2E0EE66EC84BC92B010ED16F15
:101A8000D22B060ECC6FCC51000A58E0D06BCDC1E2
:101A900000F0CEC101F0CFC102F0D0C103F000369A
:101AA00000900136023603360036009001360236C9
:101AB0000336CD510026CE510122CF510222D05102
:101AC000032200C0CDF101C0CEF102C0CFF103C0AE
:101AD000D0F1CDC100F0CEC101F0CFC102F0D0C134
:101AE00003F00036009001360236033600C0CDF117
:101AF00001C0CEF102C0CFF103C0D0F1C8C1E1FFF7
:101B0000C9C1E2FFD051300FE66EC84BC92BD22BB2
:101B1000D151000A11E1D507D551000A0DE1010E9E
:101B2000D46FC8C1E1FFC9C1E2FF2E0EE66EC84BFB
:101B3000C92B010ED16FD22BCC07A5D7D451010AE6
:101B4000D8B4D207FF0EC825E96EFF0EC921EA6E90
:101B5000EE502E0A05E1010EC85F000EC95BD207E8
:101B6000800E000A006E800ED519005C02E2010EA4
:101B7000D36F800ED519006E800E000A005C02E261
:101B8000020ED36FD5C1CCF1800E090A006E800E13
:101B9000D519005C02E3D32B02D0020ED327D35118
:101BA000D225016E026A000E0222800E0218006E1B
:101BB000800E005C02E1CA51015C0AE2C8C1E1FF8B
:101BC000C9C1E2FF300EE66EC84BC92BD22BE7D756
:101BD000D551000A43E0C8C1E1FFC9C1E2FF650E6B
:101BE000E66EC84BC92B800ED519006E800E000A18
:101BF000005C0BE2C8C1E1FFC9C1E2FF2D0EE66E39
:101C0000C84BC92BD5510008D56FD5C1CCF1800E7A
:101C1000090A006E800ED519005C0FE20A0E046EF0
:101C2000CCC100F0E7EC03F0C8C1E1FFC9C1E2FF9D
:101C30000050300FE66EC84BC92B0A0E046ECCC1A3
:101C400000F0E7EC03F008C000F0C8C1E1FFC9C133
:101C5000E2FF0050300FE66EC84BC92BD351D2259E
:101C6000006E00C0D2F1CA51005C016E01C0CCF11F
:101C7000800E000A006E800E0118005C0EE2800EDD
:101C8000000A006E800ECC19005C06E2CC07010E43
:101C9000C85F000EC95BF3D718D0800ECC19006E58
:101CA000800E000A005C11E2800ECC19006E800EDE
:101CB000000A005C0AE2CC2BC8C1E1FFC9C1E2FF07
:101CC000300EE66EC84BC92BEFD7C8C1E1FFC9C1C2
:081CD000E2FFE66A006A12005F
:101CD800000E0101C75D02E1800EC65D01E33CD044
:101CE800000EC95D02E1400EC85D01E335D0CA6B44
:101CF800CB6BC6C1D6F1C7C1D7F1C8C1D8F1C9C12C
:101D0800D9F146EC03F0CA51C425E96ECB51C5217F
:101D1800EA6EEE5221E05D515E1111E0CA51C42510
:101D2800E96ECB51C521EA6EEECFD6F1000ED76F22
:101D3800000ED76F46EC08F0CA4BCB2B0CD0CA511B
:101D4800C425E96ECB51C521EA6EEECFD6F13CEC45
:0A1D580007F0CA4BCB2BD7D71200BF
:101D62000101C86B050EC85D0AE2C851C625E16EC5
:101D7200000EC721E26E200EE66EC82BF3D7C851C3
:101D8200C625E16E000EC721E26EE66AC807C85199
:101D9200C625C96F000EC721CA6F0A0E046E000E57
:101DA200056EC4C100F0C5C101F063DC08C000F0DB
:101DB20009C001F0300E0026C9C1E1FFCAC1E2FF2D
:101DC20000C0E6FF0A0E046E000E056EC4C100F0EC
:101DD200C5C101F04EDC00C0C4F101C0C5F1000E66
:101DE200011802E1000E001801E102D0C807CFD7A6
:021DF2001200DD
:101DF4000101C56BC66BC76BC86BC46B640EC45D55
:101E04001AE2020ED66FF4EC04F014EC05F0C5C12E
:101E140004F0C6C105F0C7C106F0C8C107F029EC3B
:101E240005F000C0C5F101C0C6F102C0C7F103C08E
:101E3400C8F1C42BE3D7000E046E000E056E480EE5
:101E4400066E850E076EC5C100F0C6C101F0C7C19C
:101E540002F0C8C103F036EC04F00EEC0AF01200F4
:101E6400C5C1C9F10101C951C75D0CE3C4C1D6F1B3
:101E7400C6C1D7F1C9C1D8F1C8C1D9F1B6EC03F0D4
:061E8400C92BF0D712008B
:101E8A0000C008F00150006E016A026A036A0B6A18
:101E9A000C6A016A026A036A960E036E0A6A00AE47
:101EAA005DEF0FF0081E001E082AD8B4002A0A8E19
:101EBA0000C001F008C000F0086A026A23EC01F0D1
:021ECA00120004
:101ECC000101C66BC76BC4C103F0C5C104F0C4C12A
:101EDC0005F0C5C106F003C0E9FF04C0EAFFEE50EF
:101EEC00200A04E1C651C71101E110D0010EC66FE2
:101EFC00000EC76F03C0E9FF04C0EAFF05C0E1FF95
:101F0C0006C0E2FFEECFE6FF054A062A03C001F049
:101F1C0004C002F0034A042A01C0E9FF02C0EAFF30
:101F2C00EE50000AD8E1C4C100F0C5C101F01200A6
:081F3C00067E29EC05F01200FD
:101F4400819281800101BC6BBC51070810E3BCC1C4
:101F5400FEF11FEC00F0BB6BBB513F0806E3BAC1B6
:101F6400FEF198EC00F0BB2BF7D7BC2BEDD781909A
:101F74008182BC6BBC51070810E3BCC1FEF11FECAD
:101F840000F0BB6BBB513F0806E3BAC1FEF198EC0D
:0C1F940000F0BB2BF7D7BC2BEDD71200E0
:101FA00084B216D084A014D08490010E01019B6FDE
:101FB000000E9C6F010E9D6F000E9E6F820E0C6EC8
:101FC000DD0E0D6E0D2EFED70C2EFCD7000000008E
:021FD0001200FD
:101FD200BAC1D6F1BCC1D7F1BBC1D8F1BEC1D9F1EA
:101FE200B6EC03F0BAC1D6F1BCC1D7F1BDC1D8F18C
:101FF200BEC1D9F1B6EC03F0BBC1C4F1BDC1C5F19C
:10200200BAC1C6F1BEC1C7F155EC0BF0BBC1C4F1F8
:10201200BDC1C5F1BCC1C6F1BEC1C7F155EC0BF0E3
:022022001200AA
:102024000101BE6BBF6BC06BBE51070845E3FE6B7D
:102034002BEC00F0BEC1FEF11FEC00F0FE6B85EC52
:1020440000F0BD6BBD513F0812E3BF51BA25F66ED7
:10205400C051BB21F76E000EBC21F86E0900F5CF0C
:10206400FEF198EC00F0BF4BC02BBD2BEBD7400E1C
:10207400FE6F2BEC00F0BEC1FEF11FEC00F0400E31
:10208400FE6F85EC00F0400EBD6FBD517F0812E37A
:10209400BF51BA25F66EC051BB21F76E000EBC21AC
:1020A400F86E0900F5CFFEF198EC00F0BF4BC02BA1
:0A20B400BD2BEBD7BE2BB8D71200EE
:1020BE00010E0101BE6F000EBF6F87EC0BF0C6EC78
:1020CE000BF000C070F101C071F102C072F103C0DB
:1020DE0073F1000E046EC00E056E7F0E066E880E36
:1020EE00076E36EC04F0000E046E000E056E480E00
:1020FE00066E850E076EA7EC0AF000C074F101C0E3
:10210E0075F102C076F103C077F100C0C4F101C0D1
:10211E00C5F102C0C6F103C0C7F1780E0101C86F48
:10212E00010EC96F040ECA6FE8EC0BF0780EC46F87
:10213E00010EC56FC4DEBEC100F0BFC101F09EDE50
:10214E00BAC104F0BBC105F0BCC106F0BDC107F0B9
:10215E0029EC05F000C004F001C005F002C006F045
:10216E0003C007F070C100F071C101F072C102F03E
:10217E0073C103F04FEC03F0000ED8B0010E006EE9
:10218E00005227E1BEC100F0BFC101F077DE00C0F2
:10219E0004F001C005F002C006F003C007F0BAC19A
:1021AE0000F0BBC101F0BCC102F0BDC103F0BFDE47
:1021BE0070C104F071C105F072C106F073C107F071
:1021CE004FEC03F0000ED8B0010E006E005201E18C
:1021DE0043D0460EC46F0F0EC56F5C0EC66F1E0E3B
:1021EE00C76FC86B38DE830ED66F010ED76F780EB1
:1021FE00D86F010ED96F1FEC03F0010EC46F010EE4
:10220E00C56F0A0EC66F000EC76F0F0EC86F000E99
:10221E00C96F5BDD780EC46F010EC56F480EC66FB9
:10222E00000EC76F0F0EC86F000EC96F4EDD0F0E7A
:10223E00C46F010EC56F5D0EC66F000EC76F0F0E19
:10224E00C86F000EC96F41DD70C1BAF171C1BBF12B
:0A225E0072C1BCF173C1BDF11200A2
:1022680084928480010E01019B6F000E9C6F9D6B10
:102278009E6B820E0C6EDD0E0D6E0D2EFED70C2E93
:08228800FCD700000000120069
:102290000101C06BC16BBAC1C2F1BBC1C3F1800EF9
:1022A000BB19006E800E005C02E1000EBA5D0BE20D
:1022B000010EC06F000EC16FBA510008C26FBBC1E2
:1022C000C3F1000EC357C2C1C4F1C3C1C5F1BCC143
:1022D000C6F1BDC1C7F145DD060EBE6F000EBF6F72
:1022E000000E006EBF51005C02E1BE51000819E211
:1022F000BE51BC25E16EBF51BD21E26E010EBE5D37
:10230000006E000EBF59016E0050BC25E96E0150F1
:10231000BD21EA6EEECFE6FF010EBE5F000EBF5B91
:10232000DFD7BCC1E1FFBDC1E2FF200EE66EC051A8
:10233000C1111AE0BE6BBF6BBE51BC25E96EBF5127
:10234000BD21EA6EEE50200A03E1BE4BBF2BF4D74D
:10235000010EBE5F000EBF5BBE51BC25E16EBF51DA
:0A236000BD21E26E2D0EE66E1200A4
:10236A000F0E0101BE6F000EBF6F3FDDC6EC0BF012
:10237A0000C08CF101C08DF102C08EF103C08FF153
:10238A00000E046E000E056E700E066E830E076E4A
:10239A00A7EC0AF0000E046EC00E056E7F0E066EE4
:1023AA00880E076E36EC04F000C097F101C098F170
:1023BA0002C099F103C09AF100C0C4F101C0C5F18D
:1023CA0002C0C6F103C0C7F1900E0101C86F010E29
:1023DA00C96F040ECA6FE8EC0BF0900EC46F010EC1
:1023EA00C56F6FDDBEC100F0BFC101F049DDBAC1E2
:1023FA0004F0BBC105F0BCC106F0BDC107F029EC71
:10240A0005F000C004F001C005F002C006F003C0E8
:10241A0007F08CC100F08DC101F08EC102F08FC1AE
:10242A0003F04FEC03F0000ED8B0010E006E00521C
:10243A0027E1BEC100F0BFC101F022DD00C004F0F7
:10244A0001C005F002C006F003C007F0BAC100F0EF
:10245A00BBC101F0BCC102F0BDC103F06ADD8CC191
:10246A0004F08DC105F08EC106F08FC107F04FEC64
:10247A0003F0000ED8B0010E006E005201E13AD00E
:10248A00460EC46F0F0EC56F590EC66F1E0EC76F6C
:10249A00C86BE3DC170EC46F010EC56F0A0EC66F58
:1024AA00000EC76F0F0EC86F000EC96F10DC900EBA
:1024BA00C46F010EC56F460EC66F000EC76F0F0EB2
:1024CA00C86F000EC96F03DC3E0EC46F010EC56FE4
:1024DA005A0EC66F000EC76F0F0EC86F000EC96F77
:1024EA006CEC0EF08CC1BAF18DC1BBF18EC1BCF19E
:0624FA008FC1BDF11200CC
:1025000084B216D084A014D08482010E01019B6F86
:10251000000E9C6F020E9D6F000E9E6F820E0C6E61
:10252000DD0E0D6E0D2EFED70C2EFCD70000000028
:02253000120097
:10253200000E0101AB1902E1010EAA190CE1010E14
:10254200C46F0D0EC56F7E0EC66F3E0EC76FC86B91
:0A25520088DCAA6BAB6B08DF1200F7
:10255C00000E01018B1902E1010E8A193BE1BA6BE5
:10256C00BB6B7F0EBC6F3F0EBD6F010EBE6F2BDDC4
:10257C00C46BC56B7F0EC66F0C0EC76F010EC86F98
:10258C006BDCA60EF06F2F0EF16F000EF26FF36B7B
:10259C00F46B61EC02F0AEC1C4F1AFC1C5F11E0E1B
:1025AC00C66F000EC76F010EC86F000EC96F6CECC2
:1025BC000EF0A60EF06F2F0EF16F000EF26F010EE3
:1025CC00F36FF46B61EC02F08A6B8B6B010EAA6FEC
:0625DC00000EAB6F1200BF
:1025E2000101636B5D6B5E6B939A939893949396E0
:1025F20093929390819A120E006E000E016E830EDA
:102602000024E16E0F0E0120E26EE66A819481964B
:1026120081928180818A3F0E836E1AEC00F0C00E97
:10262200836E1AEC00F0818281903F0E836E1AEC69
:0C26320000F0C00E836E1AEC00F01200E5
:10263E000900F5CFE6FF0006FBE10106F9E1120005
:10264E000101BA6B78DC82A408D0590EBA6F350E30
:10265E00BB6F000EBC6FDFDCF6D7BA6B6CDC010E05
:08266E008A6F000E8B6F120051
:10267600000E0101B26F000EB36F700EB46F840EC0
:10268600B56F000EB66F000EB76F340EB86F840EBE
:10269600B96F87EC0BF0C6EC0BF0000E046EC00EA3
:1026A600056E7F0E066E880E076E36EC04F0000E81
:1026B600046E000E056E480E066E850E076EA7ECBC
:1026C6000AF000C0AEF101C0AFF102C0B0F103C024
:1026D600B1F100C004F001C005F002C006F003C06D
:1026E60007F0B6C100F0B7C101F0B8C102F0B9C138
:1026F60003F04FEC03F0000ED8B0010E006E00524E
:10270600D8A48086B2C104F0B3C105F0B4C106F006
:10271600B5C107F0AEC100F0AFC101F0B0C102F023
:10272600B1C103F04FEC03F0000ED8B0010E006EFD
:082736000052D8A480961200A5
:10273E00010E0101D66FF4EC04F000C0A8F101C047
:10274E00A9F1800E026E800E0118025C02E10050AB
:10275E000A080BE2050EC46F1E0EC56F500EC66F33
:10276E00280EC76FC86B32EC0FF0000EAD1902E1E8
:10277E00010EAC194EE1A951A71902E1A651A819F3
:10278E000FE0050EC46F320EC56F640EC66F3C0EA1
:10279E00C76FC86B32EC0FF0A8C1A6F1A9C1A7F1A3
:1027AE00A8C1BAF1A9C1BBF19F0EBC6F010EBD6FDE
:1027BE0068DD9F0EC46F010EC56F66EC0FF09F0EA5
:1027CE00C46F010EC56F280EC66F000EC76F320E96
:1027DE00C86F000EC96F6CEC0EF0210EC46F010EA7
:1027EE00C56F050EC66F000EC76F320EC86F000E96
:1027FE00C96F6CEC0EF0020E0B6E450E0C6EA90E30
:10280E000D6E0D2EFED70C2EFCD70B2EFAD7000018
:10281E000000800EA919006E800E005C02E1500EC1
:10282E00A85D19E3800E006E800EA919005C02E10E
:10283E00A851640810E35DDE360E0101C46F010E6F
:10284E00C56F050EC66F000EC76F1E0EC86F000E49
:10285E00C96F6CEC0EF0800EA919006E800E005C34
:10286E0002E1780EA85D18E3800E006E800EA919A5
:10287E00005C02E1A8518C080FE3EFDC280EC46F58
:10288E00010EC56F050EC66F000EC76F1E0EC86F08
:10289E00000EC96F6CEC0EF0800EA919006E800E42
:1028AE00005C02E1AA0EA85D1AE3800E006E800E97
:1028BE00A919005C02E1A851BE0811E3D0EC0FF09B
:1028CE00120E0101C46F010EC56F050EC66F000E0C
:1028DE00C76F1E0EC86F000EC96F6CEC0EF0800E27
:1028EE00A919006E800E005C02E1C80EA85D18E307
:1028FE00800E006E800EA919005C02E1A851DC0862
:10290E000FE3790EC46F000EC56F050EC66F000E75
:10291E00C76F1E0EC86F000EC96F6CEC0EF080866E
:10292E00800EA919006E800E005C02E1E60EA85D15
:10293E0018E3800E006E800EA919005C02E1A8510A
:10294E00F0080FE3830EC46F000EC56F050EC66F41
:10295E00000EC76F1E0EC86F000EC96F6CEC0EF026
:10296E008096800EA919006E800E010A005C02E1AD
:10297E00360EA85D19E3800E010A006E800EA919AD
:10298E00005C02E1A8514A080FE38E0EC46F000EE0
:10299E00C56F050EC66F000EC76F1E0EC86F000EF8
:1029AE00C96F6CEC0EF0807A800EA919006E800E45
:1029BE00020A005C02E14E0EA85D19E3800E020AC7
:1029CE00006E800EA919005C02E1A85162080FE3A7
:1029DE006C0EC46F000EC56F050EC66F000EC76F6E
:1029EE001E0EC86F000EC96F6CEC0EF08076800E56
:1029FE00A919006E800E020A005C02E1A80EA85D05
:102A0E0019E3800E020A006E800EA919005C02E125
:102A1E00A851BC080FE3730EC46F000EC56F050EF0
:102A2E00C66F000EC76F1E0EC86F000EC96F6CEC1E
:102A3E000EF08078800EA919006E800E030A005CDD
:102A4E0002E13E0EA85D31E3800E030A006E800E99
:102A5E00A919005C02E1A851520827E3B40EC46F15
:102A6E00000EC56F050EC66F000EC76F1E0EC86F27
:102A7E00000EC96F6CEC0EF0000EAD1902E1000EE7
:102A8E00AC1913E1800E4A19006E800E4C19005CD1
:102A9E0002E14B51495D03E2494B4A2B02D0496B8F
:102AAE004A6B010E8A6F000E8B6F800EA919006E95
:102ABE00800E030A005C02E1700EA85D3FE3800EFB
:102ACE00030A006E800EA919005C02E1A851840869
:102ADE0035E3AB0EC46F000EC56F050EC66F000E4C
:102AEE00C76F1E0EC86F000EC96F6CEC0EF0060E8F
:102AFE000B6E130E0C6EAD0E0D6E0D2EFED70C2E34
:102B0E00FCD70B2EFAD700000000AC51AD11010E10
:102B1E00D8A4000EAC6F000EAD6F000EAD1902E121
:102B2E00000EAC190BE1050EC46F320EC56F640EAC
:102B3E00C66F3C0EC76FC86B32EC0FF0800EA91932
:102B4E00006E800E030A005C02E1D40EA85D34E331
:102B5E00800E030A006E800EA919005C02E1A851D6
:102B6E00E8082AE3990EC46F000EC56F050EC66FF6
:102B7E00000EC76F1E0EC86F000EC96F6CEC0EF004
:102B8E00000EAD1902E1000EAC1916E1800E006EBA
:102B9E00800E4A19005C02E14951000805E2010E5F
:102BAE00495F000E4A5B04D04BC149F14CC14AF15A
:0A2BBE00010E8A6F000E8B6F1200EB
:102BC800000E0101AB1902E1010EAA1911E1010E73
:102BD800C46F0D0EC56F7E0EC66F3E0EC76FC86BF5
:102BE80032EC0FF0010E9B6F000E9C6FAA6BAB6B63
:102BF800000E9C1902E1010E9B19D8A415D1BA6BDD
:102C0800330EBB6F7F0EBC6F3F0EBD6F010EBE6FE4
:102C1800E9EC0FF0010EC46F340EC56F7E0EC66F5F
:102C28003E0EC76FC86B32EC0FF0EAD0A20EC46F2D
:102C3800000EC56F060EC66F000EC76F340EC86F44
:102C4800000EC96F6CEC0EF02B0EC46F330EC56FFF
:102C5800550EC66F3E0EC76F010EC86F32EC0FF0EF
:102C6800A60EF06F2F0EF16F000EF26FF36BF46B80
:102C780061EC02F0A70EC46F000EC56F370EC66F69
:102C8800000EC76F340EC86F000EC96F6CEC0EF0E3
:102C9800A60EF06F2F0EF16F000EF26F010EF36F9C
:102CA800F46B61EC02F0260EC46F000EC56F600E67
:102CB800C66F000EC76F340EC86F000EC96F6CEC7C
:102CC8000EF09B6B9C6BB0D0010EC46F330EC56FBA
:102CD8002A0EC66F3E0EC76F010EC86F32EC0FF09A
:102CE800A60EF06F2F0EF16F000EF26FF36BF46B00
:102CF80061EC02F02A0EC46F000EC56F060EC66F97
:102D0800000EC76F340EC86F000EC96F6CEC0EF062
:102D1800A60EF06F2F0EF16F000EF26F010EF36F1B
:102D2800F46B61EC02F02F0EC46F000EC56F370E06
:102D3800C66F000EC76F340EC86F000EC96F6CECFB
:102D48000EF0220EC46F000EC56F600EC66F000E27
:102D5800C76F340EC86F000EC96F6CEC0EF09B6B1A
:102D68009C6B62D0150EC46F000EC56F060EC66F41
:102D7800000EC76F340EC86F000EC96F6CEC0EF0F2
:102D88001A0EC46F000EC56F370EC66F000EC76FE0
:102D9800340EC86F000EC96F6CEC0EF0550EC46F80
:102DA800330EC56F7E0EC66F3E0EC76F010EC86F1D
:102DB80032EC0FF0A60EF06F2F0EF16F000EF26FCF
:102DC800F36BF46B61EC02F01E0EC46F000EC56F5E
:102DD800600EC66F000EC76F340EC86F000EC96F45
:102DE8006CEC0EF0A60EF06F2F0EF16F000EF26F66
:102DF800010EF36FF46B61EC02F09B6B9C6B14D0CB
:102E0800000E9E1902E1000E9D19D8B40FD7000ECE
:102E18009E1902E1010E9D19D8B456D7000E9E19CD
:0A2E280002E1020E9D199EE0120067
:102E3200000E0101AB1902E1010EAA190DE1010E0A
:102E4200C46F0D0EC56F7E0EC66F3E0EC76FC86B88
:0E2E520032EC0FF0AA6BAB6B5FEC10F01200CD
:102E600043EC1DF0590E0101456F000E466F460EF2
:102E7000476F000E486F330E416F000E426FBC0E5D
:102E8000436F000E446FE30E7F6F000E806FD00E15
:102E9000816F000E826F060E4B6F000E4C6F0C0E92
:102EA000C112070EB412070E926E800E946EF00ED1
:102EB000956E966A816A826A836A846AF1EC12F07E
:102EC000BA6BA2EC0FF0040E496F000E4A6F010EB0
:102ED0008A6F000E8B6FAC6BAD6B010E9D6F000E99
:102EE0009E6F80968098809A2ED045C1AEF146C1E3
:102EF000AFF1AEEC12F068DE4BD047C1AEF148C185
:102F0000AFF1AEEC12F044D041C1AEF142C1AFF12D
:102F1000AEEC12F03DD043C1AEF144C1AFF1AEEC26
:102F200012F036D07FC1AEF180C1AFF1AEEC12F03D
:102F300080DF2ED081C1AEF182C1AFF1AEEC12F0D4
:102F400099EC12F025D00101000E4A1902E1000EA1
:102F50004919CBE0000E4A1902E1010E4919CDE0F2
:102F6000000E4A1902E1020E4919CEE0000E4A197C
:102F700002E1030E4919CFE0000E4A1902E1040EE6
:102F80004919D0E0000E4A1902E1050E4919D2E0B4
:102F90009FEC13F03BEC13F082A403D027EC13F06A
:062FA000FBD7A2D7FFD70A
:103A860010EE15F02C0E006E020E016E590EF66E3B
:0E3A9600390EF76E000EF86E1FEC13F01200E2
:102FA600000020007F000B00018801000193010052
:102FB600039E010007A9010005B4010009BF010035
:102FC60006D5010001E0010003EB010002F6010055
:102FD60005010200060C020002170200022202008E
:102FE600022D02000338020004430200044E0200D0
:102FF6000459020004640200056F0200047A02000C
:103006000485020004900200049B020004A602004C
:1030160002B1020002BC020006C7020006D202008C
:1030260006DD020004E8020007F3020006FE0200C5
:103036000509030006140300061F0300052A030002
:103046000535030006400300064B03000356030044
:1030560003610300056C0300047703000782030085
:10306600068D03000798030005A3030007AE0300BF
:1030760005B9030005C4030005CF030006DA030003
:1030860006E5030007F0030004FB03000506040041
:1030960004110400021C0400032704000232040089
:1030A600053D04000548040003530400045E0400C3
:1030B6000469040003740400047F0400048A040005
:1030C6000395040004A0040004AB040001B6040048
:1030D60002C1040004CC040001D7040007E2040086
:1030E60004ED040004F8040004030500040E0500C2
:1030F6000319050003240500022F0500043A050004
:103106000545050007500500035B0500056605003B
:1031160003710500037C0500028705000392050084
:10312600069D050002A80500000000000000000042
:10313600000000000001010101010001000000057E
:10314600050500000000000000000024247E143F56
:10315600121200000000041E05060C140F040400E1
:10316600000000460029002900D60028012801C4D5
:1031760000000000000000060909160919260000D3
:10318600000101010000000000000000040201012E
:103196000101010102040000010202020202020111
:1031A6000004150E150400000000000000000008D1
:1031B600083E0808000000000000000000000202AF
:1031C60001000000000000000300000000000000F5
:1031D60000000000020200000004040202020202D3
:1031E600010100000006090909090906000000009E
:1031F6000406040404040E00000000070808040284
:10320600010F000000000708080608080700000074
:1032160000080C0A091F0808000000000F0101073A
:10322600080807000000000601010709090600005A
:1032360000000F080404020201000000000609094C
:1032460006090906000000000609090E080806001E
:103256000000000000020200020200000000000060
:103266000202000202010000000000201C021C20D5
:10327600000000000000003F003F000000000000CA
:1032860000021C201C0200000000070808040200BF
:1032960002000000001C2259555539021C0000008E
:1032A6000C0C12123F2121000000000709090F1122
:1032B600110F000000001C22010101221C00000069
:1032C600000F11212121110F000000001F01010F25
:1032D60001011F000000001F01010F010101000094
:1032E60000001C22013921223C000000002121217E
:1032F6003F2121210000000007020202020207000E
:103306000000000604040404040300000000110980
:103316000503050911000000000101010101010F6B
:103326000000000063635555494941000000002133
:10333600232529312121000000001C224141412280
:103346001C000000000F1111110F01010000000008
:103356001C22414141221C106000000F11110F0573
:103366000911000000001E01010E10100F000000E0
:10337600001F04040404040400000000212121218C
:1033860021211E0000000021212112120C0C000038
:10339600000049495555552222000000000909063A
:1033A6000606090900000000110A0A0404040400C4
:1033B6000000000F08040202010F000000030101D3
:1033C60001010101010103000101020202020204DE
:1033D60004000003020202020202020203000004C9
:1033E6000A110000000000000000000000000000BC
:1033F60000001F00020400000000000000000000A2
:10340600000006080E090E00000001010107090967
:103416000907000000000000060101010600000087
:103426000808080E0909090E000000000000060938
:103436000F010E0000000601010701010101000055
:10344600000000000E0909090E0806000101010727
:10345600090909090000000001000101010101003C
:103466000000000200030202020202010001010143
:10347600090503050900000001010101010101011F
:1034860000000000000037494949490000000000DB
:1034960000070909090900000000000006090909DA
:1034A60006000000000000070909090701010000E5
:1034B60000000E0909090E080800000000050301B6
:1034C60001010000000000000701020407000000DF
:1034D60000000103010101020000000000000909CB
:1034E60009090E000000000000110A0A0A04000083
:1034F6000000000049495536220000000000000582
:1035060002020205000000000000110A0A0A040473
:103516000200000000070402010700000004020286
:103526000202010202020400020202020202020276
:10353600020200010202020204020202010000006D
:103546000000261900000000000000030303030327
:0335560000000072
:103559000000000000000000000000000000000062
:103569000000000000000000000000000000000052
:103579000000000000000000000000000000000042
:103589000000000000000000000000000000000032
:103599000000000000000000000000000000000022
:1035A9000000000000000000000000000000000012
:1035B9000000000000000000000000000000000002
:1035C90000000000000000000000000000000000F2
:1035D90000000000000000000000000000000000E2
:1035E90000000000000000000000000000000000D2
:1035F90000000000000000000000000000000000C2
:1036090000000000000000000000000000000000B1
:1036190000000000000000000000000000000000A1
:103629000000000000000000000000000000000091
:103639000000000000000000000000000000000081
:103649000000000000000000000000000000000071
:103659000000000000808080808080808000000061
:1036690080808000000000808080000000808080D1
:1036790080808080800000000080808080808000C1
:103689000000000000000080808080808000000031
:103699000080A0B89898B0A08000000080808000C9
:1036A9000000000080800000000000008080808011
:1036B9000000000000808080808080808000000001
:1036C90000000080808080000000000000000000F1
:1036D9000000000000FFFFFF3131313131000000EF
:1036E900FFFF073FF0F01F07FFFF000000FFFFFF8C
:1036F900313131313100000000FFFF6161E1F3BF79
:103709001F000000FCFE070301313131F1F3000015
:1037190000FFFFFF3131313131000000FFFF0F1F82
:103729007CF0C080FFFF0000F8FEFF0303010101E8
:103739000100000000010101FFFF0101010000007B
:1037490000E0FC9F8387BFFCE00000000000000050
:1037590000000000000F0F0F0C0C0C0C0C000000F7
:103769000F0F0000000000000F0F0000000F0F0FE7
:103779000C0C0C0C0C000000000F0F000000030FD4
:103789000E0800000107070E0C0C0C0C0F070000B7
:10379900000F0F0F0C0C0C0C0C0000000F0F000099
:1037A9000001070F0F0F00000103070E0C0C0C0C92
:1037B90006000000000C0C0C0F0F0C0C0C0000088C
:1037C9000F0F0101010101030F0F000000000000AC
:1037D90000000000000000000000000000000000E0
:1037E90000000000000000000000000000000000D0
:1037F90000000000000000000000000000000000C0
:1038090000000000000000000000000000000000AF
:10381900000000000000000000000000000000009F
:10382900000000000000000000000000000000008F
:10383900000000000000000000000000000000007F
:10384900000000000000000000000000000000006F
:10385900000000000000000000000000000000005F
:10386900000000000000000000000000000000004F
:10387900000000000000000000000000000000003F
:10388900000000000000000000000000000000002F
:10389900000000000000000000000000000000001F
:1038A900000000000000000000000000000000000F
:1038B90000000000000000000000000000000000FF
:1038C90000000000000000000000000000000000EF
:1038D90000000000000000000000000000000000DF
:1038E90000000000000000000000000000000000CF
:1038F90000000000000000000000000000000000BF
:1039090000000000000000000000000000000000AE
:10391900000000000000000000000000000000009E
:10392900000000000000000000000000000000008E
:10393900000000000000000000000000000000007E
:10394900000000000000000000000000000000006E
:05395900524544450049
:04395E004F4646008A
:04396200474D470086
:04396600474D470082
:04396A00474D47007E
:05396E00524544450034
:043973004F46460075
:103977002032202D20436F7272656E746520526568
:0339870064650074
:10398A002031202D2054656E73616F205265646565
:03399A00202000EA
:10399D0020202030202D205072696E636970616C7B
:0339AD00202000D7
:0739B0004D616E75616C00B2
:0639B70052657365740007
:0A39BD00506172617220474D47000F
:0B39C70050617274697220474D470088
:0B39D2004175746F6D617469636F00D4
:0939DD00457371756572646100A7
:0539E6005245444500BC
:0439EB004F464600FD
:0939EF0043616C696272617200AF
:0839F800446972656974610005
:103A0000202033202D204672657175656E636961D3
:033A100020200073
:013A130000B2
:103A140035202D2054656E73616F20426174657288
:033A2400696100D5
:103A27002034202D2054656D706572617475726144
:033A37002020004C
:043A3A004E614E008B
:023A3E00300056
:043A4000494E4600A5
:013A44003051
:0E3A450054656D70657261747572613A20008F
:033A53004320000D
:053A56005265646500EB
:0A3A5B00426174657269613A20004F
:073A6500426F74616F3A002B
:0E3A6C004465736C6967612043617267610095
:083A7A0047657261646F720080
:033A8200562000CB
:020000040030CA
:0E000000044C191EFF0380FF0FC00FE00F40DD
:00000001FF
