:100000001EEF19F00000000000EF00F000000000FB
:0A0010000000000000000000F3D71C
:0C001C00100E0D6E0D2EFED7000012001D
:0A002800F9DF8188F7DF81981200EC
:0C003200000000000000000000001200B0
:10003E007F0E0101CE15016E01C0CEF101AC03D0D1
:0C004E008182819002D08192818012009A
:10005A0081948196B80E0101CE11836EE0DF120001
:0E006A00819881848196CEC183FFD9DF120078
:10007800F250026EF29E0500FF6A0150FE6E0050BB
:08008800FD6E02BEF28E1200B3
:100090007F0E0101CE15006E00C0CEF181948196D5
:1000A000BF0E001600C0CEF1008C00C0CEF100C023
:0600B00083FFBADF12001D
:1000B600120E006E000E016E830E0024E16E0F0E0E
:1000C6000120E26EFF0EE66EB1DFB0DF818481981B
:1000D60081868188A0DF83CFCEF181988196A6DFC5
:1000E600A5DF120E006E000E016E830E0024E16E77
:0E00F6000F0E0120E26EE66ACEC100F012008D
:080104000AAE029E000E12007B
:10010C000B840BAE91EF00F0010E036E026A016AD4
:0A011C00006A0A360232FF0E1200DC
:0E012600026A016A006A086A036A000E12008B
:100134000B820BAEA4EF00F003680268016800684C
:080144000A360232FF0E120020
:10014C002D0E0101CC6F010ECD6F000E006EC5514E
:10015C00005C02E1C451000843E237C1E1FF38C141
:10016C00E2FFC0C1E6FFC1C1E6FFC2C1E6FFC3C1E9
:10017C00E6FFC4C1E6FFC5C1E6FFC80EE66E010E80
:10018C00E66E35C100F036C101F070DF00C0CAF177
:10019C0001C0CBF10101C66BC76BC951C75D02E150
:1001AC00C851C65D11E2CAC1E9FFCBC1EAFFCCC19F
:1001BC00E1FFCDC1E2FFEECFE6FFCC4BCD2BCA4B1E
:1001CC00CB2BC64BC72BE9D7C851C45FC951C55BF4
:1001DC00C851C027C951C123000EC223C323B5D7B0
:0201EC001200FF
:1001EE000C6A0E6A0250D8A410EF01F001C002F0A2
:1001FE0000C001F0006A0E860250D8A410EF01F084
:10020E0001C002F0016A0E960E880250D8B422EF99
:10021E0001F00E50035ED8A4D8A027EF01F0D890BD
:10022E0002BE2CEF01F0003601360236032E17EF18
:10023E0001F027EF01F0010E0C6E6EDF2FEF01F0D3
:10024E00020E0C6E5CDF2FEF01F0040E0C6E53DF0E
:02025E0012008C
:100260000B6A0A6A096A00500402F4CF09F0F3CF5E
:1002700008F001500502F4CF0BF0F3CF0AF0005064
:100280000502F3500926F4500A22E86A0B220150B5
:100290000402F3500926F4500A22E86A0B2208C02F
:1002A00000F009C001F00AC002F00BC003F0120018
:0C02B000240E0D6E0D2EFED70000120073
:0802BC000B6A0B86FF0E120015
:1002C4000CB0A4EF01F00CA24AEF02F00E6A000E8B
:1002D4000264BBEF01F0F00E0214D8A486EF01F023
:1002E400023A01380F0B02260138F00B016E003878
:1002F4000F0B01260038F00B006E08380F0B002698
:100304000838F00B086E0E84D89002BE9FEF01F0FF
:1003140008360036013602360E2A02BE9FEF01F07F
:1003240008360036013602360E2A02BE9FEF01F06F
:1003340008360036013602360E2A0E50036440EFAA
:1003440002F0035E0BBC08AE45EF02F0D880800ECD
:1003540008640030000E002201220222D8A045EFDA
:1003640002F0023201320032034A4AEF02F045EF52
:1003740002F001C002F000C001F008C000F0086AF9
:10038400000E0E860264F2EF01F0F00E0214D8A4FF
:10039400DAEF01F0023A01380F0B02260138F00BB4
:1003A400016E00380F0B01260038F00B006E0E842E
:1003B400D89002BE9FEF01F00036013602360E2AB5
:1003C40002BE9FEF01F00036013602360E2A02BE4D
:1003D4009FEF01F00036013602360E2A9FEF01F03E
:1003E40001C002F000C001F0006A000E0E960E88F3
:1003F40002641FEF02F0F00E0214D8A40AEF02F018
:10040400023A01380F0B02260138F00B016E0E84FC
:10041400D89002BE9FEF01F0013602360E2A02BECA
:100424009FEF01F0013602360E2A02BE9FEF01F063
:10043400013602360E2A9FEF01F001C002F0016A74
:10044400000E0E8602644FEF02F0F00E0214D8A4E0
:100454002EEF02F0023A0E84D89002BE9FEF01F014
:1004640002360E2A02BE9FEF01F002360E2A02BEA9
:100474009FEF01F002360E2A9FEF01F0010E0C6E81
:1004840043DE52EF02F0020E0C6E3ADE52EF02F03F
:10049400040E0C6E4DDE52EF02F0080E0C6E41DEBF
:0204A400120044
:1004A600000E0101C05D0AE3C0517F0807E3000E9C
:1004B600C15D04E3C1513F0801E301D04AD0C0C188
:1004C600CEF1BADDC1C1CEF1CE33CE9FCE33CE9FB3
:1004D600CE33CE9FBFDDC0C1CEF1D7DDE9DD00C092
:1004E600C5F1E6DD00C0C5F1C1C1CEF1CE33CE9F68
:1004F600CE33CE9FCE33CE9FADDDC0C1CEF1C5DDAE
:10050600070EC115006E00C0C3F100C001F0010E58
:10051600006E015004E000360090FF0FFBD700C0CC
:10052600C3F1001CC46F09D0C451C5170FD0C35105
:10053600C5130CD0C351C51B09D0C251000AF4E043
:10054600C251010AF4E0C251020AF4E0C5C1CEF17B
:0405560089DD120029
:10055A000B800BAEB9EF02F0026A0AAEFF0E026E12
:0C056A00016E006E0A360232FF0E120015
:10057600C0C124F1C1C125F1C2C126F1020E01019B
:10058600C025F66E000EC121F76E000EC221F86E70
:100596000900F5CF04F0030EC025F66E000EC1214A
:1005A600F76E000EC221F86E0900F5CF03F003C006
:1005B60001F0006A045000241E6F000E01201F6F18
:1005C600040EC025F66E000EC121F76E000EC22184
:1005D600F86E0900F5CF04F0050EC025F66E000E84
:1005E600C121F76E000EC221F86E0900F5CF03F0A7
:1005F60003C001F0006A04500024206F000E0120A1
:10060600216F060EC025F66E000EC121F76E000E94
:10061600C221F86E0900F5CF22F1000E236FC3C187
:100626003EF1000E3F6FC4C140F1010E0001B86FEC
:080636000101276B286B120083
:10063E000D6A086A0050D8B4000C04180A6E0ABE7F
:10064E000D1E0B6A04AE02D0041E042A00AE02D0A8
:10065E00001E002A005004100A6E0ABE1FD004505D
:10066E00085E003600340836045008260036060EA2
:10067E000C6E00340836045000B0085E00A0082648
:10068E0000360C2EF6D700A008260BB015D00DAEF6
:10069E00000C001E002A081E082A000C04AE09D009
:1006AE0000BE04D00050086E006AF1D7006A002A1E
:1006BE00000C001E0B2AD3D7082A0450085CD8A4BD
:0E06CE00E6D7086A002A00AEE2D7FF0C120041
:1006DC000A6A0350D8A40A800750D8A40A820A5088
:1006EC00D8B4D1EF03F0030AD8B48AEF03F00AB000
:1006FC0085EF03F006AECFEF03F0CDEF03F002AEC3
:10070C00CDEF03F0CFEF03F00250800B0A6E029E88
:10071C000650800B069E0A18D8B49BEF03F00A50C3
:10072C00D8B4CDEF03F0CFEF03F00750035CD8B48F
:10073C00A5EF03F0D8A0C1EF03F0C7EF03F006500C
:10074C00025CD8B4AFEF03F0D8A0C1EF03F0C7EF51
:10075C0003F00550015CD8B4B9EF03F0D8A0C1EF99
:10076C0003F0C7EF03F00450005CD8B4D1EF03F0F2
:10077C00D8B0C7EF03F00A52D8B4CFEF03F0CDEFE7
:10078C0003F00A52D8B4CDEF03F0CFEF03F0D880CA
:0E079C001200D8901200D880D88412001200EB
:1007AA00000E0101A85D04E3A8513F0801E301D04E
:1007BA0027D0000EA65DD8A0A66BA6517F0802E23C
:1007CA007F0EA66F000EA75DD8A0A76BA7517F0862
:1007DA0002E27F0EA76FA651A75D06E2A6C1AAF1A3
:1007EA00A7C1A6F1AAC1A7F1A651A75D09E3A6C1AF
:1007FA00C0F1A8C1C1F1A9C1C2F150DEA62BF4D73C
:02080A001200DA
:10080C00C26A0001D41D006E0050C116070EC01242
:10081C00C08EA6C100F0003600900036009000504B
:10082C00C212C2803FDDC282C2A201D0FDD7C4CFAA
:10083C0001F0006AC3500012000E0112C2901200A7
:10084C000050086E0150006E016A026A036A0B6A5E
:10085C000C6A960E036E0A6A00C001F008C000F024
:08086C00086A026ABEDC1200FA
:100874000450000A12E10550000A0FE10650000A74
:100884000CE10750000A09E1FF0E006EFF0E016E35
:100894007F0E026EFF0E036EA7D0086A096A075026
:1008A400D8B4E5EF04F00350D8B4E9EF04F00250F3
:1008B40006180A6E028E068E0E6A02C008F001C087
:1008C4000CF000C00DF004500D5E0550D8A0053C9E
:1008D4000C5E0650D8A0063C085E086A0C6A0D6AD5
:1008E400D8A07CEF04F0D8900232013200320832F2
:1008F400010E0E6E0750035ED8A089EF04F07E0E41
:100904000E240326D8B0EEEF04F08FEF04F07E0E31
:100914000E240326D8A0F3EF04F0180E0B6E0D3648
:100924000C3608360036013602360E360450005EA8
:100934000550D8A0053C015E0650D8A0063C025ED6
:1009440006340E120EA0AAEF04F00D80B5EF04F0E9
:10095400045000260550D8B0053C01260650D8B0F6
:10096400062802260D900B2E91EF04F0DBEF04F025
:10097400D8900036013602360E360450005E05501B
:10098400D8A0053C015E0650D8A0063C025E0634A1
:100994000E10010B0D26D8B00C2AD8B4082AD8A4FE
:1009A400DBEF04F008320C320D32032AD8B4EEEF38
:1009B40004F00AAE089E0850026E0C50016E0D50F1
:1009C400006EF6EF04F0010E77DCF6EF04F0020E91
:1009D40093EC00F0F6EF04F0040E9AEC00F0F6EF5E
:0A09E40004F0080E86EC00F012008B
:1009EE00025006180E6E086A096A0B6A03500764F5
:1009FE00EAEF05F006500A6E068E028E03500B6E5D
:100A0E000750036E000E0B643AEF05F00B50075EB5
:100A1E00D8B4DBEF05F0070E0764A9EF05F0075E0B
:100A2E0000C008F001C000F002C001F0026A074EDB
:100A3E00DBEF05F007647EEF05F0075E00C008F0FF
:100A4E0001C000F0016A074EDBEF05F007645CEFB2
:100A5E0005F0075E00C008F0006A074EDBEF05F0F8
:100A6E00076443EF05F00AC002F005C001F004C0B0
:100A7E0000F0086A07EF07F0030E07644EEF05F06B
:100A8E00075E08380F0B086E074EDBEF05F0D890A7
:100A9E000832074EDBEF05F0D8900832074EDBEF39
:100AAE0005F0D8900832DBEF05F0030E07646DEF0A
:100ABE0005F0075E08380F0B086E0038F00B08269D
:100ACE0000380F0B006E074EDBEF05F0D8900032AA
:100ADE000832074EDBEF05F0D89000320832074E91
:100AEE00DBEF05F0D89000320832DBEF05F0030E95
:100AFE00076495EF05F0075E08380F0B086E003897
:100B0E00F00B082600380F0B006E0138F00B002694
:100B1E0001380F0B016E074EDBEF05F0D890013256
:100B2E0000320832074EDBEF05F0D890013200326A
:100B3E000832074EDBEF05F0D89001320032083252
:100B4E00DBEF05F0030E0764C6EF05F0075E08380D
:100B5E000F0B086E0038F00B082600380F0B006ED6
:100B6E000138F00B002601380F0B016E0238F00B26
:100B7E00012602380F0B026E074EDBEF05F0D89000
:100B8E000232013200320832074EDBEF05F0D89008
:100B9E000232013200320832074EDBEF05F0D890F8
:100BAE000232013200320832096A000E0EAECFEF69
:100BBE0006F0081E001E011E021E082A0022012237
:100BCE000222CFEF06F00750D8A4F0EF05F007EFA2
:100BDE0007F0096A02C00AF0028E068E0750035C07
:100BEE00076ED8B4C2EF06F0070E076490EF06F05A
:100BFE00075E0450096E0550046E0650056E066AB7
:100C0E00074EC2EF06F0070E076465EF06F0075EAB
:100C1E000450096E0550046E056A074EC2EF06F0C9
:100C2E00070E076443EF06F0075E0450096E046A70
:100C3E00074EC2EF06F0070E07642AEF06F00AC051
:100C4E0002F007EF07F0030E076435EF06F0075EBC
:100C5E0009380F0B096E074EC2EF06F0D890093215
:100C6E00074EC2EF06F0D8900932074EC2EF06F0DB
:100C7E00D8900932C2EF06F0030E076454EF06F067
:100C8E00075E09380F0B096E0438F00B092604387D
:100C9E000F0B046E074EC2EF06F0D89004320932E5
:100CAE00074EC2EF06F0D89004320932074EC2EF5B
:100CBE0006F0D89004320932C2EF06F0030E076434
:100CCE007CEF06F0075E09380F0B096E0438F00B47
:100CDE00092604380F0B046E0538F00B0426053870
:100CEE000F0B056E074EC2EF06F0D8900532043298
:100CFE000932074EC2EF06F0D8900532043209329F
:100D0E00074EC2EF06F0D890053204320932C2EF18
:100D1E0006F0030E0764ADEF06F0075E09380F0B01
:100D2E00096E0438F00B092604380F0B046E0538D3
:100D3E00F00B042605380F0B056E0638F00B052652
:100D4E0006380F0B066E074EC2EF06F0D89006322D
:100D5E00053204320932074EC2EF06F0D890063241
:100D6E00053204320932074EC2EF06F0D890063231
:100D7E00053204320932086A000E0EAECFEF06F0CD
:100D8E00091E041E051E061E092A0422052206221D
:100D9E000950082604500022055001220650022256
:100DAE000EBEE6EF06F0D8A0F5EF06F002320132E5
:100DBE0000320832033EF5EF06F001EF07F0D8B02F
:100DCE00FBEF06F0000E081E001E011E021E082A72
:100DDE000022012202220A7EFBEF06F0010E0C6EAB
:100DEE0062EC01F009EF07F0020E0C6E62EC01F0FE
:100DFE0009EF07F0040E0C6E9AEC00F009EF07F005
:060E0E00000E0C6E120044
:100E1400086A096A000E076203648FEF07F0025044
:100E240006180A6E075003267E0ED8A020EF07F09E
:100E3400035ED8B094EF07F024EF07F0035ED8A068
:100E440099EF07F0028E068E02C00EF001C00BF07F
:100E540000C00DF000500402F4CF0CF00150050264
:100E6400F4CF00F0F3CF08F00402F3500C26F45052
:100E74000822000E00220D500502F3500C26F450F7
:100E84000822000E002202500402F3500826F450F7
:100E9400002202500502016A000E0122F3500026CE
:100EA400F45001220D500602F3500826F45000229B
:100EB400026A000E012202220B500602F3500026A1
:100EC400F4500122000E02220E500602F3500126B5
:100ED400F450022202BE77EF07F0083600360136DE
:100EE40002360306D8B499EF07F08AEF07F0D880EA
:100EF400800E08640030000E002201220222D8A0D5
:100F04008AEF07F0023201320032034A94EF07F00D
:100F14000AAE029E000E9CEF07F0010E93EC00F067
:100F24009CEF07F0020E9AEC00F09CEF07F0040E21
:060F340086EC00F0120043
:100F3A00A6C104F0A7C105F004C002F005C003F081
:100F4A00044A052AA8C100F0A9C101F00101A84B71
:100F5A00A92B00C0E9FF01C0EAFF02C0E1FF03C0FC
:100F6A00E2FFEECFE6FF02C0E9FF03C0EAFFEE525E
:0E0F7A0001E0E2D7A6C100F0A7C101F012000D
:100F88000B6A0C6A086A0350D8B448EF08F002C02C
:100F98000AF0028E9E0E035E03AE38EF08F0036C73
:100FA800080E035CD8A005EF08F0036E083600C0F1
:100FB80008F001C000F002C001F0026A080E035CEC
:100FC800D8A005EF08F0036E083600C008F001C08D
:100FD80000F0016A080E035CD8A005EF08F0036E64
:100FE800083600C008F0006A080E035CD8A005EFB8
:100FF80008F0036E0836086A0350D8A4D89011EF99
:1010080008F00350D8B411EF08F0D890023201323A
:1010180000320832032E09EF08F00BBC08A022EFBB
:1010280008F0D8A022EF08F0082AD8B4002AD8B4CB
:10103800012AD8B4022A02BE4CEF08F00AAE48EFE3
:1010480008F0021E011E001E081E082AD8B4002A35
:10105800D8B4012AD8B4022A48EF08F0026A016A13
:10106800006A086A48EF08F00B800BAE53EF08F0EF
:10107800026A0AAE53EF08F0026E016E006E086E47
:101088000A36023253EF08F00C6A000E54EF08F0EB
:10109800010E0C6E000EADEC02F054EF08F0FF0EDE
:1010A8000250036E0150026E0050016E0850006E2F
:0210B800120024
:1010BA00086A096A100E0C6E0134083609360450A3
:1010CA00085E0550D8A0053C095ED8B007D0045088
:1010DA0008260550D8B0053C0926D89000360136B6
:0610EA000C2EEAD71200F3
:1010F000A6C129F1A7C12AF1A8C12BF1A9C12CF1E0
:021100001200DB
:101102000101BB6BBC6BBD6BBE6B1F51A75D02E1E6
:101112001E51A65D01E2BBD1A751215D02E1A6519C
:10112200205D01E2B4D11E51A65D036E1F51A75985
:10113200046E03C000F004C001F0003600900136D6
:10114200003600900136080E3A25C06F000E3B2192
:10115200C16F000E3C21C26F000E3D21C36F0050D3
:10116200C0270150C123000EC223C323040EC46F43
:10117200000EC56FA6EC00F02D0EB96F010EBA6F0E
:10118200B9C1E9FFBAC1EAFFEECFBFF1BFC1BBF1FE
:10119200010EB925E96E000EBA21EA6EEECF04F017
:1011A200000E056E066E076E020EB925E96E000E80
:1011B200BA21EA6EEECF03F003C001F0006A000E1E
:1011C200026E036E045000260550012206500222D0
:1011D2000750032200503A25AD6F01503B21AE6FFC
:1011E20002503C21AF6F03503D21B06FBFC100F0F0
:1011F2000032009E0032009E0032009E000E016E00
:1012020022C104F023C105F030EC01F000C0B3F1BB
:1012120001C0B4F1070EBF15006E04E02251B327DE
:101222002351B423B3C1B7F1B4C1B8F137C1E1FF5F
:1012320038C1E2FFADC1E6FFAEC1E6FFAFC1E6FFD6
:10124200B0C1E6FFB3C1E6FFB4C1E6FFB10EE66E80
:10125200010EE66E35C100F036C101F03CEC00F043
:1012620000C0B9F101C0BAF10101B151AD27B251CB
:10127200AE23000EAF23B023B151B35FB251B45BC2
:10128200B56BB66B4051000AD8A480D02BC1AAF12D
:101292002CC1ABF1A96B000E006E2351005C02E180
:1012A2002251A95D6CE229C1BCF12AC1BDF1AC6B2E
:1012B200A86BBB51A85D5FE2AC51000A4AE1B54B95
:1012C200B62BB851B25D02E1B751B15D38E2B65109
:1012D200B25D02E1B551B15D32E2010EB56F000EB1
:1012E200B66F37C1E1FF38C1E2FFADC1E6FFAEC163
:1012F200E6FFAFC1E6FFB0C1E6FFB3C1E6FFB4C18E
:10130200E6FFB10EE66E010EE66E35C100F036C1A3
:1013120001F03CEC00F000C0B9F101C0BAF1B3C178
:10132200B7F1B4C1B8F10101B151AD27B251AE2349
:10133200000EAF23B023B151B35FB251B45BB9C158
:10134200E9FFBAC1EAFFEECFBEF1B94BBA2B010EEB
:10135200AC6FAC51BE15006E08E0BCC1C0F1AAC1B1
:10136200C1F13EC1C2F153EC02F0BC4BBD2BAC3714
:10137200AC91A82B9ED7AA4BAB2BA92B8CD7010ED5
:10138200BC25296F000EBD212A6F81D029C1AAF187
:101392002AC1ABF1A96B000E006E2351005C02E181
:1013A2002251A95D6EE22BC1BCF12CC1BDF1AC6B27
:1013B200A86BBB51A85D61E2AC51000A4AE1B54B92
:1013C200B62BB851B25D02E1B751B15D38E2B65108
:1013D200B25D02E1B551B15D32E2010EB56F000EB0
:1013E200B66F37C1E1FF38C1E2FFADC1E6FFAEC162
:1013F200E6FFAFC1E6FFB0C1E6FFB3C1E6FFB4C18D
:10140200E6FFB10EE66E010EE66E35C100F036C1A2
:1014120001F03CEC00F000C0B9F101C0BAF1B3C177
:10142200B7F1B4C1B8F10101B151AD27B251AE2348
:10143200000EAF23B023B151B35FB251B45BB9C157
:10144200E9FFBAC1EAFFEECFBEF1B94BBA2B010EEA
:10145200AC6FAC51BE15006E08E0AAC1C0F1BCC1B0
:10146200C1F13EC1C2F153EC02F0010EBC5F000EAD
:10147200BD5BAC37AC91A82B9CD7AA4BAB2BA92B4D
:101482008AD7010EBC5D2B6F000EBD592C6F120066
:101492000101AE6BAF6BB06B0001B851000A0FE1F6
:1014A200460E0101C06F330EC16F000EC26F010EF6
:1014B200C36FC46BBBEC02F0010E0001B86F000EEB
:1014C200006E01011F51005C02E11E51A65D01E2A6
:1014D200E8D0000E215D02E1A651205D01E2E1D0DB
:1014E2001E51A65D016E1FC102F0000E025601C020
:1014F20003F002C004F0033603900436033603906F
:101502000436080E2425006E000E2521016E000E01
:101512002621026E000E056E0050032601500422A1
:101522000250052203C0F6FF04C0F7FF05C0F8FF12
:101532000900F5CFAEF1010E0324F66E000E042071
:10154200F76E000E0520F86E0900F5CF00F000C01E
:1015520006F0000E076E086E096E020E0324F66E88
:10156200000E0420F76E000E0520F86E0900F5CF7C
:1015720003F003C001F0006A000E026E036E065013
:10158200002607500122085002220950032224514A
:101592000024AB6F25510120AC6F26510220AD6FA4
:1015A2004051000A40E12BC1A9F1A86B000E006E68
:1015B2002351005C02E12251A85D2EE229C1AFF164
:1015C200AA6BA76BAE51A75D24E2AA51000A10E1F3
:1015D200ABC1F6FFACC1F7FFADC1F8FF0900F5CF13
:1015E200B0F1010EAB27000EAC23AD23010EAA6FA2
:1015F200AA51B015006E08E0AFC1C0F1A9C1C1F196
:101602003EC1C2F153EC02F0AF2BAA37AA91A72B2D
:10161200D9D7A92BA82BCAD7AF51010F296F2A6B93
:10162200000E2A233ED029C1A9F1A86B000E006E3C
:101632002351005C02E12251A85D2EE22BC1AFF1E1
:10164200AA6BA76BAE51A75D24E2AA51000A10E172
:10165200ABC1F6FFACC1F7FFADC1F8FF0900F5CF92
:10166200B0F1010EAB27000EAC23AD23010EAA6F21
:10167200AA51B015006E08E0A9C1C0F1AFC1C1F115
:101682003EC1C2F153EC02F0AF07AA37AA91A72BD1
:10169200D9D7A92BA82BCAD7AF052B6F2C6B000E5D
:0416A2002C5B1200AB
:1016A60095C199F101019951975D0CE394C1A6F199
:1016B60096C1A7F199C1A8F198C1A9F1D5EC03F09B
:0616C600992BF0D7120081
:1016CC000101A16BA26BA36BA46BA56B94C19DF1E3
:1016DC0095C19EF196C19FF197C1A0F1A051FF0A4F
:1016EC0008E19F51FF0A05E19E51FF0A02E19D515D
:1016FC00FF0A0CE198C1A6F199C1A7F1CA0EA86F17
:10170C00000EA96F14DC030E006E5ED2010E9B6FEF
:10171C009FAF0FD0800E9F19006E00C09FF19B2BC6
:10172C00A22B98C1E1FF99C1E2FF2D0EE66E984BFA
:10173C00992B000E006EA01908E100509F1905E1CD
:10174C0000509E1902E19D51000A0CE198C1A6F1CE
:10175C0099C1A7F1CE0EA86F000EA96F9DEC07F0F2
:10176C00006A32D2A051FF0A08E19F51000A05E13C
:10177C009E51000A02E19D51000A0DE198C1A6F1AB
:10178C0099C1A7F1D00EA86F000EA96F9DEC07F0C0
:10179C009BC100F019D2000E046E000E056E000EF7
:1017AC00066E7F0E076E9DC100F09EC101F09FC1B9
:1017BC0002F0A0C103F06EEC03F0010ED8B0000EE5
:1017CC00006E00521CE09DC100F09EC101F09FC153
:1017DC0002F0A0C103F0000E046E000E056E200E88
:1017EC00066E820E076E0AEC07F000C09DF101C078
:1017FC009EF102C09FF103C0A0F1A507CCD7000E4B
:10180C00046E000E056E200E066E820E076E9DC1D4
:10181C0000F09EC101F09FC102F0A0C103F06EEC7C
:10182C0003F0000ED8B0010E006E00521CE09DC1FA
:10183C0000F09EC101F09FC102F0A0C103F0CD0EDB
:10184C00046ECC0E056E4C0E066E7B0E076E0AEC0B
:10185C0007F000C09DF101C09EF102C09FF103C0D2
:10186C00A0F1A52BCCD7FF0E9D15086EFF0E9E1573
:10187C00096E7F0E9F150A6E000EA0150B6E08C028
:10188C0004F009C005F00AC006F00BC007F00436DE
:10189C000490053606360736000E9D15006E000EB8
:1018AC009E15016E000E9F15026EFF0EA015036EA5
:1018BC0000C09DF101C09EF102C09FF103C0A0F1D8
:1018CC0004509D11006E05509E11016E06509F1123
:1018DC00026E0750A011036E00C09DF101C09EF175
:1018EC0002C09FF103C0A0F17F0EA05D006E00C08E
:1018FC009CF1010EA06F00C004F09DC100F09EC1D0
:10190C0001F09FC102F0A0C103F0045007E00036C3
:10191C000090013602360336FF0FF8D700C09DF158
:10192C0001C09EF102C09FF103C0A0F198C1E1FF7C
:10193C0099C1E2FFA051300FE66E984B992BA22B68
:10194C00800EA519006E800E010A005C08E3800E63
:10195C00060A006E800EA519005C01E30BD098C13D
:10196C00E1FF99C1E2FF2E0EE66E984B992B010E0A
:10197C00A16FA22B060E9C6F9C51000A58E0A06B25
:10198C009DC100F09EC101F09FC102F0A0C103F007
:10199C0000360090013602360336003600900136D0
:1019AC00023603369D5100269E5101229F51022280
:1019BC00A051032200C09DF101C09EF102C09FF115
:1019CC0003C0A0F19DC100F09EC101F09FC102F0C7
:1019DC00A0C103F00036009001360236033600C079
:1019EC009DF101C09EF102C09FF103C0A0F198C10E
:1019FC00E1FF99C1E2FFA051300FE66E984B992B95
:101A0C00A22BA151000A11E1A507A551000A0DE175
:101A1C00010EA46F98C1E1FF99C1E2FF2E0EE66E94
:101A2C00984B992B010EA16FA22B9C07A5D7A45103
:101A3C00010AD8B4A207FF0E9825E96EFF0E992172
:101A4C00EA6EEE502E0A05E1010E985F000E995BCE
:101A5C00A207800E000A006E800EA519005C02E23F
:101A6C00010EA36F800EA519006E800E000A005C9B
:101A7C0002E2020EA36FA5C19CF1800E090A006E52
:101A8C00800EA519005C02E3A32B02D0020EA32743
:101A9C00A351A225016E026A000E0222800E0218CA
:101AAC00006E800E005C02E19A51015C0AE298C162
:101ABC00E1FF99C1E2FF300EE66E984B992BA22BF9
:101ACC00E7D7A551000A43E098C1E1FF99C1E2FFB5
:101ADC00650EE66E984B992B800EA519006E800E44
:101AEC00000A005C0BE298C1E1FF99C1E2FF2D0EE8
:101AFC00E66E984B992BA5510008A56FA5C19CF1DA
:101B0C00800E090A006E800EA519005C0FE20A0E09
:101B1C00046E9CC100F01FEC03F098C1E1FF99C169
:101B2C00E2FF0050300FE66E984B992B0A0E046EB4
:101B3C009CC100F01FEC03F008C000F098C1E1FF5D
:101B4C0099C1E2FF0050300FE66E984B992BA351D0
:101B5C00A225006E00C0A2F19A51005C016E01C07A
:101B6C009CF1800E000A006E800E0118005C0EE2E3
:101B7C00800E000A006E800E9C19005C06E29C0729
:101B8C00010E985F000E995BF3D718D0800E9C194C
:101B9C00006E800E000A005C11E2800E9C19006E33
:101BAC00800E000A005C0AE29C2B98C1E1FF99C1EF
:101BBC00E2FF300EE66E984B992BEFD798C1E1FF00
:0A1BCC0099C1E2FFE66A006A120008
:101BD6000050086E0150006E0250016E0350026EF6
:101BE600036A0B6A0C6A9E0E036E0A6A02AE08EF5F
:101BF6000EF0081E001E011E021E082AD8B4002A76
:101C0600D8B4012AD8B4022A0A8E020E0C6E62ECEF
:041C160001F01200C7
:101C1A000101956B966B976B986B946B640E945D50
:101C2A001BE2020EA66F06EC04F026EC04F095C146
:101C3A0004F096C105F097C106F098C107F0F7ECD9
:101C4A0004F000C095F101C096F102C097F103C0FB
:101C5A0098F10101942BE2D7000E046E000E056E76
:101C6A00480E066E850E076E95C100F096C101F00A
:101C7A0097C102F098C103F03AEC04F0C4EC07F003
:021C8A00120046
:101C8C00808A330E0B6EBB0E0C6EDF0E0D6E0D2E9E
:101C9C00FED70C2EFCD70B2EFAD700000000809A32
:021CAC00120024
:101CAE000101956B966B976B986B946B640E945DBC
:101CBE001AE2A66B06EC04F026EC04F095C104F0D3
:101CCE0096C105F097C106F098C107F0F7EC04F045
:101CDE0000C095F101C096F102C097F103C098F1D2
:101CEE000101942BE3D7000E046E000E056E480E14
:101CFE00066E850E076E95C100F096C101F097C174
:101D0E0002F098C103F03AEC04F0000E046E000EDF
:101D1E00056E200E066E810E076E0AEC07F0C4ECFF
:041D2E0007F01200A8
:101D3200000E0101965D04E396517F0801E301D094
:101D420028D0000E945DD8A0946B94513F0802E213
:101D52003F0E946F000E955DD8A0956B95513F088C
:101D620002E23F0E956F9451955D06E294C198F19F
:101D720095C194F198C195F19451955D0AE396C18C
:101D8200C0F194C1C1F197C1C2F153EC02F0942B9E
:041D9200F3D7120071
:101D96000101986B050E985D0AE298519625E16E51
:101DA600000E9721E26E200EE66E982BF3D798511F
:101DB6009625E16E000E9721E26EE66A9807985125
:101DC6009625996F000E97219A6F0A0E046E000EE3
:101DD600056E94C100F095C101F05DEC08F008C0F5
:101DE60000F009C001F0300E002699C1E1FF9AC14A
:101DF600E2FF00C0E6FF0A0E046E000E056E94C1F7
:101E060000F095C101F05DEC08F000C094F101C04E
:101E160095F1000E011802E1000E001801E102D052
:061E26009807CDD7120061
:041E2C008098120088
:041E30008088120094
:081E3400067EF7EC04F0120039
:101E3C0000C008F00150006E016A026A036A0B6A66
:101E4C000C6A016A026A036A960E036E0A6A00AE95
:101E5C0036EF0FF0081E001E082AD8B4002A0A8E8E
:101E6C0000C001F008C000F0086A026AF7EC00F04C
:021E7C00120052
:101E7E00000E0101975D02E1800E965D01E33CD0FC
:101E8E00000E995D02E1400E985D01E335D09A6B2C
:101E9E009B6B96C1A6F197C1A7F198C1A8F199C104
:101EAE00A9F178EC08F09A519425E96E9B51952191
:101EBE00EA6EEE5221E02751281111E09A51942535
:101ECE00E96E9B519521EA6EEECFA6F1000EA76F3B
:101EDE00000EA76F81EC08F09A4B9B2B0CD09A51F9
:101EEE009425E96E9B519521EA6EEECFA6F149EC51
:0A1EFE000AF09A4B9B2BD7D7120075
:101F08000101966B976B94C103F095C104F094C1DD
:101F180005F095C106F003C0E9FF04C0EAFFEE50E2
:101F2800200A04E19651971101E110D0010E966F35
:101F3800000E976F03C0E9FF04C0EAFF05C0E1FF88
:101F480006C0E2FFEECFE6FF054A062A03C001F00D
:101F580004C002F0034A042A01C0E9FF02C0EAFFF4
:101F6800EE50000AD8E194C100F095C101F01200CA
:101F78000101896B8A6B8B6B8951070845E3CE6B2E
:101F88001FEC00F089C1CEF12DEC00F0CE6B48ECCF
:101F980000F0886B88513F0812E38A518525F66E58
:101FA8008B518621F76E000E8721F86E0900F5CF58
:101FB800CEF135EC00F08A4B8B2B882BEBD7400EFB
:101FC800CE6F1FEC00F089C1CEF12DEC00F0400E71
:101FD800CE6F48EC00F0400E886F88517F0812E3FE
:101FE8008A518525F66E8B518621F76E000E872162
:101FF800F86E0900F5CFCEF135EC00F08A4B8B2B4B
:0A200800882BEBD7892BB8D7120004
:10201200010E0101896F000E8A6F48DEDBDD00C010
:1020220041F101C042F102C043F103C044F1000E8C
:10203200046EC00E056E7F0E066E880E076E3AECB9
:1020420004F0000E046E000E056E480E066E850E3C
:10205200076E0AEC07F000C045F101C046F102C06C
:1020620047F103C048F100C094F101C095F102C0EC
:1020720096F103C097F1490E0101986F010E996F15
:10208200040E9A6F66EC0BF0490E946F010E956F79
:102092003ADF89C100F08AC101F0CFDE85C104F0C8
:1020A20086C105F087C106F088C107F0F7EC04F09D
:1020B20000C004F001C005F002C006F003C007F042
:1020C20041C100F042C101F043C102F044C103F03A
:1020D2006EEC03F0000ED8B0010E006E005227E144
:1020E20089C100F08AC101F0A8DE00C004F001C07D
:1020F20005F002C006F003C007F085C100F086C1FA
:1021020001F087C102F088C103F093DE41C104F0FF
:1021120042C105F043C106F044C107F06EEC03F082
:10212200000ED8B0010E006E005201E144D0460EFE
:10213200946F0F0E956F5C0E966F1E0E976F986BD5
:1021420053EC0BF0500EA66F010EA76F490EA86F4D
:10215200010EA96F9DEC07F0D50E946F000E956FDE
:102162000A0E966F000E976F0F0E986F000E996F02
:1021720085DE490E946F010E956F480E966F000E24
:10218200976F0F0E986F000E996F78DEE30E946FC3
:10219200000E956F5D0E966F000E976F0F0E986F83
:1021A200000E996F6BDE41C185F142C186F143C1D8
:0821B20087F144C188F112001D
:1021BA0085C1A6F187C1A7F186C1A8F189C1A9F194
:1021CA00D5EC03F085C1A6F187C1A7F188C1A8F1B2
:1021DA0089C1A9F1D5EC03F086C194F188C195F1C2
:1021EA0085C196F189C197F19FDD86C194F188C1B5
:0E21FA0095F187C196F189C197F196DD12002B
:10220800819281800101876B8751070810E387C19C
:10221800CEF12DEC00F0866B86513F0806E385C1B0
:10222800CEF135EC00F0862BF7D7872BEDD78190D0
:102238008182876B8751070810E387C1CEF12DECA7
:1022480000F0866B86513F0806E385C1CEF135EC78
:0C22580000F0862BF7D7872BEDD7120083
:10226400000E01018A1902E1000E891909E185C1F4
:10227400C0F187C1C1F18BC1C2F153EC02F0DAD0D5
:10228400906B916B8551875D926F86518859936FDE
:1022940089C18EF18AC18FF189C100F08AC101F030
:1022A40000360090013600C08CF101C08DF1005061
:1022B40003088C6F01C08DF1000E8D57010E8E2521
:1022C400016E000E8F21026E800E9119006E800E39
:1022D4000218005C02E10150905DD8B0ABD090517F
:1022E4008525C06F8E518725C16F8BC1C2F153EC18
:1022F40002F090518525C06F8E51875DC16F8BC1EF
:10230400C2F153EC02F0800E006E800E9119005C55
:1023140002E19051000814E29051855DC06F8E5126
:102324008725C16F8BC1C2F153EC02F09051855DDA
:10233400C06F8E51875DC16F8BC1C2F153EC02F047
:1023440091518F1902E18E51901939E08E518725F0
:10235400C06F9251C05F90518725C16F8BC1C2F18C
:1023640053EC02F08E51875DC06F9251C05F905163
:102374008725C16F8BC1C2F153EC02F0800E006E51
:10238400800E9119005C02E19051000818E28E5110
:102394008725C06F9251C05F9051875DC16F8BC11B
:1023A400C2F153EC02F08E51875DC06F9251C05F51
:1023B4009051875DC16F8BC1C2F153EC02F0800E66
:1023C4008D19006E800E005C02E1000E8C5D13E23C
:1023D40090C100F091C101F0003600900136003642
:1023E40000900136060E0026000E012200508C27B4
:1023F40001508D231CD08E51905D036E8F519159E5
:10240400046E03C000F004C001F0003600900136F1
:102414000036009001360A0E0026000E01220050FC
:102424008C2701508D23010E8E5F000E8F5B904B25
:06243400912B44D71200B9
:10243A0084928480010E0101576F000E586F596B08
:10244A005A6B820E0C6EDD0E0D6E0D2EFED70C2E03
:08245A00FCD700000000120095
:1024620084B216D084A014D08490010E0101576F5B
:10247200000E586F010E596F000E5A6F820E0C6ECD
:10248200DD0E0D6E0D2EFED70C2EFCD700000000C7
:02249200120036
:1024940084B216D084A014D08482010E0101576F37
:1024A400000E586F020E596F000E5A6F820E0C6E9A
:1024B400DD0E0D6E0D2EFED70C2EFCD70000000095
:0224C400120004
:1024C6000F0E0101896F000E8A6F0DEC0EF0EBEC1A
:1024D6000DF000C05FF101C060F102C061F103C000
:1024E60062F1000E046E000E056E700E066E830E0F
:1024F600076E0AEC07F0000E046EC00E056E7F0E26
:10250600066E880E076E3AEC04F000C05BF101C05F
:102516005CF102C05DF103C05EF100C094F101C040
:1025260095F102C096F103C097F1630E0101986F11
:10253600010E996F040E9A6F66EC0BF0630E946FA2
:10254600010E956FDEDC89C100F08AC101F073DCF3
:1025560085C104F086C105F087C106F088C107F081
:10256600F7EC04F000C004F001C005F002C006F06C
:1025760003C007F05FC100F060C101F061C102F065
:1025860062C103F06EEC03F0000ED8B0010E006ECF
:10259600005227E189C100F08AC101F04CDC00C07D
:1025A60004F001C005F002C006F003C007F085C1C3
:1025B60000F086C101F087C102F088C103F037DC64
:1025C6005FC104F060C105F061C106F062C107F0A9
:1025D6006EEC03F0000ED8B0010E006E005201E161
:1025E6003AD0460E946F0F0E956F590E966F1E0ECB
:1025F600976F986B53EC0BF0080E946F010E956F66
:102606000A0E966F000E976F0F0E986F000E996F59
:1026160033DC630E946F010E956F460E966F000EB7
:10262600976F0F0E986F000E996F26DC050E946F4C
:10263600010E956F5A0E966F000E976F0F0E986FDC
:10264600000E996F19DC5FC185F160C186F161C129
:0826560087F162C188F1120056
:10265E0001018B6B8C6B85C18DF186C18EF1800E65
:10266E008619006E800E005C02E1000E855D0BE2A5
:10267E00010E8B6F000E8C6F855100088D6F86C119
:10268E008EF1000E8E578DC194F18EC195F187C1DA
:10269E0096F188C197F1CBEC0EF0060E896F000E05
:1026AE008A6F000E006E8A51005C02E189510008AB
:1026BE0019E289518725E16E8A518821E26E010E59
:1026CE00895D006E000E8A59016E00508725E96EF5
:1026DE0001508821EA6EEECFE6FF010E895F000EF3
:1026EE008A5BDFD787C1E1FF88C1E2FF200EE66E6D
:1026FE008B518C111AE0896B8A6B89518725E96E93
:10270E008A518821EA6EEE50200A03E1894B8A2B0A
:10271E00F4D7010E895F000E8A5B89518725E16E21
:0C272E008A518821E26E2D0EE66E12002A
:0C273A0016EC0FF00001E66BE76B1200DC
:1027460018EC0FF046EC0EF0010E0001E66F000EDD
:06275600E76F80961200FF
:10275C00000E0101741902E1010E73190DE1010E55
:10276C00946F0D0E956F7E0E966F3E0E976F986B55
:0C277C0053EC0BF0736B746BA0DE1200CA
:10278800000E01017D6F000E7E6F700E7F6F840E4C
:10279800806F000E816F000E826F340E836F840E7F
:1027A800846F57EC0EF0EBEC0DF0000E046EC00ECB
:1027B800056E7F0E066E880E076E3AEC04F0000E6A
:1027C800046E000E056E480E066E850E076E0AEC46
:1027D80007F000C079F101C07AF102C07BF103C0B3
:1027E8007CF100C004F001C005F002C006F003C08F
:1027F80007F081C100F082C101F083C102F084C1F9
:1028080003F06EEC03F0000ED8B0010E006E00521B
:10281800D8A480867DC104F07EC105F07FC106F092
:1028280080C107F079C100F07AC101F07BC102F0E4
:102838007CC103F06EEC03F0000ED8B0010E006E00
:082848000052D8A48096120092
:10285000000E0101191902E1010E1819D8A478D04F
:10286000856B866B7F0E876F3F0E886F010E896FB9
:10287000A4DC946B956B7F0E966F0C0E976F010E18
:10288000986F53EC0BF0460EC06F330EC16F000E05
:10289000C26FC36BC46BBBEC02F079C194F17AC117
:1028A00095F11E0E966F000E976F010E986F000E39
:1028B000996F3FEC0FF0760E856F000E866F060E57
:1028C000876F000E886F060E896F000E8A6F020EEA
:1028D0008B6FC8DC000E0001701902E1010E6F1948
:1028E0000FE12A0E0101946F000E956F730E966F23
:1028F000000E976F010E986F000E996F3FEC0FF06E
:10290000000E00018C1902E1010E8B190FE1280E57
:102910000101946F000E956F730E966F000E976F06
:10292000010E986F000E996F3FEC0FF00101460EFB
:10293000C06F330EC16F000EC26F010EC36FC46B48
:10294000BBEC02F0186B196B010E736F000E746F05
:02295000120073
:102952000900F5CFE6FF0006FBE10106F9E11200EE
:102962000101396B276B286B939A939893949396F2
:1029720093929390819A120E006E000E016E830E56
:102982000024E16E0F0E0120E26EE66A81948196C8
:1029920081928180818A3F0E836E14EC00F0C00E1A
:1029A200836E14EC00F0818281903F0E836E14ECF2
:0C29B20000F0C00E836E14EC00F0120068
:1029BE00010E0101A66F06EC04F000C077F101C014
:1029CE0078F1800E026E800E0118025C02E100505A
:1029DE000A080CE2050E0101946F1E0E956F500E43
:1029EE00966F280E976F986B53EC0BF00101000E4B
:1029FE00761902E1010E75194EE178516B1902E15B
:102A0E006A5177190FE0050E946F320E956F640EB2
:102A1E00966F3C0E976F986B53EC0BF077C16AF183
:102A2E0078C16BF177C185F178C186F16C0E876F35
:102A3E00010E886F0DDE6C0E946F010E956F84EC97
:102A4E000FF06C0E946F010E956F280E966F000EA0
:102A5E00976F320E986F000E996F3FEC0FF0FE0ECF
:102A6E00946F000E956F050E966F000E976F320ED7
:102A7E00986F000E996F3FEC0FF0020E0B6E450E25
:102A8E000C6EA90E0D6E0D2EFED70C2EFCD70B2E36
:102A9E00FAD700000000800E7819006E800E005CE0
:102AAE0002E1500E775D19E3800E006E800E7819EC
:102ABE00005C02E17751640810E3E5DCF60E0101DB
:102ACE00946F000E956F050E966F000E976F1E0E8B
:102ADE00986F000E996F3FEC0FF0800E7819006E14
:102AEE00800E005C02E1780E775D18E3800E006EBA
:102AFE00800E7819005C02E177518C080FE396DCAA
:102B0E00E80E946F000E956F050E966F000E976F80
:102B1E001E0E986F000E996F3FEC0FF0800E781915
:102B2E00006E800E005C02E1AA0E775D19E3800E46
:102B3E00006E800E7819005C02E17751BE0810E33A
:102B4E0089DC7C0E0101946F000E956F050E966F59
:102B5E00000E976F1E0E986F000E996F3FEC0FF0E0
:102B6E00800E7819006E800E005C02E1C80E775D53
:102B7E002EE3800E006E800E7819005C02E1775114
:102B8E00DC0825E3810E946F000E956F050E966F8F
:102B9E00000E976F1E0E986F000E996F3FEC0FF0A0
:102BAE00000E00018C1902E1010E8B1910E1000ECE
:102BBE00E71902E1010EE61907E0000EE71902E13E
:102BCE00020EE61901E003D0B1DDE66BE76B800E75
:102BDE0001017819006E800E005C02E1E60E775D51
:102BEE0029E3800E006E800E7819005C02E17751A9
:102BFE00F00820E3710E946F000E956F050E966F20
:102C0E00000E976F1E0E986F000E996F3FEC0FF02F
:102C1E00000E00018C1902E1010E8B190BE1000E62
:102C2E00E71902E1000EE61905E186DD010EE66FF9
:102C3E00000EE76F800E01017819006E800E010AFA
:102C4E00005C02E1360E775D2CE3800E010A006E09
:102C5E00800E7819005C02E177514A0822E3000EDB
:102C6E0000018C1902E1010E8B191BE1640E0101AA
:102C7E00946F000E956F050E966F000E976F1E0ED9
:102C8E00986F000E996F3FEC0FF000018B6B8C6B01
:102C9E00010E6F6F000E706F010E0101186F000EA6
:102CAE00196F0101800E7819006E800E020A005C09
:102CBE0002E14E0E775D2CE3800E020A006E800E4E
:102CCE007819005C02E17751620822E3000E0001E0
:102CDE00701902E1010E6F191BE19F0E0101946F35
:102CEE00000E956F050E966F000E976F1E0E986F65
:102CFE00000E996F3FEC0FF0010E00018B6F000E6E
:102D0E008C6F6F6B706B010E0101186F000E196FD7
:102D1E000101800E7819006E800E020A005C02E13D
:102D2E00A80E775D19E3800E020A006E800E7819E8
:102D3E00005C02E17751BC080FE3A60E946F000E03
:102D4E00956F050E966F000E976F1E0E986F000E04
:102D5E00996F3FEC0FF08078800E7819006E800E20
:102D6E00030A005C02E13E0E775D31E3800E030A3A
:102D7E00006E800E7819005C02E17751520827E34D
:102D8E00AC0E946F000E956F050E966F000E976F3A
:102D9E001E0E986F000E996F3FEC0FF0000E761915
:102DAE0002E1000E751913E1800E1D19006E800EE2
:102DBE001B19005C02E11A511C5D03E21C4B1D2B1A
:102DCE0002D01C6B1D6B010E186F000E196F800E5A
:102DDE007819006E800E030A005C02E1700E775DBA
:102DEE003FE3800E030A006E800E7819005C02E14C
:102DFE007751840835E38D0E946F000E956F050E96
:102E0E00966F000E976F1E0E986F000E996F3FEC27
:102E1E000FF0060E0B6E130E0C6EAD0E0D6E0D2E0C
:102E2E00FED70C2EFCD70B2EFAD7000000007551E2
:102E3E007611010ED8A4000E756F000E766F000E7F
:102E4E00761902E1000E75190BE1050E946F320E24
:102E5E00956F640E966F3C0E976F986B53EC0BF05C
:102E6E00800E7819006E800E030A005C02E1D40E0B
:102E7E00775D34E3800E030A006E800E7819005CD5
:102E8E0002E17751E8082AE3960E946F000E956FD3
:102E9E00050E966F000E976F1E0E986F000E996FAF
:102EAE003FEC0FF0000E761902E1000E751916E1D7
:102EBE00800E006E800E1D19005C02E11C51000890
:102ECE0005E2010E1C5F000E1D5B04D01AC11CF141
:0E2EDE001BC11DF1010E186F000E196F1200BE
:102EEC0084A41FD01DEC12F01A0E0B6E5E0E0C6E2D
:102EFC006E0E0D6E0D2EFED70C2EFCD70B2EFAD7A8
:102F0C00000031EC12F01A0E0B6E5E0E0C6E6E0E93
:102F1C000D6E0D2EFED70C2EFCD70B2EFAD7000003
:042F2C0006DC1200AD
:102F30000101856B04EC11F082A409D0F90E856FB4
:102F4000380E866F000E876FBCEC0FF0F5D7856BDF
:0E2F500004EC11F0010E186F000E196F120044
:102F5E0084B420D0A3EC13F01A0E0B6E5E0E0C6E22
:102F6E006E0E0D6E0D2EFED70C2EFCD70B2EFAD735
:102F7E0000001DEC12F01A0E0B6E5E0E0C6E6E0E35
:102F8E000D6E0D2EFED70C2EFCD70B2EFAD7000091
:062F9E004AEC12F01200E3
:102FA400000E0101741902E1010E731911E1010E01
:102FB400946F0D0E956F7E0E966F3E0E976F986B05
:102FC40053EC0BF0010E576F000E586F736B746B5C
:102FD400000E581902E1010E5719D8A415D1856BBA
:102FE400330E866F7F0E876F3F0E886F010E896FD9
:102FF400DDEC10F0010E946F340E956F7E0E966F1B
:103004003E0E976F986B53EC0BF0EAD0390E946F29
:10301400000E956F060E966F000E976F340E986F24
:10302400000E996F3FEC0FF02B0E946F330E956FDB
:10303400550E966F3E0E976F010E986F53EC0BF082
:10304400460EC06F330EC16F000EC26FC36BC46BEC
:10305400BBEC02F02C0E946F000E956F370E966F3A
:10306400000E976F340E986F000E996F3FEC0FF0BF
:10307400460EC06F330EC16F000EC26F010EC36FD8
:10308400C46BBBEC02F0300E946F000E956F600EB3
:10309400966F000E976F340E986F000E996F3FEC89
:1030A4000FF0576B586BB0D0010E946F330E956FC1
:1030B4002A0E966F3E0E976F010E986F53EC0BF02D
:1030C400460EC06F330EC16F000EC26FC36BC46B6C
:1030D400BBEC02F0340E946F000E956F060E966FE3
:1030E400000E976F340E986F000E996F3FEC0FF03F
:1030F400460EC06F330EC16F000EC26F010EC36F58
:10310400C46BBBEC02F0B40E946F000E956F370ED7
:10311400966F000E976F340E986F000E996F3FEC08
:103124000FF0BD0E946F000E956F600E966F000E3B
:10313400976F340E986F000E996F3FEC0FF0576B3A
:10314400586B62D0C10E946F000E956F060E966F89
:10315400000E976F340E986F000E996F3FEC0FF0CE
:10316400C60E946F000E956F370E966F000E976F14
:10317400340E986F000E996F3FEC0FF0550E946F5C
:10318400330E956F7E0E966F3E0E976F010E986FFD
:1031940053EC0BF0460EC06F330EC16F000EC26FBE
:1031A400C36BC46BBBEC02F0B90E946F000E956F49
:1031B400600E966F000E976F340E986F000E996F25
:1031C4003FEC0FF0460EC06F330EC16F000EC26F9E
:1031D400010EC36FC46BBBEC02F0576B586B14D079
:1031E400000E5A1902E1000E5919D8B40FD7000E77
:1031F4005A1902E1010E5919D8B456D7000E5A19BA
:0A32040002E1020E59199EE01200CB
:10320E00000E0101741902E1010E73190DE1010E98
:10321E00946F0D0E956F7E0E966F3E0E976F986B98
:0E322E0053EC0BF0736B746B09EC10F0120094
:10323C00FBEC1EF0150E0101126F000E136F3E0E0B
:10324C00146F000E156F510E166F000E176F030ED4
:10325C001A6F000E1B6F0C0EC112070EB412070E64
:10326C00926E800E946EF00E956E040E966E816AC0
:10327C00826A836A846AB1EC14F0856B04EC11F0F9
:10328C001C6B1D6B010E186F000E196F756B766B36
:10329C00010E596F000E5A6F80968098809A19D043
:1032AC0012C179F113C17AF128EC14F075DE24D037
:1032BC0014C179F115C17AF128EC14F0A2DF1CD0FD
:1032CC0016C179F117C17AF128EC14F0AEEC13F0B9
:1032DC0013D00101000E1D1902E1000E1C19E0E0D3
:1032EC00000E1D1902E1010E1C19E2E0000E1D1961
:1032FC0002E1020E1C19E4E0DFEC14F0000E0001F8
:10330C00E71902E1000EE61902E1C4EC13F0000E1D
:10331C000001701902E1010E6F1909E1000EE719A5
:10332C0002E1000EE61902E114DE01D0D9DD82A41F
:0A333C0002D0F8DDFCD7B3D7FFD7AD
:103DF60010EE15F0FD0E006E010E016EF90EF66E58
:0E3E06003C0EF76E000EF86EA9EC14F01200E0
:10334600000020007F000B000188010001930100AE
:10335600039E010007A9010005B4010009BF010091
:1033660006D5010001E0010003EB010002F60100B1
:1033760005010200060C02000217020002220200EA
:10338600022D02000338020004430200044E02002C
:103396000459020004640200056F0200047A020068
:1033A6000485020004900200049B020004A60200A9
:1033B60002B1020002BC020006C7020006D20200E9
:1033C60006DD020004E8020007F3020006FE020022
:1033D6000509030006140300061F0300052A03005F
:1033E6000535030006400300064B030003560300A1
:1033F60003610300056C03000477030007820300E2
:10340600068D03000798030005A3030007AE03001B
:1034160005B9030005C4030005CF030006DA03005F
:1034260006E5030007F0030004FB0300050604009D
:1034360004110400021C04000327040002320400E5
:10344600053D04000548040003530400045E04001F
:103456000469040003740400047F0400048A040061
:103466000395040004A0040004AB040001B60400A4
:1034760002C1040004CC040001D7040007E20400E2
:1034860004ED040004F8040004030500040E05001E
:103496000319050003240500022F0500043A050060
:1034A6000545050007500500035B05000566050098
:1034B60003710500037C05000287050003920500E1
:1034C600069D050002A8050000000000000000009F
:1034D60000000000000101010101000100000005DB
:1034E600050500000000000000000024247E143FB3
:1034F600121200000000041E05060C140F0404003E
:10350600000000460029002900D60028012801C431
:10351600000000000000000609091609192600002F
:10352600000101010000000000000000040201018A
:10353600010101010204000001020202020202016D
:103546000004150E1504000000000000000000082D
:10355600083E08080000000000000000000002020B
:103566000100000000000000030000000000000051
:10357600000000000202000000040402020202022F
:1035860001010000000609090909090600000000FA
:103596000406040404040E000000000708080402E0
:1035A600010F0000000007080806080807000000D1
:1035B60000080C0A091F0808000000000F01010797
:1035C60008080700000000060101070909060000B7
:1035D60000000F08040402020100000000060909A9
:1035E60006090906000000000609090E080806007B
:1035F60000000000000202000202000000000000BD
:103606000202000202010000000000201C021C2031
:10361600000000000000003F003F00000000000026
:1036260000021C201C02000000000708080402001B
:1036360002000000001C2259555539021C000000EA
:103646000C0C12123F2121000000000709090F117E
:10365600110F000000001C22010101221C000000C5
:10366600000F11212121110F000000001F01010F81
:1036760001011F000000001F01010F0101010000F0
:1036860000001C22013921223C00000000212121DA
:103696003F2121210000000007020202020207006A
:1036A60000000006040404040403000000001109DD
:1036B6000503050911000000000101010101010FC8
:1036C6000000000063635555494941000000002190
:1036D600232529312121000000001C2241414122DD
:1036E6001C000000000F1111110F01010000000065
:1036F6001C22414141221C106000000F11110F05D0
:103706000911000000001E01010E10100F0000003C
:10371600001F0404040404040000000021212121E8
:1037260021211E0000000021212112120C0C000094
:103736000000494955555522220000000009090696
:103746000606090900000000110A0A040404040020
:103756000000000F08040202010F0000000301012F
:10376600010101010101030001010202020202043A
:103776000400000302020202020202020300000425
:103786000A11000000000000000000000000000018
:1037960000001F00020400000000000000000000FE
:1037A600000006080E090E000000010101070909C4
:1037B60009070000000000000601010106000000E4
:1037C6000808080E0909090E000000000000060995
:1037D6000F010E00000006010107010101010000B2
:1037E600000000000E0909090E0806000101010784
:1037F6000909090900000000010001010101010099
:10380600000000020003020202020201000101019F
:10381600090503050900000001010101010101017B
:103826000000000000003749494949000000000037
:103836000007090909090000000000000609090936
:103846000600000000000007090909070101000041
:1038560000000E0909090E08080000000005030112
:10386600010100000000000007010204070000003B
:103876000000010301010102000000000000090927
:1038860009090E000000000000110A0A0A040000DF
:1038960000000000494955362200000000000005DE
:1038A60002020205000000000000110A0A0A0404D0
:1038B60002000000000704020107000000040202E3
:1038C60002020102020204000202020202020202D3
:1038D60002020001020202020402020201000000CA
:1038E6000000261900000000000000030303030384
:0338F600000000CF
:1038F90000000000000000000000000000000000BF
:1039090000000000000000000000000000000000AE
:10391900000000000000000000000000000000009E
:10392900000000000000000000000000000000008E
:10393900000000000000000000000000000000007E
:10394900000000000000000000000000000000006E
:10395900000000000000000000000000000000005E
:10396900000000000000000000000000000000004E
:10397900000000000000000000000000000000003E
:10398900000000000000000000000000000000002E
:10399900000000000000000000000000000000001E
:1039A900000000000000000000000000000000000E
:1039B90000000000000000000000000000000000FE
:1039C90000000000000000000000000000000000EE
:1039D90000000000000000000000000000000000DE
:1039E90000000000000000000000000000000000CE
:1039F90000000000008080808080808080000000BE
:103A0900808080000000008080800000008080802D
:103A1900808080808000000000808080808080001D
:103A2900000000000000008080808080800000008D
:103A39000080A0B89898B0A0800000008080800025
:103A4900000000008080000000000000808080806D
:103A5900000000000080808080808080800000005D
:103A6900000000808080800000000000000000004D
:103A79000000000000FFFFFF31313131310000004B
:103A8900FFFF073FF0F01F07FFFF000000FFFFFFE8
:103A9900313131313100000000FFFF6161E1F3BFD5
:103AA9001F000000FCFE070301313131F1F3000072
:103AB90000FFFFFF3131313131000000FFFF0F1FDF
:103AC9007CF0C080FFFF0000F8FEFF030301010145
:103AD9000100000000010101FFFF010101000000D8
:103AE90000E0FC9F8387BFFCE000000000000000AD
:103AF90000000000000F0F0F0C0C0C0C0C00000054
:103B09000F0F0000000000000F0F0000000F0F0F43
:103B19000C0C0C0C0C000000000F0F000000030F30
:103B29000E0800000107070E0C0C0C0C0F07000013
:103B3900000F0F0F0C0C0C0C0C0000000F0F0000F5
:103B49000001070F0F0F00000103070E0C0C0C0CEE
:103B590006000000000C0C0C0F0F0C0C0C000008E8
:103B69000F0F0101010101030F0F00000000000008
:103B7900000000000000000000000000000000003C
:103B8900000000000000000000000000000000002C
:103B9900000000000000000000000000000000001C
:103BA900000000000000000000000000000000000C
:103BB90000000000000000000000000000000000FC
:103BC90000000000000000000000000000000000EC
:103BD90000000000000000000000000000000000DC
:103BE90000000000000000000000000000000000CC
:103BF90000000000000000000000000000000000BC
:103C090000000000000000000000000000000000AB
:103C1900000000000000000000000000000000009B
:103C2900000000000000000000000000000000008B
:103C3900000000000000000000000000000000007B
:103C4900000000000000000000000000000000006B
:103C5900000000000000000000000000000000005B
:103C6900000000000000000000000000000000004B
:103C7900000000000000000000000000000000003B
:103C8900000000000000000000000000000000002B
:103C9900000000000000000000000000000000001B
:103CA900000000000000000000000000000000000B
:103CB90000000000000000000000000000000000FB
:103CC90000000000000000000000000000000000EB
:103CD90000000000000000000000000000000000DB
:103CE90000000000000000000000000000000000CB
:103CF90020202030202D205072696E636970616C1C
:033D090020200077
:023D0C004D0068
:023D0E00410072
:043D10004F464600D4
:043D1400474D4700D0
:053D1800524544450086
:053D1D00524544450081
:103D22002031202D2054656D706572617475726149
:033D32002020004E
:103D350032202D2054656E73616F20426174657267
:033D4500696100B1
:0B3D48004175746F6D617469636F005A
:023D530000006E
:0B3D550050617274697220474D4700F6
:053D60005265646500DE
:0A3D6500506172617220474D470063
:023D6F00010051
:093D710043616C69627261720029
:093D7A0045737175657264610006
:073D83004D616E75616C00DB
:063D8A0052657365740030
:083D9000446972656974610069
:043D98004F4646004C
:013D9C000026
:043D9D00474D470047
:043DA100474D470043
:053DA5005245444500F9
:043DAA004F4646003A
:043DAE004E614E0014
:023DB2003000DF
:043DB400494E46002E
:013DB80030DA
:0E3DB90054656D70657261747572613A200018
:033DC70043200096
:023DCA000000F7
:0E3DCC004465736C6967612043617267610032
:083DDA0047657261646F72001D
:073DE200426F74616F3A00AB
:033DE90056200061
:0A3DEC00426174657269613A2000BB
:020000040030CA
:0E000000044C191EFF0380FF0FC00FE00F40DD
:00000001FF
